{
	"data": {
		"bytecode": {
			"linkReferences": {},
			"object": "608060405260006003556000600455600060065560405162006f7338038062006f73833981810160405281019062000038919062000795565b806200004a816200014760201b60201c565b508282111562000091576040517f08c379a0000000000000000000000000000000000000000000000000000000008152600401620000889062000897565b60405180910390fd5b826003819055508160058190555060005b838110156200013d57604051806040016040528082815260200160011515815250600760008381526020019081526020016000206000820151816000015560208201518160010160006101000a81548160ff0219169083151502179055509050506200012733826001604051806020016040528060008152506200015c60201b60201c565b80806200013490620008e8565b915050620000a2565b50505050620011b6565b806002908162000158919062000b76565b5050565b600073ffffffffffffffffffffffffffffffffffffffff168473ffffffffffffffffffffffffffffffffffffffff1603620001ce576040517f08c379a0000000000000000000000000000000000000000000000000000000008152600401620001c59062000cd3565b60405180910390fd5b6000620001e06200032060201b60201c565b90506200021981600087620001fb886200032860201b60201c565b6200020c886200032860201b60201c565b87620003a960201b60201c565b8260008086815260200190815260200160002060008773ffffffffffffffffffffffffffffffffffffffff1673ffffffffffffffffffffffffffffffffffffffff16815260200190815260200160002060008282546200027a919062000cf5565b925050819055508473ffffffffffffffffffffffffffffffffffffffff16600073ffffffffffffffffffffffffffffffffffffffff168273ffffffffffffffffffffffffffffffffffffffff167fc3d58168c5ae7397731d063d5bbf3d657854427343f4c083240f7aacaa2d0f628787604051620002fa92919062000d63565b60405180910390a46200031981600087878787620003b160201b60201c565b5050505050565b600033905090565b60606000600167ffffffffffffffff8111156200034a576200034962000627565b5b604051908082528060200260200182016040528015620003795781602001602082028036833780820191505090505b509050828160008151811062000394576200039362000d90565b5b60200260200101818152505080915050919050565b505050505050565b620003dd8473ffffffffffffffffffffffffffffffffffffffff16620005aa60201b620021e31760201c565b15620005a2578373ffffffffffffffffffffffffffffffffffffffff1663f23a6e6187878686866040518663ffffffff1660e01b81526004016200042695949392919062000e61565b6020604051808303816000875af19250505080156200046557506040513d601f19601f8201168201806040525081019062000462919062000f22565b60015b62000516576200047462000f61565b806308c379a003620004d757506200048b62000f86565b80620004985750620004d9565b806040517f08c379a0000000000000000000000000000000000000000000000000000000008152600401620004ce919062001062565b60405180910390fd5b505b6040517f08c379a00000000000000000000000000000000000000000000000000000000081526004016200050d90620010fc565b60405180910390fd5b63f23a6e6160e01b7bffffffffffffffffffffffffffffffffffffffffffffffffffffffff1916817bffffffffffffffffffffffffffffffffffffffffffffffffffffffff191614620005a0576040517f08c379a0000000000000000000000000000000000000000000000000000000008152600401620005979062001194565b60405180910390fd5b505b505050505050565b600080823b905060008111915050919050565b6000604051905090565b600080fd5b600080fd5b6000819050919050565b620005e681620005d1565b8114620005f257600080fd5b50565b6000815190506200060681620005db565b92915050565b600080fd5b600080fd5b6000601f19601f8301169050919050565b7f4e487b7100000000000000000000000000000000000000000000000000000000600052604160045260246000fd5b620006618262000616565b810181811067ffffffffffffffff8211171562000683576200068262000627565b5b80604052505050565b600062000698620005bd565b9050620006a6828262000656565b919050565b600067ffffffffffffffff821115620006c957620006c862000627565b5b620006d48262000616565b9050602081019050919050565b60005b8381101562000701578082015181840152602081019050620006e4565b8381111562000711576000848401525b50505050565b60006200072e6200072884620006ab565b6200068c565b9050828152602081018484840111156200074d576200074c62000611565b5b6200075a848285620006e1565b509392505050565b600082601f8301126200077a57620007796200060c565b5b81516200078c84826020860162000717565b91505092915050565b600080600060608486031215620007b157620007b0620005c7565b5b6000620007c186828701620005f5565b9350506020620007d486828701620005f5565b925050604084015167ffffffffffffffff811115620007f857620007f7620005cc565b5b620008068682870162000762565b9150509250925092565b600082825260208201905092915050565b7f796f752063616e742068617665206d6f726520766f746573206e65656465642060008201527f7468616e206b6579732063726561746564000000000000000000000000000000602082015250565b60006200087f60318362000810565b91506200088c8262000821565b604082019050919050565b60006020820190508181036000830152620008b28162000870565b9050919050565b7f4e487b7100000000000000000000000000000000000000000000000000000000600052601160045260246000fd5b6000620008f582620005d1565b91507fffffffffffffffffffffffffffffffffffffffffffffffffffffffffffffffff82036200092a5762000929620008b9565b5b600182019050919050565b600081519050919050565b7f4e487b7100000000000000000000000000000000000000000000000000000000600052602260045260246000fd5b600060028204905060018216806200098857607f821691505b6020821081036200099e576200099d62000940565b5b50919050565b60008190508160005260206000209050919050565b60006020601f8301049050919050565b600082821b905092915050565b60006008830262000a087fffffffffffffffffffffffffffffffffffffffffffffffffffffffffffffffff82620009c9565b62000a148683620009c9565b95508019841693508086168417925050509392505050565b6000819050919050565b600062000a5762000a5162000a4b84620005d1565b62000a2c565b620005d1565b9050919050565b6000819050919050565b62000a738362000a36565b62000a8b62000a828262000a5e565b848454620009d6565b825550505050565b600090565b62000aa262000a93565b62000aaf81848462000a68565b505050565b5b8181101562000ad75762000acb60008262000a98565b60018101905062000ab5565b5050565b601f82111562000b265762000af081620009a4565b62000afb84620009b9565b8101602085101562000b0b578190505b62000b2362000b1a85620009b9565b83018262000ab4565b50505b505050565b600082821c905092915050565b600062000b4b6000198460080262000b2b565b1980831691505092915050565b600062000b66838362000b38565b9150826002028217905092915050565b62000b818262000935565b67ffffffffffffffff81111562000b9d5762000b9c62000627565b5b62000ba982546200096f565b62000bb682828562000adb565b600060209050601f83116001811462000bee576000841562000bd9578287015190505b62000be5858262000b58565b86555062000c55565b601f19841662000bfe86620009a4565b60005b8281101562000c285784890151825560018201915060208501945060208101905062000c01565b8683101562000c48578489015162000c44601f89168262000b38565b8355505b6001600288020188555050505b505050505050565b7f455243313135353a206d696e7420746f20746865207a65726f2061646472657360008201527f7300000000000000000000000000000000000000000000000000000000000000602082015250565b600062000cbb60218362000810565b915062000cc88262000c5d565b604082019050919050565b6000602082019050818103600083015262000cee8162000cac565b9050919050565b600062000d0282620005d1565b915062000d0f83620005d1565b9250827fffffffffffffffffffffffffffffffffffffffffffffffffffffffffffffffff0382111562000d475762000d46620008b9565b5b828201905092915050565b62000d5d81620005d1565b82525050565b600060408201905062000d7a600083018562000d52565b62000d89602083018462000d52565b9392505050565b7f4e487b7100000000000000000000000000000000000000000000000000000000600052603260045260246000fd5b600073ffffffffffffffffffffffffffffffffffffffff82169050919050565b600062000dec8262000dbf565b9050919050565b62000dfe8162000ddf565b82525050565b600081519050919050565b600082825260208201905092915050565b600062000e2d8262000e04565b62000e39818562000e0f565b935062000e4b818560208601620006e1565b62000e568162000616565b840191505092915050565b600060a08201905062000e78600083018862000df3565b62000e87602083018762000df3565b62000e96604083018662000d52565b62000ea5606083018562000d52565b818103608083015262000eb9818462000e20565b90509695505050505050565b60007fffffffff0000000000000000000000000000000000000000000000000000000082169050919050565b62000efc8162000ec5565b811462000f0857600080fd5b50565b60008151905062000f1c8162000ef1565b92915050565b60006020828403121562000f3b5762000f3a620005c7565b5b600062000f4b8482850162000f0b565b91505092915050565b60008160e01c9050919050565b600060033d111562000f835760046000803e62000f8060005162000f54565b90505b90565b600060443d106200101e5762000f9b620005bd565b60043d036004823e80513d602482011167ffffffffffffffff8211171562000fc55750506200101e565b808201805167ffffffffffffffff81111562000fe557505050506200101e565b80602083010160043d038501811115620010045750505050506200101e565b620010158260200185018662000656565b82955050505050505b90565b60006200102e8262000935565b6200103a818562000810565b93506200104c818560208601620006e1565b620010578162000616565b840191505092915050565b600060208201905081810360008301526200107e818462001021565b905092915050565b7f455243313135353a207472616e7366657220746f206e6f6e204552433131353560008201527f526563656976657220696d706c656d656e746572000000000000000000000000602082015250565b6000620010e460348362000810565b9150620010f18262001086565b604082019050919050565b600060208201905081810360008301526200111781620010d5565b9050919050565b7f455243313135353a204552433131353552656365697665722072656a6563746560008201527f6420746f6b656e73000000000000000000000000000000000000000000000000602082015250565b60006200117c60288362000810565b915062001189826200111e565b604082019050919050565b60006020820190508181036000830152620011af816200116d565b9050919050565b615dad80620011c66000396000f3fe6080604052600436106101225760003560e01c8063a22cb465116100a0578063f23a6e6111610064578063f23a6e611461048c578063f242432a146104c9578063f3e394e8146104f2578063f84eef0b14610531578063fbcc9b991461056e57610162565b8063a22cb46514610393578063bc197c81146103bc578063cc0225a0146103f9578063cedb980f14610424578063e985e9c51461044f57610162565b80632eb2c2d6116100e75780632eb2c2d614610286578063488bdabc146102af5780634e1273f4146102da5780634eb4b1a11461031757806372ed02bc1461035657610162565b8062fdd58e1461016757806301ffc9a7146101a45780630e89341c146101e1578063108755e91461021e578063150b7a021461024957610162565b36610162577f88a5966d370b9919b20f3e2c13ff65706f196a4e32cc2c12bf57088f885258743334604051610158929190613766565b60405180910390a1005b600080fd5b34801561017357600080fd5b5061018e600480360381019061018991906137fb565b610599565b60405161019b919061383b565b60405180910390f35b3480156101b057600080fd5b506101cb60048036038101906101c691906138ae565b610661565b6040516101d891906138f6565b60405180910390f35b3480156101ed57600080fd5b5061020860048036038101906102039190613911565b610743565b60405161021591906139d7565b60405180910390f35b34801561022a57600080fd5b506102336107d7565b6040516102409190613c44565b60405180910390f35b34801561025557600080fd5b50610270600480360381019061026b9190613d9b565b610bc1565b60405161027d9190613e2d565b60405180910390f35b34801561029257600080fd5b506102ad60048036038101906102a89190613f10565b610bd5565b005b3480156102bb57600080fd5b506102c4610c76565b6040516102d1919061383b565b60405180910390f35b3480156102e657600080fd5b5061030160048036038101906102fc91906140a2565b610c7c565b60405161030e91906141c9565b60405180910390f35b34801561032357600080fd5b5061033e60048036038101906103399190614217565b610d95565b60405161034d9392919061426a565b60405180910390f35b34801561036257600080fd5b5061037d6004803603810190610378919061442a565b611095565b60405161038a91906138f6565b60405180910390f35b34801561039f57600080fd5b506103ba60048036038101906103b591906144d1565b611b20565b005b3480156103c857600080fd5b506103e360048036038101906103de9190613f10565b611b36565b6040516103f09190613e2d565b60405180910390f35b34801561040557600080fd5b5061040e611b4b565b60405161041b919061383b565b60405180910390f35b34801561043057600080fd5b50610439611b51565b604051610446919061383b565b60405180910390f35b34801561045b57600080fd5b5061047660048036038101906104719190614511565b611b57565b60405161048391906138f6565b60405180910390f35b34801561049857600080fd5b506104b360048036038101906104ae9190614551565b611beb565b6040516104c09190613e2d565b60405180910390f35b3480156104d557600080fd5b506104f060048036038101906104eb9190614551565b611c00565b005b3480156104fe57600080fd5b50610519600480360381019061051491906145e8565b611ca1565b60405161052893929190614628565b60405180910390f35b34801561053d57600080fd5b50610558600480360381019061055391906145e8565b611dc3565b60405161056591906139d7565b60405180910390f35b34801561057a57600080fd5b506105836121dd565b604051610590919061383b565b60405180910390f35b60008073ffffffffffffffffffffffffffffffffffffffff168373ffffffffffffffffffffffffffffffffffffffff1603610609576040517f08c379a0000000000000000000000000000000000000000000000000000000008152600401610600906146d1565b60405180910390fd5b60008083815260200190815260200160002060008473ffffffffffffffffffffffffffffffffffffffff1673ffffffffffffffffffffffffffffffffffffffff16815260200190815260200160002054905092915050565b60007fd9b67a26000000000000000000000000000000000000000000000000000000007bffffffffffffffffffffffffffffffffffffffffffffffffffffffff1916827bffffffffffffffffffffffffffffffffffffffffffffffffffffffff1916148061072c57507f0e89341c000000000000000000000000000000000000000000000000000000007bffffffffffffffffffffffffffffffffffffffffffffffffffffffff1916827bffffffffffffffffffffffffffffffffffffffffffffffffffffffff1916145b8061073c575061073b826121f6565b5b9050919050565b60606002805461075290614720565b80601f016020809104026020016040519081016040528092919081815260200182805461077e90614720565b80156107cb5780601f106107a0576101008083540402835291602001916107cb565b820191906000526020600020905b8154815290600101906020018083116107ae57829003601f168201915b50505050509050919050565b60606000806107e533612260565b915091506001151582151514610830576040517f08c379a0000000000000000000000000000000000000000000000000000000008152600401610827906147c3565b60405180910390fd5b600060045467ffffffffffffffff81111561084e5761084d613c70565b5b60405190808252806020026020018201604052801561088757816020015b61087461367b565b81526020019060019003908161086c5790505b50905060005b600454811015610bb75760006009600083815260200190815260200160002090508060405180610180016040529081600082015481526020016001820160009054906101000a900473ffffffffffffffffffffffffffffffffffffffff1673ffffffffffffffffffffffffffffffffffffffff1673ffffffffffffffffffffffffffffffffffffffff16815260200160028201805461092b90614720565b80601f016020809104026020016040519081016040528092919081815260200182805461095790614720565b80156109a45780601f10610979576101008083540402835291602001916109a4565b820191906000526020600020905b81548152906001019060200180831161098757829003601f168201915b505050505081526020016003820180546109bd90614720565b80601f01602080910402602001604051908101604052809291908181526020018280546109e990614720565b8015610a365780601f10610a0b57610100808354040283529160200191610a36565b820191906000526020600020905b815481529060010190602001808311610a1957829003601f168201915b505050505081526020016004820160009054906101000a900460ff161515151581526020016005820154815260200160068201548152602001600782015481526020016008820160009054906101000a900460ff161515151581526020016008820160019054906101000a900473ffffffffffffffffffffffffffffffffffffffff1673ffffffffffffffffffffffffffffffffffffffff1673ffffffffffffffffffffffffffffffffffffffff16815260200160098201548152602001600a82018054610b0390614720565b80601f0160208091040260200160405190810160405280929190818152602001828054610b2f90614720565b8015610b7c5780601f10610b5157610100808354040283529160200191610b7c565b820191906000526020600020905b815481529060010190602001808311610b5f57829003601f168201915b505050505081525050838381518110610b9857610b976147e3565b5b6020026020010181905250508080610baf90614841565b91505061088d565b5080935050505090565b600063150b7a0260e01b9050949350505050565b610bdd6122be565b73ffffffffffffffffffffffffffffffffffffffff168573ffffffffffffffffffffffffffffffffffffffff161480610c235750610c2285610c1d6122be565b611b57565b5b610c62576040517f08c379a0000000000000000000000000000000000000000000000000000000008152600401610c59906148fb565b60405180910390fd5b610c6f85858585856122c6565b5050505050565b60035481565b60608151835114610cc2576040517f08c379a0000000000000000000000000000000000000000000000000000000008152600401610cb99061498d565b60405180910390fd5b6000835167ffffffffffffffff811115610cdf57610cde613c70565b5b604051908082528060200260200182016040528015610d0d5781602001602082028036833780820191505090505b50905060005b8451811015610d8a57610d5a858281518110610d3257610d316147e3565b5b6020026020010151858381518110610d4d57610d4c6147e3565b5b6020026020010151610599565b828281518110610d6d57610d6c6147e3565b5b60200260200101818152505080610d8390614841565b9050610d13565b508091505092915050565b6000806060600080610da633612260565b915091506001151582151514610df1576040517f08c379a0000000000000000000000000000000000000000000000000000000008152600401610de8906147c3565b60405180910390fd5b6060610dfc896125d9565b610e05886125d9565b604051602001610e16929190614a35565b604051602081830303815290604052905060001515600960008b815260200190815260200160002060040160009054906101000a900460ff16151514610e91576040517f08c379a0000000000000000000000000000000000000000000000000000000008152600401610e8890614afc565b60405180910390fd5b60001515600882604051610ea59190614b1c565b908152602001604051809103902060010160019054906101000a900460ff16151514610f06576040517f08c379a0000000000000000000000000000000000000000000000000000000008152600401610efd90614b7f565b60405180910390fd5b60011515610f1388612739565b151514610f55576040517f08c379a0000000000000000000000000000000000000000000000000000000008152600401610f4c90614c11565b60405180910390fd5b6040518060600160405280888152602001891515815260200160011515815250600882604051610f859190614b1c565b90815260200160405180910390206000820151816000015560208201518160010160006101000a81548160ff02191690831515021790555060408201518160010160016101000a81548160ff021916908315150217905550905050600115158815150361101d57600960008a8152602001908152602001600020600501600081548092919061101390614841565b919050555061104a565b600960008a8152602001908152602001600020600601600081548092919061104490614841565b91905055505b611053896127a8565b50600960008a815260200190815260200160002060050154600960008b8152602001908152602001600020600601548295509550955050505093509350939050565b60008060006110a333612260565b9150915060011515821515146110ee576040517f08c379a00000000000000000000000000000000000000000000000000000000081526004016110e5906147c3565b60405180910390fd5b60018551036114bb578560008151811061110b5761110a6147e3565b5b602002602001015185600181518110611127576111266147e3565b5b602002602001015173ffffffffffffffffffffffffffffffffffffffff166370a08231306040518263ffffffff1660e01b81526004016111679190614c31565b602060405180830381865afa158015611184573d6000803e3d6000fd5b505050506040513d601f19601f820116820180604052508101906111a89190614c61565b10156111e9576040517f08c379a00000000000000000000000000000000000000000000000000000000081526004016111e090614cda565b60405180910390fd5b60405180610180016040528087600081518110611209576112086147e3565b5b602002602001015181526020018660008151811061122a576112296147e3565b5b602002602001015173ffffffffffffffffffffffffffffffffffffffff16815260200185600081518110611261576112606147e3565b5b6020026020010151815260200185600181518110611282576112816147e3565b5b60200260200101518152602001600015158152602001600081526020016000815260200160008152602001600115158152602001600073ffffffffffffffffffffffffffffffffffffffff168152602001600081526020016113008651876002815181106112f3576112f26147e3565b5b6020026020010151612874565b8152506009600060045481526020019081526020016000206000820151816000015560208201518160010160006101000a81548173ffffffffffffffffffffffffffffffffffffffff021916908373ffffffffffffffffffffffffffffffffffffffff160217905550604082015181600201908161137e9190614ea6565b5060608201518160030190816113949190614ea6565b5060808201518160040160006101000a81548160ff02191690831515021790555060a0820151816005015560c0820151816006015560e082015181600701556101008201518160080160006101000a81548160ff0219169083151502179055506101208201518160080160016101000a81548173ffffffffffffffffffffffffffffffffffffffff021916908373ffffffffffffffffffffffffffffffffffffffff160217905550610140820151816009015561016082015181600a01908161145d9190614ea6565b509050507fd4ee4c40018e17ae8df92f575f9b7219d84988c16520c1f82d71873c99108a9c6004546040516114929190614fc4565b60405180910390a1600460008154809291906114ad90614841565b919050555060019250611b17565b600285511480156114cd575060018651145b1561180657856000815181106114e6576114e56147e3565b5b6020026020010151471015611530576040517f08c379a00000000000000000000000000000000000000000000000000000000081526004016115279061503e565b60405180910390fd5b604051806101800160405280876000815181106115505761154f6147e3565b5b6020026020010151815260200186600081518110611571576115706147e3565b5b602002602001015173ffffffffffffffffffffffffffffffffffffffff168152602001856000815181106115a8576115a76147e3565b5b60200260200101518152602001856001815181106115c9576115c86147e3565b5b6020026020010151815260200160001515815260200160008152602001600081526020016000815260200160011515815260200186600181518110611611576116106147e3565b5b602002602001015173ffffffffffffffffffffffffffffffffffffffff16815260200160008152602001604051806020016040528060008152508152506009600060045481526020019081526020016000206000820151816000015560208201518160010160006101000a81548173ffffffffffffffffffffffffffffffffffffffff021916908373ffffffffffffffffffffffffffffffffffffffff16021790555060408201518160020190816116c99190614ea6565b5060608201518160030190816116df9190614ea6565b5060808201518160040160006101000a81548160ff02191690831515021790555060a0820151816005015560c0820151816006015560e082015181600701556101008201518160080160006101000a81548160ff0219169083151502179055506101208201518160080160016101000a81548173ffffffffffffffffffffffffffffffffffffffff021916908373ffffffffffffffffffffffffffffffffffffffff160217905550610140820151816009015561016082015181600a0190816117a89190614ea6565b509050507fd4ee4c40018e17ae8df92f575f9b7219d84988c16520c1f82d71873c99108a9c6004546040516117dd91906150aa565b60405180910390a1600460008154809291906117f890614841565b919050555060019250611b17565b60028651148015611818575060028651145b15611b09576040518061018001604052808760008151811061183d5761183c6147e3565b5b602002602001015181526020018660008151811061185e5761185d6147e3565b5b602002602001015173ffffffffffffffffffffffffffffffffffffffff16815260200185600081518110611895576118946147e3565b5b60200260200101518152602001856001815181106118b6576118b56147e3565b5b60200260200101518152602001600015158152602001600081526020016000815260200160008152602001600115158152602001866001815181106118fe576118fd6147e3565b5b602002602001015173ffffffffffffffffffffffffffffffffffffffff16815260200187600181518110611935576119346147e3565b5b60200260200101518152602001604051806020016040528060008152508152506009600060045481526020019081526020016000206000820151816000015560208201518160010160006101000a81548173ffffffffffffffffffffffffffffffffffffffff021916908373ffffffffffffffffffffffffffffffffffffffff16021790555060408201518160020190816119d09190614ea6565b5060608201518160030190816119e69190614ea6565b5060808201518160040160006101000a81548160ff02191690831515021790555060a0820151816005015560c0820151816006015560e082015181600701556101008201518160080160006101000a81548160ff0219169083151502179055506101208201518160080160016101000a81548173ffffffffffffffffffffffffffffffffffffffff021916908373ffffffffffffffffffffffffffffffffffffffff160217905550610140820151816009015561016082015181600a019081611aaf9190614ea6565b509050507fd4ee4c40018e17ae8df92f575f9b7219d84988c16520c1f82d71873c99108a9c600454604051611ae4919061514a565b60405180910390a160046000815480929190611aff90614841565b9190505550611b12565b60009250611b17565b600192505b50509392505050565b611b32611b2b6122be565b838361289f565b5050565b600063bc197c8160e01b905095945050505050565b60045481565b60055481565b6000600160008473ffffffffffffffffffffffffffffffffffffffff1673ffffffffffffffffffffffffffffffffffffffff16815260200190815260200160002060008373ffffffffffffffffffffffffffffffffffffffff1673ffffffffffffffffffffffffffffffffffffffff16815260200190815260200160002060009054906101000a900460ff16905092915050565b600063f23a6e6160e01b905095945050505050565b611c086122be565b73ffffffffffffffffffffffffffffffffffffffff168573ffffffffffffffffffffffffffffffffffffffff161480611c4e5750611c4d85611c486122be565b611b57565b5b611c8d576040517f08c379a0000000000000000000000000000000000000000000000000000000008152600401611c84906151ea565b60405180910390fd5b611c9a8585858585612a0b565b5050505050565b6000806000806000611cb233612260565b915091506001151582151514611cfd576040517f08c379a0000000000000000000000000000000000000000000000000000000008152600401611cf4906147c3565b60405180910390fd5b6060611d08876125d9565b611d11896125d9565b604051602001611d22929190614a35565b6040516020818303038152906040529050600881604051611d439190614b1c565b908152602001604051809103902060000154600882604051611d659190614b1c565b908152602001604051809103902060010160009054906101000a900460ff16600883604051611d949190614b1c565b908152602001604051809103902060010160019054906101000a900460ff169550955095505050509250925092565b6060600080611dd133612260565b915091506001151582151514611e1c576040517f08c379a0000000000000000000000000000000000000000000000000000000008152600401611e13906147c3565b60405180910390fd5b6000611e27866125d9565b611e30866125d9565b604051602001611e41929190614a35565b6040516020818303038152906040529050600015156009600088815260200190815260200160002060040160009054906101000a900460ff161515148015611eb05750600115156009600088815260200190815260200160002060080160009054906101000a900460ff161515145b611eef576040517f08c379a0000000000000000000000000000000000000000000000000000000008152600401611ee690615256565b60405180910390fd5b60011515600882604051611f039190614b1c565b908152602001604051809103902060010160019054906101000a900460ff16151514611f64576040517f08c379a0000000000000000000000000000000000000000000000000000000008152600401611f5b906152c2565b60405180910390fd5b60011515611f7186612739565b151514611fb3576040517f08c379a0000000000000000000000000000000000000000000000000000000008152600401611faa90614c11565b60405180910390fd5b60011515600882604051611fc79190614b1c565b908152602001604051809103902060010160009054906101000a900460ff161515036120e357600960008781526020019081526020016000206005016000815480929190612014906152e2565b919050555060405180606001604052808681526020016000151581526020016000151581525060088260405161204a9190614b1c565b90815260200160405180910390206000820151816000015560208201518160010160006101000a81548160ff02191690831515021790555060408201518160010160016101000a81548160ff0219169083151502179055509050506040518060400160405280601581526020017f566f74652052656d6f76656420506173733a202d3100000000000000000000008152509350506121d5565b60096000878152602001908152602001600020600601600081548092919061210a906152e2565b91905055506040518060600160405280868152602001600015158152602001600015158152506008826040516121409190614b1c565b90815260200160405180910390206000820151816000015560208201518160010160006101000a81548160ff02191690831515021790555060408201518160010160016101000a81548160ff0219169083151502179055509050506040518060400160405280601581526020017f566f74652052656d6f766564204661696c3a202d3100000000000000000000008152509350505b505092915050565b60065481565b600080823b905060008111915050919050565b60007f01ffc9a7000000000000000000000000000000000000000000000000000000007bffffffffffffffffffffffffffffffffffffffffffffffffffffffff1916827bffffffffffffffffffffffffffffffffffffffffffffffffffffffff1916149050919050565b60008060005b60035481116122b757600061227b8583610599565b111561228e5760018192509250506122b9565b60035481036122a45760008192509250506122b9565b80806122af90614841565b915050612266565b505b915091565b600033905090565b815183511461230a576040517f08c379a00000000000000000000000000000000000000000000000000000000081526004016123019061537d565b60405180910390fd5b600073ffffffffffffffffffffffffffffffffffffffff168473ffffffffffffffffffffffffffffffffffffffff1603612379576040517f08c379a00000000000000000000000000000000000000000000000000000000081526004016123709061540f565b60405180910390fd5b60006123836122be565b9050612393818787878787612c8c565b60005b84518110156125445760008582815181106123b4576123b36147e3565b5b6020026020010151905060008583815181106123d3576123d26147e3565b5b60200260200101519050600080600084815260200190815260200160002060008b73ffffffffffffffffffffffffffffffffffffffff1673ffffffffffffffffffffffffffffffffffffffff16815260200190815260200160002054905081811015612474576040517f08c379a000000000000000000000000000000000000000000000000000000000815260040161246b906154a1565b60405180910390fd5b81810360008085815260200190815260200160002060008c73ffffffffffffffffffffffffffffffffffffffff1673ffffffffffffffffffffffffffffffffffffffff168152602001908152602001600020819055508160008085815260200190815260200160002060008b73ffffffffffffffffffffffffffffffffffffffff1673ffffffffffffffffffffffffffffffffffffffff168152602001908152602001600020600082825461252991906154c1565b925050819055505050508061253d90614841565b9050612396565b508473ffffffffffffffffffffffffffffffffffffffff168673ffffffffffffffffffffffffffffffffffffffff168273ffffffffffffffffffffffffffffffffffffffff167f4a39dc06d4c0dbc64b70af90fd698a233a518aa5d07e595d983b8c0526c8f7fb87876040516125bb929190615517565b60405180910390a46125d1818787878787612c94565b505050505050565b606060008203612620576040518060400160405280600181526020017f30000000000000000000000000000000000000000000000000000000000000008152509050612734565b600082905060005b6000821461265257808061263b90614841565b915050600a8261264b919061557d565b9150612628565b60008167ffffffffffffffff81111561266e5761266d613c70565b5b6040519080825280601f01601f1916602001820160405280156126a05781602001600182028036833780820191505090505b5090505b6000851461272d576001826126b991906155ae565b9150600a856126c891906155e2565b60306126d491906154c1565b60f81b8183815181106126ea576126e96147e3565b5b60200101907effffffffffffffffffffffffffffffffffffffffffffffffffffffffffffff1916908160001a905350600a85612726919061557d565b94506126a4565b8093505050505b919050565b600080600061274733612260565b915091506001151582151514801561275e57508381145b61279d576040517f08c379a0000000000000000000000000000000000000000000000000000000008152600401612794906147c3565b60405180910390fd5b600192505050919050565b60006005546009600084815260200190815260200160002060050154106127dc576127d282612e6b565b506001905061286f565b60055460096000848152602001908152602001600020600601541061286a5760016009600084815260200190815260200160002060040160006101000a81548160ff0219169083151502179055507fc56428a2da1dbb4029c0420eaa0c7f7b2e3640b4ac915b15512bcfa2ace3a93582604051612859919061565f565b60405180910390a16001905061286f565b600090505b919050565b60606002830361288657819050612899565b6040518060200160405280600081525090505b92915050565b8173ffffffffffffffffffffffffffffffffffffffff168373ffffffffffffffffffffffffffffffffffffffff160361290d576040517f08c379a0000000000000000000000000000000000000000000000000000000008152600401612904906156ff565b60405180910390fd5b80600160008573ffffffffffffffffffffffffffffffffffffffff1673ffffffffffffffffffffffffffffffffffffffff16815260200190815260200160002060008473ffffffffffffffffffffffffffffffffffffffff1673ffffffffffffffffffffffffffffffffffffffff16815260200190815260200160002060006101000a81548160ff0219169083151502179055508173ffffffffffffffffffffffffffffffffffffffff168373ffffffffffffffffffffffffffffffffffffffff167f17307eab39ab6107e8899845ad3d59bd9653f200f220920489ca2b5937696c31836040516129fe91906138f6565b60405180910390a3505050565b600073ffffffffffffffffffffffffffffffffffffffff168473ffffffffffffffffffffffffffffffffffffffff1603612a7a576040517f08c379a0000000000000000000000000000000000000000000000000000000008152600401612a719061540f565b60405180910390fd5b6000612a846122be565b9050612aa4818787612a95886132b2565b612a9e886132b2565b87612c8c565b600080600086815260200190815260200160002060008873ffffffffffffffffffffffffffffffffffffffff1673ffffffffffffffffffffffffffffffffffffffff16815260200190815260200160002054905083811015612b3b576040517f08c379a0000000000000000000000000000000000000000000000000000000008152600401612b32906154a1565b60405180910390fd5b83810360008087815260200190815260200160002060008973ffffffffffffffffffffffffffffffffffffffff1673ffffffffffffffffffffffffffffffffffffffff168152602001908152602001600020819055508360008087815260200190815260200160002060008873ffffffffffffffffffffffffffffffffffffffff1673ffffffffffffffffffffffffffffffffffffffff1681526020019081526020016000206000828254612bf091906154c1565b925050819055508573ffffffffffffffffffffffffffffffffffffffff168773ffffffffffffffffffffffffffffffffffffffff168373ffffffffffffffffffffffffffffffffffffffff167fc3d58168c5ae7397731d063d5bbf3d657854427343f4c083240f7aacaa2d0f628888604051612c6d92919061571f565b60405180910390a4612c8382888888888861332c565b50505050505050565b505050505050565b612cb38473ffffffffffffffffffffffffffffffffffffffff166121e3565b15612e63578373ffffffffffffffffffffffffffffffffffffffff1663bc197c8187878686866040518663ffffffff1660e01b8152600401612cf995949392919061579d565b6020604051808303816000875af1925050508015612d3557506040513d601f19601f82011682018060405250810190612d32919061581a565b60015b612dda57612d41615854565b806308c379a003612d9d5750612d55615876565b80612d605750612d9f565b806040517f08c379a0000000000000000000000000000000000000000000000000000000008152600401612d9491906139d7565b60405180910390fd5b505b6040517f08c379a0000000000000000000000000000000000000000000000000000000008152600401612dd190615978565b60405180910390fd5b63bc197c8160e01b7bffffffffffffffffffffffffffffffffffffffffffffffffffffffff1916817bffffffffffffffffffffffffffffffffffffffffffffffffffffffff191614612e61576040517f08c379a0000000000000000000000000000000000000000000000000000000008152600401612e5890615a0a565b60405180910390fd5b505b505050505050565b6000806009600084815260200190815260200160002060010160009054906101000a900473ffffffffffffffffffffffffffffffffffffffff16905060016009600085815260200190815260200160002060040160006101000a81548160ff021916908315150217905550600073ffffffffffffffffffffffffffffffffffffffff166009600085815260200190815260200160002060080160019054906101000a900473ffffffffffffffffffffffffffffffffffffffff1673ffffffffffffffffffffffffffffffffffffffff160361306c57600073ffffffffffffffffffffffffffffffffffffffff168173ffffffffffffffffffffffffffffffffffffffff1603612fb0577f0ddc4077bcacb7dadbb6cb99a8ca4a3d1f651667ee0d4e7de7f2b71b00074b5883604051612fa39190615a76565b60405180910390a1613067565b6009600084815260200190815260200160002060000154471015613009576040517f08c379a000000000000000000000000000000000000000000000000000000000815260040161300090615b16565b60405180910390fd5b8073ffffffffffffffffffffffffffffffffffffffff166108fc60096000868152602001908152602001600020600001549081150290604051600060405180830381858888f19350505050158015613065573d6000803e3d6000fd5b505b613271565b60006009600085815260200190815260200160002060090154141580156130f65750600073ffffffffffffffffffffffffffffffffffffffff166009600085815260200190815260200160002060080160019054906101000a900473ffffffffffffffffffffffffffffffffffffffff1673ffffffffffffffffffffffffffffffffffffffff1614155b15613201576009600084815260200190815260200160002060080160019054906101000a900473ffffffffffffffffffffffffffffffffffffffff1673ffffffffffffffffffffffffffffffffffffffff1663a9059cbb6009600086815260200190815260200160002060010160009054906101000a900473ffffffffffffffffffffffffffffffffffffffff1660096000878152602001908152602001600020600001546040518363ffffffff1660e01b81526004016131b8929190613766565b6020604051808303816000875af11580156131d7573d6000803e3d6000fd5b505050506040513d601f19601f820116820180604052508101906131fb9190615b4b565b50613270565b61326e6009600085815260200190815260200160002060080160019054906101000a900473ffffffffffffffffffffffffffffffffffffffff1660096000868152602001908152602001600020600901546009600087815260200190815260200160002060000154613503565b505b5b7fc56428a2da1dbb4029c0420eaa0c7f7b2e3640b4ac915b15512bcfa2ace3a935836040516132a09190615bc4565b60405180910390a16001915050919050565b60606000600167ffffffffffffffff8111156132d1576132d0613c70565b5b6040519080825280602002602001820160405280156132ff5781602001602082028036833780820191505090505b5090508281600081518110613317576133166147e3565b5b60200260200101818152505080915050919050565b61334b8473ffffffffffffffffffffffffffffffffffffffff166121e3565b156134fb578373ffffffffffffffffffffffffffffffffffffffff1663f23a6e6187878686866040518663ffffffff1660e01b8152600401613391959493929190615bf2565b6020604051808303816000875af19250505080156133cd57506040513d601f19601f820116820180604052508101906133ca919061581a565b60015b613472576133d9615854565b806308c379a00361343557506133ed615876565b806133f85750613437565b806040517f08c379a000000000000000000000000000000000000000000000000000000000815260040161342c91906139d7565b60405180910390fd5b505b6040517f08c379a000000000000000000000000000000000000000000000000000000000815260040161346990615978565b60405180910390fd5b63f23a6e6160e01b7bffffffffffffffffffffffffffffffffffffffffffffffffffffffff1916817bffffffffffffffffffffffffffffffffffffffffffffffffffffffff1916146134f9576040517f08c379a00000000000000000000000000000000000000000000000000000000081526004016134f090615a0a565b60405180910390fd5b505b505050505050565b6000600115158473ffffffffffffffffffffffffffffffffffffffff166301ffc9a76380ac58cd6040518263ffffffff1660e01b81526004016135469190615c94565b602060405180830381865afa158015613563573d6000803e3d6000fd5b505050506040513d601f19601f820116820180604052508101906135879190615b4b565b151503613602578373ffffffffffffffffffffffffffffffffffffffff1663b88d4fde3086866040518463ffffffff1660e01b81526004016135cb93929190615cd5565b600060405180830381600087803b1580156135e557600080fd5b505af11580156135f9573d6000803e3d6000fd5b50505050613674565b8373ffffffffffffffffffffffffffffffffffffffff1663f242432a308686866040518563ffffffff1660e01b81526004016136419493929190615d1f565b600060405180830381600087803b15801561365b57600080fd5b505af115801561366f573d6000803e3d6000fd5b505050505b9392505050565b60405180610180016040528060008152602001600073ffffffffffffffffffffffffffffffffffffffff1681526020016060815260200160608152602001600015158152602001600081526020016000815260200160008152602001600015158152602001600073ffffffffffffffffffffffffffffffffffffffff16815260200160008152602001606081525090565b600073ffffffffffffffffffffffffffffffffffffffff82169050919050565b60006137378261370c565b9050919050565b6137478161372c565b82525050565b6000819050919050565b6137608161374d565b82525050565b600060408201905061377b600083018561373e565b6137886020830184613757565b9392505050565b6000604051905090565b600080fd5b600080fd5b6137ac8161372c565b81146137b757600080fd5b50565b6000813590506137c9816137a3565b92915050565b6137d88161374d565b81146137e357600080fd5b50565b6000813590506137f5816137cf565b92915050565b6000806040838503121561381257613811613799565b5b6000613820858286016137ba565b9250506020613831858286016137e6565b9150509250929050565b60006020820190506138506000830184613757565b92915050565b60007fffffffff0000000000000000000000000000000000000000000000000000000082169050919050565b61388b81613856565b811461389657600080fd5b50565b6000813590506138a881613882565b92915050565b6000602082840312156138c4576138c3613799565b5b60006138d284828501613899565b91505092915050565b60008115159050919050565b6138f0816138db565b82525050565b600060208201905061390b60008301846138e7565b92915050565b60006020828403121561392757613926613799565b5b6000613935848285016137e6565b91505092915050565b600081519050919050565b600082825260208201905092915050565b60005b8381101561397857808201518184015260208101905061395d565b83811115613987576000848401525b50505050565b6000601f19601f8301169050919050565b60006139a98261393e565b6139b38185613949565b93506139c381856020860161395a565b6139cc8161398d565b840191505092915050565b600060208201905081810360008301526139f1818461399e565b905092915050565b600081519050919050565b600082825260208201905092915050565b6000819050602082019050919050565b613a2e8161374d565b82525050565b613a3d8161372c565b82525050565b600082825260208201905092915050565b6000613a5f8261393e565b613a698185613a43565b9350613a7981856020860161395a565b613a828161398d565b840191505092915050565b613a96816138db565b82525050565b600061018083016000830151613ab56000860182613a25565b506020830151613ac86020860182613a34565b5060408301518482036040860152613ae08282613a54565b91505060608301518482036060860152613afa8282613a54565b9150506080830151613b0f6080860182613a8d565b5060a0830151613b2260a0860182613a25565b5060c0830151613b3560c0860182613a25565b5060e0830151613b4860e0860182613a25565b50610100830151613b5d610100860182613a8d565b50610120830151613b72610120860182613a34565b50610140830151613b87610140860182613a25565b50610160830151848203610160860152613ba18282613a54565b9150508091505092915050565b6000613bba8383613a9c565b905092915050565b6000602082019050919050565b6000613bda826139f9565b613be48185613a04565b935083602082028501613bf685613a15565b8060005b85811015613c325784840389528151613c138582613bae565b9450613c1e83613bc2565b925060208a01995050600181019050613bfa565b50829750879550505050505092915050565b60006020820190508181036000830152613c5e8184613bcf565b905092915050565b600080fd5b600080fd5b7f4e487b7100000000000000000000000000000000000000000000000000000000600052604160045260246000fd5b613ca88261398d565b810181811067ffffffffffffffff82111715613cc757613cc6613c70565b5b80604052505050565b6000613cda61378f565b9050613ce68282613c9f565b919050565b600067ffffffffffffffff821115613d0657613d05613c70565b5b613d0f8261398d565b9050602081019050919050565b82818337600083830152505050565b6000613d3e613d3984613ceb565b613cd0565b905082815260208101848484011115613d5a57613d59613c6b565b5b613d65848285613d1c565b509392505050565b600082601f830112613d8257613d81613c66565b5b8135613d92848260208601613d2b565b91505092915050565b60008060008060808587031215613db557613db4613799565b5b6000613dc3878288016137ba565b9450506020613dd4878288016137ba565b9350506040613de5878288016137e6565b925050606085013567ffffffffffffffff811115613e0657613e0561379e565b5b613e1287828801613d6d565b91505092959194509250565b613e2781613856565b82525050565b6000602082019050613e426000830184613e1e565b92915050565b600067ffffffffffffffff821115613e6357613e62613c70565b5b602082029050602081019050919050565b600080fd5b6000613e8c613e8784613e48565b613cd0565b90508083825260208201905060208402830185811115613eaf57613eae613e74565b5b835b81811015613ed85780613ec488826137e6565b845260208401935050602081019050613eb1565b5050509392505050565b600082601f830112613ef757613ef6613c66565b5b8135613f07848260208601613e79565b91505092915050565b600080600080600060a08688031215613f2c57613f2b613799565b5b6000613f3a888289016137ba565b9550506020613f4b888289016137ba565b945050604086013567ffffffffffffffff811115613f6c57613f6b61379e565b5b613f7888828901613ee2565b935050606086013567ffffffffffffffff811115613f9957613f9861379e565b5b613fa588828901613ee2565b925050608086013567ffffffffffffffff811115613fc657613fc561379e565b5b613fd288828901613d6d565b9150509295509295909350565b600067ffffffffffffffff821115613ffa57613ff9613c70565b5b602082029050602081019050919050565b600061401e61401984613fdf565b613cd0565b9050808382526020820190506020840283018581111561404157614040613e74565b5b835b8181101561406a578061405688826137ba565b845260208401935050602081019050614043565b5050509392505050565b600082601f83011261408957614088613c66565b5b813561409984826020860161400b565b91505092915050565b600080604083850312156140b9576140b8613799565b5b600083013567ffffffffffffffff8111156140d7576140d661379e565b5b6140e385828601614074565b925050602083013567ffffffffffffffff8111156141045761410361379e565b5b61411085828601613ee2565b9150509250929050565b600081519050919050565b600082825260208201905092915050565b6000819050602082019050919050565b60006141528383613a25565b60208301905092915050565b6000602082019050919050565b60006141768261411a565b6141808185614125565b935061418b83614136565b8060005b838110156141bc5781516141a38882614146565b97506141ae8361415e565b92505060018101905061418f565b5085935050505092915050565b600060208201905081810360008301526141e3818461416b565b905092915050565b6141f4816138db565b81146141ff57600080fd5b50565b600081359050614211816141eb565b92915050565b6000806000606084860312156142305761422f613799565b5b600061423e868287016137e6565b935050602061424f86828701614202565b9250506040614260868287016137e6565b9150509250925092565b600060608201905061427f6000830186613757565b61428c6020830185613757565b818103604083015261429e818461399e565b9050949350505050565b600067ffffffffffffffff8211156142c3576142c2613c70565b5b602082029050602081019050919050565b600067ffffffffffffffff8211156142ef576142ee613c70565b5b6142f88261398d565b9050602081019050919050565b6000614318614313846142d4565b613cd0565b90508281526020810184848401111561433457614333613c6b565b5b61433f848285613d1c565b509392505050565b600082601f83011261435c5761435b613c66565b5b813561436c848260208601614305565b91505092915050565b6000614388614383846142a8565b613cd0565b905080838252602082019050602084028301858111156143ab576143aa613e74565b5b835b818110156143f257803567ffffffffffffffff8111156143d0576143cf613c66565b5b8086016143dd8982614347565b855260208501945050506020810190506143ad565b5050509392505050565b600082601f83011261441157614410613c66565b5b8135614421848260208601614375565b91505092915050565b60008060006060848603121561444357614442613799565b5b600084013567ffffffffffffffff8111156144615761446061379e565b5b61446d86828701613ee2565b935050602084013567ffffffffffffffff81111561448e5761448d61379e565b5b61449a86828701614074565b925050604084013567ffffffffffffffff8111156144bb576144ba61379e565b5b6144c7868287016143fc565b9150509250925092565b600080604083850312156144e8576144e7613799565b5b60006144f6858286016137ba565b925050602061450785828601614202565b9150509250929050565b6000806040838503121561452857614527613799565b5b6000614536858286016137ba565b9250506020614547858286016137ba565b9150509250929050565b600080600080600060a0868803121561456d5761456c613799565b5b600061457b888289016137ba565b955050602061458c888289016137ba565b945050604061459d888289016137e6565b93505060606145ae888289016137e6565b925050608086013567ffffffffffffffff8111156145cf576145ce61379e565b5b6145db88828901613d6d565b9150509295509295909350565b600080604083850312156145ff576145fe613799565b5b600061460d858286016137e6565b925050602061461e858286016137e6565b9150509250929050565b600060608201905061463d6000830186613757565b61464a60208301856138e7565b61465760408301846138e7565b949350505050565b7f455243313135353a2062616c616e636520717565727920666f7220746865207a60008201527f65726f2061646472657373000000000000000000000000000000000000000000602082015250565b60006146bb602b83613949565b91506146c68261465f565b604082019050919050565b600060208201905081810360008301526146ea816146ae565b9050919050565b7f4e487b7100000000000000000000000000000000000000000000000000000000600052602260045260246000fd5b6000600282049050600182168061473857607f821691505b60208210810361474b5761474a6146f1565b5b50919050565b7f596f75206d75737420686f6c642061204b657920746f2061636365737320746860008201527f69732066756e6374696f6e000000000000000000000000000000000000000000602082015250565b60006147ad602b83613949565b91506147b882614751565b604082019050919050565b600060208201905081810360008301526147dc816147a0565b9050919050565b7f4e487b7100000000000000000000000000000000000000000000000000000000600052603260045260246000fd5b7f4e487b7100000000000000000000000000000000000000000000000000000000600052601160045260246000fd5b600061484c8261374d565b91507fffffffffffffffffffffffffffffffffffffffffffffffffffffffffffffffff820361487e5761487d614812565b5b600182019050919050565b7f455243313135353a207472616e736665722063616c6c6572206973206e6f742060008201527f6f776e6572206e6f7220617070726f7665640000000000000000000000000000602082015250565b60006148e5603283613949565b91506148f082614889565b604082019050919050565b60006020820190508181036000830152614914816148d8565b9050919050565b7f455243313135353a206163636f756e747320616e6420696473206c656e67746860008201527f206d69736d617463680000000000000000000000000000000000000000000000602082015250565b6000614977602983613949565b91506149828261491b565b604082019050919050565b600060208201905081810360008301526149a68161496a565b9050919050565b600081905092915050565b60006149c38261393e565b6149cd81856149ad565b93506149dd81856020860161395a565b80840191505092915050565b7f2d00000000000000000000000000000000000000000000000000000000000000600082015250565b6000614a1f6001836149ad565b9150614a2a826149e9565b600182019050919050565b6000614a4182856149b8565b9150614a4c82614a12565b9150614a5882846149b8565b91508190509392505050565b7f436f6e7472616374205472616e73616374696f6e20436f6d706c657465642e2e60008201527f2e6e6f2066757468657220636f6e6672696d6174696f6e20766f74657320636160208201527f6e20626520636173740000000000000000000000000000000000000000000000604082015250565b6000614ae6604983613949565b9150614af182614a64565b606082019050919050565b60006020820190508181036000830152614b1581614ad9565b9050919050565b6000614b2882846149b8565b915081905092915050565b7f766f746520686173206265656e206361737420616c7265616479000000000000600082015250565b6000614b69601a83613949565b9150614b7482614b33565b602082019050919050565b60006020820190508181036000830152614b9881614b5c565b9050919050565b7f796f75206d7573742062652074686520686f6c646572206f6620746865206b6560008201527f7900000000000000000000000000000000000000000000000000000000000000602082015250565b6000614bfb602183613949565b9150614c0682614b9f565b604082019050919050565b60006020820190508181036000830152614c2a81614bee565b9050919050565b6000602082019050614c46600083018461373e565b92915050565b600081519050614c5b816137cf565b92915050565b600060208284031215614c7757614c76613799565b5b6000614c8584828501614c4c565b91505092915050565b7f4e6f7420656e6f756768205852432066756e647320696e20636f6e7472616374600082015250565b6000614cc4602083613949565b9150614ccf82614c8e565b602082019050919050565b60006020820190508181036000830152614cf381614cb7565b9050919050565b60008190508160005260206000209050919050565b60006020601f8301049050919050565b600082821b905092915050565b600060088302614d5c7fffffffffffffffffffffffffffffffffffffffffffffffffffffffffffffffff82614d1f565b614d668683614d1f565b95508019841693508086168417925050509392505050565b6000819050919050565b6000614da3614d9e614d998461374d565b614d7e565b61374d565b9050919050565b6000819050919050565b614dbd83614d88565b614dd1614dc982614daa565b848454614d2c565b825550505050565b600090565b614de6614dd9565b614df1818484614db4565b505050565b5b81811015614e1557614e0a600082614dde565b600181019050614df7565b5050565b601f821115614e5a57614e2b81614cfa565b614e3484614d0f565b81016020851015614e43578190505b614e57614e4f85614d0f565b830182614df6565b50505b505050565b600082821c905092915050565b6000614e7d60001984600802614e5f565b1980831691505092915050565b6000614e968383614e6c565b9150826002028217905092915050565b614eaf8261393e565b67ffffffffffffffff811115614ec857614ec7613c70565b5b614ed28254614720565b614edd828285614e19565b600060209050601f831160018114614f105760008415614efe578287015190505b614f088582614e8a565b865550614f70565b601f198416614f1e86614cfa565b60005b82811015614f4657848901518255600182019150602085019450602081019050614f21565b86831015614f635784890151614f5f601f891682614e6c565b8355505b6001600288020188555050505b505050505050565b7f5472616e73616374696f6e616e2050726f706f73616c204d6164650000000000600082015250565b6000614fae601b83613949565b9150614fb982614f78565b602082019050919050565b6000604082019050614fd96000830184613757565b8181036020830152614fea81614fa1565b905092915050565b7f4e6f7420656e6f7567682066756e647320696e20636f6e747261637400000000600082015250565b6000615028601c83613949565b915061503382614ff2565b602082019050919050565b600060208201905081810360008301526150578161501b565b9050919050565b7f585243205472616e73616374696f6e616e2050726f706f73616c204d61646500600082015250565b6000615094601f83613949565b915061509f8261505e565b602082019050919050565b60006040820190506150bf6000830184613757565b81810360208301526150d081615087565b905092915050565b7f585243204e4654205472616e73616374696f6e616e2050726f706f73616c204d60008201527f6164650000000000000000000000000000000000000000000000000000000000602082015250565b6000615134602383613949565b915061513f826150d8565b604082019050919050565b600060408201905061515f6000830184613757565b818103602083015261517081615127565b905092915050565b7f455243313135353a2063616c6c6572206973206e6f74206f776e6572206e6f7260008201527f20617070726f7665640000000000000000000000000000000000000000000000602082015250565b60006151d4602983613949565b91506151df82615178565b604082019050919050565b60006020820190508181036000830152615203816151c7565b9050919050565b7f5472616e73616374696f6e20616c726561647920636f6e6669726d6564000000600082015250565b6000615240601d83613949565b915061524b8261520a565b602082019050919050565b6000602082019050818103600083015261526f81615233565b9050919050565b7f796f7520686176656e7420636173746564206120766f74650000000000000000600082015250565b60006152ac601883613949565b91506152b782615276565b602082019050919050565b600060208201905081810360008301526152db8161529f565b9050919050565b60006152ed8261374d565b915060008203615300576152ff614812565b5b600182039050919050565b7f455243313135353a2069647320616e6420616d6f756e7473206c656e6774682060008201527f6d69736d61746368000000000000000000000000000000000000000000000000602082015250565b6000615367602883613949565b91506153728261530b565b604082019050919050565b600060208201905081810360008301526153968161535a565b9050919050565b7f455243313135353a207472616e7366657220746f20746865207a65726f20616460008201527f6472657373000000000000000000000000000000000000000000000000000000602082015250565b60006153f9602583613949565b91506154048261539d565b604082019050919050565b60006020820190508181036000830152615428816153ec565b9050919050565b7f455243313135353a20696e73756666696369656e742062616c616e636520666f60008201527f72207472616e7366657200000000000000000000000000000000000000000000602082015250565b600061548b602a83613949565b91506154968261542f565b604082019050919050565b600060208201905081810360008301526154ba8161547e565b9050919050565b60006154cc8261374d565b91506154d78361374d565b9250827fffffffffffffffffffffffffffffffffffffffffffffffffffffffffffffffff0382111561550c5761550b614812565b5b828201905092915050565b60006040820190508181036000830152615531818561416b565b90508181036020830152615545818461416b565b90509392505050565b7f4e487b7100000000000000000000000000000000000000000000000000000000600052601260045260246000fd5b60006155888261374d565b91506155938361374d565b9250826155a3576155a261554e565b5b828204905092915050565b60006155b98261374d565b91506155c48361374d565b9250828210156155d7576155d6614812565b5b828203905092915050565b60006155ed8261374d565b91506155f88361374d565b9250826156085761560761554e565b5b828206905092915050565b7f566f7465204661696c6564210000000000000000000000000000000000000000600082015250565b6000615649600c83613949565b915061565482615613565b602082019050919050565b60006040820190506156746000830184613757565b81810360208301526156858161563c565b905092915050565b7f455243313135353a2073657474696e6720617070726f76616c2073746174757360008201527f20666f722073656c660000000000000000000000000000000000000000000000602082015250565b60006156e9602983613949565b91506156f48261568d565b604082019050919050565b60006020820190508181036000830152615718816156dc565b9050919050565b60006040820190506157346000830185613757565b6157416020830184613757565b9392505050565b600081519050919050565b600082825260208201905092915050565b600061576f82615748565b6157798185615753565b935061578981856020860161395a565b6157928161398d565b840191505092915050565b600060a0820190506157b2600083018861373e565b6157bf602083018761373e565b81810360408301526157d1818661416b565b905081810360608301526157e5818561416b565b905081810360808301526157f98184615764565b90509695505050505050565b60008151905061581481613882565b92915050565b6000602082840312156158305761582f613799565b5b600061583e84828501615805565b91505092915050565b60008160e01c9050919050565b600060033d11156158735760046000803e615870600051615847565b90505b90565b600060443d106159035761588861378f565b60043d036004823e80513d602482011167ffffffffffffffff821117156158b0575050615903565b808201805167ffffffffffffffff8111156158ce5750505050615903565b80602083010160043d0385018111156158eb575050505050615903565b6158fa82602001850186613c9f565b82955050505050505b90565b7f455243313135353a207472616e7366657220746f206e6f6e204552433131353560008201527f526563656976657220696d706c656d656e746572000000000000000000000000602082015250565b6000615962603483613949565b915061596d82615906565b604082019050919050565b6000602082019050818103600083015261599181615955565b9050919050565b7f455243313135353a204552433131353552656365697665722072656a6563746560008201527f6420746f6b656e73000000000000000000000000000000000000000000000000602082015250565b60006159f4602883613949565b91506159ff82615998565b604082019050919050565b60006020820190508181036000830152615a23816159e7565b9050919050565b7f566f746520506173736564210000000000000000000000000000000000000000600082015250565b6000615a60600c83613949565b9150615a6b82615a2a565b602082019050919050565b6000604082019050615a8b6000830184613757565b8181036020830152615a9c81615a53565b905092915050565b7f4e6f7420656e6f7567682066756e647320696e20636f6e74726163742074726160008201527f6e73616374696f6e2063616e63656c6564000000000000000000000000000000602082015250565b6000615b00603183613949565b9150615b0b82615aa4565b604082019050919050565b60006020820190508181036000830152615b2f81615af3565b9050919050565b600081519050615b45816141eb565b92915050565b600060208284031215615b6157615b60613799565b5b6000615b6f84828501615b36565b91505092915050565b7f5472616e73616374696f6e207375636365737366756c21000000000000000000600082015250565b6000615bae601783613949565b9150615bb982615b78565b602082019050919050565b6000604082019050615bd96000830184613757565b8181036020830152615bea81615ba1565b905092915050565b600060a082019050615c07600083018861373e565b615c14602083018761373e565b615c216040830186613757565b615c2e6060830185613757565b8181036080830152615c408184615764565b90509695505050505050565b6000819050919050565b60008160e01b9050919050565b6000615c7e615c79615c7484615c4c565b615c56565b613856565b9050919050565b615c8e81615c63565b82525050565b6000602082019050615ca96000830184615c85565b92915050565b50565b6000615cbf600083615753565b9150615cca82615caf565b600082019050919050565b6000608082019050615cea600083018661373e565b615cf7602083018561373e565b615d046040830184613757565b8181036060830152615d1581615cb2565b9050949350505050565b600060a082019050615d34600083018761373e565b615d41602083018661373e565b615d4e6040830185613757565b615d5b6060830184613757565b8181036080830152615d6c81615cb2565b90509594505050505056fea264697066735822122055c2fcc26240e61947665f04d972e080d5524c34205abff75c2ad8dba98c786564736f6c634300080f0033",
			"opcodes": "PUSH1 0x80 PUSH1 0x40 MSTORE PUSH1 0x0 PUSH1 0x3 SSTORE PUSH1 0x0 PUSH1 0x4 SSTORE PUSH1 0x0 PUSH1 0x6 SSTORE PUSH1 0x40 MLOAD PUSH3 0x6F73 CODESIZE SUB DUP1 PUSH3 0x6F73 DUP4 CODECOPY DUP2 DUP2 ADD PUSH1 0x40 MSTORE DUP2 ADD SWAP1 PUSH3 0x38 SWAP2 SWAP1 PUSH3 0x795 JUMP JUMPDEST DUP1 PUSH3 0x4A DUP2 PUSH3 0x147 PUSH1 0x20 SHL PUSH1 0x20 SHR JUMP JUMPDEST POP DUP3 DUP3 GT ISZERO PUSH3 0x91 JUMPI PUSH1 0x40 MLOAD PUSH32 0x8C379A000000000000000000000000000000000000000000000000000000000 DUP2 MSTORE PUSH1 0x4 ADD PUSH3 0x88 SWAP1 PUSH3 0x897 JUMP JUMPDEST PUSH1 0x40 MLOAD DUP1 SWAP2 SUB SWAP1 REVERT JUMPDEST DUP3 PUSH1 0x3 DUP2 SWAP1 SSTORE POP DUP2 PUSH1 0x5 DUP2 SWAP1 SSTORE POP PUSH1 0x0 JUMPDEST DUP4 DUP2 LT ISZERO PUSH3 0x13D JUMPI PUSH1 0x40 MLOAD DUP1 PUSH1 0x40 ADD PUSH1 0x40 MSTORE DUP1 DUP3 DUP2 MSTORE PUSH1 0x20 ADD PUSH1 0x1 ISZERO ISZERO DUP2 MSTORE POP PUSH1 0x7 PUSH1 0x0 DUP4 DUP2 MSTORE PUSH1 0x20 ADD SWAP1 DUP2 MSTORE PUSH1 0x20 ADD PUSH1 0x0 KECCAK256 PUSH1 0x0 DUP3 ADD MLOAD DUP2 PUSH1 0x0 ADD SSTORE PUSH1 0x20 DUP3 ADD MLOAD DUP2 PUSH1 0x1 ADD PUSH1 0x0 PUSH2 0x100 EXP DUP2 SLOAD DUP2 PUSH1 0xFF MUL NOT AND SWAP1 DUP4 ISZERO ISZERO MUL OR SWAP1 SSTORE POP SWAP1 POP POP PUSH3 0x127 CALLER DUP3 PUSH1 0x1 PUSH1 0x40 MLOAD DUP1 PUSH1 0x20 ADD PUSH1 0x40 MSTORE DUP1 PUSH1 0x0 DUP2 MSTORE POP PUSH3 0x15C PUSH1 0x20 SHL PUSH1 0x20 SHR JUMP JUMPDEST DUP1 DUP1 PUSH3 0x134 SWAP1 PUSH3 0x8E8 JUMP JUMPDEST SWAP2 POP POP PUSH3 0xA2 JUMP JUMPDEST POP POP POP POP PUSH3 0x11B6 JUMP JUMPDEST DUP1 PUSH1 0x2 SWAP1 DUP2 PUSH3 0x158 SWAP2 SWAP1 PUSH3 0xB76 JUMP JUMPDEST POP POP JUMP JUMPDEST PUSH1 0x0 PUSH20 0xFFFFFFFFFFFFFFFFFFFFFFFFFFFFFFFFFFFFFFFF AND DUP5 PUSH20 0xFFFFFFFFFFFFFFFFFFFFFFFFFFFFFFFFFFFFFFFF AND SUB PUSH3 0x1CE JUMPI PUSH1 0x40 MLOAD PUSH32 0x8C379A000000000000000000000000000000000000000000000000000000000 DUP2 MSTORE PUSH1 0x4 ADD PUSH3 0x1C5 SWAP1 PUSH3 0xCD3 JUMP JUMPDEST PUSH1 0x40 MLOAD DUP1 SWAP2 SUB SWAP1 REVERT JUMPDEST PUSH1 0x0 PUSH3 0x1E0 PUSH3 0x320 PUSH1 0x20 SHL PUSH1 0x20 SHR JUMP JUMPDEST SWAP1 POP PUSH3 0x219 DUP2 PUSH1 0x0 DUP8 PUSH3 0x1FB DUP9 PUSH3 0x328 PUSH1 0x20 SHL PUSH1 0x20 SHR JUMP JUMPDEST PUSH3 0x20C DUP9 PUSH3 0x328 PUSH1 0x20 SHL PUSH1 0x20 SHR JUMP JUMPDEST DUP8 PUSH3 0x3A9 PUSH1 0x20 SHL PUSH1 0x20 SHR JUMP JUMPDEST DUP3 PUSH1 0x0 DUP1 DUP7 DUP2 MSTORE PUSH1 0x20 ADD SWAP1 DUP2 MSTORE PUSH1 0x20 ADD PUSH1 0x0 KECCAK256 PUSH1 0x0 DUP8 PUSH20 0xFFFFFFFFFFFFFFFFFFFFFFFFFFFFFFFFFFFFFFFF AND PUSH20 0xFFFFFFFFFFFFFFFFFFFFFFFFFFFFFFFFFFFFFFFF AND DUP2 MSTORE PUSH1 0x20 ADD SWAP1 DUP2 MSTORE PUSH1 0x20 ADD PUSH1 0x0 KECCAK256 PUSH1 0x0 DUP3 DUP3 SLOAD PUSH3 0x27A SWAP2 SWAP1 PUSH3 0xCF5 JUMP JUMPDEST SWAP3 POP POP DUP2 SWAP1 SSTORE POP DUP5 PUSH20 0xFFFFFFFFFFFFFFFFFFFFFFFFFFFFFFFFFFFFFFFF AND PUSH1 0x0 PUSH20 0xFFFFFFFFFFFFFFFFFFFFFFFFFFFFFFFFFFFFFFFF AND DUP3 PUSH20 0xFFFFFFFFFFFFFFFFFFFFFFFFFFFFFFFFFFFFFFFF AND PUSH32 0xC3D58168C5AE7397731D063D5BBF3D657854427343F4C083240F7AACAA2D0F62 DUP8 DUP8 PUSH1 0x40 MLOAD PUSH3 0x2FA SWAP3 SWAP2 SWAP1 PUSH3 0xD63 JUMP JUMPDEST PUSH1 0x40 MLOAD DUP1 SWAP2 SUB SWAP1 LOG4 PUSH3 0x319 DUP2 PUSH1 0x0 DUP8 DUP8 DUP8 DUP8 PUSH3 0x3B1 PUSH1 0x20 SHL PUSH1 0x20 SHR JUMP JUMPDEST POP POP POP POP POP JUMP JUMPDEST PUSH1 0x0 CALLER SWAP1 POP SWAP1 JUMP JUMPDEST PUSH1 0x60 PUSH1 0x0 PUSH1 0x1 PUSH8 0xFFFFFFFFFFFFFFFF DUP2 GT ISZERO PUSH3 0x34A JUMPI PUSH3 0x349 PUSH3 0x627 JUMP JUMPDEST JUMPDEST PUSH1 0x40 MLOAD SWAP1 DUP1 DUP3 MSTORE DUP1 PUSH1 0x20 MUL PUSH1 0x20 ADD DUP3 ADD PUSH1 0x40 MSTORE DUP1 ISZERO PUSH3 0x379 JUMPI DUP2 PUSH1 0x20 ADD PUSH1 0x20 DUP3 MUL DUP1 CALLDATASIZE DUP4 CALLDATACOPY DUP1 DUP3 ADD SWAP2 POP POP SWAP1 POP JUMPDEST POP SWAP1 POP DUP3 DUP2 PUSH1 0x0 DUP2 MLOAD DUP2 LT PUSH3 0x394 JUMPI PUSH3 0x393 PUSH3 0xD90 JUMP JUMPDEST JUMPDEST PUSH1 0x20 MUL PUSH1 0x20 ADD ADD DUP2 DUP2 MSTORE POP POP DUP1 SWAP2 POP POP SWAP2 SWAP1 POP JUMP JUMPDEST POP POP POP POP POP POP JUMP JUMPDEST PUSH3 0x3DD DUP5 PUSH20 0xFFFFFFFFFFFFFFFFFFFFFFFFFFFFFFFFFFFFFFFF AND PUSH3 0x5AA PUSH1 0x20 SHL PUSH3 0x21E3 OR PUSH1 0x20 SHR JUMP JUMPDEST ISZERO PUSH3 0x5A2 JUMPI DUP4 PUSH20 0xFFFFFFFFFFFFFFFFFFFFFFFFFFFFFFFFFFFFFFFF AND PUSH4 0xF23A6E61 DUP8 DUP8 DUP7 DUP7 DUP7 PUSH1 0x40 MLOAD DUP7 PUSH4 0xFFFFFFFF AND PUSH1 0xE0 SHL DUP2 MSTORE PUSH1 0x4 ADD PUSH3 0x426 SWAP6 SWAP5 SWAP4 SWAP3 SWAP2 SWAP1 PUSH3 0xE61 JUMP JUMPDEST PUSH1 0x20 PUSH1 0x40 MLOAD DUP1 DUP4 SUB DUP2 PUSH1 0x0 DUP8 GAS CALL SWAP3 POP POP POP DUP1 ISZERO PUSH3 0x465 JUMPI POP PUSH1 0x40 MLOAD RETURNDATASIZE PUSH1 0x1F NOT PUSH1 0x1F DUP3 ADD AND DUP3 ADD DUP1 PUSH1 0x40 MSTORE POP DUP2 ADD SWAP1 PUSH3 0x462 SWAP2 SWAP1 PUSH3 0xF22 JUMP JUMPDEST PUSH1 0x1 JUMPDEST PUSH3 0x516 JUMPI PUSH3 0x474 PUSH3 0xF61 JUMP JUMPDEST DUP1 PUSH4 0x8C379A0 SUB PUSH3 0x4D7 JUMPI POP PUSH3 0x48B PUSH3 0xF86 JUMP JUMPDEST DUP1 PUSH3 0x498 JUMPI POP PUSH3 0x4D9 JUMP JUMPDEST DUP1 PUSH1 0x40 MLOAD PUSH32 0x8C379A000000000000000000000000000000000000000000000000000000000 DUP2 MSTORE PUSH1 0x4 ADD PUSH3 0x4CE SWAP2 SWAP1 PUSH3 0x1062 JUMP JUMPDEST PUSH1 0x40 MLOAD DUP1 SWAP2 SUB SWAP1 REVERT JUMPDEST POP JUMPDEST PUSH1 0x40 MLOAD PUSH32 0x8C379A000000000000000000000000000000000000000000000000000000000 DUP2 MSTORE PUSH1 0x4 ADD PUSH3 0x50D SWAP1 PUSH3 0x10FC JUMP JUMPDEST PUSH1 0x40 MLOAD DUP1 SWAP2 SUB SWAP1 REVERT JUMPDEST PUSH4 0xF23A6E61 PUSH1 0xE0 SHL PUSH28 0xFFFFFFFFFFFFFFFFFFFFFFFFFFFFFFFFFFFFFFFFFFFFFFFFFFFFFFFF NOT AND DUP2 PUSH28 0xFFFFFFFFFFFFFFFFFFFFFFFFFFFFFFFFFFFFFFFFFFFFFFFFFFFFFFFF NOT AND EQ PUSH3 0x5A0 JUMPI PUSH1 0x40 MLOAD PUSH32 0x8C379A000000000000000000000000000000000000000000000000000000000 DUP2 MSTORE PUSH1 0x4 ADD PUSH3 0x597 SWAP1 PUSH3 0x1194 JUMP JUMPDEST PUSH1 0x40 MLOAD DUP1 SWAP2 SUB SWAP1 REVERT JUMPDEST POP JUMPDEST POP POP POP POP POP POP JUMP JUMPDEST PUSH1 0x0 DUP1 DUP3 EXTCODESIZE SWAP1 POP PUSH1 0x0 DUP2 GT SWAP2 POP POP SWAP2 SWAP1 POP JUMP JUMPDEST PUSH1 0x0 PUSH1 0x40 MLOAD SWAP1 POP SWAP1 JUMP JUMPDEST PUSH1 0x0 DUP1 REVERT JUMPDEST PUSH1 0x0 DUP1 REVERT JUMPDEST PUSH1 0x0 DUP2 SWAP1 POP SWAP2 SWAP1 POP JUMP JUMPDEST PUSH3 0x5E6 DUP2 PUSH3 0x5D1 JUMP JUMPDEST DUP2 EQ PUSH3 0x5F2 JUMPI PUSH1 0x0 DUP1 REVERT JUMPDEST POP JUMP JUMPDEST PUSH1 0x0 DUP2 MLOAD SWAP1 POP PUSH3 0x606 DUP2 PUSH3 0x5DB JUMP JUMPDEST SWAP3 SWAP2 POP POP JUMP JUMPDEST PUSH1 0x0 DUP1 REVERT JUMPDEST PUSH1 0x0 DUP1 REVERT JUMPDEST PUSH1 0x0 PUSH1 0x1F NOT PUSH1 0x1F DUP4 ADD AND SWAP1 POP SWAP2 SWAP1 POP JUMP JUMPDEST PUSH32 0x4E487B7100000000000000000000000000000000000000000000000000000000 PUSH1 0x0 MSTORE PUSH1 0x41 PUSH1 0x4 MSTORE PUSH1 0x24 PUSH1 0x0 REVERT JUMPDEST PUSH3 0x661 DUP3 PUSH3 0x616 JUMP JUMPDEST DUP2 ADD DUP2 DUP2 LT PUSH8 0xFFFFFFFFFFFFFFFF DUP3 GT OR ISZERO PUSH3 0x683 JUMPI PUSH3 0x682 PUSH3 0x627 JUMP JUMPDEST JUMPDEST DUP1 PUSH1 0x40 MSTORE POP POP POP JUMP JUMPDEST PUSH1 0x0 PUSH3 0x698 PUSH3 0x5BD JUMP JUMPDEST SWAP1 POP PUSH3 0x6A6 DUP3 DUP3 PUSH3 0x656 JUMP JUMPDEST SWAP2 SWAP1 POP JUMP JUMPDEST PUSH1 0x0 PUSH8 0xFFFFFFFFFFFFFFFF DUP3 GT ISZERO PUSH3 0x6C9 JUMPI PUSH3 0x6C8 PUSH3 0x627 JUMP JUMPDEST JUMPDEST PUSH3 0x6D4 DUP3 PUSH3 0x616 JUMP JUMPDEST SWAP1 POP PUSH1 0x20 DUP2 ADD SWAP1 POP SWAP2 SWAP1 POP JUMP JUMPDEST PUSH1 0x0 JUMPDEST DUP4 DUP2 LT ISZERO PUSH3 0x701 JUMPI DUP1 DUP3 ADD MLOAD DUP2 DUP5 ADD MSTORE PUSH1 0x20 DUP2 ADD SWAP1 POP PUSH3 0x6E4 JUMP JUMPDEST DUP4 DUP2 GT ISZERO PUSH3 0x711 JUMPI PUSH1 0x0 DUP5 DUP5 ADD MSTORE JUMPDEST POP POP POP POP JUMP JUMPDEST PUSH1 0x0 PUSH3 0x72E PUSH3 0x728 DUP5 PUSH3 0x6AB JUMP JUMPDEST PUSH3 0x68C JUMP JUMPDEST SWAP1 POP DUP3 DUP2 MSTORE PUSH1 0x20 DUP2 ADD DUP5 DUP5 DUP5 ADD GT ISZERO PUSH3 0x74D JUMPI PUSH3 0x74C PUSH3 0x611 JUMP JUMPDEST JUMPDEST PUSH3 0x75A DUP5 DUP3 DUP6 PUSH3 0x6E1 JUMP JUMPDEST POP SWAP4 SWAP3 POP POP POP JUMP JUMPDEST PUSH1 0x0 DUP3 PUSH1 0x1F DUP4 ADD SLT PUSH3 0x77A JUMPI PUSH3 0x779 PUSH3 0x60C JUMP JUMPDEST JUMPDEST DUP2 MLOAD PUSH3 0x78C DUP5 DUP3 PUSH1 0x20 DUP7 ADD PUSH3 0x717 JUMP JUMPDEST SWAP2 POP POP SWAP3 SWAP2 POP POP JUMP JUMPDEST PUSH1 0x0 DUP1 PUSH1 0x0 PUSH1 0x60 DUP5 DUP7 SUB SLT ISZERO PUSH3 0x7B1 JUMPI PUSH3 0x7B0 PUSH3 0x5C7 JUMP JUMPDEST JUMPDEST PUSH1 0x0 PUSH3 0x7C1 DUP7 DUP3 DUP8 ADD PUSH3 0x5F5 JUMP JUMPDEST SWAP4 POP POP PUSH1 0x20 PUSH3 0x7D4 DUP7 DUP3 DUP8 ADD PUSH3 0x5F5 JUMP JUMPDEST SWAP3 POP POP PUSH1 0x40 DUP5 ADD MLOAD PUSH8 0xFFFFFFFFFFFFFFFF DUP2 GT ISZERO PUSH3 0x7F8 JUMPI PUSH3 0x7F7 PUSH3 0x5CC JUMP JUMPDEST JUMPDEST PUSH3 0x806 DUP7 DUP3 DUP8 ADD PUSH3 0x762 JUMP JUMPDEST SWAP2 POP POP SWAP3 POP SWAP3 POP SWAP3 JUMP JUMPDEST PUSH1 0x0 DUP3 DUP3 MSTORE PUSH1 0x20 DUP3 ADD SWAP1 POP SWAP3 SWAP2 POP POP JUMP JUMPDEST PUSH32 0x796F752063616E742068617665206D6F726520766F746573206E656564656420 PUSH1 0x0 DUP3 ADD MSTORE PUSH32 0x7468616E206B6579732063726561746564000000000000000000000000000000 PUSH1 0x20 DUP3 ADD MSTORE POP JUMP JUMPDEST PUSH1 0x0 PUSH3 0x87F PUSH1 0x31 DUP4 PUSH3 0x810 JUMP JUMPDEST SWAP2 POP PUSH3 0x88C DUP3 PUSH3 0x821 JUMP JUMPDEST PUSH1 0x40 DUP3 ADD SWAP1 POP SWAP2 SWAP1 POP JUMP JUMPDEST PUSH1 0x0 PUSH1 0x20 DUP3 ADD SWAP1 POP DUP2 DUP2 SUB PUSH1 0x0 DUP4 ADD MSTORE PUSH3 0x8B2 DUP2 PUSH3 0x870 JUMP JUMPDEST SWAP1 POP SWAP2 SWAP1 POP JUMP JUMPDEST PUSH32 0x4E487B7100000000000000000000000000000000000000000000000000000000 PUSH1 0x0 MSTORE PUSH1 0x11 PUSH1 0x4 MSTORE PUSH1 0x24 PUSH1 0x0 REVERT JUMPDEST PUSH1 0x0 PUSH3 0x8F5 DUP3 PUSH3 0x5D1 JUMP JUMPDEST SWAP2 POP PUSH32 0xFFFFFFFFFFFFFFFFFFFFFFFFFFFFFFFFFFFFFFFFFFFFFFFFFFFFFFFFFFFFFFFF DUP3 SUB PUSH3 0x92A JUMPI PUSH3 0x929 PUSH3 0x8B9 JUMP JUMPDEST JUMPDEST PUSH1 0x1 DUP3 ADD SWAP1 POP SWAP2 SWAP1 POP JUMP JUMPDEST PUSH1 0x0 DUP2 MLOAD SWAP1 POP SWAP2 SWAP1 POP JUMP JUMPDEST PUSH32 0x4E487B7100000000000000000000000000000000000000000000000000000000 PUSH1 0x0 MSTORE PUSH1 0x22 PUSH1 0x4 MSTORE PUSH1 0x24 PUSH1 0x0 REVERT JUMPDEST PUSH1 0x0 PUSH1 0x2 DUP3 DIV SWAP1 POP PUSH1 0x1 DUP3 AND DUP1 PUSH3 0x988 JUMPI PUSH1 0x7F DUP3 AND SWAP2 POP JUMPDEST PUSH1 0x20 DUP3 LT DUP2 SUB PUSH3 0x99E JUMPI PUSH3 0x99D PUSH3 0x940 JUMP JUMPDEST JUMPDEST POP SWAP2 SWAP1 POP JUMP JUMPDEST PUSH1 0x0 DUP2 SWAP1 POP DUP2 PUSH1 0x0 MSTORE PUSH1 0x20 PUSH1 0x0 KECCAK256 SWAP1 POP SWAP2 SWAP1 POP JUMP JUMPDEST PUSH1 0x0 PUSH1 0x20 PUSH1 0x1F DUP4 ADD DIV SWAP1 POP SWAP2 SWAP1 POP JUMP JUMPDEST PUSH1 0x0 DUP3 DUP3 SHL SWAP1 POP SWAP3 SWAP2 POP POP JUMP JUMPDEST PUSH1 0x0 PUSH1 0x8 DUP4 MUL PUSH3 0xA08 PUSH32 0xFFFFFFFFFFFFFFFFFFFFFFFFFFFFFFFFFFFFFFFFFFFFFFFFFFFFFFFFFFFFFFFF DUP3 PUSH3 0x9C9 JUMP JUMPDEST PUSH3 0xA14 DUP7 DUP4 PUSH3 0x9C9 JUMP JUMPDEST SWAP6 POP DUP1 NOT DUP5 AND SWAP4 POP DUP1 DUP7 AND DUP5 OR SWAP3 POP POP POP SWAP4 SWAP3 POP POP POP JUMP JUMPDEST PUSH1 0x0 DUP2 SWAP1 POP SWAP2 SWAP1 POP JUMP JUMPDEST PUSH1 0x0 PUSH3 0xA57 PUSH3 0xA51 PUSH3 0xA4B DUP5 PUSH3 0x5D1 JUMP JUMPDEST PUSH3 0xA2C JUMP JUMPDEST PUSH3 0x5D1 JUMP JUMPDEST SWAP1 POP SWAP2 SWAP1 POP JUMP JUMPDEST PUSH1 0x0 DUP2 SWAP1 POP SWAP2 SWAP1 POP JUMP JUMPDEST PUSH3 0xA73 DUP4 PUSH3 0xA36 JUMP JUMPDEST PUSH3 0xA8B PUSH3 0xA82 DUP3 PUSH3 0xA5E JUMP JUMPDEST DUP5 DUP5 SLOAD PUSH3 0x9D6 JUMP JUMPDEST DUP3 SSTORE POP POP POP POP JUMP JUMPDEST PUSH1 0x0 SWAP1 JUMP JUMPDEST PUSH3 0xAA2 PUSH3 0xA93 JUMP JUMPDEST PUSH3 0xAAF DUP2 DUP5 DUP5 PUSH3 0xA68 JUMP JUMPDEST POP POP POP JUMP JUMPDEST JUMPDEST DUP2 DUP2 LT ISZERO PUSH3 0xAD7 JUMPI PUSH3 0xACB PUSH1 0x0 DUP3 PUSH3 0xA98 JUMP JUMPDEST PUSH1 0x1 DUP2 ADD SWAP1 POP PUSH3 0xAB5 JUMP JUMPDEST POP POP JUMP JUMPDEST PUSH1 0x1F DUP3 GT ISZERO PUSH3 0xB26 JUMPI PUSH3 0xAF0 DUP2 PUSH3 0x9A4 JUMP JUMPDEST PUSH3 0xAFB DUP5 PUSH3 0x9B9 JUMP JUMPDEST DUP2 ADD PUSH1 0x20 DUP6 LT ISZERO PUSH3 0xB0B JUMPI DUP2 SWAP1 POP JUMPDEST PUSH3 0xB23 PUSH3 0xB1A DUP6 PUSH3 0x9B9 JUMP JUMPDEST DUP4 ADD DUP3 PUSH3 0xAB4 JUMP JUMPDEST POP POP JUMPDEST POP POP POP JUMP JUMPDEST PUSH1 0x0 DUP3 DUP3 SHR SWAP1 POP SWAP3 SWAP2 POP POP JUMP JUMPDEST PUSH1 0x0 PUSH3 0xB4B PUSH1 0x0 NOT DUP5 PUSH1 0x8 MUL PUSH3 0xB2B JUMP JUMPDEST NOT DUP1 DUP4 AND SWAP2 POP POP SWAP3 SWAP2 POP POP JUMP JUMPDEST PUSH1 0x0 PUSH3 0xB66 DUP4 DUP4 PUSH3 0xB38 JUMP JUMPDEST SWAP2 POP DUP3 PUSH1 0x2 MUL DUP3 OR SWAP1 POP SWAP3 SWAP2 POP POP JUMP JUMPDEST PUSH3 0xB81 DUP3 PUSH3 0x935 JUMP JUMPDEST PUSH8 0xFFFFFFFFFFFFFFFF DUP2 GT ISZERO PUSH3 0xB9D JUMPI PUSH3 0xB9C PUSH3 0x627 JUMP JUMPDEST JUMPDEST PUSH3 0xBA9 DUP3 SLOAD PUSH3 0x96F JUMP JUMPDEST PUSH3 0xBB6 DUP3 DUP3 DUP6 PUSH3 0xADB JUMP JUMPDEST PUSH1 0x0 PUSH1 0x20 SWAP1 POP PUSH1 0x1F DUP4 GT PUSH1 0x1 DUP2 EQ PUSH3 0xBEE JUMPI PUSH1 0x0 DUP5 ISZERO PUSH3 0xBD9 JUMPI DUP3 DUP8 ADD MLOAD SWAP1 POP JUMPDEST PUSH3 0xBE5 DUP6 DUP3 PUSH3 0xB58 JUMP JUMPDEST DUP7 SSTORE POP PUSH3 0xC55 JUMP JUMPDEST PUSH1 0x1F NOT DUP5 AND PUSH3 0xBFE DUP7 PUSH3 0x9A4 JUMP JUMPDEST PUSH1 0x0 JUMPDEST DUP3 DUP2 LT ISZERO PUSH3 0xC28 JUMPI DUP5 DUP10 ADD MLOAD DUP3 SSTORE PUSH1 0x1 DUP3 ADD SWAP2 POP PUSH1 0x20 DUP6 ADD SWAP5 POP PUSH1 0x20 DUP2 ADD SWAP1 POP PUSH3 0xC01 JUMP JUMPDEST DUP7 DUP4 LT ISZERO PUSH3 0xC48 JUMPI DUP5 DUP10 ADD MLOAD PUSH3 0xC44 PUSH1 0x1F DUP10 AND DUP3 PUSH3 0xB38 JUMP JUMPDEST DUP4 SSTORE POP JUMPDEST PUSH1 0x1 PUSH1 0x2 DUP9 MUL ADD DUP9 SSTORE POP POP POP JUMPDEST POP POP POP POP POP POP JUMP JUMPDEST PUSH32 0x455243313135353A206D696E7420746F20746865207A65726F20616464726573 PUSH1 0x0 DUP3 ADD MSTORE PUSH32 0x7300000000000000000000000000000000000000000000000000000000000000 PUSH1 0x20 DUP3 ADD MSTORE POP JUMP JUMPDEST PUSH1 0x0 PUSH3 0xCBB PUSH1 0x21 DUP4 PUSH3 0x810 JUMP JUMPDEST SWAP2 POP PUSH3 0xCC8 DUP3 PUSH3 0xC5D JUMP JUMPDEST PUSH1 0x40 DUP3 ADD SWAP1 POP SWAP2 SWAP1 POP JUMP JUMPDEST PUSH1 0x0 PUSH1 0x20 DUP3 ADD SWAP1 POP DUP2 DUP2 SUB PUSH1 0x0 DUP4 ADD MSTORE PUSH3 0xCEE DUP2 PUSH3 0xCAC JUMP JUMPDEST SWAP1 POP SWAP2 SWAP1 POP JUMP JUMPDEST PUSH1 0x0 PUSH3 0xD02 DUP3 PUSH3 0x5D1 JUMP JUMPDEST SWAP2 POP PUSH3 0xD0F DUP4 PUSH3 0x5D1 JUMP JUMPDEST SWAP3 POP DUP3 PUSH32 0xFFFFFFFFFFFFFFFFFFFFFFFFFFFFFFFFFFFFFFFFFFFFFFFFFFFFFFFFFFFFFFFF SUB DUP3 GT ISZERO PUSH3 0xD47 JUMPI PUSH3 0xD46 PUSH3 0x8B9 JUMP JUMPDEST JUMPDEST DUP3 DUP3 ADD SWAP1 POP SWAP3 SWAP2 POP POP JUMP JUMPDEST PUSH3 0xD5D DUP2 PUSH3 0x5D1 JUMP JUMPDEST DUP3 MSTORE POP POP JUMP JUMPDEST PUSH1 0x0 PUSH1 0x40 DUP3 ADD SWAP1 POP PUSH3 0xD7A PUSH1 0x0 DUP4 ADD DUP6 PUSH3 0xD52 JUMP JUMPDEST PUSH3 0xD89 PUSH1 0x20 DUP4 ADD DUP5 PUSH3 0xD52 JUMP JUMPDEST SWAP4 SWAP3 POP POP POP JUMP JUMPDEST PUSH32 0x4E487B7100000000000000000000000000000000000000000000000000000000 PUSH1 0x0 MSTORE PUSH1 0x32 PUSH1 0x4 MSTORE PUSH1 0x24 PUSH1 0x0 REVERT JUMPDEST PUSH1 0x0 PUSH20 0xFFFFFFFFFFFFFFFFFFFFFFFFFFFFFFFFFFFFFFFF DUP3 AND SWAP1 POP SWAP2 SWAP1 POP JUMP JUMPDEST PUSH1 0x0 PUSH3 0xDEC DUP3 PUSH3 0xDBF JUMP JUMPDEST SWAP1 POP SWAP2 SWAP1 POP JUMP JUMPDEST PUSH3 0xDFE DUP2 PUSH3 0xDDF JUMP JUMPDEST DUP3 MSTORE POP POP JUMP JUMPDEST PUSH1 0x0 DUP2 MLOAD SWAP1 POP SWAP2 SWAP1 POP JUMP JUMPDEST PUSH1 0x0 DUP3 DUP3 MSTORE PUSH1 0x20 DUP3 ADD SWAP1 POP SWAP3 SWAP2 POP POP JUMP JUMPDEST PUSH1 0x0 PUSH3 0xE2D DUP3 PUSH3 0xE04 JUMP JUMPDEST PUSH3 0xE39 DUP2 DUP6 PUSH3 0xE0F JUMP JUMPDEST SWAP4 POP PUSH3 0xE4B DUP2 DUP6 PUSH1 0x20 DUP7 ADD PUSH3 0x6E1 JUMP JUMPDEST PUSH3 0xE56 DUP2 PUSH3 0x616 JUMP JUMPDEST DUP5 ADD SWAP2 POP POP SWAP3 SWAP2 POP POP JUMP JUMPDEST PUSH1 0x0 PUSH1 0xA0 DUP3 ADD SWAP1 POP PUSH3 0xE78 PUSH1 0x0 DUP4 ADD DUP9 PUSH3 0xDF3 JUMP JUMPDEST PUSH3 0xE87 PUSH1 0x20 DUP4 ADD DUP8 PUSH3 0xDF3 JUMP JUMPDEST PUSH3 0xE96 PUSH1 0x40 DUP4 ADD DUP7 PUSH3 0xD52 JUMP JUMPDEST PUSH3 0xEA5 PUSH1 0x60 DUP4 ADD DUP6 PUSH3 0xD52 JUMP JUMPDEST DUP2 DUP2 SUB PUSH1 0x80 DUP4 ADD MSTORE PUSH3 0xEB9 DUP2 DUP5 PUSH3 0xE20 JUMP JUMPDEST SWAP1 POP SWAP7 SWAP6 POP POP POP POP POP POP JUMP JUMPDEST PUSH1 0x0 PUSH32 0xFFFFFFFF00000000000000000000000000000000000000000000000000000000 DUP3 AND SWAP1 POP SWAP2 SWAP1 POP JUMP JUMPDEST PUSH3 0xEFC DUP2 PUSH3 0xEC5 JUMP JUMPDEST DUP2 EQ PUSH3 0xF08 JUMPI PUSH1 0x0 DUP1 REVERT JUMPDEST POP JUMP JUMPDEST PUSH1 0x0 DUP2 MLOAD SWAP1 POP PUSH3 0xF1C DUP2 PUSH3 0xEF1 JUMP JUMPDEST SWAP3 SWAP2 POP POP JUMP JUMPDEST PUSH1 0x0 PUSH1 0x20 DUP3 DUP5 SUB SLT ISZERO PUSH3 0xF3B JUMPI PUSH3 0xF3A PUSH3 0x5C7 JUMP JUMPDEST JUMPDEST PUSH1 0x0 PUSH3 0xF4B DUP5 DUP3 DUP6 ADD PUSH3 0xF0B JUMP JUMPDEST SWAP2 POP POP SWAP3 SWAP2 POP POP JUMP JUMPDEST PUSH1 0x0 DUP2 PUSH1 0xE0 SHR SWAP1 POP SWAP2 SWAP1 POP JUMP JUMPDEST PUSH1 0x0 PUSH1 0x3 RETURNDATASIZE GT ISZERO PUSH3 0xF83 JUMPI PUSH1 0x4 PUSH1 0x0 DUP1 RETURNDATACOPY PUSH3 0xF80 PUSH1 0x0 MLOAD PUSH3 0xF54 JUMP JUMPDEST SWAP1 POP JUMPDEST SWAP1 JUMP JUMPDEST PUSH1 0x0 PUSH1 0x44 RETURNDATASIZE LT PUSH3 0x101E JUMPI PUSH3 0xF9B PUSH3 0x5BD JUMP JUMPDEST PUSH1 0x4 RETURNDATASIZE SUB PUSH1 0x4 DUP3 RETURNDATACOPY DUP1 MLOAD RETURNDATASIZE PUSH1 0x24 DUP3 ADD GT PUSH8 0xFFFFFFFFFFFFFFFF DUP3 GT OR ISZERO PUSH3 0xFC5 JUMPI POP POP PUSH3 0x101E JUMP JUMPDEST DUP1 DUP3 ADD DUP1 MLOAD PUSH8 0xFFFFFFFFFFFFFFFF DUP2 GT ISZERO PUSH3 0xFE5 JUMPI POP POP POP POP PUSH3 0x101E JUMP JUMPDEST DUP1 PUSH1 0x20 DUP4 ADD ADD PUSH1 0x4 RETURNDATASIZE SUB DUP6 ADD DUP2 GT ISZERO PUSH3 0x1004 JUMPI POP POP POP POP POP PUSH3 0x101E JUMP JUMPDEST PUSH3 0x1015 DUP3 PUSH1 0x20 ADD DUP6 ADD DUP7 PUSH3 0x656 JUMP JUMPDEST DUP3 SWAP6 POP POP POP POP POP POP JUMPDEST SWAP1 JUMP JUMPDEST PUSH1 0x0 PUSH3 0x102E DUP3 PUSH3 0x935 JUMP JUMPDEST PUSH3 0x103A DUP2 DUP6 PUSH3 0x810 JUMP JUMPDEST SWAP4 POP PUSH3 0x104C DUP2 DUP6 PUSH1 0x20 DUP7 ADD PUSH3 0x6E1 JUMP JUMPDEST PUSH3 0x1057 DUP2 PUSH3 0x616 JUMP JUMPDEST DUP5 ADD SWAP2 POP POP SWAP3 SWAP2 POP POP JUMP JUMPDEST PUSH1 0x0 PUSH1 0x20 DUP3 ADD SWAP1 POP DUP2 DUP2 SUB PUSH1 0x0 DUP4 ADD MSTORE PUSH3 0x107E DUP2 DUP5 PUSH3 0x1021 JUMP JUMPDEST SWAP1 POP SWAP3 SWAP2 POP POP JUMP JUMPDEST PUSH32 0x455243313135353A207472616E7366657220746F206E6F6E2045524331313535 PUSH1 0x0 DUP3 ADD MSTORE PUSH32 0x526563656976657220696D706C656D656E746572000000000000000000000000 PUSH1 0x20 DUP3 ADD MSTORE POP JUMP JUMPDEST PUSH1 0x0 PUSH3 0x10E4 PUSH1 0x34 DUP4 PUSH3 0x810 JUMP JUMPDEST SWAP2 POP PUSH3 0x10F1 DUP3 PUSH3 0x1086 JUMP JUMPDEST PUSH1 0x40 DUP3 ADD SWAP1 POP SWAP2 SWAP1 POP JUMP JUMPDEST PUSH1 0x0 PUSH1 0x20 DUP3 ADD SWAP1 POP DUP2 DUP2 SUB PUSH1 0x0 DUP4 ADD MSTORE PUSH3 0x1117 DUP2 PUSH3 0x10D5 JUMP JUMPDEST SWAP1 POP SWAP2 SWAP1 POP JUMP JUMPDEST PUSH32 0x455243313135353A204552433131353552656365697665722072656A65637465 PUSH1 0x0 DUP3 ADD MSTORE PUSH32 0x6420746F6B656E73000000000000000000000000000000000000000000000000 PUSH1 0x20 DUP3 ADD MSTORE POP JUMP JUMPDEST PUSH1 0x0 PUSH3 0x117C PUSH1 0x28 DUP4 PUSH3 0x810 JUMP JUMPDEST SWAP2 POP PUSH3 0x1189 DUP3 PUSH3 0x111E JUMP JUMPDEST PUSH1 0x40 DUP3 ADD SWAP1 POP SWAP2 SWAP1 POP JUMP JUMPDEST PUSH1 0x0 PUSH1 0x20 DUP3 ADD SWAP1 POP DUP2 DUP2 SUB PUSH1 0x0 DUP4 ADD MSTORE PUSH3 0x11AF DUP2 PUSH3 0x116D JUMP JUMPDEST SWAP1 POP SWAP2 SWAP1 POP JUMP JUMPDEST PUSH2 0x5DAD DUP1 PUSH3 0x11C6 PUSH1 0x0 CODECOPY PUSH1 0x0 RETURN INVALID PUSH1 0x80 PUSH1 0x40 MSTORE PUSH1 0x4 CALLDATASIZE LT PUSH2 0x122 JUMPI PUSH1 0x0 CALLDATALOAD PUSH1 0xE0 SHR DUP1 PUSH4 0xA22CB465 GT PUSH2 0xA0 JUMPI DUP1 PUSH4 0xF23A6E61 GT PUSH2 0x64 JUMPI DUP1 PUSH4 0xF23A6E61 EQ PUSH2 0x48C JUMPI DUP1 PUSH4 0xF242432A EQ PUSH2 0x4C9 JUMPI DUP1 PUSH4 0xF3E394E8 EQ PUSH2 0x4F2 JUMPI DUP1 PUSH4 0xF84EEF0B EQ PUSH2 0x531 JUMPI DUP1 PUSH4 0xFBCC9B99 EQ PUSH2 0x56E JUMPI PUSH2 0x162 JUMP JUMPDEST DUP1 PUSH4 0xA22CB465 EQ PUSH2 0x393 JUMPI DUP1 PUSH4 0xBC197C81 EQ PUSH2 0x3BC JUMPI DUP1 PUSH4 0xCC0225A0 EQ PUSH2 0x3F9 JUMPI DUP1 PUSH4 0xCEDB980F EQ PUSH2 0x424 JUMPI DUP1 PUSH4 0xE985E9C5 EQ PUSH2 0x44F JUMPI PUSH2 0x162 JUMP JUMPDEST DUP1 PUSH4 0x2EB2C2D6 GT PUSH2 0xE7 JUMPI DUP1 PUSH4 0x2EB2C2D6 EQ PUSH2 0x286 JUMPI DUP1 PUSH4 0x488BDABC EQ PUSH2 0x2AF JUMPI DUP1 PUSH4 0x4E1273F4 EQ PUSH2 0x2DA JUMPI DUP1 PUSH4 0x4EB4B1A1 EQ PUSH2 0x317 JUMPI DUP1 PUSH4 0x72ED02BC EQ PUSH2 0x356 JUMPI PUSH2 0x162 JUMP JUMPDEST DUP1 PUSH3 0xFDD58E EQ PUSH2 0x167 JUMPI DUP1 PUSH4 0x1FFC9A7 EQ PUSH2 0x1A4 JUMPI DUP1 PUSH4 0xE89341C EQ PUSH2 0x1E1 JUMPI DUP1 PUSH4 0x108755E9 EQ PUSH2 0x21E JUMPI DUP1 PUSH4 0x150B7A02 EQ PUSH2 0x249 JUMPI PUSH2 0x162 JUMP JUMPDEST CALLDATASIZE PUSH2 0x162 JUMPI PUSH32 0x88A5966D370B9919B20F3E2C13FF65706F196A4E32CC2C12BF57088F88525874 CALLER CALLVALUE PUSH1 0x40 MLOAD PUSH2 0x158 SWAP3 SWAP2 SWAP1 PUSH2 0x3766 JUMP JUMPDEST PUSH1 0x40 MLOAD DUP1 SWAP2 SUB SWAP1 LOG1 STOP JUMPDEST PUSH1 0x0 DUP1 REVERT JUMPDEST CALLVALUE DUP1 ISZERO PUSH2 0x173 JUMPI PUSH1 0x0 DUP1 REVERT JUMPDEST POP PUSH2 0x18E PUSH1 0x4 DUP1 CALLDATASIZE SUB DUP2 ADD SWAP1 PUSH2 0x189 SWAP2 SWAP1 PUSH2 0x37FB JUMP JUMPDEST PUSH2 0x599 JUMP JUMPDEST PUSH1 0x40 MLOAD PUSH2 0x19B SWAP2 SWAP1 PUSH2 0x383B JUMP JUMPDEST PUSH1 0x40 MLOAD DUP1 SWAP2 SUB SWAP1 RETURN JUMPDEST CALLVALUE DUP1 ISZERO PUSH2 0x1B0 JUMPI PUSH1 0x0 DUP1 REVERT JUMPDEST POP PUSH2 0x1CB PUSH1 0x4 DUP1 CALLDATASIZE SUB DUP2 ADD SWAP1 PUSH2 0x1C6 SWAP2 SWAP1 PUSH2 0x38AE JUMP JUMPDEST PUSH2 0x661 JUMP JUMPDEST PUSH1 0x40 MLOAD PUSH2 0x1D8 SWAP2 SWAP1 PUSH2 0x38F6 JUMP JUMPDEST PUSH1 0x40 MLOAD DUP1 SWAP2 SUB SWAP1 RETURN JUMPDEST CALLVALUE DUP1 ISZERO PUSH2 0x1ED JUMPI PUSH1 0x0 DUP1 REVERT JUMPDEST POP PUSH2 0x208 PUSH1 0x4 DUP1 CALLDATASIZE SUB DUP2 ADD SWAP1 PUSH2 0x203 SWAP2 SWAP1 PUSH2 0x3911 JUMP JUMPDEST PUSH2 0x743 JUMP JUMPDEST PUSH1 0x40 MLOAD PUSH2 0x215 SWAP2 SWAP1 PUSH2 0x39D7 JUMP JUMPDEST PUSH1 0x40 MLOAD DUP1 SWAP2 SUB SWAP1 RETURN JUMPDEST CALLVALUE DUP1 ISZERO PUSH2 0x22A JUMPI PUSH1 0x0 DUP1 REVERT JUMPDEST POP PUSH2 0x233 PUSH2 0x7D7 JUMP JUMPDEST PUSH1 0x40 MLOAD PUSH2 0x240 SWAP2 SWAP1 PUSH2 0x3C44 JUMP JUMPDEST PUSH1 0x40 MLOAD DUP1 SWAP2 SUB SWAP1 RETURN JUMPDEST CALLVALUE DUP1 ISZERO PUSH2 0x255 JUMPI PUSH1 0x0 DUP1 REVERT JUMPDEST POP PUSH2 0x270 PUSH1 0x4 DUP1 CALLDATASIZE SUB DUP2 ADD SWAP1 PUSH2 0x26B SWAP2 SWAP1 PUSH2 0x3D9B JUMP JUMPDEST PUSH2 0xBC1 JUMP JUMPDEST PUSH1 0x40 MLOAD PUSH2 0x27D SWAP2 SWAP1 PUSH2 0x3E2D JUMP JUMPDEST PUSH1 0x40 MLOAD DUP1 SWAP2 SUB SWAP1 RETURN JUMPDEST CALLVALUE DUP1 ISZERO PUSH2 0x292 JUMPI PUSH1 0x0 DUP1 REVERT JUMPDEST POP PUSH2 0x2AD PUSH1 0x4 DUP1 CALLDATASIZE SUB DUP2 ADD SWAP1 PUSH2 0x2A8 SWAP2 SWAP1 PUSH2 0x3F10 JUMP JUMPDEST PUSH2 0xBD5 JUMP JUMPDEST STOP JUMPDEST CALLVALUE DUP1 ISZERO PUSH2 0x2BB JUMPI PUSH1 0x0 DUP1 REVERT JUMPDEST POP PUSH2 0x2C4 PUSH2 0xC76 JUMP JUMPDEST PUSH1 0x40 MLOAD PUSH2 0x2D1 SWAP2 SWAP1 PUSH2 0x383B JUMP JUMPDEST PUSH1 0x40 MLOAD DUP1 SWAP2 SUB SWAP1 RETURN JUMPDEST CALLVALUE DUP1 ISZERO PUSH2 0x2E6 JUMPI PUSH1 0x0 DUP1 REVERT JUMPDEST POP PUSH2 0x301 PUSH1 0x4 DUP1 CALLDATASIZE SUB DUP2 ADD SWAP1 PUSH2 0x2FC SWAP2 SWAP1 PUSH2 0x40A2 JUMP JUMPDEST PUSH2 0xC7C JUMP JUMPDEST PUSH1 0x40 MLOAD PUSH2 0x30E SWAP2 SWAP1 PUSH2 0x41C9 JUMP JUMPDEST PUSH1 0x40 MLOAD DUP1 SWAP2 SUB SWAP1 RETURN JUMPDEST CALLVALUE DUP1 ISZERO PUSH2 0x323 JUMPI PUSH1 0x0 DUP1 REVERT JUMPDEST POP PUSH2 0x33E PUSH1 0x4 DUP1 CALLDATASIZE SUB DUP2 ADD SWAP1 PUSH2 0x339 SWAP2 SWAP1 PUSH2 0x4217 JUMP JUMPDEST PUSH2 0xD95 JUMP JUMPDEST PUSH1 0x40 MLOAD PUSH2 0x34D SWAP4 SWAP3 SWAP2 SWAP1 PUSH2 0x426A JUMP JUMPDEST PUSH1 0x40 MLOAD DUP1 SWAP2 SUB SWAP1 RETURN JUMPDEST CALLVALUE DUP1 ISZERO PUSH2 0x362 JUMPI PUSH1 0x0 DUP1 REVERT JUMPDEST POP PUSH2 0x37D PUSH1 0x4 DUP1 CALLDATASIZE SUB DUP2 ADD SWAP1 PUSH2 0x378 SWAP2 SWAP1 PUSH2 0x442A JUMP JUMPDEST PUSH2 0x1095 JUMP JUMPDEST PUSH1 0x40 MLOAD PUSH2 0x38A SWAP2 SWAP1 PUSH2 0x38F6 JUMP JUMPDEST PUSH1 0x40 MLOAD DUP1 SWAP2 SUB SWAP1 RETURN JUMPDEST CALLVALUE DUP1 ISZERO PUSH2 0x39F JUMPI PUSH1 0x0 DUP1 REVERT JUMPDEST POP PUSH2 0x3BA PUSH1 0x4 DUP1 CALLDATASIZE SUB DUP2 ADD SWAP1 PUSH2 0x3B5 SWAP2 SWAP1 PUSH2 0x44D1 JUMP JUMPDEST PUSH2 0x1B20 JUMP JUMPDEST STOP JUMPDEST CALLVALUE DUP1 ISZERO PUSH2 0x3C8 JUMPI PUSH1 0x0 DUP1 REVERT JUMPDEST POP PUSH2 0x3E3 PUSH1 0x4 DUP1 CALLDATASIZE SUB DUP2 ADD SWAP1 PUSH2 0x3DE SWAP2 SWAP1 PUSH2 0x3F10 JUMP JUMPDEST PUSH2 0x1B36 JUMP JUMPDEST PUSH1 0x40 MLOAD PUSH2 0x3F0 SWAP2 SWAP1 PUSH2 0x3E2D JUMP JUMPDEST PUSH1 0x40 MLOAD DUP1 SWAP2 SUB SWAP1 RETURN JUMPDEST CALLVALUE DUP1 ISZERO PUSH2 0x405 JUMPI PUSH1 0x0 DUP1 REVERT JUMPDEST POP PUSH2 0x40E PUSH2 0x1B4B JUMP JUMPDEST PUSH1 0x40 MLOAD PUSH2 0x41B SWAP2 SWAP1 PUSH2 0x383B JUMP JUMPDEST PUSH1 0x40 MLOAD DUP1 SWAP2 SUB SWAP1 RETURN JUMPDEST CALLVALUE DUP1 ISZERO PUSH2 0x430 JUMPI PUSH1 0x0 DUP1 REVERT JUMPDEST POP PUSH2 0x439 PUSH2 0x1B51 JUMP JUMPDEST PUSH1 0x40 MLOAD PUSH2 0x446 SWAP2 SWAP1 PUSH2 0x383B JUMP JUMPDEST PUSH1 0x40 MLOAD DUP1 SWAP2 SUB SWAP1 RETURN JUMPDEST CALLVALUE DUP1 ISZERO PUSH2 0x45B JUMPI PUSH1 0x0 DUP1 REVERT JUMPDEST POP PUSH2 0x476 PUSH1 0x4 DUP1 CALLDATASIZE SUB DUP2 ADD SWAP1 PUSH2 0x471 SWAP2 SWAP1 PUSH2 0x4511 JUMP JUMPDEST PUSH2 0x1B57 JUMP JUMPDEST PUSH1 0x40 MLOAD PUSH2 0x483 SWAP2 SWAP1 PUSH2 0x38F6 JUMP JUMPDEST PUSH1 0x40 MLOAD DUP1 SWAP2 SUB SWAP1 RETURN JUMPDEST CALLVALUE DUP1 ISZERO PUSH2 0x498 JUMPI PUSH1 0x0 DUP1 REVERT JUMPDEST POP PUSH2 0x4B3 PUSH1 0x4 DUP1 CALLDATASIZE SUB DUP2 ADD SWAP1 PUSH2 0x4AE SWAP2 SWAP1 PUSH2 0x4551 JUMP JUMPDEST PUSH2 0x1BEB JUMP JUMPDEST PUSH1 0x40 MLOAD PUSH2 0x4C0 SWAP2 SWAP1 PUSH2 0x3E2D JUMP JUMPDEST PUSH1 0x40 MLOAD DUP1 SWAP2 SUB SWAP1 RETURN JUMPDEST CALLVALUE DUP1 ISZERO PUSH2 0x4D5 JUMPI PUSH1 0x0 DUP1 REVERT JUMPDEST POP PUSH2 0x4F0 PUSH1 0x4 DUP1 CALLDATASIZE SUB DUP2 ADD SWAP1 PUSH2 0x4EB SWAP2 SWAP1 PUSH2 0x4551 JUMP JUMPDEST PUSH2 0x1C00 JUMP JUMPDEST STOP JUMPDEST CALLVALUE DUP1 ISZERO PUSH2 0x4FE JUMPI PUSH1 0x0 DUP1 REVERT JUMPDEST POP PUSH2 0x519 PUSH1 0x4 DUP1 CALLDATASIZE SUB DUP2 ADD SWAP1 PUSH2 0x514 SWAP2 SWAP1 PUSH2 0x45E8 JUMP JUMPDEST PUSH2 0x1CA1 JUMP JUMPDEST PUSH1 0x40 MLOAD PUSH2 0x528 SWAP4 SWAP3 SWAP2 SWAP1 PUSH2 0x4628 JUMP JUMPDEST PUSH1 0x40 MLOAD DUP1 SWAP2 SUB SWAP1 RETURN JUMPDEST CALLVALUE DUP1 ISZERO PUSH2 0x53D JUMPI PUSH1 0x0 DUP1 REVERT JUMPDEST POP PUSH2 0x558 PUSH1 0x4 DUP1 CALLDATASIZE SUB DUP2 ADD SWAP1 PUSH2 0x553 SWAP2 SWAP1 PUSH2 0x45E8 JUMP JUMPDEST PUSH2 0x1DC3 JUMP JUMPDEST PUSH1 0x40 MLOAD PUSH2 0x565 SWAP2 SWAP1 PUSH2 0x39D7 JUMP JUMPDEST PUSH1 0x40 MLOAD DUP1 SWAP2 SUB SWAP1 RETURN JUMPDEST CALLVALUE DUP1 ISZERO PUSH2 0x57A JUMPI PUSH1 0x0 DUP1 REVERT JUMPDEST POP PUSH2 0x583 PUSH2 0x21DD JUMP JUMPDEST PUSH1 0x40 MLOAD PUSH2 0x590 SWAP2 SWAP1 PUSH2 0x383B JUMP JUMPDEST PUSH1 0x40 MLOAD DUP1 SWAP2 SUB SWAP1 RETURN JUMPDEST PUSH1 0x0 DUP1 PUSH20 0xFFFFFFFFFFFFFFFFFFFFFFFFFFFFFFFFFFFFFFFF AND DUP4 PUSH20 0xFFFFFFFFFFFFFFFFFFFFFFFFFFFFFFFFFFFFFFFF AND SUB PUSH2 0x609 JUMPI PUSH1 0x40 MLOAD PUSH32 0x8C379A000000000000000000000000000000000000000000000000000000000 DUP2 MSTORE PUSH1 0x4 ADD PUSH2 0x600 SWAP1 PUSH2 0x46D1 JUMP JUMPDEST PUSH1 0x40 MLOAD DUP1 SWAP2 SUB SWAP1 REVERT JUMPDEST PUSH1 0x0 DUP1 DUP4 DUP2 MSTORE PUSH1 0x20 ADD SWAP1 DUP2 MSTORE PUSH1 0x20 ADD PUSH1 0x0 KECCAK256 PUSH1 0x0 DUP5 PUSH20 0xFFFFFFFFFFFFFFFFFFFFFFFFFFFFFFFFFFFFFFFF AND PUSH20 0xFFFFFFFFFFFFFFFFFFFFFFFFFFFFFFFFFFFFFFFF AND DUP2 MSTORE PUSH1 0x20 ADD SWAP1 DUP2 MSTORE PUSH1 0x20 ADD PUSH1 0x0 KECCAK256 SLOAD SWAP1 POP SWAP3 SWAP2 POP POP JUMP JUMPDEST PUSH1 0x0 PUSH32 0xD9B67A2600000000000000000000000000000000000000000000000000000000 PUSH28 0xFFFFFFFFFFFFFFFFFFFFFFFFFFFFFFFFFFFFFFFFFFFFFFFFFFFFFFFF NOT AND DUP3 PUSH28 0xFFFFFFFFFFFFFFFFFFFFFFFFFFFFFFFFFFFFFFFFFFFFFFFFFFFFFFFF NOT AND EQ DUP1 PUSH2 0x72C JUMPI POP PUSH32 0xE89341C00000000000000000000000000000000000000000000000000000000 PUSH28 0xFFFFFFFFFFFFFFFFFFFFFFFFFFFFFFFFFFFFFFFFFFFFFFFFFFFFFFFF NOT AND DUP3 PUSH28 0xFFFFFFFFFFFFFFFFFFFFFFFFFFFFFFFFFFFFFFFFFFFFFFFFFFFFFFFF NOT AND EQ JUMPDEST DUP1 PUSH2 0x73C JUMPI POP PUSH2 0x73B DUP3 PUSH2 0x21F6 JUMP JUMPDEST JUMPDEST SWAP1 POP SWAP2 SWAP1 POP JUMP JUMPDEST PUSH1 0x60 PUSH1 0x2 DUP1 SLOAD PUSH2 0x752 SWAP1 PUSH2 0x4720 JUMP JUMPDEST DUP1 PUSH1 0x1F ADD PUSH1 0x20 DUP1 SWAP2 DIV MUL PUSH1 0x20 ADD PUSH1 0x40 MLOAD SWAP1 DUP2 ADD PUSH1 0x40 MSTORE DUP1 SWAP3 SWAP2 SWAP1 DUP2 DUP2 MSTORE PUSH1 0x20 ADD DUP3 DUP1 SLOAD PUSH2 0x77E SWAP1 PUSH2 0x4720 JUMP JUMPDEST DUP1 ISZERO PUSH2 0x7CB JUMPI DUP1 PUSH1 0x1F LT PUSH2 0x7A0 JUMPI PUSH2 0x100 DUP1 DUP4 SLOAD DIV MUL DUP4 MSTORE SWAP2 PUSH1 0x20 ADD SWAP2 PUSH2 0x7CB JUMP JUMPDEST DUP3 ADD SWAP2 SWAP1 PUSH1 0x0 MSTORE PUSH1 0x20 PUSH1 0x0 KECCAK256 SWAP1 JUMPDEST DUP2 SLOAD DUP2 MSTORE SWAP1 PUSH1 0x1 ADD SWAP1 PUSH1 0x20 ADD DUP1 DUP4 GT PUSH2 0x7AE JUMPI DUP3 SWAP1 SUB PUSH1 0x1F AND DUP3 ADD SWAP2 JUMPDEST POP POP POP POP POP SWAP1 POP SWAP2 SWAP1 POP JUMP JUMPDEST PUSH1 0x60 PUSH1 0x0 DUP1 PUSH2 0x7E5 CALLER PUSH2 0x2260 JUMP JUMPDEST SWAP2 POP SWAP2 POP PUSH1 0x1 ISZERO ISZERO DUP3 ISZERO ISZERO EQ PUSH2 0x830 JUMPI PUSH1 0x40 MLOAD PUSH32 0x8C379A000000000000000000000000000000000000000000000000000000000 DUP2 MSTORE PUSH1 0x4 ADD PUSH2 0x827 SWAP1 PUSH2 0x47C3 JUMP JUMPDEST PUSH1 0x40 MLOAD DUP1 SWAP2 SUB SWAP1 REVERT JUMPDEST PUSH1 0x0 PUSH1 0x4 SLOAD PUSH8 0xFFFFFFFFFFFFFFFF DUP2 GT ISZERO PUSH2 0x84E JUMPI PUSH2 0x84D PUSH2 0x3C70 JUMP JUMPDEST JUMPDEST PUSH1 0x40 MLOAD SWAP1 DUP1 DUP3 MSTORE DUP1 PUSH1 0x20 MUL PUSH1 0x20 ADD DUP3 ADD PUSH1 0x40 MSTORE DUP1 ISZERO PUSH2 0x887 JUMPI DUP2 PUSH1 0x20 ADD JUMPDEST PUSH2 0x874 PUSH2 0x367B JUMP JUMPDEST DUP2 MSTORE PUSH1 0x20 ADD SWAP1 PUSH1 0x1 SWAP1 SUB SWAP1 DUP2 PUSH2 0x86C JUMPI SWAP1 POP JUMPDEST POP SWAP1 POP PUSH1 0x0 JUMPDEST PUSH1 0x4 SLOAD DUP2 LT ISZERO PUSH2 0xBB7 JUMPI PUSH1 0x0 PUSH1 0x9 PUSH1 0x0 DUP4 DUP2 MSTORE PUSH1 0x20 ADD SWAP1 DUP2 MSTORE PUSH1 0x20 ADD PUSH1 0x0 KECCAK256 SWAP1 POP DUP1 PUSH1 0x40 MLOAD DUP1 PUSH2 0x180 ADD PUSH1 0x40 MSTORE SWAP1 DUP2 PUSH1 0x0 DUP3 ADD SLOAD DUP2 MSTORE PUSH1 0x20 ADD PUSH1 0x1 DUP3 ADD PUSH1 0x0 SWAP1 SLOAD SWAP1 PUSH2 0x100 EXP SWAP1 DIV PUSH20 0xFFFFFFFFFFFFFFFFFFFFFFFFFFFFFFFFFFFFFFFF AND PUSH20 0xFFFFFFFFFFFFFFFFFFFFFFFFFFFFFFFFFFFFFFFF AND PUSH20 0xFFFFFFFFFFFFFFFFFFFFFFFFFFFFFFFFFFFFFFFF AND DUP2 MSTORE PUSH1 0x20 ADD PUSH1 0x2 DUP3 ADD DUP1 SLOAD PUSH2 0x92B SWAP1 PUSH2 0x4720 JUMP JUMPDEST DUP1 PUSH1 0x1F ADD PUSH1 0x20 DUP1 SWAP2 DIV MUL PUSH1 0x20 ADD PUSH1 0x40 MLOAD SWAP1 DUP2 ADD PUSH1 0x40 MSTORE DUP1 SWAP3 SWAP2 SWAP1 DUP2 DUP2 MSTORE PUSH1 0x20 ADD DUP3 DUP1 SLOAD PUSH2 0x957 SWAP1 PUSH2 0x4720 JUMP JUMPDEST DUP1 ISZERO PUSH2 0x9A4 JUMPI DUP1 PUSH1 0x1F LT PUSH2 0x979 JUMPI PUSH2 0x100 DUP1 DUP4 SLOAD DIV MUL DUP4 MSTORE SWAP2 PUSH1 0x20 ADD SWAP2 PUSH2 0x9A4 JUMP JUMPDEST DUP3 ADD SWAP2 SWAP1 PUSH1 0x0 MSTORE PUSH1 0x20 PUSH1 0x0 KECCAK256 SWAP1 JUMPDEST DUP2 SLOAD DUP2 MSTORE SWAP1 PUSH1 0x1 ADD SWAP1 PUSH1 0x20 ADD DUP1 DUP4 GT PUSH2 0x987 JUMPI DUP3 SWAP1 SUB PUSH1 0x1F AND DUP3 ADD SWAP2 JUMPDEST POP POP POP POP POP DUP2 MSTORE PUSH1 0x20 ADD PUSH1 0x3 DUP3 ADD DUP1 SLOAD PUSH2 0x9BD SWAP1 PUSH2 0x4720 JUMP JUMPDEST DUP1 PUSH1 0x1F ADD PUSH1 0x20 DUP1 SWAP2 DIV MUL PUSH1 0x20 ADD PUSH1 0x40 MLOAD SWAP1 DUP2 ADD PUSH1 0x40 MSTORE DUP1 SWAP3 SWAP2 SWAP1 DUP2 DUP2 MSTORE PUSH1 0x20 ADD DUP3 DUP1 SLOAD PUSH2 0x9E9 SWAP1 PUSH2 0x4720 JUMP JUMPDEST DUP1 ISZERO PUSH2 0xA36 JUMPI DUP1 PUSH1 0x1F LT PUSH2 0xA0B JUMPI PUSH2 0x100 DUP1 DUP4 SLOAD DIV MUL DUP4 MSTORE SWAP2 PUSH1 0x20 ADD SWAP2 PUSH2 0xA36 JUMP JUMPDEST DUP3 ADD SWAP2 SWAP1 PUSH1 0x0 MSTORE PUSH1 0x20 PUSH1 0x0 KECCAK256 SWAP1 JUMPDEST DUP2 SLOAD DUP2 MSTORE SWAP1 PUSH1 0x1 ADD SWAP1 PUSH1 0x20 ADD DUP1 DUP4 GT PUSH2 0xA19 JUMPI DUP3 SWAP1 SUB PUSH1 0x1F AND DUP3 ADD SWAP2 JUMPDEST POP POP POP POP POP DUP2 MSTORE PUSH1 0x20 ADD PUSH1 0x4 DUP3 ADD PUSH1 0x0 SWAP1 SLOAD SWAP1 PUSH2 0x100 EXP SWAP1 DIV PUSH1 0xFF AND ISZERO ISZERO ISZERO ISZERO DUP2 MSTORE PUSH1 0x20 ADD PUSH1 0x5 DUP3 ADD SLOAD DUP2 MSTORE PUSH1 0x20 ADD PUSH1 0x6 DUP3 ADD SLOAD DUP2 MSTORE PUSH1 0x20 ADD PUSH1 0x7 DUP3 ADD SLOAD DUP2 MSTORE PUSH1 0x20 ADD PUSH1 0x8 DUP3 ADD PUSH1 0x0 SWAP1 SLOAD SWAP1 PUSH2 0x100 EXP SWAP1 DIV PUSH1 0xFF AND ISZERO ISZERO ISZERO ISZERO DUP2 MSTORE PUSH1 0x20 ADD PUSH1 0x8 DUP3 ADD PUSH1 0x1 SWAP1 SLOAD SWAP1 PUSH2 0x100 EXP SWAP1 DIV PUSH20 0xFFFFFFFFFFFFFFFFFFFFFFFFFFFFFFFFFFFFFFFF AND PUSH20 0xFFFFFFFFFFFFFFFFFFFFFFFFFFFFFFFFFFFFFFFF AND PUSH20 0xFFFFFFFFFFFFFFFFFFFFFFFFFFFFFFFFFFFFFFFF AND DUP2 MSTORE PUSH1 0x20 ADD PUSH1 0x9 DUP3 ADD SLOAD DUP2 MSTORE PUSH1 0x20 ADD PUSH1 0xA DUP3 ADD DUP1 SLOAD PUSH2 0xB03 SWAP1 PUSH2 0x4720 JUMP JUMPDEST DUP1 PUSH1 0x1F ADD PUSH1 0x20 DUP1 SWAP2 DIV MUL PUSH1 0x20 ADD PUSH1 0x40 MLOAD SWAP1 DUP2 ADD PUSH1 0x40 MSTORE DUP1 SWAP3 SWAP2 SWAP1 DUP2 DUP2 MSTORE PUSH1 0x20 ADD DUP3 DUP1 SLOAD PUSH2 0xB2F SWAP1 PUSH2 0x4720 JUMP JUMPDEST DUP1 ISZERO PUSH2 0xB7C JUMPI DUP1 PUSH1 0x1F LT PUSH2 0xB51 JUMPI PUSH2 0x100 DUP1 DUP4 SLOAD DIV MUL DUP4 MSTORE SWAP2 PUSH1 0x20 ADD SWAP2 PUSH2 0xB7C JUMP JUMPDEST DUP3 ADD SWAP2 SWAP1 PUSH1 0x0 MSTORE PUSH1 0x20 PUSH1 0x0 KECCAK256 SWAP1 JUMPDEST DUP2 SLOAD DUP2 MSTORE SWAP1 PUSH1 0x1 ADD SWAP1 PUSH1 0x20 ADD DUP1 DUP4 GT PUSH2 0xB5F JUMPI DUP3 SWAP1 SUB PUSH1 0x1F AND DUP3 ADD SWAP2 JUMPDEST POP POP POP POP POP DUP2 MSTORE POP POP DUP4 DUP4 DUP2 MLOAD DUP2 LT PUSH2 0xB98 JUMPI PUSH2 0xB97 PUSH2 0x47E3 JUMP JUMPDEST JUMPDEST PUSH1 0x20 MUL PUSH1 0x20 ADD ADD DUP2 SWAP1 MSTORE POP POP DUP1 DUP1 PUSH2 0xBAF SWAP1 PUSH2 0x4841 JUMP JUMPDEST SWAP2 POP POP PUSH2 0x88D JUMP JUMPDEST POP DUP1 SWAP4 POP POP POP POP SWAP1 JUMP JUMPDEST PUSH1 0x0 PUSH4 0x150B7A02 PUSH1 0xE0 SHL SWAP1 POP SWAP5 SWAP4 POP POP POP POP JUMP JUMPDEST PUSH2 0xBDD PUSH2 0x22BE JUMP JUMPDEST PUSH20 0xFFFFFFFFFFFFFFFFFFFFFFFFFFFFFFFFFFFFFFFF AND DUP6 PUSH20 0xFFFFFFFFFFFFFFFFFFFFFFFFFFFFFFFFFFFFFFFF AND EQ DUP1 PUSH2 0xC23 JUMPI POP PUSH2 0xC22 DUP6 PUSH2 0xC1D PUSH2 0x22BE JUMP JUMPDEST PUSH2 0x1B57 JUMP JUMPDEST JUMPDEST PUSH2 0xC62 JUMPI PUSH1 0x40 MLOAD PUSH32 0x8C379A000000000000000000000000000000000000000000000000000000000 DUP2 MSTORE PUSH1 0x4 ADD PUSH2 0xC59 SWAP1 PUSH2 0x48FB JUMP JUMPDEST PUSH1 0x40 MLOAD DUP1 SWAP2 SUB SWAP1 REVERT JUMPDEST PUSH2 0xC6F DUP6 DUP6 DUP6 DUP6 DUP6 PUSH2 0x22C6 JUMP JUMPDEST POP POP POP POP POP JUMP JUMPDEST PUSH1 0x3 SLOAD DUP2 JUMP JUMPDEST PUSH1 0x60 DUP2 MLOAD DUP4 MLOAD EQ PUSH2 0xCC2 JUMPI PUSH1 0x40 MLOAD PUSH32 0x8C379A000000000000000000000000000000000000000000000000000000000 DUP2 MSTORE PUSH1 0x4 ADD PUSH2 0xCB9 SWAP1 PUSH2 0x498D JUMP JUMPDEST PUSH1 0x40 MLOAD DUP1 SWAP2 SUB SWAP1 REVERT JUMPDEST PUSH1 0x0 DUP4 MLOAD PUSH8 0xFFFFFFFFFFFFFFFF DUP2 GT ISZERO PUSH2 0xCDF JUMPI PUSH2 0xCDE PUSH2 0x3C70 JUMP JUMPDEST JUMPDEST PUSH1 0x40 MLOAD SWAP1 DUP1 DUP3 MSTORE DUP1 PUSH1 0x20 MUL PUSH1 0x20 ADD DUP3 ADD PUSH1 0x40 MSTORE DUP1 ISZERO PUSH2 0xD0D JUMPI DUP2 PUSH1 0x20 ADD PUSH1 0x20 DUP3 MUL DUP1 CALLDATASIZE DUP4 CALLDATACOPY DUP1 DUP3 ADD SWAP2 POP POP SWAP1 POP JUMPDEST POP SWAP1 POP PUSH1 0x0 JUMPDEST DUP5 MLOAD DUP2 LT ISZERO PUSH2 0xD8A JUMPI PUSH2 0xD5A DUP6 DUP3 DUP2 MLOAD DUP2 LT PUSH2 0xD32 JUMPI PUSH2 0xD31 PUSH2 0x47E3 JUMP JUMPDEST JUMPDEST PUSH1 0x20 MUL PUSH1 0x20 ADD ADD MLOAD DUP6 DUP4 DUP2 MLOAD DUP2 LT PUSH2 0xD4D JUMPI PUSH2 0xD4C PUSH2 0x47E3 JUMP JUMPDEST JUMPDEST PUSH1 0x20 MUL PUSH1 0x20 ADD ADD MLOAD PUSH2 0x599 JUMP JUMPDEST DUP3 DUP3 DUP2 MLOAD DUP2 LT PUSH2 0xD6D JUMPI PUSH2 0xD6C PUSH2 0x47E3 JUMP JUMPDEST JUMPDEST PUSH1 0x20 MUL PUSH1 0x20 ADD ADD DUP2 DUP2 MSTORE POP POP DUP1 PUSH2 0xD83 SWAP1 PUSH2 0x4841 JUMP JUMPDEST SWAP1 POP PUSH2 0xD13 JUMP JUMPDEST POP DUP1 SWAP2 POP POP SWAP3 SWAP2 POP POP JUMP JUMPDEST PUSH1 0x0 DUP1 PUSH1 0x60 PUSH1 0x0 DUP1 PUSH2 0xDA6 CALLER PUSH2 0x2260 JUMP JUMPDEST SWAP2 POP SWAP2 POP PUSH1 0x1 ISZERO ISZERO DUP3 ISZERO ISZERO EQ PUSH2 0xDF1 JUMPI PUSH1 0x40 MLOAD PUSH32 0x8C379A000000000000000000000000000000000000000000000000000000000 DUP2 MSTORE PUSH1 0x4 ADD PUSH2 0xDE8 SWAP1 PUSH2 0x47C3 JUMP JUMPDEST PUSH1 0x40 MLOAD DUP1 SWAP2 SUB SWAP1 REVERT JUMPDEST PUSH1 0x60 PUSH2 0xDFC DUP10 PUSH2 0x25D9 JUMP JUMPDEST PUSH2 0xE05 DUP9 PUSH2 0x25D9 JUMP JUMPDEST PUSH1 0x40 MLOAD PUSH1 0x20 ADD PUSH2 0xE16 SWAP3 SWAP2 SWAP1 PUSH2 0x4A35 JUMP JUMPDEST PUSH1 0x40 MLOAD PUSH1 0x20 DUP2 DUP4 SUB SUB DUP2 MSTORE SWAP1 PUSH1 0x40 MSTORE SWAP1 POP PUSH1 0x0 ISZERO ISZERO PUSH1 0x9 PUSH1 0x0 DUP12 DUP2 MSTORE PUSH1 0x20 ADD SWAP1 DUP2 MSTORE PUSH1 0x20 ADD PUSH1 0x0 KECCAK256 PUSH1 0x4 ADD PUSH1 0x0 SWAP1 SLOAD SWAP1 PUSH2 0x100 EXP SWAP1 DIV PUSH1 0xFF AND ISZERO ISZERO EQ PUSH2 0xE91 JUMPI PUSH1 0x40 MLOAD PUSH32 0x8C379A000000000000000000000000000000000000000000000000000000000 DUP2 MSTORE PUSH1 0x4 ADD PUSH2 0xE88 SWAP1 PUSH2 0x4AFC JUMP JUMPDEST PUSH1 0x40 MLOAD DUP1 SWAP2 SUB SWAP1 REVERT JUMPDEST PUSH1 0x0 ISZERO ISZERO PUSH1 0x8 DUP3 PUSH1 0x40 MLOAD PUSH2 0xEA5 SWAP2 SWAP1 PUSH2 0x4B1C JUMP JUMPDEST SWAP1 DUP2 MSTORE PUSH1 0x20 ADD PUSH1 0x40 MLOAD DUP1 SWAP2 SUB SWAP1 KECCAK256 PUSH1 0x1 ADD PUSH1 0x1 SWAP1 SLOAD SWAP1 PUSH2 0x100 EXP SWAP1 DIV PUSH1 0xFF AND ISZERO ISZERO EQ PUSH2 0xF06 JUMPI PUSH1 0x40 MLOAD PUSH32 0x8C379A000000000000000000000000000000000000000000000000000000000 DUP2 MSTORE PUSH1 0x4 ADD PUSH2 0xEFD SWAP1 PUSH2 0x4B7F JUMP JUMPDEST PUSH1 0x40 MLOAD DUP1 SWAP2 SUB SWAP1 REVERT JUMPDEST PUSH1 0x1 ISZERO ISZERO PUSH2 0xF13 DUP9 PUSH2 0x2739 JUMP JUMPDEST ISZERO ISZERO EQ PUSH2 0xF55 JUMPI PUSH1 0x40 MLOAD PUSH32 0x8C379A000000000000000000000000000000000000000000000000000000000 DUP2 MSTORE PUSH1 0x4 ADD PUSH2 0xF4C SWAP1 PUSH2 0x4C11 JUMP JUMPDEST PUSH1 0x40 MLOAD DUP1 SWAP2 SUB SWAP1 REVERT JUMPDEST PUSH1 0x40 MLOAD DUP1 PUSH1 0x60 ADD PUSH1 0x40 MSTORE DUP1 DUP9 DUP2 MSTORE PUSH1 0x20 ADD DUP10 ISZERO ISZERO DUP2 MSTORE PUSH1 0x20 ADD PUSH1 0x1 ISZERO ISZERO DUP2 MSTORE POP PUSH1 0x8 DUP3 PUSH1 0x40 MLOAD PUSH2 0xF85 SWAP2 SWAP1 PUSH2 0x4B1C JUMP JUMPDEST SWAP1 DUP2 MSTORE PUSH1 0x20 ADD PUSH1 0x40 MLOAD DUP1 SWAP2 SUB SWAP1 KECCAK256 PUSH1 0x0 DUP3 ADD MLOAD DUP2 PUSH1 0x0 ADD SSTORE PUSH1 0x20 DUP3 ADD MLOAD DUP2 PUSH1 0x1 ADD PUSH1 0x0 PUSH2 0x100 EXP DUP2 SLOAD DUP2 PUSH1 0xFF MUL NOT AND SWAP1 DUP4 ISZERO ISZERO MUL OR SWAP1 SSTORE POP PUSH1 0x40 DUP3 ADD MLOAD DUP2 PUSH1 0x1 ADD PUSH1 0x1 PUSH2 0x100 EXP DUP2 SLOAD DUP2 PUSH1 0xFF MUL NOT AND SWAP1 DUP4 ISZERO ISZERO MUL OR SWAP1 SSTORE POP SWAP1 POP POP PUSH1 0x1 ISZERO ISZERO DUP9 ISZERO ISZERO SUB PUSH2 0x101D JUMPI PUSH1 0x9 PUSH1 0x0 DUP11 DUP2 MSTORE PUSH1 0x20 ADD SWAP1 DUP2 MSTORE PUSH1 0x20 ADD PUSH1 0x0 KECCAK256 PUSH1 0x5 ADD PUSH1 0x0 DUP2 SLOAD DUP1 SWAP3 SWAP2 SWAP1 PUSH2 0x1013 SWAP1 PUSH2 0x4841 JUMP JUMPDEST SWAP2 SWAP1 POP SSTORE POP PUSH2 0x104A JUMP JUMPDEST PUSH1 0x9 PUSH1 0x0 DUP11 DUP2 MSTORE PUSH1 0x20 ADD SWAP1 DUP2 MSTORE PUSH1 0x20 ADD PUSH1 0x0 KECCAK256 PUSH1 0x6 ADD PUSH1 0x0 DUP2 SLOAD DUP1 SWAP3 SWAP2 SWAP1 PUSH2 0x1044 SWAP1 PUSH2 0x4841 JUMP JUMPDEST SWAP2 SWAP1 POP SSTORE POP JUMPDEST PUSH2 0x1053 DUP10 PUSH2 0x27A8 JUMP JUMPDEST POP PUSH1 0x9 PUSH1 0x0 DUP11 DUP2 MSTORE PUSH1 0x20 ADD SWAP1 DUP2 MSTORE PUSH1 0x20 ADD PUSH1 0x0 KECCAK256 PUSH1 0x5 ADD SLOAD PUSH1 0x9 PUSH1 0x0 DUP12 DUP2 MSTORE PUSH1 0x20 ADD SWAP1 DUP2 MSTORE PUSH1 0x20 ADD PUSH1 0x0 KECCAK256 PUSH1 0x6 ADD SLOAD DUP3 SWAP6 POP SWAP6 POP SWAP6 POP POP POP POP SWAP4 POP SWAP4 POP SWAP4 SWAP1 POP JUMP JUMPDEST PUSH1 0x0 DUP1 PUSH1 0x0 PUSH2 0x10A3 CALLER PUSH2 0x2260 JUMP JUMPDEST SWAP2 POP SWAP2 POP PUSH1 0x1 ISZERO ISZERO DUP3 ISZERO ISZERO EQ PUSH2 0x10EE JUMPI PUSH1 0x40 MLOAD PUSH32 0x8C379A000000000000000000000000000000000000000000000000000000000 DUP2 MSTORE PUSH1 0x4 ADD PUSH2 0x10E5 SWAP1 PUSH2 0x47C3 JUMP JUMPDEST PUSH1 0x40 MLOAD DUP1 SWAP2 SUB SWAP1 REVERT JUMPDEST PUSH1 0x1 DUP6 MLOAD SUB PUSH2 0x14BB JUMPI DUP6 PUSH1 0x0 DUP2 MLOAD DUP2 LT PUSH2 0x110B JUMPI PUSH2 0x110A PUSH2 0x47E3 JUMP JUMPDEST JUMPDEST PUSH1 0x20 MUL PUSH1 0x20 ADD ADD MLOAD DUP6 PUSH1 0x1 DUP2 MLOAD DUP2 LT PUSH2 0x1127 JUMPI PUSH2 0x1126 PUSH2 0x47E3 JUMP JUMPDEST JUMPDEST PUSH1 0x20 MUL PUSH1 0x20 ADD ADD MLOAD PUSH20 0xFFFFFFFFFFFFFFFFFFFFFFFFFFFFFFFFFFFFFFFF AND PUSH4 0x70A08231 ADDRESS PUSH1 0x40 MLOAD DUP3 PUSH4 0xFFFFFFFF AND PUSH1 0xE0 SHL DUP2 MSTORE PUSH1 0x4 ADD PUSH2 0x1167 SWAP2 SWAP1 PUSH2 0x4C31 JUMP JUMPDEST PUSH1 0x20 PUSH1 0x40 MLOAD DUP1 DUP4 SUB DUP2 DUP7 GAS STATICCALL ISZERO DUP1 ISZERO PUSH2 0x1184 JUMPI RETURNDATASIZE PUSH1 0x0 DUP1 RETURNDATACOPY RETURNDATASIZE PUSH1 0x0 REVERT JUMPDEST POP POP POP POP PUSH1 0x40 MLOAD RETURNDATASIZE PUSH1 0x1F NOT PUSH1 0x1F DUP3 ADD AND DUP3 ADD DUP1 PUSH1 0x40 MSTORE POP DUP2 ADD SWAP1 PUSH2 0x11A8 SWAP2 SWAP1 PUSH2 0x4C61 JUMP JUMPDEST LT ISZERO PUSH2 0x11E9 JUMPI PUSH1 0x40 MLOAD PUSH32 0x8C379A000000000000000000000000000000000000000000000000000000000 DUP2 MSTORE PUSH1 0x4 ADD PUSH2 0x11E0 SWAP1 PUSH2 0x4CDA JUMP JUMPDEST PUSH1 0x40 MLOAD DUP1 SWAP2 SUB SWAP1 REVERT JUMPDEST PUSH1 0x40 MLOAD DUP1 PUSH2 0x180 ADD PUSH1 0x40 MSTORE DUP1 DUP8 PUSH1 0x0 DUP2 MLOAD DUP2 LT PUSH2 0x1209 JUMPI PUSH2 0x1208 PUSH2 0x47E3 JUMP JUMPDEST JUMPDEST PUSH1 0x20 MUL PUSH1 0x20 ADD ADD MLOAD DUP2 MSTORE PUSH1 0x20 ADD DUP7 PUSH1 0x0 DUP2 MLOAD DUP2 LT PUSH2 0x122A JUMPI PUSH2 0x1229 PUSH2 0x47E3 JUMP JUMPDEST JUMPDEST PUSH1 0x20 MUL PUSH1 0x20 ADD ADD MLOAD PUSH20 0xFFFFFFFFFFFFFFFFFFFFFFFFFFFFFFFFFFFFFFFF AND DUP2 MSTORE PUSH1 0x20 ADD DUP6 PUSH1 0x0 DUP2 MLOAD DUP2 LT PUSH2 0x1261 JUMPI PUSH2 0x1260 PUSH2 0x47E3 JUMP JUMPDEST JUMPDEST PUSH1 0x20 MUL PUSH1 0x20 ADD ADD MLOAD DUP2 MSTORE PUSH1 0x20 ADD DUP6 PUSH1 0x1 DUP2 MLOAD DUP2 LT PUSH2 0x1282 JUMPI PUSH2 0x1281 PUSH2 0x47E3 JUMP JUMPDEST JUMPDEST PUSH1 0x20 MUL PUSH1 0x20 ADD ADD MLOAD DUP2 MSTORE PUSH1 0x20 ADD PUSH1 0x0 ISZERO ISZERO DUP2 MSTORE PUSH1 0x20 ADD PUSH1 0x0 DUP2 MSTORE PUSH1 0x20 ADD PUSH1 0x0 DUP2 MSTORE PUSH1 0x20 ADD PUSH1 0x0 DUP2 MSTORE PUSH1 0x20 ADD PUSH1 0x1 ISZERO ISZERO DUP2 MSTORE PUSH1 0x20 ADD PUSH1 0x0 PUSH20 0xFFFFFFFFFFFFFFFFFFFFFFFFFFFFFFFFFFFFFFFF AND DUP2 MSTORE PUSH1 0x20 ADD PUSH1 0x0 DUP2 MSTORE PUSH1 0x20 ADD PUSH2 0x1300 DUP7 MLOAD DUP8 PUSH1 0x2 DUP2 MLOAD DUP2 LT PUSH2 0x12F3 JUMPI PUSH2 0x12F2 PUSH2 0x47E3 JUMP JUMPDEST JUMPDEST PUSH1 0x20 MUL PUSH1 0x20 ADD ADD MLOAD PUSH2 0x2874 JUMP JUMPDEST DUP2 MSTORE POP PUSH1 0x9 PUSH1 0x0 PUSH1 0x4 SLOAD DUP2 MSTORE PUSH1 0x20 ADD SWAP1 DUP2 MSTORE PUSH1 0x20 ADD PUSH1 0x0 KECCAK256 PUSH1 0x0 DUP3 ADD MLOAD DUP2 PUSH1 0x0 ADD SSTORE PUSH1 0x20 DUP3 ADD MLOAD DUP2 PUSH1 0x1 ADD PUSH1 0x0 PUSH2 0x100 EXP DUP2 SLOAD DUP2 PUSH20 0xFFFFFFFFFFFFFFFFFFFFFFFFFFFFFFFFFFFFFFFF MUL NOT AND SWAP1 DUP4 PUSH20 0xFFFFFFFFFFFFFFFFFFFFFFFFFFFFFFFFFFFFFFFF AND MUL OR SWAP1 SSTORE POP PUSH1 0x40 DUP3 ADD MLOAD DUP2 PUSH1 0x2 ADD SWAP1 DUP2 PUSH2 0x137E SWAP2 SWAP1 PUSH2 0x4EA6 JUMP JUMPDEST POP PUSH1 0x60 DUP3 ADD MLOAD DUP2 PUSH1 0x3 ADD SWAP1 DUP2 PUSH2 0x1394 SWAP2 SWAP1 PUSH2 0x4EA6 JUMP JUMPDEST POP PUSH1 0x80 DUP3 ADD MLOAD DUP2 PUSH1 0x4 ADD PUSH1 0x0 PUSH2 0x100 EXP DUP2 SLOAD DUP2 PUSH1 0xFF MUL NOT AND SWAP1 DUP4 ISZERO ISZERO MUL OR SWAP1 SSTORE POP PUSH1 0xA0 DUP3 ADD MLOAD DUP2 PUSH1 0x5 ADD SSTORE PUSH1 0xC0 DUP3 ADD MLOAD DUP2 PUSH1 0x6 ADD SSTORE PUSH1 0xE0 DUP3 ADD MLOAD DUP2 PUSH1 0x7 ADD SSTORE PUSH2 0x100 DUP3 ADD MLOAD DUP2 PUSH1 0x8 ADD PUSH1 0x0 PUSH2 0x100 EXP DUP2 SLOAD DUP2 PUSH1 0xFF MUL NOT AND SWAP1 DUP4 ISZERO ISZERO MUL OR SWAP1 SSTORE POP PUSH2 0x120 DUP3 ADD MLOAD DUP2 PUSH1 0x8 ADD PUSH1 0x1 PUSH2 0x100 EXP DUP2 SLOAD DUP2 PUSH20 0xFFFFFFFFFFFFFFFFFFFFFFFFFFFFFFFFFFFFFFFF MUL NOT AND SWAP1 DUP4 PUSH20 0xFFFFFFFFFFFFFFFFFFFFFFFFFFFFFFFFFFFFFFFF AND MUL OR SWAP1 SSTORE POP PUSH2 0x140 DUP3 ADD MLOAD DUP2 PUSH1 0x9 ADD SSTORE PUSH2 0x160 DUP3 ADD MLOAD DUP2 PUSH1 0xA ADD SWAP1 DUP2 PUSH2 0x145D SWAP2 SWAP1 PUSH2 0x4EA6 JUMP JUMPDEST POP SWAP1 POP POP PUSH32 0xD4EE4C40018E17AE8DF92F575F9B7219D84988C16520C1F82D71873C99108A9C PUSH1 0x4 SLOAD PUSH1 0x40 MLOAD PUSH2 0x1492 SWAP2 SWAP1 PUSH2 0x4FC4 JUMP JUMPDEST PUSH1 0x40 MLOAD DUP1 SWAP2 SUB SWAP1 LOG1 PUSH1 0x4 PUSH1 0x0 DUP2 SLOAD DUP1 SWAP3 SWAP2 SWAP1 PUSH2 0x14AD SWAP1 PUSH2 0x4841 JUMP JUMPDEST SWAP2 SWAP1 POP SSTORE POP PUSH1 0x1 SWAP3 POP PUSH2 0x1B17 JUMP JUMPDEST PUSH1 0x2 DUP6 MLOAD EQ DUP1 ISZERO PUSH2 0x14CD JUMPI POP PUSH1 0x1 DUP7 MLOAD EQ JUMPDEST ISZERO PUSH2 0x1806 JUMPI DUP6 PUSH1 0x0 DUP2 MLOAD DUP2 LT PUSH2 0x14E6 JUMPI PUSH2 0x14E5 PUSH2 0x47E3 JUMP JUMPDEST JUMPDEST PUSH1 0x20 MUL PUSH1 0x20 ADD ADD MLOAD SELFBALANCE LT ISZERO PUSH2 0x1530 JUMPI PUSH1 0x40 MLOAD PUSH32 0x8C379A000000000000000000000000000000000000000000000000000000000 DUP2 MSTORE PUSH1 0x4 ADD PUSH2 0x1527 SWAP1 PUSH2 0x503E JUMP JUMPDEST PUSH1 0x40 MLOAD DUP1 SWAP2 SUB SWAP1 REVERT JUMPDEST PUSH1 0x40 MLOAD DUP1 PUSH2 0x180 ADD PUSH1 0x40 MSTORE DUP1 DUP8 PUSH1 0x0 DUP2 MLOAD DUP2 LT PUSH2 0x1550 JUMPI PUSH2 0x154F PUSH2 0x47E3 JUMP JUMPDEST JUMPDEST PUSH1 0x20 MUL PUSH1 0x20 ADD ADD MLOAD DUP2 MSTORE PUSH1 0x20 ADD DUP7 PUSH1 0x0 DUP2 MLOAD DUP2 LT PUSH2 0x1571 JUMPI PUSH2 0x1570 PUSH2 0x47E3 JUMP JUMPDEST JUMPDEST PUSH1 0x20 MUL PUSH1 0x20 ADD ADD MLOAD PUSH20 0xFFFFFFFFFFFFFFFFFFFFFFFFFFFFFFFFFFFFFFFF AND DUP2 MSTORE PUSH1 0x20 ADD DUP6 PUSH1 0x0 DUP2 MLOAD DUP2 LT PUSH2 0x15A8 JUMPI PUSH2 0x15A7 PUSH2 0x47E3 JUMP JUMPDEST JUMPDEST PUSH1 0x20 MUL PUSH1 0x20 ADD ADD MLOAD DUP2 MSTORE PUSH1 0x20 ADD DUP6 PUSH1 0x1 DUP2 MLOAD DUP2 LT PUSH2 0x15C9 JUMPI PUSH2 0x15C8 PUSH2 0x47E3 JUMP JUMPDEST JUMPDEST PUSH1 0x20 MUL PUSH1 0x20 ADD ADD MLOAD DUP2 MSTORE PUSH1 0x20 ADD PUSH1 0x0 ISZERO ISZERO DUP2 MSTORE PUSH1 0x20 ADD PUSH1 0x0 DUP2 MSTORE PUSH1 0x20 ADD PUSH1 0x0 DUP2 MSTORE PUSH1 0x20 ADD PUSH1 0x0 DUP2 MSTORE PUSH1 0x20 ADD PUSH1 0x1 ISZERO ISZERO DUP2 MSTORE PUSH1 0x20 ADD DUP7 PUSH1 0x1 DUP2 MLOAD DUP2 LT PUSH2 0x1611 JUMPI PUSH2 0x1610 PUSH2 0x47E3 JUMP JUMPDEST JUMPDEST PUSH1 0x20 MUL PUSH1 0x20 ADD ADD MLOAD PUSH20 0xFFFFFFFFFFFFFFFFFFFFFFFFFFFFFFFFFFFFFFFF AND DUP2 MSTORE PUSH1 0x20 ADD PUSH1 0x0 DUP2 MSTORE PUSH1 0x20 ADD PUSH1 0x40 MLOAD DUP1 PUSH1 0x20 ADD PUSH1 0x40 MSTORE DUP1 PUSH1 0x0 DUP2 MSTORE POP DUP2 MSTORE POP PUSH1 0x9 PUSH1 0x0 PUSH1 0x4 SLOAD DUP2 MSTORE PUSH1 0x20 ADD SWAP1 DUP2 MSTORE PUSH1 0x20 ADD PUSH1 0x0 KECCAK256 PUSH1 0x0 DUP3 ADD MLOAD DUP2 PUSH1 0x0 ADD SSTORE PUSH1 0x20 DUP3 ADD MLOAD DUP2 PUSH1 0x1 ADD PUSH1 0x0 PUSH2 0x100 EXP DUP2 SLOAD DUP2 PUSH20 0xFFFFFFFFFFFFFFFFFFFFFFFFFFFFFFFFFFFFFFFF MUL NOT AND SWAP1 DUP4 PUSH20 0xFFFFFFFFFFFFFFFFFFFFFFFFFFFFFFFFFFFFFFFF AND MUL OR SWAP1 SSTORE POP PUSH1 0x40 DUP3 ADD MLOAD DUP2 PUSH1 0x2 ADD SWAP1 DUP2 PUSH2 0x16C9 SWAP2 SWAP1 PUSH2 0x4EA6 JUMP JUMPDEST POP PUSH1 0x60 DUP3 ADD MLOAD DUP2 PUSH1 0x3 ADD SWAP1 DUP2 PUSH2 0x16DF SWAP2 SWAP1 PUSH2 0x4EA6 JUMP JUMPDEST POP PUSH1 0x80 DUP3 ADD MLOAD DUP2 PUSH1 0x4 ADD PUSH1 0x0 PUSH2 0x100 EXP DUP2 SLOAD DUP2 PUSH1 0xFF MUL NOT AND SWAP1 DUP4 ISZERO ISZERO MUL OR SWAP1 SSTORE POP PUSH1 0xA0 DUP3 ADD MLOAD DUP2 PUSH1 0x5 ADD SSTORE PUSH1 0xC0 DUP3 ADD MLOAD DUP2 PUSH1 0x6 ADD SSTORE PUSH1 0xE0 DUP3 ADD MLOAD DUP2 PUSH1 0x7 ADD SSTORE PUSH2 0x100 DUP3 ADD MLOAD DUP2 PUSH1 0x8 ADD PUSH1 0x0 PUSH2 0x100 EXP DUP2 SLOAD DUP2 PUSH1 0xFF MUL NOT AND SWAP1 DUP4 ISZERO ISZERO MUL OR SWAP1 SSTORE POP PUSH2 0x120 DUP3 ADD MLOAD DUP2 PUSH1 0x8 ADD PUSH1 0x1 PUSH2 0x100 EXP DUP2 SLOAD DUP2 PUSH20 0xFFFFFFFFFFFFFFFFFFFFFFFFFFFFFFFFFFFFFFFF MUL NOT AND SWAP1 DUP4 PUSH20 0xFFFFFFFFFFFFFFFFFFFFFFFFFFFFFFFFFFFFFFFF AND MUL OR SWAP1 SSTORE POP PUSH2 0x140 DUP3 ADD MLOAD DUP2 PUSH1 0x9 ADD SSTORE PUSH2 0x160 DUP3 ADD MLOAD DUP2 PUSH1 0xA ADD SWAP1 DUP2 PUSH2 0x17A8 SWAP2 SWAP1 PUSH2 0x4EA6 JUMP JUMPDEST POP SWAP1 POP POP PUSH32 0xD4EE4C40018E17AE8DF92F575F9B7219D84988C16520C1F82D71873C99108A9C PUSH1 0x4 SLOAD PUSH1 0x40 MLOAD PUSH2 0x17DD SWAP2 SWAP1 PUSH2 0x50AA JUMP JUMPDEST PUSH1 0x40 MLOAD DUP1 SWAP2 SUB SWAP1 LOG1 PUSH1 0x4 PUSH1 0x0 DUP2 SLOAD DUP1 SWAP3 SWAP2 SWAP1 PUSH2 0x17F8 SWAP1 PUSH2 0x4841 JUMP JUMPDEST SWAP2 SWAP1 POP SSTORE POP PUSH1 0x1 SWAP3 POP PUSH2 0x1B17 JUMP JUMPDEST PUSH1 0x2 DUP7 MLOAD EQ DUP1 ISZERO PUSH2 0x1818 JUMPI POP PUSH1 0x2 DUP7 MLOAD EQ JUMPDEST ISZERO PUSH2 0x1B09 JUMPI PUSH1 0x40 MLOAD DUP1 PUSH2 0x180 ADD PUSH1 0x40 MSTORE DUP1 DUP8 PUSH1 0x0 DUP2 MLOAD DUP2 LT PUSH2 0x183D JUMPI PUSH2 0x183C PUSH2 0x47E3 JUMP JUMPDEST JUMPDEST PUSH1 0x20 MUL PUSH1 0x20 ADD ADD MLOAD DUP2 MSTORE PUSH1 0x20 ADD DUP7 PUSH1 0x0 DUP2 MLOAD DUP2 LT PUSH2 0x185E JUMPI PUSH2 0x185D PUSH2 0x47E3 JUMP JUMPDEST JUMPDEST PUSH1 0x20 MUL PUSH1 0x20 ADD ADD MLOAD PUSH20 0xFFFFFFFFFFFFFFFFFFFFFFFFFFFFFFFFFFFFFFFF AND DUP2 MSTORE PUSH1 0x20 ADD DUP6 PUSH1 0x0 DUP2 MLOAD DUP2 LT PUSH2 0x1895 JUMPI PUSH2 0x1894 PUSH2 0x47E3 JUMP JUMPDEST JUMPDEST PUSH1 0x20 MUL PUSH1 0x20 ADD ADD MLOAD DUP2 MSTORE PUSH1 0x20 ADD DUP6 PUSH1 0x1 DUP2 MLOAD DUP2 LT PUSH2 0x18B6 JUMPI PUSH2 0x18B5 PUSH2 0x47E3 JUMP JUMPDEST JUMPDEST PUSH1 0x20 MUL PUSH1 0x20 ADD ADD MLOAD DUP2 MSTORE PUSH1 0x20 ADD PUSH1 0x0 ISZERO ISZERO DUP2 MSTORE PUSH1 0x20 ADD PUSH1 0x0 DUP2 MSTORE PUSH1 0x20 ADD PUSH1 0x0 DUP2 MSTORE PUSH1 0x20 ADD PUSH1 0x0 DUP2 MSTORE PUSH1 0x20 ADD PUSH1 0x1 ISZERO ISZERO DUP2 MSTORE PUSH1 0x20 ADD DUP7 PUSH1 0x1 DUP2 MLOAD DUP2 LT PUSH2 0x18FE JUMPI PUSH2 0x18FD PUSH2 0x47E3 JUMP JUMPDEST JUMPDEST PUSH1 0x20 MUL PUSH1 0x20 ADD ADD MLOAD PUSH20 0xFFFFFFFFFFFFFFFFFFFFFFFFFFFFFFFFFFFFFFFF AND DUP2 MSTORE PUSH1 0x20 ADD DUP8 PUSH1 0x1 DUP2 MLOAD DUP2 LT PUSH2 0x1935 JUMPI PUSH2 0x1934 PUSH2 0x47E3 JUMP JUMPDEST JUMPDEST PUSH1 0x20 MUL PUSH1 0x20 ADD ADD MLOAD DUP2 MSTORE PUSH1 0x20 ADD PUSH1 0x40 MLOAD DUP1 PUSH1 0x20 ADD PUSH1 0x40 MSTORE DUP1 PUSH1 0x0 DUP2 MSTORE POP DUP2 MSTORE POP PUSH1 0x9 PUSH1 0x0 PUSH1 0x4 SLOAD DUP2 MSTORE PUSH1 0x20 ADD SWAP1 DUP2 MSTORE PUSH1 0x20 ADD PUSH1 0x0 KECCAK256 PUSH1 0x0 DUP3 ADD MLOAD DUP2 PUSH1 0x0 ADD SSTORE PUSH1 0x20 DUP3 ADD MLOAD DUP2 PUSH1 0x1 ADD PUSH1 0x0 PUSH2 0x100 EXP DUP2 SLOAD DUP2 PUSH20 0xFFFFFFFFFFFFFFFFFFFFFFFFFFFFFFFFFFFFFFFF MUL NOT AND SWAP1 DUP4 PUSH20 0xFFFFFFFFFFFFFFFFFFFFFFFFFFFFFFFFFFFFFFFF AND MUL OR SWAP1 SSTORE POP PUSH1 0x40 DUP3 ADD MLOAD DUP2 PUSH1 0x2 ADD SWAP1 DUP2 PUSH2 0x19D0 SWAP2 SWAP1 PUSH2 0x4EA6 JUMP JUMPDEST POP PUSH1 0x60 DUP3 ADD MLOAD DUP2 PUSH1 0x3 ADD SWAP1 DUP2 PUSH2 0x19E6 SWAP2 SWAP1 PUSH2 0x4EA6 JUMP JUMPDEST POP PUSH1 0x80 DUP3 ADD MLOAD DUP2 PUSH1 0x4 ADD PUSH1 0x0 PUSH2 0x100 EXP DUP2 SLOAD DUP2 PUSH1 0xFF MUL NOT AND SWAP1 DUP4 ISZERO ISZERO MUL OR SWAP1 SSTORE POP PUSH1 0xA0 DUP3 ADD MLOAD DUP2 PUSH1 0x5 ADD SSTORE PUSH1 0xC0 DUP3 ADD MLOAD DUP2 PUSH1 0x6 ADD SSTORE PUSH1 0xE0 DUP3 ADD MLOAD DUP2 PUSH1 0x7 ADD SSTORE PUSH2 0x100 DUP3 ADD MLOAD DUP2 PUSH1 0x8 ADD PUSH1 0x0 PUSH2 0x100 EXP DUP2 SLOAD DUP2 PUSH1 0xFF MUL NOT AND SWAP1 DUP4 ISZERO ISZERO MUL OR SWAP1 SSTORE POP PUSH2 0x120 DUP3 ADD MLOAD DUP2 PUSH1 0x8 ADD PUSH1 0x1 PUSH2 0x100 EXP DUP2 SLOAD DUP2 PUSH20 0xFFFFFFFFFFFFFFFFFFFFFFFFFFFFFFFFFFFFFFFF MUL NOT AND SWAP1 DUP4 PUSH20 0xFFFFFFFFFFFFFFFFFFFFFFFFFFFFFFFFFFFFFFFF AND MUL OR SWAP1 SSTORE POP PUSH2 0x140 DUP3 ADD MLOAD DUP2 PUSH1 0x9 ADD SSTORE PUSH2 0x160 DUP3 ADD MLOAD DUP2 PUSH1 0xA ADD SWAP1 DUP2 PUSH2 0x1AAF SWAP2 SWAP1 PUSH2 0x4EA6 JUMP JUMPDEST POP SWAP1 POP POP PUSH32 0xD4EE4C40018E17AE8DF92F575F9B7219D84988C16520C1F82D71873C99108A9C PUSH1 0x4 SLOAD PUSH1 0x40 MLOAD PUSH2 0x1AE4 SWAP2 SWAP1 PUSH2 0x514A JUMP JUMPDEST PUSH1 0x40 MLOAD DUP1 SWAP2 SUB SWAP1 LOG1 PUSH1 0x4 PUSH1 0x0 DUP2 SLOAD DUP1 SWAP3 SWAP2 SWAP1 PUSH2 0x1AFF SWAP1 PUSH2 0x4841 JUMP JUMPDEST SWAP2 SWAP1 POP SSTORE POP PUSH2 0x1B12 JUMP JUMPDEST PUSH1 0x0 SWAP3 POP PUSH2 0x1B17 JUMP JUMPDEST PUSH1 0x1 SWAP3 POP JUMPDEST POP POP SWAP4 SWAP3 POP POP POP JUMP JUMPDEST PUSH2 0x1B32 PUSH2 0x1B2B PUSH2 0x22BE JUMP JUMPDEST DUP4 DUP4 PUSH2 0x289F JUMP JUMPDEST POP POP JUMP JUMPDEST PUSH1 0x0 PUSH4 0xBC197C81 PUSH1 0xE0 SHL SWAP1 POP SWAP6 SWAP5 POP POP POP POP POP JUMP JUMPDEST PUSH1 0x4 SLOAD DUP2 JUMP JUMPDEST PUSH1 0x5 SLOAD DUP2 JUMP JUMPDEST PUSH1 0x0 PUSH1 0x1 PUSH1 0x0 DUP5 PUSH20 0xFFFFFFFFFFFFFFFFFFFFFFFFFFFFFFFFFFFFFFFF AND PUSH20 0xFFFFFFFFFFFFFFFFFFFFFFFFFFFFFFFFFFFFFFFF AND DUP2 MSTORE PUSH1 0x20 ADD SWAP1 DUP2 MSTORE PUSH1 0x20 ADD PUSH1 0x0 KECCAK256 PUSH1 0x0 DUP4 PUSH20 0xFFFFFFFFFFFFFFFFFFFFFFFFFFFFFFFFFFFFFFFF AND PUSH20 0xFFFFFFFFFFFFFFFFFFFFFFFFFFFFFFFFFFFFFFFF AND DUP2 MSTORE PUSH1 0x20 ADD SWAP1 DUP2 MSTORE PUSH1 0x20 ADD PUSH1 0x0 KECCAK256 PUSH1 0x0 SWAP1 SLOAD SWAP1 PUSH2 0x100 EXP SWAP1 DIV PUSH1 0xFF AND SWAP1 POP SWAP3 SWAP2 POP POP JUMP JUMPDEST PUSH1 0x0 PUSH4 0xF23A6E61 PUSH1 0xE0 SHL SWAP1 POP SWAP6 SWAP5 POP POP POP POP POP JUMP JUMPDEST PUSH2 0x1C08 PUSH2 0x22BE JUMP JUMPDEST PUSH20 0xFFFFFFFFFFFFFFFFFFFFFFFFFFFFFFFFFFFFFFFF AND DUP6 PUSH20 0xFFFFFFFFFFFFFFFFFFFFFFFFFFFFFFFFFFFFFFFF AND EQ DUP1 PUSH2 0x1C4E JUMPI POP PUSH2 0x1C4D DUP6 PUSH2 0x1C48 PUSH2 0x22BE JUMP JUMPDEST PUSH2 0x1B57 JUMP JUMPDEST JUMPDEST PUSH2 0x1C8D JUMPI PUSH1 0x40 MLOAD PUSH32 0x8C379A000000000000000000000000000000000000000000000000000000000 DUP2 MSTORE PUSH1 0x4 ADD PUSH2 0x1C84 SWAP1 PUSH2 0x51EA JUMP JUMPDEST PUSH1 0x40 MLOAD DUP1 SWAP2 SUB SWAP1 REVERT JUMPDEST PUSH2 0x1C9A DUP6 DUP6 DUP6 DUP6 DUP6 PUSH2 0x2A0B JUMP JUMPDEST POP POP POP POP POP JUMP JUMPDEST PUSH1 0x0 DUP1 PUSH1 0x0 DUP1 PUSH1 0x0 PUSH2 0x1CB2 CALLER PUSH2 0x2260 JUMP JUMPDEST SWAP2 POP SWAP2 POP PUSH1 0x1 ISZERO ISZERO DUP3 ISZERO ISZERO EQ PUSH2 0x1CFD JUMPI PUSH1 0x40 MLOAD PUSH32 0x8C379A000000000000000000000000000000000000000000000000000000000 DUP2 MSTORE PUSH1 0x4 ADD PUSH2 0x1CF4 SWAP1 PUSH2 0x47C3 JUMP JUMPDEST PUSH1 0x40 MLOAD DUP1 SWAP2 SUB SWAP1 REVERT JUMPDEST PUSH1 0x60 PUSH2 0x1D08 DUP8 PUSH2 0x25D9 JUMP JUMPDEST PUSH2 0x1D11 DUP10 PUSH2 0x25D9 JUMP JUMPDEST PUSH1 0x40 MLOAD PUSH1 0x20 ADD PUSH2 0x1D22 SWAP3 SWAP2 SWAP1 PUSH2 0x4A35 JUMP JUMPDEST PUSH1 0x40 MLOAD PUSH1 0x20 DUP2 DUP4 SUB SUB DUP2 MSTORE SWAP1 PUSH1 0x40 MSTORE SWAP1 POP PUSH1 0x8 DUP2 PUSH1 0x40 MLOAD PUSH2 0x1D43 SWAP2 SWAP1 PUSH2 0x4B1C JUMP JUMPDEST SWAP1 DUP2 MSTORE PUSH1 0x20 ADD PUSH1 0x40 MLOAD DUP1 SWAP2 SUB SWAP1 KECCAK256 PUSH1 0x0 ADD SLOAD PUSH1 0x8 DUP3 PUSH1 0x40 MLOAD PUSH2 0x1D65 SWAP2 SWAP1 PUSH2 0x4B1C JUMP JUMPDEST SWAP1 DUP2 MSTORE PUSH1 0x20 ADD PUSH1 0x40 MLOAD DUP1 SWAP2 SUB SWAP1 KECCAK256 PUSH1 0x1 ADD PUSH1 0x0 SWAP1 SLOAD SWAP1 PUSH2 0x100 EXP SWAP1 DIV PUSH1 0xFF AND PUSH1 0x8 DUP4 PUSH1 0x40 MLOAD PUSH2 0x1D94 SWAP2 SWAP1 PUSH2 0x4B1C JUMP JUMPDEST SWAP1 DUP2 MSTORE PUSH1 0x20 ADD PUSH1 0x40 MLOAD DUP1 SWAP2 SUB SWAP1 KECCAK256 PUSH1 0x1 ADD PUSH1 0x1 SWAP1 SLOAD SWAP1 PUSH2 0x100 EXP SWAP1 DIV PUSH1 0xFF AND SWAP6 POP SWAP6 POP SWAP6 POP POP POP POP SWAP3 POP SWAP3 POP SWAP3 JUMP JUMPDEST PUSH1 0x60 PUSH1 0x0 DUP1 PUSH2 0x1DD1 CALLER PUSH2 0x2260 JUMP JUMPDEST SWAP2 POP SWAP2 POP PUSH1 0x1 ISZERO ISZERO DUP3 ISZERO ISZERO EQ PUSH2 0x1E1C JUMPI PUSH1 0x40 MLOAD PUSH32 0x8C379A000000000000000000000000000000000000000000000000000000000 DUP2 MSTORE PUSH1 0x4 ADD PUSH2 0x1E13 SWAP1 PUSH2 0x47C3 JUMP JUMPDEST PUSH1 0x40 MLOAD DUP1 SWAP2 SUB SWAP1 REVERT JUMPDEST PUSH1 0x0 PUSH2 0x1E27 DUP7 PUSH2 0x25D9 JUMP JUMPDEST PUSH2 0x1E30 DUP7 PUSH2 0x25D9 JUMP JUMPDEST PUSH1 0x40 MLOAD PUSH1 0x20 ADD PUSH2 0x1E41 SWAP3 SWAP2 SWAP1 PUSH2 0x4A35 JUMP JUMPDEST PUSH1 0x40 MLOAD PUSH1 0x20 DUP2 DUP4 SUB SUB DUP2 MSTORE SWAP1 PUSH1 0x40 MSTORE SWAP1 POP PUSH1 0x0 ISZERO ISZERO PUSH1 0x9 PUSH1 0x0 DUP9 DUP2 MSTORE PUSH1 0x20 ADD SWAP1 DUP2 MSTORE PUSH1 0x20 ADD PUSH1 0x0 KECCAK256 PUSH1 0x4 ADD PUSH1 0x0 SWAP1 SLOAD SWAP1 PUSH2 0x100 EXP SWAP1 DIV PUSH1 0xFF AND ISZERO ISZERO EQ DUP1 ISZERO PUSH2 0x1EB0 JUMPI POP PUSH1 0x1 ISZERO ISZERO PUSH1 0x9 PUSH1 0x0 DUP9 DUP2 MSTORE PUSH1 0x20 ADD SWAP1 DUP2 MSTORE PUSH1 0x20 ADD PUSH1 0x0 KECCAK256 PUSH1 0x8 ADD PUSH1 0x0 SWAP1 SLOAD SWAP1 PUSH2 0x100 EXP SWAP1 DIV PUSH1 0xFF AND ISZERO ISZERO EQ JUMPDEST PUSH2 0x1EEF JUMPI PUSH1 0x40 MLOAD PUSH32 0x8C379A000000000000000000000000000000000000000000000000000000000 DUP2 MSTORE PUSH1 0x4 ADD PUSH2 0x1EE6 SWAP1 PUSH2 0x5256 JUMP JUMPDEST PUSH1 0x40 MLOAD DUP1 SWAP2 SUB SWAP1 REVERT JUMPDEST PUSH1 0x1 ISZERO ISZERO PUSH1 0x8 DUP3 PUSH1 0x40 MLOAD PUSH2 0x1F03 SWAP2 SWAP1 PUSH2 0x4B1C JUMP JUMPDEST SWAP1 DUP2 MSTORE PUSH1 0x20 ADD PUSH1 0x40 MLOAD DUP1 SWAP2 SUB SWAP1 KECCAK256 PUSH1 0x1 ADD PUSH1 0x1 SWAP1 SLOAD SWAP1 PUSH2 0x100 EXP SWAP1 DIV PUSH1 0xFF AND ISZERO ISZERO EQ PUSH2 0x1F64 JUMPI PUSH1 0x40 MLOAD PUSH32 0x8C379A000000000000000000000000000000000000000000000000000000000 DUP2 MSTORE PUSH1 0x4 ADD PUSH2 0x1F5B SWAP1 PUSH2 0x52C2 JUMP JUMPDEST PUSH1 0x40 MLOAD DUP1 SWAP2 SUB SWAP1 REVERT JUMPDEST PUSH1 0x1 ISZERO ISZERO PUSH2 0x1F71 DUP7 PUSH2 0x2739 JUMP JUMPDEST ISZERO ISZERO EQ PUSH2 0x1FB3 JUMPI PUSH1 0x40 MLOAD PUSH32 0x8C379A000000000000000000000000000000000000000000000000000000000 DUP2 MSTORE PUSH1 0x4 ADD PUSH2 0x1FAA SWAP1 PUSH2 0x4C11 JUMP JUMPDEST PUSH1 0x40 MLOAD DUP1 SWAP2 SUB SWAP1 REVERT JUMPDEST PUSH1 0x1 ISZERO ISZERO PUSH1 0x8 DUP3 PUSH1 0x40 MLOAD PUSH2 0x1FC7 SWAP2 SWAP1 PUSH2 0x4B1C JUMP JUMPDEST SWAP1 DUP2 MSTORE PUSH1 0x20 ADD PUSH1 0x40 MLOAD DUP1 SWAP2 SUB SWAP1 KECCAK256 PUSH1 0x1 ADD PUSH1 0x0 SWAP1 SLOAD SWAP1 PUSH2 0x100 EXP SWAP1 DIV PUSH1 0xFF AND ISZERO ISZERO SUB PUSH2 0x20E3 JUMPI PUSH1 0x9 PUSH1 0x0 DUP8 DUP2 MSTORE PUSH1 0x20 ADD SWAP1 DUP2 MSTORE PUSH1 0x20 ADD PUSH1 0x0 KECCAK256 PUSH1 0x5 ADD PUSH1 0x0 DUP2 SLOAD DUP1 SWAP3 SWAP2 SWAP1 PUSH2 0x2014 SWAP1 PUSH2 0x52E2 JUMP JUMPDEST SWAP2 SWAP1 POP SSTORE POP PUSH1 0x40 MLOAD DUP1 PUSH1 0x60 ADD PUSH1 0x40 MSTORE DUP1 DUP7 DUP2 MSTORE PUSH1 0x20 ADD PUSH1 0x0 ISZERO ISZERO DUP2 MSTORE PUSH1 0x20 ADD PUSH1 0x0 ISZERO ISZERO DUP2 MSTORE POP PUSH1 0x8 DUP3 PUSH1 0x40 MLOAD PUSH2 0x204A SWAP2 SWAP1 PUSH2 0x4B1C JUMP JUMPDEST SWAP1 DUP2 MSTORE PUSH1 0x20 ADD PUSH1 0x40 MLOAD DUP1 SWAP2 SUB SWAP1 KECCAK256 PUSH1 0x0 DUP3 ADD MLOAD DUP2 PUSH1 0x0 ADD SSTORE PUSH1 0x20 DUP3 ADD MLOAD DUP2 PUSH1 0x1 ADD PUSH1 0x0 PUSH2 0x100 EXP DUP2 SLOAD DUP2 PUSH1 0xFF MUL NOT AND SWAP1 DUP4 ISZERO ISZERO MUL OR SWAP1 SSTORE POP PUSH1 0x40 DUP3 ADD MLOAD DUP2 PUSH1 0x1 ADD PUSH1 0x1 PUSH2 0x100 EXP DUP2 SLOAD DUP2 PUSH1 0xFF MUL NOT AND SWAP1 DUP4 ISZERO ISZERO MUL OR SWAP1 SSTORE POP SWAP1 POP POP PUSH1 0x40 MLOAD DUP1 PUSH1 0x40 ADD PUSH1 0x40 MSTORE DUP1 PUSH1 0x15 DUP2 MSTORE PUSH1 0x20 ADD PUSH32 0x566F74652052656D6F76656420506173733A202D310000000000000000000000 DUP2 MSTORE POP SWAP4 POP POP PUSH2 0x21D5 JUMP JUMPDEST PUSH1 0x9 PUSH1 0x0 DUP8 DUP2 MSTORE PUSH1 0x20 ADD SWAP1 DUP2 MSTORE PUSH1 0x20 ADD PUSH1 0x0 KECCAK256 PUSH1 0x6 ADD PUSH1 0x0 DUP2 SLOAD DUP1 SWAP3 SWAP2 SWAP1 PUSH2 0x210A SWAP1 PUSH2 0x52E2 JUMP JUMPDEST SWAP2 SWAP1 POP SSTORE POP PUSH1 0x40 MLOAD DUP1 PUSH1 0x60 ADD PUSH1 0x40 MSTORE DUP1 DUP7 DUP2 MSTORE PUSH1 0x20 ADD PUSH1 0x0 ISZERO ISZERO DUP2 MSTORE PUSH1 0x20 ADD PUSH1 0x0 ISZERO ISZERO DUP2 MSTORE POP PUSH1 0x8 DUP3 PUSH1 0x40 MLOAD PUSH2 0x2140 SWAP2 SWAP1 PUSH2 0x4B1C JUMP JUMPDEST SWAP1 DUP2 MSTORE PUSH1 0x20 ADD PUSH1 0x40 MLOAD DUP1 SWAP2 SUB SWAP1 KECCAK256 PUSH1 0x0 DUP3 ADD MLOAD DUP2 PUSH1 0x0 ADD SSTORE PUSH1 0x20 DUP3 ADD MLOAD DUP2 PUSH1 0x1 ADD PUSH1 0x0 PUSH2 0x100 EXP DUP2 SLOAD DUP2 PUSH1 0xFF MUL NOT AND SWAP1 DUP4 ISZERO ISZERO MUL OR SWAP1 SSTORE POP PUSH1 0x40 DUP3 ADD MLOAD DUP2 PUSH1 0x1 ADD PUSH1 0x1 PUSH2 0x100 EXP DUP2 SLOAD DUP2 PUSH1 0xFF MUL NOT AND SWAP1 DUP4 ISZERO ISZERO MUL OR SWAP1 SSTORE POP SWAP1 POP POP PUSH1 0x40 MLOAD DUP1 PUSH1 0x40 ADD PUSH1 0x40 MSTORE DUP1 PUSH1 0x15 DUP2 MSTORE PUSH1 0x20 ADD PUSH32 0x566F74652052656D6F766564204661696C3A202D310000000000000000000000 DUP2 MSTORE POP SWAP4 POP POP JUMPDEST POP POP SWAP3 SWAP2 POP POP JUMP JUMPDEST PUSH1 0x6 SLOAD DUP2 JUMP JUMPDEST PUSH1 0x0 DUP1 DUP3 EXTCODESIZE SWAP1 POP PUSH1 0x0 DUP2 GT SWAP2 POP POP SWAP2 SWAP1 POP JUMP JUMPDEST PUSH1 0x0 PUSH32 0x1FFC9A700000000000000000000000000000000000000000000000000000000 PUSH28 0xFFFFFFFFFFFFFFFFFFFFFFFFFFFFFFFFFFFFFFFFFFFFFFFFFFFFFFFF NOT AND DUP3 PUSH28 0xFFFFFFFFFFFFFFFFFFFFFFFFFFFFFFFFFFFFFFFFFFFFFFFFFFFFFFFF NOT AND EQ SWAP1 POP SWAP2 SWAP1 POP JUMP JUMPDEST PUSH1 0x0 DUP1 PUSH1 0x0 JUMPDEST PUSH1 0x3 SLOAD DUP2 GT PUSH2 0x22B7 JUMPI PUSH1 0x0 PUSH2 0x227B DUP6 DUP4 PUSH2 0x599 JUMP JUMPDEST GT ISZERO PUSH2 0x228E JUMPI PUSH1 0x1 DUP2 SWAP3 POP SWAP3 POP POP PUSH2 0x22B9 JUMP JUMPDEST PUSH1 0x3 SLOAD DUP2 SUB PUSH2 0x22A4 JUMPI PUSH1 0x0 DUP2 SWAP3 POP SWAP3 POP POP PUSH2 0x22B9 JUMP JUMPDEST DUP1 DUP1 PUSH2 0x22AF SWAP1 PUSH2 0x4841 JUMP JUMPDEST SWAP2 POP POP PUSH2 0x2266 JUMP JUMPDEST POP JUMPDEST SWAP2 POP SWAP2 JUMP JUMPDEST PUSH1 0x0 CALLER SWAP1 POP SWAP1 JUMP JUMPDEST DUP2 MLOAD DUP4 MLOAD EQ PUSH2 0x230A JUMPI PUSH1 0x40 MLOAD PUSH32 0x8C379A000000000000000000000000000000000000000000000000000000000 DUP2 MSTORE PUSH1 0x4 ADD PUSH2 0x2301 SWAP1 PUSH2 0x537D JUMP JUMPDEST PUSH1 0x40 MLOAD DUP1 SWAP2 SUB SWAP1 REVERT JUMPDEST PUSH1 0x0 PUSH20 0xFFFFFFFFFFFFFFFFFFFFFFFFFFFFFFFFFFFFFFFF AND DUP5 PUSH20 0xFFFFFFFFFFFFFFFFFFFFFFFFFFFFFFFFFFFFFFFF AND SUB PUSH2 0x2379 JUMPI PUSH1 0x40 MLOAD PUSH32 0x8C379A000000000000000000000000000000000000000000000000000000000 DUP2 MSTORE PUSH1 0x4 ADD PUSH2 0x2370 SWAP1 PUSH2 0x540F JUMP JUMPDEST PUSH1 0x40 MLOAD DUP1 SWAP2 SUB SWAP1 REVERT JUMPDEST PUSH1 0x0 PUSH2 0x2383 PUSH2 0x22BE JUMP JUMPDEST SWAP1 POP PUSH2 0x2393 DUP2 DUP8 DUP8 DUP8 DUP8 DUP8 PUSH2 0x2C8C JUMP JUMPDEST PUSH1 0x0 JUMPDEST DUP5 MLOAD DUP2 LT ISZERO PUSH2 0x2544 JUMPI PUSH1 0x0 DUP6 DUP3 DUP2 MLOAD DUP2 LT PUSH2 0x23B4 JUMPI PUSH2 0x23B3 PUSH2 0x47E3 JUMP JUMPDEST JUMPDEST PUSH1 0x20 MUL PUSH1 0x20 ADD ADD MLOAD SWAP1 POP PUSH1 0x0 DUP6 DUP4 DUP2 MLOAD DUP2 LT PUSH2 0x23D3 JUMPI PUSH2 0x23D2 PUSH2 0x47E3 JUMP JUMPDEST JUMPDEST PUSH1 0x20 MUL PUSH1 0x20 ADD ADD MLOAD SWAP1 POP PUSH1 0x0 DUP1 PUSH1 0x0 DUP5 DUP2 MSTORE PUSH1 0x20 ADD SWAP1 DUP2 MSTORE PUSH1 0x20 ADD PUSH1 0x0 KECCAK256 PUSH1 0x0 DUP12 PUSH20 0xFFFFFFFFFFFFFFFFFFFFFFFFFFFFFFFFFFFFFFFF AND PUSH20 0xFFFFFFFFFFFFFFFFFFFFFFFFFFFFFFFFFFFFFFFF AND DUP2 MSTORE PUSH1 0x20 ADD SWAP1 DUP2 MSTORE PUSH1 0x20 ADD PUSH1 0x0 KECCAK256 SLOAD SWAP1 POP DUP2 DUP2 LT ISZERO PUSH2 0x2474 JUMPI PUSH1 0x40 MLOAD PUSH32 0x8C379A000000000000000000000000000000000000000000000000000000000 DUP2 MSTORE PUSH1 0x4 ADD PUSH2 0x246B SWAP1 PUSH2 0x54A1 JUMP JUMPDEST PUSH1 0x40 MLOAD DUP1 SWAP2 SUB SWAP1 REVERT JUMPDEST DUP2 DUP2 SUB PUSH1 0x0 DUP1 DUP6 DUP2 MSTORE PUSH1 0x20 ADD SWAP1 DUP2 MSTORE PUSH1 0x20 ADD PUSH1 0x0 KECCAK256 PUSH1 0x0 DUP13 PUSH20 0xFFFFFFFFFFFFFFFFFFFFFFFFFFFFFFFFFFFFFFFF AND PUSH20 0xFFFFFFFFFFFFFFFFFFFFFFFFFFFFFFFFFFFFFFFF AND DUP2 MSTORE PUSH1 0x20 ADD SWAP1 DUP2 MSTORE PUSH1 0x20 ADD PUSH1 0x0 KECCAK256 DUP2 SWAP1 SSTORE POP DUP2 PUSH1 0x0 DUP1 DUP6 DUP2 MSTORE PUSH1 0x20 ADD SWAP1 DUP2 MSTORE PUSH1 0x20 ADD PUSH1 0x0 KECCAK256 PUSH1 0x0 DUP12 PUSH20 0xFFFFFFFFFFFFFFFFFFFFFFFFFFFFFFFFFFFFFFFF AND PUSH20 0xFFFFFFFFFFFFFFFFFFFFFFFFFFFFFFFFFFFFFFFF AND DUP2 MSTORE PUSH1 0x20 ADD SWAP1 DUP2 MSTORE PUSH1 0x20 ADD PUSH1 0x0 KECCAK256 PUSH1 0x0 DUP3 DUP3 SLOAD PUSH2 0x2529 SWAP2 SWAP1 PUSH2 0x54C1 JUMP JUMPDEST SWAP3 POP POP DUP2 SWAP1 SSTORE POP POP POP POP DUP1 PUSH2 0x253D SWAP1 PUSH2 0x4841 JUMP JUMPDEST SWAP1 POP PUSH2 0x2396 JUMP JUMPDEST POP DUP5 PUSH20 0xFFFFFFFFFFFFFFFFFFFFFFFFFFFFFFFFFFFFFFFF AND DUP7 PUSH20 0xFFFFFFFFFFFFFFFFFFFFFFFFFFFFFFFFFFFFFFFF AND DUP3 PUSH20 0xFFFFFFFFFFFFFFFFFFFFFFFFFFFFFFFFFFFFFFFF AND PUSH32 0x4A39DC06D4C0DBC64B70AF90FD698A233A518AA5D07E595D983B8C0526C8F7FB DUP8 DUP8 PUSH1 0x40 MLOAD PUSH2 0x25BB SWAP3 SWAP2 SWAP1 PUSH2 0x5517 JUMP JUMPDEST PUSH1 0x40 MLOAD DUP1 SWAP2 SUB SWAP1 LOG4 PUSH2 0x25D1 DUP2 DUP8 DUP8 DUP8 DUP8 DUP8 PUSH2 0x2C94 JUMP JUMPDEST POP POP POP POP POP POP JUMP JUMPDEST PUSH1 0x60 PUSH1 0x0 DUP3 SUB PUSH2 0x2620 JUMPI PUSH1 0x40 MLOAD DUP1 PUSH1 0x40 ADD PUSH1 0x40 MSTORE DUP1 PUSH1 0x1 DUP2 MSTORE PUSH1 0x20 ADD PUSH32 0x3000000000000000000000000000000000000000000000000000000000000000 DUP2 MSTORE POP SWAP1 POP PUSH2 0x2734 JUMP JUMPDEST PUSH1 0x0 DUP3 SWAP1 POP PUSH1 0x0 JUMPDEST PUSH1 0x0 DUP3 EQ PUSH2 0x2652 JUMPI DUP1 DUP1 PUSH2 0x263B SWAP1 PUSH2 0x4841 JUMP JUMPDEST SWAP2 POP POP PUSH1 0xA DUP3 PUSH2 0x264B SWAP2 SWAP1 PUSH2 0x557D JUMP JUMPDEST SWAP2 POP PUSH2 0x2628 JUMP JUMPDEST PUSH1 0x0 DUP2 PUSH8 0xFFFFFFFFFFFFFFFF DUP2 GT ISZERO PUSH2 0x266E JUMPI PUSH2 0x266D PUSH2 0x3C70 JUMP JUMPDEST JUMPDEST PUSH1 0x40 MLOAD SWAP1 DUP1 DUP3 MSTORE DUP1 PUSH1 0x1F ADD PUSH1 0x1F NOT AND PUSH1 0x20 ADD DUP3 ADD PUSH1 0x40 MSTORE DUP1 ISZERO PUSH2 0x26A0 JUMPI DUP2 PUSH1 0x20 ADD PUSH1 0x1 DUP3 MUL DUP1 CALLDATASIZE DUP4 CALLDATACOPY DUP1 DUP3 ADD SWAP2 POP POP SWAP1 POP JUMPDEST POP SWAP1 POP JUMPDEST PUSH1 0x0 DUP6 EQ PUSH2 0x272D JUMPI PUSH1 0x1 DUP3 PUSH2 0x26B9 SWAP2 SWAP1 PUSH2 0x55AE JUMP JUMPDEST SWAP2 POP PUSH1 0xA DUP6 PUSH2 0x26C8 SWAP2 SWAP1 PUSH2 0x55E2 JUMP JUMPDEST PUSH1 0x30 PUSH2 0x26D4 SWAP2 SWAP1 PUSH2 0x54C1 JUMP JUMPDEST PUSH1 0xF8 SHL DUP2 DUP4 DUP2 MLOAD DUP2 LT PUSH2 0x26EA JUMPI PUSH2 0x26E9 PUSH2 0x47E3 JUMP JUMPDEST JUMPDEST PUSH1 0x20 ADD ADD SWAP1 PUSH31 0xFFFFFFFFFFFFFFFFFFFFFFFFFFFFFFFFFFFFFFFFFFFFFFFFFFFFFFFFFFFFFF NOT AND SWAP1 DUP2 PUSH1 0x0 BYTE SWAP1 MSTORE8 POP PUSH1 0xA DUP6 PUSH2 0x2726 SWAP2 SWAP1 PUSH2 0x557D JUMP JUMPDEST SWAP5 POP PUSH2 0x26A4 JUMP JUMPDEST DUP1 SWAP4 POP POP POP POP JUMPDEST SWAP2 SWAP1 POP JUMP JUMPDEST PUSH1 0x0 DUP1 PUSH1 0x0 PUSH2 0x2747 CALLER PUSH2 0x2260 JUMP JUMPDEST SWAP2 POP SWAP2 POP PUSH1 0x1 ISZERO ISZERO DUP3 ISZERO ISZERO EQ DUP1 ISZERO PUSH2 0x275E JUMPI POP DUP4 DUP2 EQ JUMPDEST PUSH2 0x279D JUMPI PUSH1 0x40 MLOAD PUSH32 0x8C379A000000000000000000000000000000000000000000000000000000000 DUP2 MSTORE PUSH1 0x4 ADD PUSH2 0x2794 SWAP1 PUSH2 0x47C3 JUMP JUMPDEST PUSH1 0x40 MLOAD DUP1 SWAP2 SUB SWAP1 REVERT JUMPDEST PUSH1 0x1 SWAP3 POP POP POP SWAP2 SWAP1 POP JUMP JUMPDEST PUSH1 0x0 PUSH1 0x5 SLOAD PUSH1 0x9 PUSH1 0x0 DUP5 DUP2 MSTORE PUSH1 0x20 ADD SWAP1 DUP2 MSTORE PUSH1 0x20 ADD PUSH1 0x0 KECCAK256 PUSH1 0x5 ADD SLOAD LT PUSH2 0x27DC JUMPI PUSH2 0x27D2 DUP3 PUSH2 0x2E6B JUMP JUMPDEST POP PUSH1 0x1 SWAP1 POP PUSH2 0x286F JUMP JUMPDEST PUSH1 0x5 SLOAD PUSH1 0x9 PUSH1 0x0 DUP5 DUP2 MSTORE PUSH1 0x20 ADD SWAP1 DUP2 MSTORE PUSH1 0x20 ADD PUSH1 0x0 KECCAK256 PUSH1 0x6 ADD SLOAD LT PUSH2 0x286A JUMPI PUSH1 0x1 PUSH1 0x9 PUSH1 0x0 DUP5 DUP2 MSTORE PUSH1 0x20 ADD SWAP1 DUP2 MSTORE PUSH1 0x20 ADD PUSH1 0x0 KECCAK256 PUSH1 0x4 ADD PUSH1 0x0 PUSH2 0x100 EXP DUP2 SLOAD DUP2 PUSH1 0xFF MUL NOT AND SWAP1 DUP4 ISZERO ISZERO MUL OR SWAP1 SSTORE POP PUSH32 0xC56428A2DA1DBB4029C0420EAA0C7F7B2E3640B4AC915B15512BCFA2ACE3A935 DUP3 PUSH1 0x40 MLOAD PUSH2 0x2859 SWAP2 SWAP1 PUSH2 0x565F JUMP JUMPDEST PUSH1 0x40 MLOAD DUP1 SWAP2 SUB SWAP1 LOG1 PUSH1 0x1 SWAP1 POP PUSH2 0x286F JUMP JUMPDEST PUSH1 0x0 SWAP1 POP JUMPDEST SWAP2 SWAP1 POP JUMP JUMPDEST PUSH1 0x60 PUSH1 0x2 DUP4 SUB PUSH2 0x2886 JUMPI DUP2 SWAP1 POP PUSH2 0x2899 JUMP JUMPDEST PUSH1 0x40 MLOAD DUP1 PUSH1 0x20 ADD PUSH1 0x40 MSTORE DUP1 PUSH1 0x0 DUP2 MSTORE POP SWAP1 POP JUMPDEST SWAP3 SWAP2 POP POP JUMP JUMPDEST DUP2 PUSH20 0xFFFFFFFFFFFFFFFFFFFFFFFFFFFFFFFFFFFFFFFF AND DUP4 PUSH20 0xFFFFFFFFFFFFFFFFFFFFFFFFFFFFFFFFFFFFFFFF AND SUB PUSH2 0x290D JUMPI PUSH1 0x40 MLOAD PUSH32 0x8C379A000000000000000000000000000000000000000000000000000000000 DUP2 MSTORE PUSH1 0x4 ADD PUSH2 0x2904 SWAP1 PUSH2 0x56FF JUMP JUMPDEST PUSH1 0x40 MLOAD DUP1 SWAP2 SUB SWAP1 REVERT JUMPDEST DUP1 PUSH1 0x1 PUSH1 0x0 DUP6 PUSH20 0xFFFFFFFFFFFFFFFFFFFFFFFFFFFFFFFFFFFFFFFF AND PUSH20 0xFFFFFFFFFFFFFFFFFFFFFFFFFFFFFFFFFFFFFFFF AND DUP2 MSTORE PUSH1 0x20 ADD SWAP1 DUP2 MSTORE PUSH1 0x20 ADD PUSH1 0x0 KECCAK256 PUSH1 0x0 DUP5 PUSH20 0xFFFFFFFFFFFFFFFFFFFFFFFFFFFFFFFFFFFFFFFF AND PUSH20 0xFFFFFFFFFFFFFFFFFFFFFFFFFFFFFFFFFFFFFFFF AND DUP2 MSTORE PUSH1 0x20 ADD SWAP1 DUP2 MSTORE PUSH1 0x20 ADD PUSH1 0x0 KECCAK256 PUSH1 0x0 PUSH2 0x100 EXP DUP2 SLOAD DUP2 PUSH1 0xFF MUL NOT AND SWAP1 DUP4 ISZERO ISZERO MUL OR SWAP1 SSTORE POP DUP2 PUSH20 0xFFFFFFFFFFFFFFFFFFFFFFFFFFFFFFFFFFFFFFFF AND DUP4 PUSH20 0xFFFFFFFFFFFFFFFFFFFFFFFFFFFFFFFFFFFFFFFF AND PUSH32 0x17307EAB39AB6107E8899845AD3D59BD9653F200F220920489CA2B5937696C31 DUP4 PUSH1 0x40 MLOAD PUSH2 0x29FE SWAP2 SWAP1 PUSH2 0x38F6 JUMP JUMPDEST PUSH1 0x40 MLOAD DUP1 SWAP2 SUB SWAP1 LOG3 POP POP POP JUMP JUMPDEST PUSH1 0x0 PUSH20 0xFFFFFFFFFFFFFFFFFFFFFFFFFFFFFFFFFFFFFFFF AND DUP5 PUSH20 0xFFFFFFFFFFFFFFFFFFFFFFFFFFFFFFFFFFFFFFFF AND SUB PUSH2 0x2A7A JUMPI PUSH1 0x40 MLOAD PUSH32 0x8C379A000000000000000000000000000000000000000000000000000000000 DUP2 MSTORE PUSH1 0x4 ADD PUSH2 0x2A71 SWAP1 PUSH2 0x540F JUMP JUMPDEST PUSH1 0x40 MLOAD DUP1 SWAP2 SUB SWAP1 REVERT JUMPDEST PUSH1 0x0 PUSH2 0x2A84 PUSH2 0x22BE JUMP JUMPDEST SWAP1 POP PUSH2 0x2AA4 DUP2 DUP8 DUP8 PUSH2 0x2A95 DUP9 PUSH2 0x32B2 JUMP JUMPDEST PUSH2 0x2A9E DUP9 PUSH2 0x32B2 JUMP JUMPDEST DUP8 PUSH2 0x2C8C JUMP JUMPDEST PUSH1 0x0 DUP1 PUSH1 0x0 DUP7 DUP2 MSTORE PUSH1 0x20 ADD SWAP1 DUP2 MSTORE PUSH1 0x20 ADD PUSH1 0x0 KECCAK256 PUSH1 0x0 DUP9 PUSH20 0xFFFFFFFFFFFFFFFFFFFFFFFFFFFFFFFFFFFFFFFF AND PUSH20 0xFFFFFFFFFFFFFFFFFFFFFFFFFFFFFFFFFFFFFFFF AND DUP2 MSTORE PUSH1 0x20 ADD SWAP1 DUP2 MSTORE PUSH1 0x20 ADD PUSH1 0x0 KECCAK256 SLOAD SWAP1 POP DUP4 DUP2 LT ISZERO PUSH2 0x2B3B JUMPI PUSH1 0x40 MLOAD PUSH32 0x8C379A000000000000000000000000000000000000000000000000000000000 DUP2 MSTORE PUSH1 0x4 ADD PUSH2 0x2B32 SWAP1 PUSH2 0x54A1 JUMP JUMPDEST PUSH1 0x40 MLOAD DUP1 SWAP2 SUB SWAP1 REVERT JUMPDEST DUP4 DUP2 SUB PUSH1 0x0 DUP1 DUP8 DUP2 MSTORE PUSH1 0x20 ADD SWAP1 DUP2 MSTORE PUSH1 0x20 ADD PUSH1 0x0 KECCAK256 PUSH1 0x0 DUP10 PUSH20 0xFFFFFFFFFFFFFFFFFFFFFFFFFFFFFFFFFFFFFFFF AND PUSH20 0xFFFFFFFFFFFFFFFFFFFFFFFFFFFFFFFFFFFFFFFF AND DUP2 MSTORE PUSH1 0x20 ADD SWAP1 DUP2 MSTORE PUSH1 0x20 ADD PUSH1 0x0 KECCAK256 DUP2 SWAP1 SSTORE POP DUP4 PUSH1 0x0 DUP1 DUP8 DUP2 MSTORE PUSH1 0x20 ADD SWAP1 DUP2 MSTORE PUSH1 0x20 ADD PUSH1 0x0 KECCAK256 PUSH1 0x0 DUP9 PUSH20 0xFFFFFFFFFFFFFFFFFFFFFFFFFFFFFFFFFFFFFFFF AND PUSH20 0xFFFFFFFFFFFFFFFFFFFFFFFFFFFFFFFFFFFFFFFF AND DUP2 MSTORE PUSH1 0x20 ADD SWAP1 DUP2 MSTORE PUSH1 0x20 ADD PUSH1 0x0 KECCAK256 PUSH1 0x0 DUP3 DUP3 SLOAD PUSH2 0x2BF0 SWAP2 SWAP1 PUSH2 0x54C1 JUMP JUMPDEST SWAP3 POP POP DUP2 SWAP1 SSTORE POP DUP6 PUSH20 0xFFFFFFFFFFFFFFFFFFFFFFFFFFFFFFFFFFFFFFFF AND DUP8 PUSH20 0xFFFFFFFFFFFFFFFFFFFFFFFFFFFFFFFFFFFFFFFF AND DUP4 PUSH20 0xFFFFFFFFFFFFFFFFFFFFFFFFFFFFFFFFFFFFFFFF AND PUSH32 0xC3D58168C5AE7397731D063D5BBF3D657854427343F4C083240F7AACAA2D0F62 DUP9 DUP9 PUSH1 0x40 MLOAD PUSH2 0x2C6D SWAP3 SWAP2 SWAP1 PUSH2 0x571F JUMP JUMPDEST PUSH1 0x40 MLOAD DUP1 SWAP2 SUB SWAP1 LOG4 PUSH2 0x2C83 DUP3 DUP9 DUP9 DUP9 DUP9 DUP9 PUSH2 0x332C JUMP JUMPDEST POP POP POP POP POP POP POP JUMP JUMPDEST POP POP POP POP POP POP JUMP JUMPDEST PUSH2 0x2CB3 DUP5 PUSH20 0xFFFFFFFFFFFFFFFFFFFFFFFFFFFFFFFFFFFFFFFF AND PUSH2 0x21E3 JUMP JUMPDEST ISZERO PUSH2 0x2E63 JUMPI DUP4 PUSH20 0xFFFFFFFFFFFFFFFFFFFFFFFFFFFFFFFFFFFFFFFF AND PUSH4 0xBC197C81 DUP8 DUP8 DUP7 DUP7 DUP7 PUSH1 0x40 MLOAD DUP7 PUSH4 0xFFFFFFFF AND PUSH1 0xE0 SHL DUP2 MSTORE PUSH1 0x4 ADD PUSH2 0x2CF9 SWAP6 SWAP5 SWAP4 SWAP3 SWAP2 SWAP1 PUSH2 0x579D JUMP JUMPDEST PUSH1 0x20 PUSH1 0x40 MLOAD DUP1 DUP4 SUB DUP2 PUSH1 0x0 DUP8 GAS CALL SWAP3 POP POP POP DUP1 ISZERO PUSH2 0x2D35 JUMPI POP PUSH1 0x40 MLOAD RETURNDATASIZE PUSH1 0x1F NOT PUSH1 0x1F DUP3 ADD AND DUP3 ADD DUP1 PUSH1 0x40 MSTORE POP DUP2 ADD SWAP1 PUSH2 0x2D32 SWAP2 SWAP1 PUSH2 0x581A JUMP JUMPDEST PUSH1 0x1 JUMPDEST PUSH2 0x2DDA JUMPI PUSH2 0x2D41 PUSH2 0x5854 JUMP JUMPDEST DUP1 PUSH4 0x8C379A0 SUB PUSH2 0x2D9D JUMPI POP PUSH2 0x2D55 PUSH2 0x5876 JUMP JUMPDEST DUP1 PUSH2 0x2D60 JUMPI POP PUSH2 0x2D9F JUMP JUMPDEST DUP1 PUSH1 0x40 MLOAD PUSH32 0x8C379A000000000000000000000000000000000000000000000000000000000 DUP2 MSTORE PUSH1 0x4 ADD PUSH2 0x2D94 SWAP2 SWAP1 PUSH2 0x39D7 JUMP JUMPDEST PUSH1 0x40 MLOAD DUP1 SWAP2 SUB SWAP1 REVERT JUMPDEST POP JUMPDEST PUSH1 0x40 MLOAD PUSH32 0x8C379A000000000000000000000000000000000000000000000000000000000 DUP2 MSTORE PUSH1 0x4 ADD PUSH2 0x2DD1 SWAP1 PUSH2 0x5978 JUMP JUMPDEST PUSH1 0x40 MLOAD DUP1 SWAP2 SUB SWAP1 REVERT JUMPDEST PUSH4 0xBC197C81 PUSH1 0xE0 SHL PUSH28 0xFFFFFFFFFFFFFFFFFFFFFFFFFFFFFFFFFFFFFFFFFFFFFFFFFFFFFFFF NOT AND DUP2 PUSH28 0xFFFFFFFFFFFFFFFFFFFFFFFFFFFFFFFFFFFFFFFFFFFFFFFFFFFFFFFF NOT AND EQ PUSH2 0x2E61 JUMPI PUSH1 0x40 MLOAD PUSH32 0x8C379A000000000000000000000000000000000000000000000000000000000 DUP2 MSTORE PUSH1 0x4 ADD PUSH2 0x2E58 SWAP1 PUSH2 0x5A0A JUMP JUMPDEST PUSH1 0x40 MLOAD DUP1 SWAP2 SUB SWAP1 REVERT JUMPDEST POP JUMPDEST POP POP POP POP POP POP JUMP JUMPDEST PUSH1 0x0 DUP1 PUSH1 0x9 PUSH1 0x0 DUP5 DUP2 MSTORE PUSH1 0x20 ADD SWAP1 DUP2 MSTORE PUSH1 0x20 ADD PUSH1 0x0 KECCAK256 PUSH1 0x1 ADD PUSH1 0x0 SWAP1 SLOAD SWAP1 PUSH2 0x100 EXP SWAP1 DIV PUSH20 0xFFFFFFFFFFFFFFFFFFFFFFFFFFFFFFFFFFFFFFFF AND SWAP1 POP PUSH1 0x1 PUSH1 0x9 PUSH1 0x0 DUP6 DUP2 MSTORE PUSH1 0x20 ADD SWAP1 DUP2 MSTORE PUSH1 0x20 ADD PUSH1 0x0 KECCAK256 PUSH1 0x4 ADD PUSH1 0x0 PUSH2 0x100 EXP DUP2 SLOAD DUP2 PUSH1 0xFF MUL NOT AND SWAP1 DUP4 ISZERO ISZERO MUL OR SWAP1 SSTORE POP PUSH1 0x0 PUSH20 0xFFFFFFFFFFFFFFFFFFFFFFFFFFFFFFFFFFFFFFFF AND PUSH1 0x9 PUSH1 0x0 DUP6 DUP2 MSTORE PUSH1 0x20 ADD SWAP1 DUP2 MSTORE PUSH1 0x20 ADD PUSH1 0x0 KECCAK256 PUSH1 0x8 ADD PUSH1 0x1 SWAP1 SLOAD SWAP1 PUSH2 0x100 EXP SWAP1 DIV PUSH20 0xFFFFFFFFFFFFFFFFFFFFFFFFFFFFFFFFFFFFFFFF AND PUSH20 0xFFFFFFFFFFFFFFFFFFFFFFFFFFFFFFFFFFFFFFFF AND SUB PUSH2 0x306C JUMPI PUSH1 0x0 PUSH20 0xFFFFFFFFFFFFFFFFFFFFFFFFFFFFFFFFFFFFFFFF AND DUP2 PUSH20 0xFFFFFFFFFFFFFFFFFFFFFFFFFFFFFFFFFFFFFFFF AND SUB PUSH2 0x2FB0 JUMPI PUSH32 0xDDC4077BCACB7DADBB6CB99A8CA4A3D1F651667EE0D4E7DE7F2B71B00074B58 DUP4 PUSH1 0x40 MLOAD PUSH2 0x2FA3 SWAP2 SWAP1 PUSH2 0x5A76 JUMP JUMPDEST PUSH1 0x40 MLOAD DUP1 SWAP2 SUB SWAP1 LOG1 PUSH2 0x3067 JUMP JUMPDEST PUSH1 0x9 PUSH1 0x0 DUP5 DUP2 MSTORE PUSH1 0x20 ADD SWAP1 DUP2 MSTORE PUSH1 0x20 ADD PUSH1 0x0 KECCAK256 PUSH1 0x0 ADD SLOAD SELFBALANCE LT ISZERO PUSH2 0x3009 JUMPI PUSH1 0x40 MLOAD PUSH32 0x8C379A000000000000000000000000000000000000000000000000000000000 DUP2 MSTORE PUSH1 0x4 ADD PUSH2 0x3000 SWAP1 PUSH2 0x5B16 JUMP JUMPDEST PUSH1 0x40 MLOAD DUP1 SWAP2 SUB SWAP1 REVERT JUMPDEST DUP1 PUSH20 0xFFFFFFFFFFFFFFFFFFFFFFFFFFFFFFFFFFFFFFFF AND PUSH2 0x8FC PUSH1 0x9 PUSH1 0x0 DUP7 DUP2 MSTORE PUSH1 0x20 ADD SWAP1 DUP2 MSTORE PUSH1 0x20 ADD PUSH1 0x0 KECCAK256 PUSH1 0x0 ADD SLOAD SWAP1 DUP2 ISZERO MUL SWAP1 PUSH1 0x40 MLOAD PUSH1 0x0 PUSH1 0x40 MLOAD DUP1 DUP4 SUB DUP2 DUP6 DUP9 DUP9 CALL SWAP4 POP POP POP POP ISZERO DUP1 ISZERO PUSH2 0x3065 JUMPI RETURNDATASIZE PUSH1 0x0 DUP1 RETURNDATACOPY RETURNDATASIZE PUSH1 0x0 REVERT JUMPDEST POP JUMPDEST PUSH2 0x3271 JUMP JUMPDEST PUSH1 0x0 PUSH1 0x9 PUSH1 0x0 DUP6 DUP2 MSTORE PUSH1 0x20 ADD SWAP1 DUP2 MSTORE PUSH1 0x20 ADD PUSH1 0x0 KECCAK256 PUSH1 0x9 ADD SLOAD EQ ISZERO DUP1 ISZERO PUSH2 0x30F6 JUMPI POP PUSH1 0x0 PUSH20 0xFFFFFFFFFFFFFFFFFFFFFFFFFFFFFFFFFFFFFFFF AND PUSH1 0x9 PUSH1 0x0 DUP6 DUP2 MSTORE PUSH1 0x20 ADD SWAP1 DUP2 MSTORE PUSH1 0x20 ADD PUSH1 0x0 KECCAK256 PUSH1 0x8 ADD PUSH1 0x1 SWAP1 SLOAD SWAP1 PUSH2 0x100 EXP SWAP1 DIV PUSH20 0xFFFFFFFFFFFFFFFFFFFFFFFFFFFFFFFFFFFFFFFF AND PUSH20 0xFFFFFFFFFFFFFFFFFFFFFFFFFFFFFFFFFFFFFFFF AND EQ ISZERO JUMPDEST ISZERO PUSH2 0x3201 JUMPI PUSH1 0x9 PUSH1 0x0 DUP5 DUP2 MSTORE PUSH1 0x20 ADD SWAP1 DUP2 MSTORE PUSH1 0x20 ADD PUSH1 0x0 KECCAK256 PUSH1 0x8 ADD PUSH1 0x1 SWAP1 SLOAD SWAP1 PUSH2 0x100 EXP SWAP1 DIV PUSH20 0xFFFFFFFFFFFFFFFFFFFFFFFFFFFFFFFFFFFFFFFF AND PUSH20 0xFFFFFFFFFFFFFFFFFFFFFFFFFFFFFFFFFFFFFFFF AND PUSH4 0xA9059CBB PUSH1 0x9 PUSH1 0x0 DUP7 DUP2 MSTORE PUSH1 0x20 ADD SWAP1 DUP2 MSTORE PUSH1 0x20 ADD PUSH1 0x0 KECCAK256 PUSH1 0x1 ADD PUSH1 0x0 SWAP1 SLOAD SWAP1 PUSH2 0x100 EXP SWAP1 DIV PUSH20 0xFFFFFFFFFFFFFFFFFFFFFFFFFFFFFFFFFFFFFFFF AND PUSH1 0x9 PUSH1 0x0 DUP8 DUP2 MSTORE PUSH1 0x20 ADD SWAP1 DUP2 MSTORE PUSH1 0x20 ADD PUSH1 0x0 KECCAK256 PUSH1 0x0 ADD SLOAD PUSH1 0x40 MLOAD DUP4 PUSH4 0xFFFFFFFF AND PUSH1 0xE0 SHL DUP2 MSTORE PUSH1 0x4 ADD PUSH2 0x31B8 SWAP3 SWAP2 SWAP1 PUSH2 0x3766 JUMP JUMPDEST PUSH1 0x20 PUSH1 0x40 MLOAD DUP1 DUP4 SUB DUP2 PUSH1 0x0 DUP8 GAS CALL ISZERO DUP1 ISZERO PUSH2 0x31D7 JUMPI RETURNDATASIZE PUSH1 0x0 DUP1 RETURNDATACOPY RETURNDATASIZE PUSH1 0x0 REVERT JUMPDEST POP POP POP POP PUSH1 0x40 MLOAD RETURNDATASIZE PUSH1 0x1F NOT PUSH1 0x1F DUP3 ADD AND DUP3 ADD DUP1 PUSH1 0x40 MSTORE POP DUP2 ADD SWAP1 PUSH2 0x31FB SWAP2 SWAP1 PUSH2 0x5B4B JUMP JUMPDEST POP PUSH2 0x3270 JUMP JUMPDEST PUSH2 0x326E PUSH1 0x9 PUSH1 0x0 DUP6 DUP2 MSTORE PUSH1 0x20 ADD SWAP1 DUP2 MSTORE PUSH1 0x20 ADD PUSH1 0x0 KECCAK256 PUSH1 0x8 ADD PUSH1 0x1 SWAP1 SLOAD SWAP1 PUSH2 0x100 EXP SWAP1 DIV PUSH20 0xFFFFFFFFFFFFFFFFFFFFFFFFFFFFFFFFFFFFFFFF AND PUSH1 0x9 PUSH1 0x0 DUP7 DUP2 MSTORE PUSH1 0x20 ADD SWAP1 DUP2 MSTORE PUSH1 0x20 ADD PUSH1 0x0 KECCAK256 PUSH1 0x9 ADD SLOAD PUSH1 0x9 PUSH1 0x0 DUP8 DUP2 MSTORE PUSH1 0x20 ADD SWAP1 DUP2 MSTORE PUSH1 0x20 ADD PUSH1 0x0 KECCAK256 PUSH1 0x0 ADD SLOAD PUSH2 0x3503 JUMP JUMPDEST POP JUMPDEST JUMPDEST PUSH32 0xC56428A2DA1DBB4029C0420EAA0C7F7B2E3640B4AC915B15512BCFA2ACE3A935 DUP4 PUSH1 0x40 MLOAD PUSH2 0x32A0 SWAP2 SWAP1 PUSH2 0x5BC4 JUMP JUMPDEST PUSH1 0x40 MLOAD DUP1 SWAP2 SUB SWAP1 LOG1 PUSH1 0x1 SWAP2 POP POP SWAP2 SWAP1 POP JUMP JUMPDEST PUSH1 0x60 PUSH1 0x0 PUSH1 0x1 PUSH8 0xFFFFFFFFFFFFFFFF DUP2 GT ISZERO PUSH2 0x32D1 JUMPI PUSH2 0x32D0 PUSH2 0x3C70 JUMP JUMPDEST JUMPDEST PUSH1 0x40 MLOAD SWAP1 DUP1 DUP3 MSTORE DUP1 PUSH1 0x20 MUL PUSH1 0x20 ADD DUP3 ADD PUSH1 0x40 MSTORE DUP1 ISZERO PUSH2 0x32FF JUMPI DUP2 PUSH1 0x20 ADD PUSH1 0x20 DUP3 MUL DUP1 CALLDATASIZE DUP4 CALLDATACOPY DUP1 DUP3 ADD SWAP2 POP POP SWAP1 POP JUMPDEST POP SWAP1 POP DUP3 DUP2 PUSH1 0x0 DUP2 MLOAD DUP2 LT PUSH2 0x3317 JUMPI PUSH2 0x3316 PUSH2 0x47E3 JUMP JUMPDEST JUMPDEST PUSH1 0x20 MUL PUSH1 0x20 ADD ADD DUP2 DUP2 MSTORE POP POP DUP1 SWAP2 POP POP SWAP2 SWAP1 POP JUMP JUMPDEST PUSH2 0x334B DUP5 PUSH20 0xFFFFFFFFFFFFFFFFFFFFFFFFFFFFFFFFFFFFFFFF AND PUSH2 0x21E3 JUMP JUMPDEST ISZERO PUSH2 0x34FB JUMPI DUP4 PUSH20 0xFFFFFFFFFFFFFFFFFFFFFFFFFFFFFFFFFFFFFFFF AND PUSH4 0xF23A6E61 DUP8 DUP8 DUP7 DUP7 DUP7 PUSH1 0x40 MLOAD DUP7 PUSH4 0xFFFFFFFF AND PUSH1 0xE0 SHL DUP2 MSTORE PUSH1 0x4 ADD PUSH2 0x3391 SWAP6 SWAP5 SWAP4 SWAP3 SWAP2 SWAP1 PUSH2 0x5BF2 JUMP JUMPDEST PUSH1 0x20 PUSH1 0x40 MLOAD DUP1 DUP4 SUB DUP2 PUSH1 0x0 DUP8 GAS CALL SWAP3 POP POP POP DUP1 ISZERO PUSH2 0x33CD JUMPI POP PUSH1 0x40 MLOAD RETURNDATASIZE PUSH1 0x1F NOT PUSH1 0x1F DUP3 ADD AND DUP3 ADD DUP1 PUSH1 0x40 MSTORE POP DUP2 ADD SWAP1 PUSH2 0x33CA SWAP2 SWAP1 PUSH2 0x581A JUMP JUMPDEST PUSH1 0x1 JUMPDEST PUSH2 0x3472 JUMPI PUSH2 0x33D9 PUSH2 0x5854 JUMP JUMPDEST DUP1 PUSH4 0x8C379A0 SUB PUSH2 0x3435 JUMPI POP PUSH2 0x33ED PUSH2 0x5876 JUMP JUMPDEST DUP1 PUSH2 0x33F8 JUMPI POP PUSH2 0x3437 JUMP JUMPDEST DUP1 PUSH1 0x40 MLOAD PUSH32 0x8C379A000000000000000000000000000000000000000000000000000000000 DUP2 MSTORE PUSH1 0x4 ADD PUSH2 0x342C SWAP2 SWAP1 PUSH2 0x39D7 JUMP JUMPDEST PUSH1 0x40 MLOAD DUP1 SWAP2 SUB SWAP1 REVERT JUMPDEST POP JUMPDEST PUSH1 0x40 MLOAD PUSH32 0x8C379A000000000000000000000000000000000000000000000000000000000 DUP2 MSTORE PUSH1 0x4 ADD PUSH2 0x3469 SWAP1 PUSH2 0x5978 JUMP JUMPDEST PUSH1 0x40 MLOAD DUP1 SWAP2 SUB SWAP1 REVERT JUMPDEST PUSH4 0xF23A6E61 PUSH1 0xE0 SHL PUSH28 0xFFFFFFFFFFFFFFFFFFFFFFFFFFFFFFFFFFFFFFFFFFFFFFFFFFFFFFFF NOT AND DUP2 PUSH28 0xFFFFFFFFFFFFFFFFFFFFFFFFFFFFFFFFFFFFFFFFFFFFFFFFFFFFFFFF NOT AND EQ PUSH2 0x34F9 JUMPI PUSH1 0x40 MLOAD PUSH32 0x8C379A000000000000000000000000000000000000000000000000000000000 DUP2 MSTORE PUSH1 0x4 ADD PUSH2 0x34F0 SWAP1 PUSH2 0x5A0A JUMP JUMPDEST PUSH1 0x40 MLOAD DUP1 SWAP2 SUB SWAP1 REVERT JUMPDEST POP JUMPDEST POP POP POP POP POP POP JUMP JUMPDEST PUSH1 0x0 PUSH1 0x1 ISZERO ISZERO DUP5 PUSH20 0xFFFFFFFFFFFFFFFFFFFFFFFFFFFFFFFFFFFFFFFF AND PUSH4 0x1FFC9A7 PUSH4 0x80AC58CD PUSH1 0x40 MLOAD DUP3 PUSH4 0xFFFFFFFF AND PUSH1 0xE0 SHL DUP2 MSTORE PUSH1 0x4 ADD PUSH2 0x3546 SWAP2 SWAP1 PUSH2 0x5C94 JUMP JUMPDEST PUSH1 0x20 PUSH1 0x40 MLOAD DUP1 DUP4 SUB DUP2 DUP7 GAS STATICCALL ISZERO DUP1 ISZERO PUSH2 0x3563 JUMPI RETURNDATASIZE PUSH1 0x0 DUP1 RETURNDATACOPY RETURNDATASIZE PUSH1 0x0 REVERT JUMPDEST POP POP POP POP PUSH1 0x40 MLOAD RETURNDATASIZE PUSH1 0x1F NOT PUSH1 0x1F DUP3 ADD AND DUP3 ADD DUP1 PUSH1 0x40 MSTORE POP DUP2 ADD SWAP1 PUSH2 0x3587 SWAP2 SWAP1 PUSH2 0x5B4B JUMP JUMPDEST ISZERO ISZERO SUB PUSH2 0x3602 JUMPI DUP4 PUSH20 0xFFFFFFFFFFFFFFFFFFFFFFFFFFFFFFFFFFFFFFFF AND PUSH4 0xB88D4FDE ADDRESS DUP7 DUP7 PUSH1 0x40 MLOAD DUP5 PUSH4 0xFFFFFFFF AND PUSH1 0xE0 SHL DUP2 MSTORE PUSH1 0x4 ADD PUSH2 0x35CB SWAP4 SWAP3 SWAP2 SWAP1 PUSH2 0x5CD5 JUMP JUMPDEST PUSH1 0x0 PUSH1 0x40 MLOAD DUP1 DUP4 SUB DUP2 PUSH1 0x0 DUP8 DUP1 EXTCODESIZE ISZERO DUP1 ISZERO PUSH2 0x35E5 JUMPI PUSH1 0x0 DUP1 REVERT JUMPDEST POP GAS CALL ISZERO DUP1 ISZERO PUSH2 0x35F9 JUMPI RETURNDATASIZE PUSH1 0x0 DUP1 RETURNDATACOPY RETURNDATASIZE PUSH1 0x0 REVERT JUMPDEST POP POP POP POP PUSH2 0x3674 JUMP JUMPDEST DUP4 PUSH20 0xFFFFFFFFFFFFFFFFFFFFFFFFFFFFFFFFFFFFFFFF AND PUSH4 0xF242432A ADDRESS DUP7 DUP7 DUP7 PUSH1 0x40 MLOAD DUP6 PUSH4 0xFFFFFFFF AND PUSH1 0xE0 SHL DUP2 MSTORE PUSH1 0x4 ADD PUSH2 0x3641 SWAP5 SWAP4 SWAP3 SWAP2 SWAP1 PUSH2 0x5D1F JUMP JUMPDEST PUSH1 0x0 PUSH1 0x40 MLOAD DUP1 DUP4 SUB DUP2 PUSH1 0x0 DUP8 DUP1 EXTCODESIZE ISZERO DUP1 ISZERO PUSH2 0x365B JUMPI PUSH1 0x0 DUP1 REVERT JUMPDEST POP GAS CALL ISZERO DUP1 ISZERO PUSH2 0x366F JUMPI RETURNDATASIZE PUSH1 0x0 DUP1 RETURNDATACOPY RETURNDATASIZE PUSH1 0x0 REVERT JUMPDEST POP POP POP POP JUMPDEST SWAP4 SWAP3 POP POP POP JUMP JUMPDEST PUSH1 0x40 MLOAD DUP1 PUSH2 0x180 ADD PUSH1 0x40 MSTORE DUP1 PUSH1 0x0 DUP2 MSTORE PUSH1 0x20 ADD PUSH1 0x0 PUSH20 0xFFFFFFFFFFFFFFFFFFFFFFFFFFFFFFFFFFFFFFFF AND DUP2 MSTORE PUSH1 0x20 ADD PUSH1 0x60 DUP2 MSTORE PUSH1 0x20 ADD PUSH1 0x60 DUP2 MSTORE PUSH1 0x20 ADD PUSH1 0x0 ISZERO ISZERO DUP2 MSTORE PUSH1 0x20 ADD PUSH1 0x0 DUP2 MSTORE PUSH1 0x20 ADD PUSH1 0x0 DUP2 MSTORE PUSH1 0x20 ADD PUSH1 0x0 DUP2 MSTORE PUSH1 0x20 ADD PUSH1 0x0 ISZERO ISZERO DUP2 MSTORE PUSH1 0x20 ADD PUSH1 0x0 PUSH20 0xFFFFFFFFFFFFFFFFFFFFFFFFFFFFFFFFFFFFFFFF AND DUP2 MSTORE PUSH1 0x20 ADD PUSH1 0x0 DUP2 MSTORE PUSH1 0x20 ADD PUSH1 0x60 DUP2 MSTORE POP SWAP1 JUMP JUMPDEST PUSH1 0x0 PUSH20 0xFFFFFFFFFFFFFFFFFFFFFFFFFFFFFFFFFFFFFFFF DUP3 AND SWAP1 POP SWAP2 SWAP1 POP JUMP JUMPDEST PUSH1 0x0 PUSH2 0x3737 DUP3 PUSH2 0x370C JUMP JUMPDEST SWAP1 POP SWAP2 SWAP1 POP JUMP JUMPDEST PUSH2 0x3747 DUP2 PUSH2 0x372C JUMP JUMPDEST DUP3 MSTORE POP POP JUMP JUMPDEST PUSH1 0x0 DUP2 SWAP1 POP SWAP2 SWAP1 POP JUMP JUMPDEST PUSH2 0x3760 DUP2 PUSH2 0x374D JUMP JUMPDEST DUP3 MSTORE POP POP JUMP JUMPDEST PUSH1 0x0 PUSH1 0x40 DUP3 ADD SWAP1 POP PUSH2 0x377B PUSH1 0x0 DUP4 ADD DUP6 PUSH2 0x373E JUMP JUMPDEST PUSH2 0x3788 PUSH1 0x20 DUP4 ADD DUP5 PUSH2 0x3757 JUMP JUMPDEST SWAP4 SWAP3 POP POP POP JUMP JUMPDEST PUSH1 0x0 PUSH1 0x40 MLOAD SWAP1 POP SWAP1 JUMP JUMPDEST PUSH1 0x0 DUP1 REVERT JUMPDEST PUSH1 0x0 DUP1 REVERT JUMPDEST PUSH2 0x37AC DUP2 PUSH2 0x372C JUMP JUMPDEST DUP2 EQ PUSH2 0x37B7 JUMPI PUSH1 0x0 DUP1 REVERT JUMPDEST POP JUMP JUMPDEST PUSH1 0x0 DUP2 CALLDATALOAD SWAP1 POP PUSH2 0x37C9 DUP2 PUSH2 0x37A3 JUMP JUMPDEST SWAP3 SWAP2 POP POP JUMP JUMPDEST PUSH2 0x37D8 DUP2 PUSH2 0x374D JUMP JUMPDEST DUP2 EQ PUSH2 0x37E3 JUMPI PUSH1 0x0 DUP1 REVERT JUMPDEST POP JUMP JUMPDEST PUSH1 0x0 DUP2 CALLDATALOAD SWAP1 POP PUSH2 0x37F5 DUP2 PUSH2 0x37CF JUMP JUMPDEST SWAP3 SWAP2 POP POP JUMP JUMPDEST PUSH1 0x0 DUP1 PUSH1 0x40 DUP4 DUP6 SUB SLT ISZERO PUSH2 0x3812 JUMPI PUSH2 0x3811 PUSH2 0x3799 JUMP JUMPDEST JUMPDEST PUSH1 0x0 PUSH2 0x3820 DUP6 DUP3 DUP7 ADD PUSH2 0x37BA JUMP JUMPDEST SWAP3 POP POP PUSH1 0x20 PUSH2 0x3831 DUP6 DUP3 DUP7 ADD PUSH2 0x37E6 JUMP JUMPDEST SWAP2 POP POP SWAP3 POP SWAP3 SWAP1 POP JUMP JUMPDEST PUSH1 0x0 PUSH1 0x20 DUP3 ADD SWAP1 POP PUSH2 0x3850 PUSH1 0x0 DUP4 ADD DUP5 PUSH2 0x3757 JUMP JUMPDEST SWAP3 SWAP2 POP POP JUMP JUMPDEST PUSH1 0x0 PUSH32 0xFFFFFFFF00000000000000000000000000000000000000000000000000000000 DUP3 AND SWAP1 POP SWAP2 SWAP1 POP JUMP JUMPDEST PUSH2 0x388B DUP2 PUSH2 0x3856 JUMP JUMPDEST DUP2 EQ PUSH2 0x3896 JUMPI PUSH1 0x0 DUP1 REVERT JUMPDEST POP JUMP JUMPDEST PUSH1 0x0 DUP2 CALLDATALOAD SWAP1 POP PUSH2 0x38A8 DUP2 PUSH2 0x3882 JUMP JUMPDEST SWAP3 SWAP2 POP POP JUMP JUMPDEST PUSH1 0x0 PUSH1 0x20 DUP3 DUP5 SUB SLT ISZERO PUSH2 0x38C4 JUMPI PUSH2 0x38C3 PUSH2 0x3799 JUMP JUMPDEST JUMPDEST PUSH1 0x0 PUSH2 0x38D2 DUP5 DUP3 DUP6 ADD PUSH2 0x3899 JUMP JUMPDEST SWAP2 POP POP SWAP3 SWAP2 POP POP JUMP JUMPDEST PUSH1 0x0 DUP2 ISZERO ISZERO SWAP1 POP SWAP2 SWAP1 POP JUMP JUMPDEST PUSH2 0x38F0 DUP2 PUSH2 0x38DB JUMP JUMPDEST DUP3 MSTORE POP POP JUMP JUMPDEST PUSH1 0x0 PUSH1 0x20 DUP3 ADD SWAP1 POP PUSH2 0x390B PUSH1 0x0 DUP4 ADD DUP5 PUSH2 0x38E7 JUMP JUMPDEST SWAP3 SWAP2 POP POP JUMP JUMPDEST PUSH1 0x0 PUSH1 0x20 DUP3 DUP5 SUB SLT ISZERO PUSH2 0x3927 JUMPI PUSH2 0x3926 PUSH2 0x3799 JUMP JUMPDEST JUMPDEST PUSH1 0x0 PUSH2 0x3935 DUP5 DUP3 DUP6 ADD PUSH2 0x37E6 JUMP JUMPDEST SWAP2 POP POP SWAP3 SWAP2 POP POP JUMP JUMPDEST PUSH1 0x0 DUP2 MLOAD SWAP1 POP SWAP2 SWAP1 POP JUMP JUMPDEST PUSH1 0x0 DUP3 DUP3 MSTORE PUSH1 0x20 DUP3 ADD SWAP1 POP SWAP3 SWAP2 POP POP JUMP JUMPDEST PUSH1 0x0 JUMPDEST DUP4 DUP2 LT ISZERO PUSH2 0x3978 JUMPI DUP1 DUP3 ADD MLOAD DUP2 DUP5 ADD MSTORE PUSH1 0x20 DUP2 ADD SWAP1 POP PUSH2 0x395D JUMP JUMPDEST DUP4 DUP2 GT ISZERO PUSH2 0x3987 JUMPI PUSH1 0x0 DUP5 DUP5 ADD MSTORE JUMPDEST POP POP POP POP JUMP JUMPDEST PUSH1 0x0 PUSH1 0x1F NOT PUSH1 0x1F DUP4 ADD AND SWAP1 POP SWAP2 SWAP1 POP JUMP JUMPDEST PUSH1 0x0 PUSH2 0x39A9 DUP3 PUSH2 0x393E JUMP JUMPDEST PUSH2 0x39B3 DUP2 DUP6 PUSH2 0x3949 JUMP JUMPDEST SWAP4 POP PUSH2 0x39C3 DUP2 DUP6 PUSH1 0x20 DUP7 ADD PUSH2 0x395A JUMP JUMPDEST PUSH2 0x39CC DUP2 PUSH2 0x398D JUMP JUMPDEST DUP5 ADD SWAP2 POP POP SWAP3 SWAP2 POP POP JUMP JUMPDEST PUSH1 0x0 PUSH1 0x20 DUP3 ADD SWAP1 POP DUP2 DUP2 SUB PUSH1 0x0 DUP4 ADD MSTORE PUSH2 0x39F1 DUP2 DUP5 PUSH2 0x399E JUMP JUMPDEST SWAP1 POP SWAP3 SWAP2 POP POP JUMP JUMPDEST PUSH1 0x0 DUP2 MLOAD SWAP1 POP SWAP2 SWAP1 POP JUMP JUMPDEST PUSH1 0x0 DUP3 DUP3 MSTORE PUSH1 0x20 DUP3 ADD SWAP1 POP SWAP3 SWAP2 POP POP JUMP JUMPDEST PUSH1 0x0 DUP2 SWAP1 POP PUSH1 0x20 DUP3 ADD SWAP1 POP SWAP2 SWAP1 POP JUMP JUMPDEST PUSH2 0x3A2E DUP2 PUSH2 0x374D JUMP JUMPDEST DUP3 MSTORE POP POP JUMP JUMPDEST PUSH2 0x3A3D DUP2 PUSH2 0x372C JUMP JUMPDEST DUP3 MSTORE POP POP JUMP JUMPDEST PUSH1 0x0 DUP3 DUP3 MSTORE PUSH1 0x20 DUP3 ADD SWAP1 POP SWAP3 SWAP2 POP POP JUMP JUMPDEST PUSH1 0x0 PUSH2 0x3A5F DUP3 PUSH2 0x393E JUMP JUMPDEST PUSH2 0x3A69 DUP2 DUP6 PUSH2 0x3A43 JUMP JUMPDEST SWAP4 POP PUSH2 0x3A79 DUP2 DUP6 PUSH1 0x20 DUP7 ADD PUSH2 0x395A JUMP JUMPDEST PUSH2 0x3A82 DUP2 PUSH2 0x398D JUMP JUMPDEST DUP5 ADD SWAP2 POP POP SWAP3 SWAP2 POP POP JUMP JUMPDEST PUSH2 0x3A96 DUP2 PUSH2 0x38DB JUMP JUMPDEST DUP3 MSTORE POP POP JUMP JUMPDEST PUSH1 0x0 PUSH2 0x180 DUP4 ADD PUSH1 0x0 DUP4 ADD MLOAD PUSH2 0x3AB5 PUSH1 0x0 DUP7 ADD DUP3 PUSH2 0x3A25 JUMP JUMPDEST POP PUSH1 0x20 DUP4 ADD MLOAD PUSH2 0x3AC8 PUSH1 0x20 DUP7 ADD DUP3 PUSH2 0x3A34 JUMP JUMPDEST POP PUSH1 0x40 DUP4 ADD MLOAD DUP5 DUP3 SUB PUSH1 0x40 DUP7 ADD MSTORE PUSH2 0x3AE0 DUP3 DUP3 PUSH2 0x3A54 JUMP JUMPDEST SWAP2 POP POP PUSH1 0x60 DUP4 ADD MLOAD DUP5 DUP3 SUB PUSH1 0x60 DUP7 ADD MSTORE PUSH2 0x3AFA DUP3 DUP3 PUSH2 0x3A54 JUMP JUMPDEST SWAP2 POP POP PUSH1 0x80 DUP4 ADD MLOAD PUSH2 0x3B0F PUSH1 0x80 DUP7 ADD DUP3 PUSH2 0x3A8D JUMP JUMPDEST POP PUSH1 0xA0 DUP4 ADD MLOAD PUSH2 0x3B22 PUSH1 0xA0 DUP7 ADD DUP3 PUSH2 0x3A25 JUMP JUMPDEST POP PUSH1 0xC0 DUP4 ADD MLOAD PUSH2 0x3B35 PUSH1 0xC0 DUP7 ADD DUP3 PUSH2 0x3A25 JUMP JUMPDEST POP PUSH1 0xE0 DUP4 ADD MLOAD PUSH2 0x3B48 PUSH1 0xE0 DUP7 ADD DUP3 PUSH2 0x3A25 JUMP JUMPDEST POP PUSH2 0x100 DUP4 ADD MLOAD PUSH2 0x3B5D PUSH2 0x100 DUP7 ADD DUP3 PUSH2 0x3A8D JUMP JUMPDEST POP PUSH2 0x120 DUP4 ADD MLOAD PUSH2 0x3B72 PUSH2 0x120 DUP7 ADD DUP3 PUSH2 0x3A34 JUMP JUMPDEST POP PUSH2 0x140 DUP4 ADD MLOAD PUSH2 0x3B87 PUSH2 0x140 DUP7 ADD DUP3 PUSH2 0x3A25 JUMP JUMPDEST POP PUSH2 0x160 DUP4 ADD MLOAD DUP5 DUP3 SUB PUSH2 0x160 DUP7 ADD MSTORE PUSH2 0x3BA1 DUP3 DUP3 PUSH2 0x3A54 JUMP JUMPDEST SWAP2 POP POP DUP1 SWAP2 POP POP SWAP3 SWAP2 POP POP JUMP JUMPDEST PUSH1 0x0 PUSH2 0x3BBA DUP4 DUP4 PUSH2 0x3A9C JUMP JUMPDEST SWAP1 POP SWAP3 SWAP2 POP POP JUMP JUMPDEST PUSH1 0x0 PUSH1 0x20 DUP3 ADD SWAP1 POP SWAP2 SWAP1 POP JUMP JUMPDEST PUSH1 0x0 PUSH2 0x3BDA DUP3 PUSH2 0x39F9 JUMP JUMPDEST PUSH2 0x3BE4 DUP2 DUP6 PUSH2 0x3A04 JUMP JUMPDEST SWAP4 POP DUP4 PUSH1 0x20 DUP3 MUL DUP6 ADD PUSH2 0x3BF6 DUP6 PUSH2 0x3A15 JUMP JUMPDEST DUP1 PUSH1 0x0 JUMPDEST DUP6 DUP2 LT ISZERO PUSH2 0x3C32 JUMPI DUP5 DUP5 SUB DUP10 MSTORE DUP2 MLOAD PUSH2 0x3C13 DUP6 DUP3 PUSH2 0x3BAE JUMP JUMPDEST SWAP5 POP PUSH2 0x3C1E DUP4 PUSH2 0x3BC2 JUMP JUMPDEST SWAP3 POP PUSH1 0x20 DUP11 ADD SWAP10 POP POP PUSH1 0x1 DUP2 ADD SWAP1 POP PUSH2 0x3BFA JUMP JUMPDEST POP DUP3 SWAP8 POP DUP8 SWAP6 POP POP POP POP POP POP SWAP3 SWAP2 POP POP JUMP JUMPDEST PUSH1 0x0 PUSH1 0x20 DUP3 ADD SWAP1 POP DUP2 DUP2 SUB PUSH1 0x0 DUP4 ADD MSTORE PUSH2 0x3C5E DUP2 DUP5 PUSH2 0x3BCF JUMP JUMPDEST SWAP1 POP SWAP3 SWAP2 POP POP JUMP JUMPDEST PUSH1 0x0 DUP1 REVERT JUMPDEST PUSH1 0x0 DUP1 REVERT JUMPDEST PUSH32 0x4E487B7100000000000000000000000000000000000000000000000000000000 PUSH1 0x0 MSTORE PUSH1 0x41 PUSH1 0x4 MSTORE PUSH1 0x24 PUSH1 0x0 REVERT JUMPDEST PUSH2 0x3CA8 DUP3 PUSH2 0x398D JUMP JUMPDEST DUP2 ADD DUP2 DUP2 LT PUSH8 0xFFFFFFFFFFFFFFFF DUP3 GT OR ISZERO PUSH2 0x3CC7 JUMPI PUSH2 0x3CC6 PUSH2 0x3C70 JUMP JUMPDEST JUMPDEST DUP1 PUSH1 0x40 MSTORE POP POP POP JUMP JUMPDEST PUSH1 0x0 PUSH2 0x3CDA PUSH2 0x378F JUMP JUMPDEST SWAP1 POP PUSH2 0x3CE6 DUP3 DUP3 PUSH2 0x3C9F JUMP JUMPDEST SWAP2 SWAP1 POP JUMP JUMPDEST PUSH1 0x0 PUSH8 0xFFFFFFFFFFFFFFFF DUP3 GT ISZERO PUSH2 0x3D06 JUMPI PUSH2 0x3D05 PUSH2 0x3C70 JUMP JUMPDEST JUMPDEST PUSH2 0x3D0F DUP3 PUSH2 0x398D JUMP JUMPDEST SWAP1 POP PUSH1 0x20 DUP2 ADD SWAP1 POP SWAP2 SWAP1 POP JUMP JUMPDEST DUP3 DUP2 DUP4 CALLDATACOPY PUSH1 0x0 DUP4 DUP4 ADD MSTORE POP POP POP JUMP JUMPDEST PUSH1 0x0 PUSH2 0x3D3E PUSH2 0x3D39 DUP5 PUSH2 0x3CEB JUMP JUMPDEST PUSH2 0x3CD0 JUMP JUMPDEST SWAP1 POP DUP3 DUP2 MSTORE PUSH1 0x20 DUP2 ADD DUP5 DUP5 DUP5 ADD GT ISZERO PUSH2 0x3D5A JUMPI PUSH2 0x3D59 PUSH2 0x3C6B JUMP JUMPDEST JUMPDEST PUSH2 0x3D65 DUP5 DUP3 DUP6 PUSH2 0x3D1C JUMP JUMPDEST POP SWAP4 SWAP3 POP POP POP JUMP JUMPDEST PUSH1 0x0 DUP3 PUSH1 0x1F DUP4 ADD SLT PUSH2 0x3D82 JUMPI PUSH2 0x3D81 PUSH2 0x3C66 JUMP JUMPDEST JUMPDEST DUP2 CALLDATALOAD PUSH2 0x3D92 DUP5 DUP3 PUSH1 0x20 DUP7 ADD PUSH2 0x3D2B JUMP JUMPDEST SWAP2 POP POP SWAP3 SWAP2 POP POP JUMP JUMPDEST PUSH1 0x0 DUP1 PUSH1 0x0 DUP1 PUSH1 0x80 DUP6 DUP8 SUB SLT ISZERO PUSH2 0x3DB5 JUMPI PUSH2 0x3DB4 PUSH2 0x3799 JUMP JUMPDEST JUMPDEST PUSH1 0x0 PUSH2 0x3DC3 DUP8 DUP3 DUP9 ADD PUSH2 0x37BA JUMP JUMPDEST SWAP5 POP POP PUSH1 0x20 PUSH2 0x3DD4 DUP8 DUP3 DUP9 ADD PUSH2 0x37BA JUMP JUMPDEST SWAP4 POP POP PUSH1 0x40 PUSH2 0x3DE5 DUP8 DUP3 DUP9 ADD PUSH2 0x37E6 JUMP JUMPDEST SWAP3 POP POP PUSH1 0x60 DUP6 ADD CALLDATALOAD PUSH8 0xFFFFFFFFFFFFFFFF DUP2 GT ISZERO PUSH2 0x3E06 JUMPI PUSH2 0x3E05 PUSH2 0x379E JUMP JUMPDEST JUMPDEST PUSH2 0x3E12 DUP8 DUP3 DUP9 ADD PUSH2 0x3D6D JUMP JUMPDEST SWAP2 POP POP SWAP3 SWAP6 SWAP2 SWAP5 POP SWAP3 POP JUMP JUMPDEST PUSH2 0x3E27 DUP2 PUSH2 0x3856 JUMP JUMPDEST DUP3 MSTORE POP POP JUMP JUMPDEST PUSH1 0x0 PUSH1 0x20 DUP3 ADD SWAP1 POP PUSH2 0x3E42 PUSH1 0x0 DUP4 ADD DUP5 PUSH2 0x3E1E JUMP JUMPDEST SWAP3 SWAP2 POP POP JUMP JUMPDEST PUSH1 0x0 PUSH8 0xFFFFFFFFFFFFFFFF DUP3 GT ISZERO PUSH2 0x3E63 JUMPI PUSH2 0x3E62 PUSH2 0x3C70 JUMP JUMPDEST JUMPDEST PUSH1 0x20 DUP3 MUL SWAP1 POP PUSH1 0x20 DUP2 ADD SWAP1 POP SWAP2 SWAP1 POP JUMP JUMPDEST PUSH1 0x0 DUP1 REVERT JUMPDEST PUSH1 0x0 PUSH2 0x3E8C PUSH2 0x3E87 DUP5 PUSH2 0x3E48 JUMP JUMPDEST PUSH2 0x3CD0 JUMP JUMPDEST SWAP1 POP DUP1 DUP4 DUP3 MSTORE PUSH1 0x20 DUP3 ADD SWAP1 POP PUSH1 0x20 DUP5 MUL DUP4 ADD DUP6 DUP2 GT ISZERO PUSH2 0x3EAF JUMPI PUSH2 0x3EAE PUSH2 0x3E74 JUMP JUMPDEST JUMPDEST DUP4 JUMPDEST DUP2 DUP2 LT ISZERO PUSH2 0x3ED8 JUMPI DUP1 PUSH2 0x3EC4 DUP9 DUP3 PUSH2 0x37E6 JUMP JUMPDEST DUP5 MSTORE PUSH1 0x20 DUP5 ADD SWAP4 POP POP PUSH1 0x20 DUP2 ADD SWAP1 POP PUSH2 0x3EB1 JUMP JUMPDEST POP POP POP SWAP4 SWAP3 POP POP POP JUMP JUMPDEST PUSH1 0x0 DUP3 PUSH1 0x1F DUP4 ADD SLT PUSH2 0x3EF7 JUMPI PUSH2 0x3EF6 PUSH2 0x3C66 JUMP JUMPDEST JUMPDEST DUP2 CALLDATALOAD PUSH2 0x3F07 DUP5 DUP3 PUSH1 0x20 DUP7 ADD PUSH2 0x3E79 JUMP JUMPDEST SWAP2 POP POP SWAP3 SWAP2 POP POP JUMP JUMPDEST PUSH1 0x0 DUP1 PUSH1 0x0 DUP1 PUSH1 0x0 PUSH1 0xA0 DUP7 DUP9 SUB SLT ISZERO PUSH2 0x3F2C JUMPI PUSH2 0x3F2B PUSH2 0x3799 JUMP JUMPDEST JUMPDEST PUSH1 0x0 PUSH2 0x3F3A DUP9 DUP3 DUP10 ADD PUSH2 0x37BA JUMP JUMPDEST SWAP6 POP POP PUSH1 0x20 PUSH2 0x3F4B DUP9 DUP3 DUP10 ADD PUSH2 0x37BA JUMP JUMPDEST SWAP5 POP POP PUSH1 0x40 DUP7 ADD CALLDATALOAD PUSH8 0xFFFFFFFFFFFFFFFF DUP2 GT ISZERO PUSH2 0x3F6C JUMPI PUSH2 0x3F6B PUSH2 0x379E JUMP JUMPDEST JUMPDEST PUSH2 0x3F78 DUP9 DUP3 DUP10 ADD PUSH2 0x3EE2 JUMP JUMPDEST SWAP4 POP POP PUSH1 0x60 DUP7 ADD CALLDATALOAD PUSH8 0xFFFFFFFFFFFFFFFF DUP2 GT ISZERO PUSH2 0x3F99 JUMPI PUSH2 0x3F98 PUSH2 0x379E JUMP JUMPDEST JUMPDEST PUSH2 0x3FA5 DUP9 DUP3 DUP10 ADD PUSH2 0x3EE2 JUMP JUMPDEST SWAP3 POP POP PUSH1 0x80 DUP7 ADD CALLDATALOAD PUSH8 0xFFFFFFFFFFFFFFFF DUP2 GT ISZERO PUSH2 0x3FC6 JUMPI PUSH2 0x3FC5 PUSH2 0x379E JUMP JUMPDEST JUMPDEST PUSH2 0x3FD2 DUP9 DUP3 DUP10 ADD PUSH2 0x3D6D JUMP JUMPDEST SWAP2 POP POP SWAP3 SWAP6 POP SWAP3 SWAP6 SWAP1 SWAP4 POP JUMP JUMPDEST PUSH1 0x0 PUSH8 0xFFFFFFFFFFFFFFFF DUP3 GT ISZERO PUSH2 0x3FFA JUMPI PUSH2 0x3FF9 PUSH2 0x3C70 JUMP JUMPDEST JUMPDEST PUSH1 0x20 DUP3 MUL SWAP1 POP PUSH1 0x20 DUP2 ADD SWAP1 POP SWAP2 SWAP1 POP JUMP JUMPDEST PUSH1 0x0 PUSH2 0x401E PUSH2 0x4019 DUP5 PUSH2 0x3FDF JUMP JUMPDEST PUSH2 0x3CD0 JUMP JUMPDEST SWAP1 POP DUP1 DUP4 DUP3 MSTORE PUSH1 0x20 DUP3 ADD SWAP1 POP PUSH1 0x20 DUP5 MUL DUP4 ADD DUP6 DUP2 GT ISZERO PUSH2 0x4041 JUMPI PUSH2 0x4040 PUSH2 0x3E74 JUMP JUMPDEST JUMPDEST DUP4 JUMPDEST DUP2 DUP2 LT ISZERO PUSH2 0x406A JUMPI DUP1 PUSH2 0x4056 DUP9 DUP3 PUSH2 0x37BA JUMP JUMPDEST DUP5 MSTORE PUSH1 0x20 DUP5 ADD SWAP4 POP POP PUSH1 0x20 DUP2 ADD SWAP1 POP PUSH2 0x4043 JUMP JUMPDEST POP POP POP SWAP4 SWAP3 POP POP POP JUMP JUMPDEST PUSH1 0x0 DUP3 PUSH1 0x1F DUP4 ADD SLT PUSH2 0x4089 JUMPI PUSH2 0x4088 PUSH2 0x3C66 JUMP JUMPDEST JUMPDEST DUP2 CALLDATALOAD PUSH2 0x4099 DUP5 DUP3 PUSH1 0x20 DUP7 ADD PUSH2 0x400B JUMP JUMPDEST SWAP2 POP POP SWAP3 SWAP2 POP POP JUMP JUMPDEST PUSH1 0x0 DUP1 PUSH1 0x40 DUP4 DUP6 SUB SLT ISZERO PUSH2 0x40B9 JUMPI PUSH2 0x40B8 PUSH2 0x3799 JUMP JUMPDEST JUMPDEST PUSH1 0x0 DUP4 ADD CALLDATALOAD PUSH8 0xFFFFFFFFFFFFFFFF DUP2 GT ISZERO PUSH2 0x40D7 JUMPI PUSH2 0x40D6 PUSH2 0x379E JUMP JUMPDEST JUMPDEST PUSH2 0x40E3 DUP6 DUP3 DUP7 ADD PUSH2 0x4074 JUMP JUMPDEST SWAP3 POP POP PUSH1 0x20 DUP4 ADD CALLDATALOAD PUSH8 0xFFFFFFFFFFFFFFFF DUP2 GT ISZERO PUSH2 0x4104 JUMPI PUSH2 0x4103 PUSH2 0x379E JUMP JUMPDEST JUMPDEST PUSH2 0x4110 DUP6 DUP3 DUP7 ADD PUSH2 0x3EE2 JUMP JUMPDEST SWAP2 POP POP SWAP3 POP SWAP3 SWAP1 POP JUMP JUMPDEST PUSH1 0x0 DUP2 MLOAD SWAP1 POP SWAP2 SWAP1 POP JUMP JUMPDEST PUSH1 0x0 DUP3 DUP3 MSTORE PUSH1 0x20 DUP3 ADD SWAP1 POP SWAP3 SWAP2 POP POP JUMP JUMPDEST PUSH1 0x0 DUP2 SWAP1 POP PUSH1 0x20 DUP3 ADD SWAP1 POP SWAP2 SWAP1 POP JUMP JUMPDEST PUSH1 0x0 PUSH2 0x4152 DUP4 DUP4 PUSH2 0x3A25 JUMP JUMPDEST PUSH1 0x20 DUP4 ADD SWAP1 POP SWAP3 SWAP2 POP POP JUMP JUMPDEST PUSH1 0x0 PUSH1 0x20 DUP3 ADD SWAP1 POP SWAP2 SWAP1 POP JUMP JUMPDEST PUSH1 0x0 PUSH2 0x4176 DUP3 PUSH2 0x411A JUMP JUMPDEST PUSH2 0x4180 DUP2 DUP6 PUSH2 0x4125 JUMP JUMPDEST SWAP4 POP PUSH2 0x418B DUP4 PUSH2 0x4136 JUMP JUMPDEST DUP1 PUSH1 0x0 JUMPDEST DUP4 DUP2 LT ISZERO PUSH2 0x41BC JUMPI DUP2 MLOAD PUSH2 0x41A3 DUP9 DUP3 PUSH2 0x4146 JUMP JUMPDEST SWAP8 POP PUSH2 0x41AE DUP4 PUSH2 0x415E JUMP JUMPDEST SWAP3 POP POP PUSH1 0x1 DUP2 ADD SWAP1 POP PUSH2 0x418F JUMP JUMPDEST POP DUP6 SWAP4 POP POP POP POP SWAP3 SWAP2 POP POP JUMP JUMPDEST PUSH1 0x0 PUSH1 0x20 DUP3 ADD SWAP1 POP DUP2 DUP2 SUB PUSH1 0x0 DUP4 ADD MSTORE PUSH2 0x41E3 DUP2 DUP5 PUSH2 0x416B JUMP JUMPDEST SWAP1 POP SWAP3 SWAP2 POP POP JUMP JUMPDEST PUSH2 0x41F4 DUP2 PUSH2 0x38DB JUMP JUMPDEST DUP2 EQ PUSH2 0x41FF JUMPI PUSH1 0x0 DUP1 REVERT JUMPDEST POP JUMP JUMPDEST PUSH1 0x0 DUP2 CALLDATALOAD SWAP1 POP PUSH2 0x4211 DUP2 PUSH2 0x41EB JUMP JUMPDEST SWAP3 SWAP2 POP POP JUMP JUMPDEST PUSH1 0x0 DUP1 PUSH1 0x0 PUSH1 0x60 DUP5 DUP7 SUB SLT ISZERO PUSH2 0x4230 JUMPI PUSH2 0x422F PUSH2 0x3799 JUMP JUMPDEST JUMPDEST PUSH1 0x0 PUSH2 0x423E DUP7 DUP3 DUP8 ADD PUSH2 0x37E6 JUMP JUMPDEST SWAP4 POP POP PUSH1 0x20 PUSH2 0x424F DUP7 DUP3 DUP8 ADD PUSH2 0x4202 JUMP JUMPDEST SWAP3 POP POP PUSH1 0x40 PUSH2 0x4260 DUP7 DUP3 DUP8 ADD PUSH2 0x37E6 JUMP JUMPDEST SWAP2 POP POP SWAP3 POP SWAP3 POP SWAP3 JUMP JUMPDEST PUSH1 0x0 PUSH1 0x60 DUP3 ADD SWAP1 POP PUSH2 0x427F PUSH1 0x0 DUP4 ADD DUP7 PUSH2 0x3757 JUMP JUMPDEST PUSH2 0x428C PUSH1 0x20 DUP4 ADD DUP6 PUSH2 0x3757 JUMP JUMPDEST DUP2 DUP2 SUB PUSH1 0x40 DUP4 ADD MSTORE PUSH2 0x429E DUP2 DUP5 PUSH2 0x399E JUMP JUMPDEST SWAP1 POP SWAP5 SWAP4 POP POP POP POP JUMP JUMPDEST PUSH1 0x0 PUSH8 0xFFFFFFFFFFFFFFFF DUP3 GT ISZERO PUSH2 0x42C3 JUMPI PUSH2 0x42C2 PUSH2 0x3C70 JUMP JUMPDEST JUMPDEST PUSH1 0x20 DUP3 MUL SWAP1 POP PUSH1 0x20 DUP2 ADD SWAP1 POP SWAP2 SWAP1 POP JUMP JUMPDEST PUSH1 0x0 PUSH8 0xFFFFFFFFFFFFFFFF DUP3 GT ISZERO PUSH2 0x42EF JUMPI PUSH2 0x42EE PUSH2 0x3C70 JUMP JUMPDEST JUMPDEST PUSH2 0x42F8 DUP3 PUSH2 0x398D JUMP JUMPDEST SWAP1 POP PUSH1 0x20 DUP2 ADD SWAP1 POP SWAP2 SWAP1 POP JUMP JUMPDEST PUSH1 0x0 PUSH2 0x4318 PUSH2 0x4313 DUP5 PUSH2 0x42D4 JUMP JUMPDEST PUSH2 0x3CD0 JUMP JUMPDEST SWAP1 POP DUP3 DUP2 MSTORE PUSH1 0x20 DUP2 ADD DUP5 DUP5 DUP5 ADD GT ISZERO PUSH2 0x4334 JUMPI PUSH2 0x4333 PUSH2 0x3C6B JUMP JUMPDEST JUMPDEST PUSH2 0x433F DUP5 DUP3 DUP6 PUSH2 0x3D1C JUMP JUMPDEST POP SWAP4 SWAP3 POP POP POP JUMP JUMPDEST PUSH1 0x0 DUP3 PUSH1 0x1F DUP4 ADD SLT PUSH2 0x435C JUMPI PUSH2 0x435B PUSH2 0x3C66 JUMP JUMPDEST JUMPDEST DUP2 CALLDATALOAD PUSH2 0x436C DUP5 DUP3 PUSH1 0x20 DUP7 ADD PUSH2 0x4305 JUMP JUMPDEST SWAP2 POP POP SWAP3 SWAP2 POP POP JUMP JUMPDEST PUSH1 0x0 PUSH2 0x4388 PUSH2 0x4383 DUP5 PUSH2 0x42A8 JUMP JUMPDEST PUSH2 0x3CD0 JUMP JUMPDEST SWAP1 POP DUP1 DUP4 DUP3 MSTORE PUSH1 0x20 DUP3 ADD SWAP1 POP PUSH1 0x20 DUP5 MUL DUP4 ADD DUP6 DUP2 GT ISZERO PUSH2 0x43AB JUMPI PUSH2 0x43AA PUSH2 0x3E74 JUMP JUMPDEST JUMPDEST DUP4 JUMPDEST DUP2 DUP2 LT ISZERO PUSH2 0x43F2 JUMPI DUP1 CALLDATALOAD PUSH8 0xFFFFFFFFFFFFFFFF DUP2 GT ISZERO PUSH2 0x43D0 JUMPI PUSH2 0x43CF PUSH2 0x3C66 JUMP JUMPDEST JUMPDEST DUP1 DUP7 ADD PUSH2 0x43DD DUP10 DUP3 PUSH2 0x4347 JUMP JUMPDEST DUP6 MSTORE PUSH1 0x20 DUP6 ADD SWAP5 POP POP POP PUSH1 0x20 DUP2 ADD SWAP1 POP PUSH2 0x43AD JUMP JUMPDEST POP POP POP SWAP4 SWAP3 POP POP POP JUMP JUMPDEST PUSH1 0x0 DUP3 PUSH1 0x1F DUP4 ADD SLT PUSH2 0x4411 JUMPI PUSH2 0x4410 PUSH2 0x3C66 JUMP JUMPDEST JUMPDEST DUP2 CALLDATALOAD PUSH2 0x4421 DUP5 DUP3 PUSH1 0x20 DUP7 ADD PUSH2 0x4375 JUMP JUMPDEST SWAP2 POP POP SWAP3 SWAP2 POP POP JUMP JUMPDEST PUSH1 0x0 DUP1 PUSH1 0x0 PUSH1 0x60 DUP5 DUP7 SUB SLT ISZERO PUSH2 0x4443 JUMPI PUSH2 0x4442 PUSH2 0x3799 JUMP JUMPDEST JUMPDEST PUSH1 0x0 DUP5 ADD CALLDATALOAD PUSH8 0xFFFFFFFFFFFFFFFF DUP2 GT ISZERO PUSH2 0x4461 JUMPI PUSH2 0x4460 PUSH2 0x379E JUMP JUMPDEST JUMPDEST PUSH2 0x446D DUP7 DUP3 DUP8 ADD PUSH2 0x3EE2 JUMP JUMPDEST SWAP4 POP POP PUSH1 0x20 DUP5 ADD CALLDATALOAD PUSH8 0xFFFFFFFFFFFFFFFF DUP2 GT ISZERO PUSH2 0x448E JUMPI PUSH2 0x448D PUSH2 0x379E JUMP JUMPDEST JUMPDEST PUSH2 0x449A DUP7 DUP3 DUP8 ADD PUSH2 0x4074 JUMP JUMPDEST SWAP3 POP POP PUSH1 0x40 DUP5 ADD CALLDATALOAD PUSH8 0xFFFFFFFFFFFFFFFF DUP2 GT ISZERO PUSH2 0x44BB JUMPI PUSH2 0x44BA PUSH2 0x379E JUMP JUMPDEST JUMPDEST PUSH2 0x44C7 DUP7 DUP3 DUP8 ADD PUSH2 0x43FC JUMP JUMPDEST SWAP2 POP POP SWAP3 POP SWAP3 POP SWAP3 JUMP JUMPDEST PUSH1 0x0 DUP1 PUSH1 0x40 DUP4 DUP6 SUB SLT ISZERO PUSH2 0x44E8 JUMPI PUSH2 0x44E7 PUSH2 0x3799 JUMP JUMPDEST JUMPDEST PUSH1 0x0 PUSH2 0x44F6 DUP6 DUP3 DUP7 ADD PUSH2 0x37BA JUMP JUMPDEST SWAP3 POP POP PUSH1 0x20 PUSH2 0x4507 DUP6 DUP3 DUP7 ADD PUSH2 0x4202 JUMP JUMPDEST SWAP2 POP POP SWAP3 POP SWAP3 SWAP1 POP JUMP JUMPDEST PUSH1 0x0 DUP1 PUSH1 0x40 DUP4 DUP6 SUB SLT ISZERO PUSH2 0x4528 JUMPI PUSH2 0x4527 PUSH2 0x3799 JUMP JUMPDEST JUMPDEST PUSH1 0x0 PUSH2 0x4536 DUP6 DUP3 DUP7 ADD PUSH2 0x37BA JUMP JUMPDEST SWAP3 POP POP PUSH1 0x20 PUSH2 0x4547 DUP6 DUP3 DUP7 ADD PUSH2 0x37BA JUMP JUMPDEST SWAP2 POP POP SWAP3 POP SWAP3 SWAP1 POP JUMP JUMPDEST PUSH1 0x0 DUP1 PUSH1 0x0 DUP1 PUSH1 0x0 PUSH1 0xA0 DUP7 DUP9 SUB SLT ISZERO PUSH2 0x456D JUMPI PUSH2 0x456C PUSH2 0x3799 JUMP JUMPDEST JUMPDEST PUSH1 0x0 PUSH2 0x457B DUP9 DUP3 DUP10 ADD PUSH2 0x37BA JUMP JUMPDEST SWAP6 POP POP PUSH1 0x20 PUSH2 0x458C DUP9 DUP3 DUP10 ADD PUSH2 0x37BA JUMP JUMPDEST SWAP5 POP POP PUSH1 0x40 PUSH2 0x459D DUP9 DUP3 DUP10 ADD PUSH2 0x37E6 JUMP JUMPDEST SWAP4 POP POP PUSH1 0x60 PUSH2 0x45AE DUP9 DUP3 DUP10 ADD PUSH2 0x37E6 JUMP JUMPDEST SWAP3 POP POP PUSH1 0x80 DUP7 ADD CALLDATALOAD PUSH8 0xFFFFFFFFFFFFFFFF DUP2 GT ISZERO PUSH2 0x45CF JUMPI PUSH2 0x45CE PUSH2 0x379E JUMP JUMPDEST JUMPDEST PUSH2 0x45DB DUP9 DUP3 DUP10 ADD PUSH2 0x3D6D JUMP JUMPDEST SWAP2 POP POP SWAP3 SWAP6 POP SWAP3 SWAP6 SWAP1 SWAP4 POP JUMP JUMPDEST PUSH1 0x0 DUP1 PUSH1 0x40 DUP4 DUP6 SUB SLT ISZERO PUSH2 0x45FF JUMPI PUSH2 0x45FE PUSH2 0x3799 JUMP JUMPDEST JUMPDEST PUSH1 0x0 PUSH2 0x460D DUP6 DUP3 DUP7 ADD PUSH2 0x37E6 JUMP JUMPDEST SWAP3 POP POP PUSH1 0x20 PUSH2 0x461E DUP6 DUP3 DUP7 ADD PUSH2 0x37E6 JUMP JUMPDEST SWAP2 POP POP SWAP3 POP SWAP3 SWAP1 POP JUMP JUMPDEST PUSH1 0x0 PUSH1 0x60 DUP3 ADD SWAP1 POP PUSH2 0x463D PUSH1 0x0 DUP4 ADD DUP7 PUSH2 0x3757 JUMP JUMPDEST PUSH2 0x464A PUSH1 0x20 DUP4 ADD DUP6 PUSH2 0x38E7 JUMP JUMPDEST PUSH2 0x4657 PUSH1 0x40 DUP4 ADD DUP5 PUSH2 0x38E7 JUMP JUMPDEST SWAP5 SWAP4 POP POP POP POP JUMP JUMPDEST PUSH32 0x455243313135353A2062616C616E636520717565727920666F7220746865207A PUSH1 0x0 DUP3 ADD MSTORE PUSH32 0x65726F2061646472657373000000000000000000000000000000000000000000 PUSH1 0x20 DUP3 ADD MSTORE POP JUMP JUMPDEST PUSH1 0x0 PUSH2 0x46BB PUSH1 0x2B DUP4 PUSH2 0x3949 JUMP JUMPDEST SWAP2 POP PUSH2 0x46C6 DUP3 PUSH2 0x465F JUMP JUMPDEST PUSH1 0x40 DUP3 ADD SWAP1 POP SWAP2 SWAP1 POP JUMP JUMPDEST PUSH1 0x0 PUSH1 0x20 DUP3 ADD SWAP1 POP DUP2 DUP2 SUB PUSH1 0x0 DUP4 ADD MSTORE PUSH2 0x46EA DUP2 PUSH2 0x46AE JUMP JUMPDEST SWAP1 POP SWAP2 SWAP1 POP JUMP JUMPDEST PUSH32 0x4E487B7100000000000000000000000000000000000000000000000000000000 PUSH1 0x0 MSTORE PUSH1 0x22 PUSH1 0x4 MSTORE PUSH1 0x24 PUSH1 0x0 REVERT JUMPDEST PUSH1 0x0 PUSH1 0x2 DUP3 DIV SWAP1 POP PUSH1 0x1 DUP3 AND DUP1 PUSH2 0x4738 JUMPI PUSH1 0x7F DUP3 AND SWAP2 POP JUMPDEST PUSH1 0x20 DUP3 LT DUP2 SUB PUSH2 0x474B JUMPI PUSH2 0x474A PUSH2 0x46F1 JUMP JUMPDEST JUMPDEST POP SWAP2 SWAP1 POP JUMP JUMPDEST PUSH32 0x596F75206D75737420686F6C642061204B657920746F20616363657373207468 PUSH1 0x0 DUP3 ADD MSTORE PUSH32 0x69732066756E6374696F6E000000000000000000000000000000000000000000 PUSH1 0x20 DUP3 ADD MSTORE POP JUMP JUMPDEST PUSH1 0x0 PUSH2 0x47AD PUSH1 0x2B DUP4 PUSH2 0x3949 JUMP JUMPDEST SWAP2 POP PUSH2 0x47B8 DUP3 PUSH2 0x4751 JUMP JUMPDEST PUSH1 0x40 DUP3 ADD SWAP1 POP SWAP2 SWAP1 POP JUMP JUMPDEST PUSH1 0x0 PUSH1 0x20 DUP3 ADD SWAP1 POP DUP2 DUP2 SUB PUSH1 0x0 DUP4 ADD MSTORE PUSH2 0x47DC DUP2 PUSH2 0x47A0 JUMP JUMPDEST SWAP1 POP SWAP2 SWAP1 POP JUMP JUMPDEST PUSH32 0x4E487B7100000000000000000000000000000000000000000000000000000000 PUSH1 0x0 MSTORE PUSH1 0x32 PUSH1 0x4 MSTORE PUSH1 0x24 PUSH1 0x0 REVERT JUMPDEST PUSH32 0x4E487B7100000000000000000000000000000000000000000000000000000000 PUSH1 0x0 MSTORE PUSH1 0x11 PUSH1 0x4 MSTORE PUSH1 0x24 PUSH1 0x0 REVERT JUMPDEST PUSH1 0x0 PUSH2 0x484C DUP3 PUSH2 0x374D JUMP JUMPDEST SWAP2 POP PUSH32 0xFFFFFFFFFFFFFFFFFFFFFFFFFFFFFFFFFFFFFFFFFFFFFFFFFFFFFFFFFFFFFFFF DUP3 SUB PUSH2 0x487E JUMPI PUSH2 0x487D PUSH2 0x4812 JUMP JUMPDEST JUMPDEST PUSH1 0x1 DUP3 ADD SWAP1 POP SWAP2 SWAP1 POP JUMP JUMPDEST PUSH32 0x455243313135353A207472616E736665722063616C6C6572206973206E6F7420 PUSH1 0x0 DUP3 ADD MSTORE PUSH32 0x6F776E6572206E6F7220617070726F7665640000000000000000000000000000 PUSH1 0x20 DUP3 ADD MSTORE POP JUMP JUMPDEST PUSH1 0x0 PUSH2 0x48E5 PUSH1 0x32 DUP4 PUSH2 0x3949 JUMP JUMPDEST SWAP2 POP PUSH2 0x48F0 DUP3 PUSH2 0x4889 JUMP JUMPDEST PUSH1 0x40 DUP3 ADD SWAP1 POP SWAP2 SWAP1 POP JUMP JUMPDEST PUSH1 0x0 PUSH1 0x20 DUP3 ADD SWAP1 POP DUP2 DUP2 SUB PUSH1 0x0 DUP4 ADD MSTORE PUSH2 0x4914 DUP2 PUSH2 0x48D8 JUMP JUMPDEST SWAP1 POP SWAP2 SWAP1 POP JUMP JUMPDEST PUSH32 0x455243313135353A206163636F756E747320616E6420696473206C656E677468 PUSH1 0x0 DUP3 ADD MSTORE PUSH32 0x206D69736D617463680000000000000000000000000000000000000000000000 PUSH1 0x20 DUP3 ADD MSTORE POP JUMP JUMPDEST PUSH1 0x0 PUSH2 0x4977 PUSH1 0x29 DUP4 PUSH2 0x3949 JUMP JUMPDEST SWAP2 POP PUSH2 0x4982 DUP3 PUSH2 0x491B JUMP JUMPDEST PUSH1 0x40 DUP3 ADD SWAP1 POP SWAP2 SWAP1 POP JUMP JUMPDEST PUSH1 0x0 PUSH1 0x20 DUP3 ADD SWAP1 POP DUP2 DUP2 SUB PUSH1 0x0 DUP4 ADD MSTORE PUSH2 0x49A6 DUP2 PUSH2 0x496A JUMP JUMPDEST SWAP1 POP SWAP2 SWAP1 POP JUMP JUMPDEST PUSH1 0x0 DUP2 SWAP1 POP SWAP3 SWAP2 POP POP JUMP JUMPDEST PUSH1 0x0 PUSH2 0x49C3 DUP3 PUSH2 0x393E JUMP JUMPDEST PUSH2 0x49CD DUP2 DUP6 PUSH2 0x49AD JUMP JUMPDEST SWAP4 POP PUSH2 0x49DD DUP2 DUP6 PUSH1 0x20 DUP7 ADD PUSH2 0x395A JUMP JUMPDEST DUP1 DUP5 ADD SWAP2 POP POP SWAP3 SWAP2 POP POP JUMP JUMPDEST PUSH32 0x2D00000000000000000000000000000000000000000000000000000000000000 PUSH1 0x0 DUP3 ADD MSTORE POP JUMP JUMPDEST PUSH1 0x0 PUSH2 0x4A1F PUSH1 0x1 DUP4 PUSH2 0x49AD JUMP JUMPDEST SWAP2 POP PUSH2 0x4A2A DUP3 PUSH2 0x49E9 JUMP JUMPDEST PUSH1 0x1 DUP3 ADD SWAP1 POP SWAP2 SWAP1 POP JUMP JUMPDEST PUSH1 0x0 PUSH2 0x4A41 DUP3 DUP6 PUSH2 0x49B8 JUMP JUMPDEST SWAP2 POP PUSH2 0x4A4C DUP3 PUSH2 0x4A12 JUMP JUMPDEST SWAP2 POP PUSH2 0x4A58 DUP3 DUP5 PUSH2 0x49B8 JUMP JUMPDEST SWAP2 POP DUP2 SWAP1 POP SWAP4 SWAP3 POP POP POP JUMP JUMPDEST PUSH32 0x436F6E7472616374205472616E73616374696F6E20436F6D706C657465642E2E PUSH1 0x0 DUP3 ADD MSTORE PUSH32 0x2E6E6F2066757468657220636F6E6672696D6174696F6E20766F746573206361 PUSH1 0x20 DUP3 ADD MSTORE PUSH32 0x6E20626520636173740000000000000000000000000000000000000000000000 PUSH1 0x40 DUP3 ADD MSTORE POP JUMP JUMPDEST PUSH1 0x0 PUSH2 0x4AE6 PUSH1 0x49 DUP4 PUSH2 0x3949 JUMP JUMPDEST SWAP2 POP PUSH2 0x4AF1 DUP3 PUSH2 0x4A64 JUMP JUMPDEST PUSH1 0x60 DUP3 ADD SWAP1 POP SWAP2 SWAP1 POP JUMP JUMPDEST PUSH1 0x0 PUSH1 0x20 DUP3 ADD SWAP1 POP DUP2 DUP2 SUB PUSH1 0x0 DUP4 ADD MSTORE PUSH2 0x4B15 DUP2 PUSH2 0x4AD9 JUMP JUMPDEST SWAP1 POP SWAP2 SWAP1 POP JUMP JUMPDEST PUSH1 0x0 PUSH2 0x4B28 DUP3 DUP5 PUSH2 0x49B8 JUMP JUMPDEST SWAP2 POP DUP2 SWAP1 POP SWAP3 SWAP2 POP POP JUMP JUMPDEST PUSH32 0x766F746520686173206265656E206361737420616C7265616479000000000000 PUSH1 0x0 DUP3 ADD MSTORE POP JUMP JUMPDEST PUSH1 0x0 PUSH2 0x4B69 PUSH1 0x1A DUP4 PUSH2 0x3949 JUMP JUMPDEST SWAP2 POP PUSH2 0x4B74 DUP3 PUSH2 0x4B33 JUMP JUMPDEST PUSH1 0x20 DUP3 ADD SWAP1 POP SWAP2 SWAP1 POP JUMP JUMPDEST PUSH1 0x0 PUSH1 0x20 DUP3 ADD SWAP1 POP DUP2 DUP2 SUB PUSH1 0x0 DUP4 ADD MSTORE PUSH2 0x4B98 DUP2 PUSH2 0x4B5C JUMP JUMPDEST SWAP1 POP SWAP2 SWAP1 POP JUMP JUMPDEST PUSH32 0x796F75206D7573742062652074686520686F6C646572206F6620746865206B65 PUSH1 0x0 DUP3 ADD MSTORE PUSH32 0x7900000000000000000000000000000000000000000000000000000000000000 PUSH1 0x20 DUP3 ADD MSTORE POP JUMP JUMPDEST PUSH1 0x0 PUSH2 0x4BFB PUSH1 0x21 DUP4 PUSH2 0x3949 JUMP JUMPDEST SWAP2 POP PUSH2 0x4C06 DUP3 PUSH2 0x4B9F JUMP JUMPDEST PUSH1 0x40 DUP3 ADD SWAP1 POP SWAP2 SWAP1 POP JUMP JUMPDEST PUSH1 0x0 PUSH1 0x20 DUP3 ADD SWAP1 POP DUP2 DUP2 SUB PUSH1 0x0 DUP4 ADD MSTORE PUSH2 0x4C2A DUP2 PUSH2 0x4BEE JUMP JUMPDEST SWAP1 POP SWAP2 SWAP1 POP JUMP JUMPDEST PUSH1 0x0 PUSH1 0x20 DUP3 ADD SWAP1 POP PUSH2 0x4C46 PUSH1 0x0 DUP4 ADD DUP5 PUSH2 0x373E JUMP JUMPDEST SWAP3 SWAP2 POP POP JUMP JUMPDEST PUSH1 0x0 DUP2 MLOAD SWAP1 POP PUSH2 0x4C5B DUP2 PUSH2 0x37CF JUMP JUMPDEST SWAP3 SWAP2 POP POP JUMP JUMPDEST PUSH1 0x0 PUSH1 0x20 DUP3 DUP5 SUB SLT ISZERO PUSH2 0x4C77 JUMPI PUSH2 0x4C76 PUSH2 0x3799 JUMP JUMPDEST JUMPDEST PUSH1 0x0 PUSH2 0x4C85 DUP5 DUP3 DUP6 ADD PUSH2 0x4C4C JUMP JUMPDEST SWAP2 POP POP SWAP3 SWAP2 POP POP JUMP JUMPDEST PUSH32 0x4E6F7420656E6F756768205852432066756E647320696E20636F6E7472616374 PUSH1 0x0 DUP3 ADD MSTORE POP JUMP JUMPDEST PUSH1 0x0 PUSH2 0x4CC4 PUSH1 0x20 DUP4 PUSH2 0x3949 JUMP JUMPDEST SWAP2 POP PUSH2 0x4CCF DUP3 PUSH2 0x4C8E JUMP JUMPDEST PUSH1 0x20 DUP3 ADD SWAP1 POP SWAP2 SWAP1 POP JUMP JUMPDEST PUSH1 0x0 PUSH1 0x20 DUP3 ADD SWAP1 POP DUP2 DUP2 SUB PUSH1 0x0 DUP4 ADD MSTORE PUSH2 0x4CF3 DUP2 PUSH2 0x4CB7 JUMP JUMPDEST SWAP1 POP SWAP2 SWAP1 POP JUMP JUMPDEST PUSH1 0x0 DUP2 SWAP1 POP DUP2 PUSH1 0x0 MSTORE PUSH1 0x20 PUSH1 0x0 KECCAK256 SWAP1 POP SWAP2 SWAP1 POP JUMP JUMPDEST PUSH1 0x0 PUSH1 0x20 PUSH1 0x1F DUP4 ADD DIV SWAP1 POP SWAP2 SWAP1 POP JUMP JUMPDEST PUSH1 0x0 DUP3 DUP3 SHL SWAP1 POP SWAP3 SWAP2 POP POP JUMP JUMPDEST PUSH1 0x0 PUSH1 0x8 DUP4 MUL PUSH2 0x4D5C PUSH32 0xFFFFFFFFFFFFFFFFFFFFFFFFFFFFFFFFFFFFFFFFFFFFFFFFFFFFFFFFFFFFFFFF DUP3 PUSH2 0x4D1F JUMP JUMPDEST PUSH2 0x4D66 DUP7 DUP4 PUSH2 0x4D1F JUMP JUMPDEST SWAP6 POP DUP1 NOT DUP5 AND SWAP4 POP DUP1 DUP7 AND DUP5 OR SWAP3 POP POP POP SWAP4 SWAP3 POP POP POP JUMP JUMPDEST PUSH1 0x0 DUP2 SWAP1 POP SWAP2 SWAP1 POP JUMP JUMPDEST PUSH1 0x0 PUSH2 0x4DA3 PUSH2 0x4D9E PUSH2 0x4D99 DUP5 PUSH2 0x374D JUMP JUMPDEST PUSH2 0x4D7E JUMP JUMPDEST PUSH2 0x374D JUMP JUMPDEST SWAP1 POP SWAP2 SWAP1 POP JUMP JUMPDEST PUSH1 0x0 DUP2 SWAP1 POP SWAP2 SWAP1 POP JUMP JUMPDEST PUSH2 0x4DBD DUP4 PUSH2 0x4D88 JUMP JUMPDEST PUSH2 0x4DD1 PUSH2 0x4DC9 DUP3 PUSH2 0x4DAA JUMP JUMPDEST DUP5 DUP5 SLOAD PUSH2 0x4D2C JUMP JUMPDEST DUP3 SSTORE POP POP POP POP JUMP JUMPDEST PUSH1 0x0 SWAP1 JUMP JUMPDEST PUSH2 0x4DE6 PUSH2 0x4DD9 JUMP JUMPDEST PUSH2 0x4DF1 DUP2 DUP5 DUP5 PUSH2 0x4DB4 JUMP JUMPDEST POP POP POP JUMP JUMPDEST JUMPDEST DUP2 DUP2 LT ISZERO PUSH2 0x4E15 JUMPI PUSH2 0x4E0A PUSH1 0x0 DUP3 PUSH2 0x4DDE JUMP JUMPDEST PUSH1 0x1 DUP2 ADD SWAP1 POP PUSH2 0x4DF7 JUMP JUMPDEST POP POP JUMP JUMPDEST PUSH1 0x1F DUP3 GT ISZERO PUSH2 0x4E5A JUMPI PUSH2 0x4E2B DUP2 PUSH2 0x4CFA JUMP JUMPDEST PUSH2 0x4E34 DUP5 PUSH2 0x4D0F JUMP JUMPDEST DUP2 ADD PUSH1 0x20 DUP6 LT ISZERO PUSH2 0x4E43 JUMPI DUP2 SWAP1 POP JUMPDEST PUSH2 0x4E57 PUSH2 0x4E4F DUP6 PUSH2 0x4D0F JUMP JUMPDEST DUP4 ADD DUP3 PUSH2 0x4DF6 JUMP JUMPDEST POP POP JUMPDEST POP POP POP JUMP JUMPDEST PUSH1 0x0 DUP3 DUP3 SHR SWAP1 POP SWAP3 SWAP2 POP POP JUMP JUMPDEST PUSH1 0x0 PUSH2 0x4E7D PUSH1 0x0 NOT DUP5 PUSH1 0x8 MUL PUSH2 0x4E5F JUMP JUMPDEST NOT DUP1 DUP4 AND SWAP2 POP POP SWAP3 SWAP2 POP POP JUMP JUMPDEST PUSH1 0x0 PUSH2 0x4E96 DUP4 DUP4 PUSH2 0x4E6C JUMP JUMPDEST SWAP2 POP DUP3 PUSH1 0x2 MUL DUP3 OR SWAP1 POP SWAP3 SWAP2 POP POP JUMP JUMPDEST PUSH2 0x4EAF DUP3 PUSH2 0x393E JUMP JUMPDEST PUSH8 0xFFFFFFFFFFFFFFFF DUP2 GT ISZERO PUSH2 0x4EC8 JUMPI PUSH2 0x4EC7 PUSH2 0x3C70 JUMP JUMPDEST JUMPDEST PUSH2 0x4ED2 DUP3 SLOAD PUSH2 0x4720 JUMP JUMPDEST PUSH2 0x4EDD DUP3 DUP3 DUP6 PUSH2 0x4E19 JUMP JUMPDEST PUSH1 0x0 PUSH1 0x20 SWAP1 POP PUSH1 0x1F DUP4 GT PUSH1 0x1 DUP2 EQ PUSH2 0x4F10 JUMPI PUSH1 0x0 DUP5 ISZERO PUSH2 0x4EFE JUMPI DUP3 DUP8 ADD MLOAD SWAP1 POP JUMPDEST PUSH2 0x4F08 DUP6 DUP3 PUSH2 0x4E8A JUMP JUMPDEST DUP7 SSTORE POP PUSH2 0x4F70 JUMP JUMPDEST PUSH1 0x1F NOT DUP5 AND PUSH2 0x4F1E DUP7 PUSH2 0x4CFA JUMP JUMPDEST PUSH1 0x0 JUMPDEST DUP3 DUP2 LT ISZERO PUSH2 0x4F46 JUMPI DUP5 DUP10 ADD MLOAD DUP3 SSTORE PUSH1 0x1 DUP3 ADD SWAP2 POP PUSH1 0x20 DUP6 ADD SWAP5 POP PUSH1 0x20 DUP2 ADD SWAP1 POP PUSH2 0x4F21 JUMP JUMPDEST DUP7 DUP4 LT ISZERO PUSH2 0x4F63 JUMPI DUP5 DUP10 ADD MLOAD PUSH2 0x4F5F PUSH1 0x1F DUP10 AND DUP3 PUSH2 0x4E6C JUMP JUMPDEST DUP4 SSTORE POP JUMPDEST PUSH1 0x1 PUSH1 0x2 DUP9 MUL ADD DUP9 SSTORE POP POP POP JUMPDEST POP POP POP POP POP POP JUMP JUMPDEST PUSH32 0x5472616E73616374696F6E616E2050726F706F73616C204D6164650000000000 PUSH1 0x0 DUP3 ADD MSTORE POP JUMP JUMPDEST PUSH1 0x0 PUSH2 0x4FAE PUSH1 0x1B DUP4 PUSH2 0x3949 JUMP JUMPDEST SWAP2 POP PUSH2 0x4FB9 DUP3 PUSH2 0x4F78 JUMP JUMPDEST PUSH1 0x20 DUP3 ADD SWAP1 POP SWAP2 SWAP1 POP JUMP JUMPDEST PUSH1 0x0 PUSH1 0x40 DUP3 ADD SWAP1 POP PUSH2 0x4FD9 PUSH1 0x0 DUP4 ADD DUP5 PUSH2 0x3757 JUMP JUMPDEST DUP2 DUP2 SUB PUSH1 0x20 DUP4 ADD MSTORE PUSH2 0x4FEA DUP2 PUSH2 0x4FA1 JUMP JUMPDEST SWAP1 POP SWAP3 SWAP2 POP POP JUMP JUMPDEST PUSH32 0x4E6F7420656E6F7567682066756E647320696E20636F6E747261637400000000 PUSH1 0x0 DUP3 ADD MSTORE POP JUMP JUMPDEST PUSH1 0x0 PUSH2 0x5028 PUSH1 0x1C DUP4 PUSH2 0x3949 JUMP JUMPDEST SWAP2 POP PUSH2 0x5033 DUP3 PUSH2 0x4FF2 JUMP JUMPDEST PUSH1 0x20 DUP3 ADD SWAP1 POP SWAP2 SWAP1 POP JUMP JUMPDEST PUSH1 0x0 PUSH1 0x20 DUP3 ADD SWAP1 POP DUP2 DUP2 SUB PUSH1 0x0 DUP4 ADD MSTORE PUSH2 0x5057 DUP2 PUSH2 0x501B JUMP JUMPDEST SWAP1 POP SWAP2 SWAP1 POP JUMP JUMPDEST PUSH32 0x585243205472616E73616374696F6E616E2050726F706F73616C204D61646500 PUSH1 0x0 DUP3 ADD MSTORE POP JUMP JUMPDEST PUSH1 0x0 PUSH2 0x5094 PUSH1 0x1F DUP4 PUSH2 0x3949 JUMP JUMPDEST SWAP2 POP PUSH2 0x509F DUP3 PUSH2 0x505E JUMP JUMPDEST PUSH1 0x20 DUP3 ADD SWAP1 POP SWAP2 SWAP1 POP JUMP JUMPDEST PUSH1 0x0 PUSH1 0x40 DUP3 ADD SWAP1 POP PUSH2 0x50BF PUSH1 0x0 DUP4 ADD DUP5 PUSH2 0x3757 JUMP JUMPDEST DUP2 DUP2 SUB PUSH1 0x20 DUP4 ADD MSTORE PUSH2 0x50D0 DUP2 PUSH2 0x5087 JUMP JUMPDEST SWAP1 POP SWAP3 SWAP2 POP POP JUMP JUMPDEST PUSH32 0x585243204E4654205472616E73616374696F6E616E2050726F706F73616C204D PUSH1 0x0 DUP3 ADD MSTORE PUSH32 0x6164650000000000000000000000000000000000000000000000000000000000 PUSH1 0x20 DUP3 ADD MSTORE POP JUMP JUMPDEST PUSH1 0x0 PUSH2 0x5134 PUSH1 0x23 DUP4 PUSH2 0x3949 JUMP JUMPDEST SWAP2 POP PUSH2 0x513F DUP3 PUSH2 0x50D8 JUMP JUMPDEST PUSH1 0x40 DUP3 ADD SWAP1 POP SWAP2 SWAP1 POP JUMP JUMPDEST PUSH1 0x0 PUSH1 0x40 DUP3 ADD SWAP1 POP PUSH2 0x515F PUSH1 0x0 DUP4 ADD DUP5 PUSH2 0x3757 JUMP JUMPDEST DUP2 DUP2 SUB PUSH1 0x20 DUP4 ADD MSTORE PUSH2 0x5170 DUP2 PUSH2 0x5127 JUMP JUMPDEST SWAP1 POP SWAP3 SWAP2 POP POP JUMP JUMPDEST PUSH32 0x455243313135353A2063616C6C6572206973206E6F74206F776E6572206E6F72 PUSH1 0x0 DUP3 ADD MSTORE PUSH32 0x20617070726F7665640000000000000000000000000000000000000000000000 PUSH1 0x20 DUP3 ADD MSTORE POP JUMP JUMPDEST PUSH1 0x0 PUSH2 0x51D4 PUSH1 0x29 DUP4 PUSH2 0x3949 JUMP JUMPDEST SWAP2 POP PUSH2 0x51DF DUP3 PUSH2 0x5178 JUMP JUMPDEST PUSH1 0x40 DUP3 ADD SWAP1 POP SWAP2 SWAP1 POP JUMP JUMPDEST PUSH1 0x0 PUSH1 0x20 DUP3 ADD SWAP1 POP DUP2 DUP2 SUB PUSH1 0x0 DUP4 ADD MSTORE PUSH2 0x5203 DUP2 PUSH2 0x51C7 JUMP JUMPDEST SWAP1 POP SWAP2 SWAP1 POP JUMP JUMPDEST PUSH32 0x5472616E73616374696F6E20616C726561647920636F6E6669726D6564000000 PUSH1 0x0 DUP3 ADD MSTORE POP JUMP JUMPDEST PUSH1 0x0 PUSH2 0x5240 PUSH1 0x1D DUP4 PUSH2 0x3949 JUMP JUMPDEST SWAP2 POP PUSH2 0x524B DUP3 PUSH2 0x520A JUMP JUMPDEST PUSH1 0x20 DUP3 ADD SWAP1 POP SWAP2 SWAP1 POP JUMP JUMPDEST PUSH1 0x0 PUSH1 0x20 DUP3 ADD SWAP1 POP DUP2 DUP2 SUB PUSH1 0x0 DUP4 ADD MSTORE PUSH2 0x526F DUP2 PUSH2 0x5233 JUMP JUMPDEST SWAP1 POP SWAP2 SWAP1 POP JUMP JUMPDEST PUSH32 0x796F7520686176656E7420636173746564206120766F74650000000000000000 PUSH1 0x0 DUP3 ADD MSTORE POP JUMP JUMPDEST PUSH1 0x0 PUSH2 0x52AC PUSH1 0x18 DUP4 PUSH2 0x3949 JUMP JUMPDEST SWAP2 POP PUSH2 0x52B7 DUP3 PUSH2 0x5276 JUMP JUMPDEST PUSH1 0x20 DUP3 ADD SWAP1 POP SWAP2 SWAP1 POP JUMP JUMPDEST PUSH1 0x0 PUSH1 0x20 DUP3 ADD SWAP1 POP DUP2 DUP2 SUB PUSH1 0x0 DUP4 ADD MSTORE PUSH2 0x52DB DUP2 PUSH2 0x529F JUMP JUMPDEST SWAP1 POP SWAP2 SWAP1 POP JUMP JUMPDEST PUSH1 0x0 PUSH2 0x52ED DUP3 PUSH2 0x374D JUMP JUMPDEST SWAP2 POP PUSH1 0x0 DUP3 SUB PUSH2 0x5300 JUMPI PUSH2 0x52FF PUSH2 0x4812 JUMP JUMPDEST JUMPDEST PUSH1 0x1 DUP3 SUB SWAP1 POP SWAP2 SWAP1 POP JUMP JUMPDEST PUSH32 0x455243313135353A2069647320616E6420616D6F756E7473206C656E67746820 PUSH1 0x0 DUP3 ADD MSTORE PUSH32 0x6D69736D61746368000000000000000000000000000000000000000000000000 PUSH1 0x20 DUP3 ADD MSTORE POP JUMP JUMPDEST PUSH1 0x0 PUSH2 0x5367 PUSH1 0x28 DUP4 PUSH2 0x3949 JUMP JUMPDEST SWAP2 POP PUSH2 0x5372 DUP3 PUSH2 0x530B JUMP JUMPDEST PUSH1 0x40 DUP3 ADD SWAP1 POP SWAP2 SWAP1 POP JUMP JUMPDEST PUSH1 0x0 PUSH1 0x20 DUP3 ADD SWAP1 POP DUP2 DUP2 SUB PUSH1 0x0 DUP4 ADD MSTORE PUSH2 0x5396 DUP2 PUSH2 0x535A JUMP JUMPDEST SWAP1 POP SWAP2 SWAP1 POP JUMP JUMPDEST PUSH32 0x455243313135353A207472616E7366657220746F20746865207A65726F206164 PUSH1 0x0 DUP3 ADD MSTORE PUSH32 0x6472657373000000000000000000000000000000000000000000000000000000 PUSH1 0x20 DUP3 ADD MSTORE POP JUMP JUMPDEST PUSH1 0x0 PUSH2 0x53F9 PUSH1 0x25 DUP4 PUSH2 0x3949 JUMP JUMPDEST SWAP2 POP PUSH2 0x5404 DUP3 PUSH2 0x539D JUMP JUMPDEST PUSH1 0x40 DUP3 ADD SWAP1 POP SWAP2 SWAP1 POP JUMP JUMPDEST PUSH1 0x0 PUSH1 0x20 DUP3 ADD SWAP1 POP DUP2 DUP2 SUB PUSH1 0x0 DUP4 ADD MSTORE PUSH2 0x5428 DUP2 PUSH2 0x53EC JUMP JUMPDEST SWAP1 POP SWAP2 SWAP1 POP JUMP JUMPDEST PUSH32 0x455243313135353A20696E73756666696369656E742062616C616E636520666F PUSH1 0x0 DUP3 ADD MSTORE PUSH32 0x72207472616E7366657200000000000000000000000000000000000000000000 PUSH1 0x20 DUP3 ADD MSTORE POP JUMP JUMPDEST PUSH1 0x0 PUSH2 0x548B PUSH1 0x2A DUP4 PUSH2 0x3949 JUMP JUMPDEST SWAP2 POP PUSH2 0x5496 DUP3 PUSH2 0x542F JUMP JUMPDEST PUSH1 0x40 DUP3 ADD SWAP1 POP SWAP2 SWAP1 POP JUMP JUMPDEST PUSH1 0x0 PUSH1 0x20 DUP3 ADD SWAP1 POP DUP2 DUP2 SUB PUSH1 0x0 DUP4 ADD MSTORE PUSH2 0x54BA DUP2 PUSH2 0x547E JUMP JUMPDEST SWAP1 POP SWAP2 SWAP1 POP JUMP JUMPDEST PUSH1 0x0 PUSH2 0x54CC DUP3 PUSH2 0x374D JUMP JUMPDEST SWAP2 POP PUSH2 0x54D7 DUP4 PUSH2 0x374D JUMP JUMPDEST SWAP3 POP DUP3 PUSH32 0xFFFFFFFFFFFFFFFFFFFFFFFFFFFFFFFFFFFFFFFFFFFFFFFFFFFFFFFFFFFFFFFF SUB DUP3 GT ISZERO PUSH2 0x550C JUMPI PUSH2 0x550B PUSH2 0x4812 JUMP JUMPDEST JUMPDEST DUP3 DUP3 ADD SWAP1 POP SWAP3 SWAP2 POP POP JUMP JUMPDEST PUSH1 0x0 PUSH1 0x40 DUP3 ADD SWAP1 POP DUP2 DUP2 SUB PUSH1 0x0 DUP4 ADD MSTORE PUSH2 0x5531 DUP2 DUP6 PUSH2 0x416B JUMP JUMPDEST SWAP1 POP DUP2 DUP2 SUB PUSH1 0x20 DUP4 ADD MSTORE PUSH2 0x5545 DUP2 DUP5 PUSH2 0x416B JUMP JUMPDEST SWAP1 POP SWAP4 SWAP3 POP POP POP JUMP JUMPDEST PUSH32 0x4E487B7100000000000000000000000000000000000000000000000000000000 PUSH1 0x0 MSTORE PUSH1 0x12 PUSH1 0x4 MSTORE PUSH1 0x24 PUSH1 0x0 REVERT JUMPDEST PUSH1 0x0 PUSH2 0x5588 DUP3 PUSH2 0x374D JUMP JUMPDEST SWAP2 POP PUSH2 0x5593 DUP4 PUSH2 0x374D JUMP JUMPDEST SWAP3 POP DUP3 PUSH2 0x55A3 JUMPI PUSH2 0x55A2 PUSH2 0x554E JUMP JUMPDEST JUMPDEST DUP3 DUP3 DIV SWAP1 POP SWAP3 SWAP2 POP POP JUMP JUMPDEST PUSH1 0x0 PUSH2 0x55B9 DUP3 PUSH2 0x374D JUMP JUMPDEST SWAP2 POP PUSH2 0x55C4 DUP4 PUSH2 0x374D JUMP JUMPDEST SWAP3 POP DUP3 DUP3 LT ISZERO PUSH2 0x55D7 JUMPI PUSH2 0x55D6 PUSH2 0x4812 JUMP JUMPDEST JUMPDEST DUP3 DUP3 SUB SWAP1 POP SWAP3 SWAP2 POP POP JUMP JUMPDEST PUSH1 0x0 PUSH2 0x55ED DUP3 PUSH2 0x374D JUMP JUMPDEST SWAP2 POP PUSH2 0x55F8 DUP4 PUSH2 0x374D JUMP JUMPDEST SWAP3 POP DUP3 PUSH2 0x5608 JUMPI PUSH2 0x5607 PUSH2 0x554E JUMP JUMPDEST JUMPDEST DUP3 DUP3 MOD SWAP1 POP SWAP3 SWAP2 POP POP JUMP JUMPDEST PUSH32 0x566F7465204661696C6564210000000000000000000000000000000000000000 PUSH1 0x0 DUP3 ADD MSTORE POP JUMP JUMPDEST PUSH1 0x0 PUSH2 0x5649 PUSH1 0xC DUP4 PUSH2 0x3949 JUMP JUMPDEST SWAP2 POP PUSH2 0x5654 DUP3 PUSH2 0x5613 JUMP JUMPDEST PUSH1 0x20 DUP3 ADD SWAP1 POP SWAP2 SWAP1 POP JUMP JUMPDEST PUSH1 0x0 PUSH1 0x40 DUP3 ADD SWAP1 POP PUSH2 0x5674 PUSH1 0x0 DUP4 ADD DUP5 PUSH2 0x3757 JUMP JUMPDEST DUP2 DUP2 SUB PUSH1 0x20 DUP4 ADD MSTORE PUSH2 0x5685 DUP2 PUSH2 0x563C JUMP JUMPDEST SWAP1 POP SWAP3 SWAP2 POP POP JUMP JUMPDEST PUSH32 0x455243313135353A2073657474696E6720617070726F76616C20737461747573 PUSH1 0x0 DUP3 ADD MSTORE PUSH32 0x20666F722073656C660000000000000000000000000000000000000000000000 PUSH1 0x20 DUP3 ADD MSTORE POP JUMP JUMPDEST PUSH1 0x0 PUSH2 0x56E9 PUSH1 0x29 DUP4 PUSH2 0x3949 JUMP JUMPDEST SWAP2 POP PUSH2 0x56F4 DUP3 PUSH2 0x568D JUMP JUMPDEST PUSH1 0x40 DUP3 ADD SWAP1 POP SWAP2 SWAP1 POP JUMP JUMPDEST PUSH1 0x0 PUSH1 0x20 DUP3 ADD SWAP1 POP DUP2 DUP2 SUB PUSH1 0x0 DUP4 ADD MSTORE PUSH2 0x5718 DUP2 PUSH2 0x56DC JUMP JUMPDEST SWAP1 POP SWAP2 SWAP1 POP JUMP JUMPDEST PUSH1 0x0 PUSH1 0x40 DUP3 ADD SWAP1 POP PUSH2 0x5734 PUSH1 0x0 DUP4 ADD DUP6 PUSH2 0x3757 JUMP JUMPDEST PUSH2 0x5741 PUSH1 0x20 DUP4 ADD DUP5 PUSH2 0x3757 JUMP JUMPDEST SWAP4 SWAP3 POP POP POP JUMP JUMPDEST PUSH1 0x0 DUP2 MLOAD SWAP1 POP SWAP2 SWAP1 POP JUMP JUMPDEST PUSH1 0x0 DUP3 DUP3 MSTORE PUSH1 0x20 DUP3 ADD SWAP1 POP SWAP3 SWAP2 POP POP JUMP JUMPDEST PUSH1 0x0 PUSH2 0x576F DUP3 PUSH2 0x5748 JUMP JUMPDEST PUSH2 0x5779 DUP2 DUP6 PUSH2 0x5753 JUMP JUMPDEST SWAP4 POP PUSH2 0x5789 DUP2 DUP6 PUSH1 0x20 DUP7 ADD PUSH2 0x395A JUMP JUMPDEST PUSH2 0x5792 DUP2 PUSH2 0x398D JUMP JUMPDEST DUP5 ADD SWAP2 POP POP SWAP3 SWAP2 POP POP JUMP JUMPDEST PUSH1 0x0 PUSH1 0xA0 DUP3 ADD SWAP1 POP PUSH2 0x57B2 PUSH1 0x0 DUP4 ADD DUP9 PUSH2 0x373E JUMP JUMPDEST PUSH2 0x57BF PUSH1 0x20 DUP4 ADD DUP8 PUSH2 0x373E JUMP JUMPDEST DUP2 DUP2 SUB PUSH1 0x40 DUP4 ADD MSTORE PUSH2 0x57D1 DUP2 DUP7 PUSH2 0x416B JUMP JUMPDEST SWAP1 POP DUP2 DUP2 SUB PUSH1 0x60 DUP4 ADD MSTORE PUSH2 0x57E5 DUP2 DUP6 PUSH2 0x416B JUMP JUMPDEST SWAP1 POP DUP2 DUP2 SUB PUSH1 0x80 DUP4 ADD MSTORE PUSH2 0x57F9 DUP2 DUP5 PUSH2 0x5764 JUMP JUMPDEST SWAP1 POP SWAP7 SWAP6 POP POP POP POP POP POP JUMP JUMPDEST PUSH1 0x0 DUP2 MLOAD SWAP1 POP PUSH2 0x5814 DUP2 PUSH2 0x3882 JUMP JUMPDEST SWAP3 SWAP2 POP POP JUMP JUMPDEST PUSH1 0x0 PUSH1 0x20 DUP3 DUP5 SUB SLT ISZERO PUSH2 0x5830 JUMPI PUSH2 0x582F PUSH2 0x3799 JUMP JUMPDEST JUMPDEST PUSH1 0x0 PUSH2 0x583E DUP5 DUP3 DUP6 ADD PUSH2 0x5805 JUMP JUMPDEST SWAP2 POP POP SWAP3 SWAP2 POP POP JUMP JUMPDEST PUSH1 0x0 DUP2 PUSH1 0xE0 SHR SWAP1 POP SWAP2 SWAP1 POP JUMP JUMPDEST PUSH1 0x0 PUSH1 0x3 RETURNDATASIZE GT ISZERO PUSH2 0x5873 JUMPI PUSH1 0x4 PUSH1 0x0 DUP1 RETURNDATACOPY PUSH2 0x5870 PUSH1 0x0 MLOAD PUSH2 0x5847 JUMP JUMPDEST SWAP1 POP JUMPDEST SWAP1 JUMP JUMPDEST PUSH1 0x0 PUSH1 0x44 RETURNDATASIZE LT PUSH2 0x5903 JUMPI PUSH2 0x5888 PUSH2 0x378F JUMP JUMPDEST PUSH1 0x4 RETURNDATASIZE SUB PUSH1 0x4 DUP3 RETURNDATACOPY DUP1 MLOAD RETURNDATASIZE PUSH1 0x24 DUP3 ADD GT PUSH8 0xFFFFFFFFFFFFFFFF DUP3 GT OR ISZERO PUSH2 0x58B0 JUMPI POP POP PUSH2 0x5903 JUMP JUMPDEST DUP1 DUP3 ADD DUP1 MLOAD PUSH8 0xFFFFFFFFFFFFFFFF DUP2 GT ISZERO PUSH2 0x58CE JUMPI POP POP POP POP PUSH2 0x5903 JUMP JUMPDEST DUP1 PUSH1 0x20 DUP4 ADD ADD PUSH1 0x4 RETURNDATASIZE SUB DUP6 ADD DUP2 GT ISZERO PUSH2 0x58EB JUMPI POP POP POP POP POP PUSH2 0x5903 JUMP JUMPDEST PUSH2 0x58FA DUP3 PUSH1 0x20 ADD DUP6 ADD DUP7 PUSH2 0x3C9F JUMP JUMPDEST DUP3 SWAP6 POP POP POP POP POP POP JUMPDEST SWAP1 JUMP JUMPDEST PUSH32 0x455243313135353A207472616E7366657220746F206E6F6E2045524331313535 PUSH1 0x0 DUP3 ADD MSTORE PUSH32 0x526563656976657220696D706C656D656E746572000000000000000000000000 PUSH1 0x20 DUP3 ADD MSTORE POP JUMP JUMPDEST PUSH1 0x0 PUSH2 0x5962 PUSH1 0x34 DUP4 PUSH2 0x3949 JUMP JUMPDEST SWAP2 POP PUSH2 0x596D DUP3 PUSH2 0x5906 JUMP JUMPDEST PUSH1 0x40 DUP3 ADD SWAP1 POP SWAP2 SWAP1 POP JUMP JUMPDEST PUSH1 0x0 PUSH1 0x20 DUP3 ADD SWAP1 POP DUP2 DUP2 SUB PUSH1 0x0 DUP4 ADD MSTORE PUSH2 0x5991 DUP2 PUSH2 0x5955 JUMP JUMPDEST SWAP1 POP SWAP2 SWAP1 POP JUMP JUMPDEST PUSH32 0x455243313135353A204552433131353552656365697665722072656A65637465 PUSH1 0x0 DUP3 ADD MSTORE PUSH32 0x6420746F6B656E73000000000000000000000000000000000000000000000000 PUSH1 0x20 DUP3 ADD MSTORE POP JUMP JUMPDEST PUSH1 0x0 PUSH2 0x59F4 PUSH1 0x28 DUP4 PUSH2 0x3949 JUMP JUMPDEST SWAP2 POP PUSH2 0x59FF DUP3 PUSH2 0x5998 JUMP JUMPDEST PUSH1 0x40 DUP3 ADD SWAP1 POP SWAP2 SWAP1 POP JUMP JUMPDEST PUSH1 0x0 PUSH1 0x20 DUP3 ADD SWAP1 POP DUP2 DUP2 SUB PUSH1 0x0 DUP4 ADD MSTORE PUSH2 0x5A23 DUP2 PUSH2 0x59E7 JUMP JUMPDEST SWAP1 POP SWAP2 SWAP1 POP JUMP JUMPDEST PUSH32 0x566F746520506173736564210000000000000000000000000000000000000000 PUSH1 0x0 DUP3 ADD MSTORE POP JUMP JUMPDEST PUSH1 0x0 PUSH2 0x5A60 PUSH1 0xC DUP4 PUSH2 0x3949 JUMP JUMPDEST SWAP2 POP PUSH2 0x5A6B DUP3 PUSH2 0x5A2A JUMP JUMPDEST PUSH1 0x20 DUP3 ADD SWAP1 POP SWAP2 SWAP1 POP JUMP JUMPDEST PUSH1 0x0 PUSH1 0x40 DUP3 ADD SWAP1 POP PUSH2 0x5A8B PUSH1 0x0 DUP4 ADD DUP5 PUSH2 0x3757 JUMP JUMPDEST DUP2 DUP2 SUB PUSH1 0x20 DUP4 ADD MSTORE PUSH2 0x5A9C DUP2 PUSH2 0x5A53 JUMP JUMPDEST SWAP1 POP SWAP3 SWAP2 POP POP JUMP JUMPDEST PUSH32 0x4E6F7420656E6F7567682066756E647320696E20636F6E747261637420747261 PUSH1 0x0 DUP3 ADD MSTORE PUSH32 0x6E73616374696F6E2063616E63656C6564000000000000000000000000000000 PUSH1 0x20 DUP3 ADD MSTORE POP JUMP JUMPDEST PUSH1 0x0 PUSH2 0x5B00 PUSH1 0x31 DUP4 PUSH2 0x3949 JUMP JUMPDEST SWAP2 POP PUSH2 0x5B0B DUP3 PUSH2 0x5AA4 JUMP JUMPDEST PUSH1 0x40 DUP3 ADD SWAP1 POP SWAP2 SWAP1 POP JUMP JUMPDEST PUSH1 0x0 PUSH1 0x20 DUP3 ADD SWAP1 POP DUP2 DUP2 SUB PUSH1 0x0 DUP4 ADD MSTORE PUSH2 0x5B2F DUP2 PUSH2 0x5AF3 JUMP JUMPDEST SWAP1 POP SWAP2 SWAP1 POP JUMP JUMPDEST PUSH1 0x0 DUP2 MLOAD SWAP1 POP PUSH2 0x5B45 DUP2 PUSH2 0x41EB JUMP JUMPDEST SWAP3 SWAP2 POP POP JUMP JUMPDEST PUSH1 0x0 PUSH1 0x20 DUP3 DUP5 SUB SLT ISZERO PUSH2 0x5B61 JUMPI PUSH2 0x5B60 PUSH2 0x3799 JUMP JUMPDEST JUMPDEST PUSH1 0x0 PUSH2 0x5B6F DUP5 DUP3 DUP6 ADD PUSH2 0x5B36 JUMP JUMPDEST SWAP2 POP POP SWAP3 SWAP2 POP POP JUMP JUMPDEST PUSH32 0x5472616E73616374696F6E207375636365737366756C21000000000000000000 PUSH1 0x0 DUP3 ADD MSTORE POP JUMP JUMPDEST PUSH1 0x0 PUSH2 0x5BAE PUSH1 0x17 DUP4 PUSH2 0x3949 JUMP JUMPDEST SWAP2 POP PUSH2 0x5BB9 DUP3 PUSH2 0x5B78 JUMP JUMPDEST PUSH1 0x20 DUP3 ADD SWAP1 POP SWAP2 SWAP1 POP JUMP JUMPDEST PUSH1 0x0 PUSH1 0x40 DUP3 ADD SWAP1 POP PUSH2 0x5BD9 PUSH1 0x0 DUP4 ADD DUP5 PUSH2 0x3757 JUMP JUMPDEST DUP2 DUP2 SUB PUSH1 0x20 DUP4 ADD MSTORE PUSH2 0x5BEA DUP2 PUSH2 0x5BA1 JUMP JUMPDEST SWAP1 POP SWAP3 SWAP2 POP POP JUMP JUMPDEST PUSH1 0x0 PUSH1 0xA0 DUP3 ADD SWAP1 POP PUSH2 0x5C07 PUSH1 0x0 DUP4 ADD DUP9 PUSH2 0x373E JUMP JUMPDEST PUSH2 0x5C14 PUSH1 0x20 DUP4 ADD DUP8 PUSH2 0x373E JUMP JUMPDEST PUSH2 0x5C21 PUSH1 0x40 DUP4 ADD DUP7 PUSH2 0x3757 JUMP JUMPDEST PUSH2 0x5C2E PUSH1 0x60 DUP4 ADD DUP6 PUSH2 0x3757 JUMP JUMPDEST DUP2 DUP2 SUB PUSH1 0x80 DUP4 ADD MSTORE PUSH2 0x5C40 DUP2 DUP5 PUSH2 0x5764 JUMP JUMPDEST SWAP1 POP SWAP7 SWAP6 POP POP POP POP POP POP JUMP JUMPDEST PUSH1 0x0 DUP2 SWAP1 POP SWAP2 SWAP1 POP JUMP JUMPDEST PUSH1 0x0 DUP2 PUSH1 0xE0 SHL SWAP1 POP SWAP2 SWAP1 POP JUMP JUMPDEST PUSH1 0x0 PUSH2 0x5C7E PUSH2 0x5C79 PUSH2 0x5C74 DUP5 PUSH2 0x5C4C JUMP JUMPDEST PUSH2 0x5C56 JUMP JUMPDEST PUSH2 0x3856 JUMP JUMPDEST SWAP1 POP SWAP2 SWAP1 POP JUMP JUMPDEST PUSH2 0x5C8E DUP2 PUSH2 0x5C63 JUMP JUMPDEST DUP3 MSTORE POP POP JUMP JUMPDEST PUSH1 0x0 PUSH1 0x20 DUP3 ADD SWAP1 POP PUSH2 0x5CA9 PUSH1 0x0 DUP4 ADD DUP5 PUSH2 0x5C85 JUMP JUMPDEST SWAP3 SWAP2 POP POP JUMP JUMPDEST POP JUMP JUMPDEST PUSH1 0x0 PUSH2 0x5CBF PUSH1 0x0 DUP4 PUSH2 0x5753 JUMP JUMPDEST SWAP2 POP PUSH2 0x5CCA DUP3 PUSH2 0x5CAF JUMP JUMPDEST PUSH1 0x0 DUP3 ADD SWAP1 POP SWAP2 SWAP1 POP JUMP JUMPDEST PUSH1 0x0 PUSH1 0x80 DUP3 ADD SWAP1 POP PUSH2 0x5CEA PUSH1 0x0 DUP4 ADD DUP7 PUSH2 0x373E JUMP JUMPDEST PUSH2 0x5CF7 PUSH1 0x20 DUP4 ADD DUP6 PUSH2 0x373E JUMP JUMPDEST PUSH2 0x5D04 PUSH1 0x40 DUP4 ADD DUP5 PUSH2 0x3757 JUMP JUMPDEST DUP2 DUP2 SUB PUSH1 0x60 DUP4 ADD MSTORE PUSH2 0x5D15 DUP2 PUSH2 0x5CB2 JUMP JUMPDEST SWAP1 POP SWAP5 SWAP4 POP POP POP POP JUMP JUMPDEST PUSH1 0x0 PUSH1 0xA0 DUP3 ADD SWAP1 POP PUSH2 0x5D34 PUSH1 0x0 DUP4 ADD DUP8 PUSH2 0x373E JUMP JUMPDEST PUSH2 0x5D41 PUSH1 0x20 DUP4 ADD DUP7 PUSH2 0x373E JUMP JUMPDEST PUSH2 0x5D4E PUSH1 0x40 DUP4 ADD DUP6 PUSH2 0x3757 JUMP JUMPDEST PUSH2 0x5D5B PUSH1 0x60 DUP4 ADD DUP5 PUSH2 0x3757 JUMP JUMPDEST DUP2 DUP2 SUB PUSH1 0x80 DUP4 ADD MSTORE PUSH2 0x5D6C DUP2 PUSH2 0x5CB2 JUMP JUMPDEST SWAP1 POP SWAP6 SWAP5 POP POP POP POP POP JUMP INVALID LOG2 PUSH5 0x6970667358 0x22 SLT KECCAK256 SSTORE 0xC2 0xFC 0xC2 PUSH3 0x40E619 SELFBALANCE PUSH7 0x5F04D972E080D5 MSTORE 0x4C CALLVALUE KECCAK256 GAS 0xBF 0xF7 0x5C 0x2A 0xD8 0xDB 0xA9 DUP13 PUSH25 0x6564736F6C634300080F003300000000000000000000000000 "
		},
		"gasEstimates": {
			"creation": {
				"codeDepositCost": "4796200",
				"executionCost": "infinite",
				"totalCost": "infinite"
			},
			"external": {
				"TotalTransactions()": "2496",
				"ViewTransactions()": "infinite",
				"VotesNeededToPass()": "2518",
				"XRCcontracts()": "2539",
				"balanceOf(address,uint256)": "infinite",
				"balanceOfBatch(address[],uint256[])": "infinite",
				"checkVote(uint256,uint256)": "infinite",
				"confirmTransaction(uint256,bool,uint256)": "infinite",
				"isApprovedForAll(address,address)": "infinite",
				"onERC1155BatchReceived(address,address,uint256[],uint256[],bytes)": "infinite",
				"onERC1155Received(address,address,uint256,uint256,bytes)": "infinite",
				"onERC721Received(address,address,uint256,bytes)": "infinite",
				"revokeConfirmation(uint256,uint256)": "infinite",
				"safeBatchTransferFrom(address,address,uint256[],uint256[],bytes)": "infinite",
				"safeTransferFrom(address,address,uint256,uint256,bytes)": "infinite",
				"setApprovalForAll(address,bool)": "infinite",
				"submitProposal(uint256[],address[],string[])": "infinite",
				"supportsInterface(bytes4)": "819",
				"totalKeys()": "2474",
				"uri(uint256)": "infinite"
			},
			"internal": {
				"XRC1155_XRC721Send(address,uint256,uint256)": "infinite",
				"checkKey(uint256)": "infinite",
				"checkTokens(address)": "infinite",
				"checkTotal(uint256)": "infinite",
				"checkTransactionExecution(uint256,string memory)": "infinite",
				"executeTransaction(uint256)": "infinite"
			}
		},
		"methodIdentifiers": {
			"TotalTransactions()": "cc0225a0",
			"ViewTransactions()": "108755e9",
			"VotesNeededToPass()": "cedb980f",
			"XRCcontracts()": "fbcc9b99",
			"balanceOf(address,uint256)": "00fdd58e",
			"balanceOfBatch(address[],uint256[])": "4e1273f4",
			"checkVote(uint256,uint256)": "f3e394e8",
			"confirmTransaction(uint256,bool,uint256)": "4eb4b1a1",
			"isApprovedForAll(address,address)": "e985e9c5",
			"onERC1155BatchReceived(address,address,uint256[],uint256[],bytes)": "bc197c81",
			"onERC1155Received(address,address,uint256,uint256,bytes)": "f23a6e61",
			"onERC721Received(address,address,uint256,bytes)": "150b7a02",
			"revokeConfirmation(uint256,uint256)": "f84eef0b",
			"safeBatchTransferFrom(address,address,uint256[],uint256[],bytes)": "2eb2c2d6",
			"safeTransferFrom(address,address,uint256,uint256,bytes)": "f242432a",
			"setApprovalForAll(address,bool)": "a22cb465",
			"submitProposal(uint256[],address[],string[])": "72ed02bc",
			"supportsInterface(bytes4)": "01ffc9a7",
			"totalKeys()": "488bdabc",
			"uri(uint256)": "0e89341c"
		}
	},
	"abi": [
		{
			"inputs": [
				{
					"internalType": "uint256",
					"name": "_totalKeys",
					"type": "uint256"
				},
				{
					"internalType": "uint256",
					"name": "_VotesNeededToPass",
					"type": "uint256"
				},
				{
					"internalType": "string",
					"name": "URI",
					"type": "string"
				}
			],
			"stateMutability": "payable",
			"type": "constructor"
		},
		{
			"anonymous": false,
			"inputs": [
				{
					"indexed": true,
					"internalType": "address",
					"name": "account",
					"type": "address"
				},
				{
					"indexed": true,
					"internalType": "address",
					"name": "operator",
					"type": "address"
				},
				{
					"indexed": false,
					"internalType": "bool",
					"name": "approved",
					"type": "bool"
				}
			],
			"name": "ApprovalForAll",
			"type": "event"
		},
		{
			"anonymous": false,
			"inputs": [
				{
					"indexed": false,
					"internalType": "uint256",
					"name": "_TransactionNumber",
					"type": "uint256"
				},
				{
					"indexed": false,
					"internalType": "string",
					"name": "_memo",
					"type": "string"
				}
			],
			"name": "BlankExecute",
			"type": "event"
		},
		{
			"anonymous": false,
			"inputs": [
				{
					"indexed": false,
					"internalType": "uint256",
					"name": "_transactionNumb",
					"type": "uint256"
				},
				{
					"indexed": false,
					"internalType": "string",
					"name": "_memo",
					"type": "string"
				}
			],
			"name": "Execute",
			"type": "event"
		},
		{
			"anonymous": false,
			"inputs": [
				{
					"indexed": false,
					"internalType": "uint256",
					"name": "_transactionNumb",
					"type": "uint256"
				},
				{
					"indexed": false,
					"internalType": "string",
					"name": "_memo",
					"type": "string"
				}
			],
			"name": "Proposal",
			"type": "event"
		},
		{
			"anonymous": false,
			"inputs": [
				{
					"indexed": false,
					"internalType": "address",
					"name": "",
					"type": "address"
				},
				{
					"indexed": false,
					"internalType": "uint256",
					"name": "",
					"type": "uint256"
				}
			],
			"name": "Received",
			"type": "event"
		},
		{
			"anonymous": false,
			"inputs": [
				{
					"indexed": true,
					"internalType": "address",
					"name": "operator",
					"type": "address"
				},
				{
					"indexed": true,
					"internalType": "address",
					"name": "from",
					"type": "address"
				},
				{
					"indexed": true,
					"internalType": "address",
					"name": "to",
					"type": "address"
				},
				{
					"indexed": false,
					"internalType": "uint256[]",
					"name": "ids",
					"type": "uint256[]"
				},
				{
					"indexed": false,
					"internalType": "uint256[]",
					"name": "values",
					"type": "uint256[]"
				}
			],
			"name": "TransferBatch",
			"type": "event"
		},
		{
			"anonymous": false,
			"inputs": [
				{
					"indexed": true,
					"internalType": "address",
					"name": "operator",
					"type": "address"
				},
				{
					"indexed": true,
					"internalType": "address",
					"name": "from",
					"type": "address"
				},
				{
					"indexed": true,
					"internalType": "address",
					"name": "to",
					"type": "address"
				},
				{
					"indexed": false,
					"internalType": "uint256",
					"name": "id",
					"type": "uint256"
				},
				{
					"indexed": false,
					"internalType": "uint256",
					"name": "value",
					"type": "uint256"
				}
			],
			"name": "TransferSingle",
			"type": "event"
		},
		{
			"anonymous": false,
			"inputs": [
				{
					"indexed": false,
					"internalType": "string",
					"name": "value",
					"type": "string"
				},
				{
					"indexed": true,
					"internalType": "uint256",
					"name": "id",
					"type": "uint256"
				}
			],
			"name": "URI",
			"type": "event"
		},
		{
			"inputs": [],
			"name": "TotalTransactions",
			"outputs": [
				{
					"internalType": "uint256",
					"name": "",
					"type": "uint256"
				}
			],
			"stateMutability": "view",
			"type": "function"
		},
		{
			"inputs": [],
			"name": "ViewTransactions",
			"outputs": [
				{
					"components": [
						{
							"internalType": "uint256",
							"name": "amount",
							"type": "uint256"
						},
						{
							"internalType": "address",
							"name": "toAddress",
							"type": "address"
						},
						{
							"internalType": "string",
							"name": "topic",
							"type": "string"
						},
						{
							"internalType": "string",
							"name": "messege",
							"type": "string"
						},
						{
							"internalType": "bool",
							"name": "status",
							"type": "bool"
						},
						{
							"internalType": "uint256",
							"name": "pass",
							"type": "uint256"
						},
						{
							"internalType": "uint256",
							"name": "fail",
							"type": "uint256"
						},
						{
							"internalType": "uint256",
							"name": "voteCount",
							"type": "uint256"
						},
						{
							"internalType": "bool",
							"name": "exist",
							"type": "bool"
						},
						{
							"internalType": "address",
							"name": "XRC",
							"type": "address"
						},
						{
							"internalType": "uint256",
							"name": "tokenNumb",
							"type": "uint256"
						},
						{
							"internalType": "string",
							"name": "call",
							"type": "string"
						}
					],
					"internalType": "struct MultiSigTreasury.MultiSigTransaction[]",
					"name": "",
					"type": "tuple[]"
				}
			],
			"stateMutability": "nonpayable",
			"type": "function"
		},
		{
			"inputs": [],
			"name": "VotesNeededToPass",
			"outputs": [
				{
					"internalType": "uint256",
					"name": "",
					"type": "uint256"
				}
			],
			"stateMutability": "view",
			"type": "function"
		},
		{
			"inputs": [],
			"name": "XRCcontracts",
			"outputs": [
				{
					"internalType": "uint256",
					"name": "",
					"type": "uint256"
				}
			],
			"stateMutability": "view",
			"type": "function"
		},
		{
			"inputs": [
				{
					"internalType": "address",
					"name": "account",
					"type": "address"
				},
				{
					"internalType": "uint256",
					"name": "id",
					"type": "uint256"
				}
			],
			"name": "balanceOf",
			"outputs": [
				{
					"internalType": "uint256",
					"name": "",
					"type": "uint256"
				}
			],
			"stateMutability": "view",
			"type": "function"
		},
		{
			"inputs": [
				{
					"internalType": "address[]",
					"name": "accounts",
					"type": "address[]"
				},
				{
					"internalType": "uint256[]",
					"name": "ids",
					"type": "uint256[]"
				}
			],
			"name": "balanceOfBatch",
			"outputs": [
				{
					"internalType": "uint256[]",
					"name": "",
					"type": "uint256[]"
				}
			],
			"stateMutability": "view",
			"type": "function"
		},
		{
			"inputs": [
				{
					"internalType": "uint256",
					"name": "_keyNumb",
					"type": "uint256"
				},
				{
					"internalType": "uint256",
					"name": "_transNumb",
					"type": "uint256"
				}
			],
			"name": "checkVote",
			"outputs": [
				{
					"internalType": "uint256",
					"name": "",
					"type": "uint256"
				},
				{
					"internalType": "bool",
					"name": "",
					"type": "bool"
				},
				{
					"internalType": "bool",
					"name": "",
					"type": "bool"
				}
			],
			"stateMutability": "nonpayable",
			"type": "function"
		},
		{
			"inputs": [
				{
					"internalType": "uint256",
					"name": "_TransactionNumber",
					"type": "uint256"
				},
				{
					"internalType": "bool",
					"name": "_vote",
					"type": "bool"
				},
				{
					"internalType": "uint256",
					"name": "_keyNumb",
					"type": "uint256"
				}
			],
			"name": "confirmTransaction",
			"outputs": [
				{
					"internalType": "uint256",
					"name": "",
					"type": "uint256"
				},
				{
					"internalType": "uint256",
					"name": "",
					"type": "uint256"
				},
				{
					"internalType": "string",
					"name": "",
					"type": "string"
				}
			],
			"stateMutability": "nonpayable",
			"type": "function"
		},
		{
			"inputs": [
				{
					"internalType": "address",
					"name": "account",
					"type": "address"
				},
				{
					"internalType": "address",
					"name": "operator",
					"type": "address"
				}
			],
			"name": "isApprovedForAll",
			"outputs": [
				{
					"internalType": "bool",
					"name": "",
					"type": "bool"
				}
			],
			"stateMutability": "view",
			"type": "function"
		},
		{
			"inputs": [
				{
					"internalType": "address",
					"name": "",
					"type": "address"
				},
				{
					"internalType": "address",
					"name": "",
					"type": "address"
				},
				{
					"internalType": "uint256[]",
					"name": "",
					"type": "uint256[]"
				},
				{
					"internalType": "uint256[]",
					"name": "",
					"type": "uint256[]"
				},
				{
					"internalType": "bytes",
					"name": "",
					"type": "bytes"
				}
			],
			"name": "onERC1155BatchReceived",
			"outputs": [
				{
					"internalType": "bytes4",
					"name": "",
					"type": "bytes4"
				}
			],
			"stateMutability": "nonpayable",
			"type": "function"
		},
		{
			"inputs": [
				{
					"internalType": "address",
					"name": "",
					"type": "address"
				},
				{
					"internalType": "address",
					"name": "",
					"type": "address"
				},
				{
					"internalType": "uint256",
					"name": "",
					"type": "uint256"
				},
				{
					"internalType": "uint256",
					"name": "",
					"type": "uint256"
				},
				{
					"internalType": "bytes",
					"name": "",
					"type": "bytes"
				}
			],
			"name": "onERC1155Received",
			"outputs": [
				{
					"internalType": "bytes4",
					"name": "",
					"type": "bytes4"
				}
			],
			"stateMutability": "nonpayable",
			"type": "function"
		},
		{
			"inputs": [
				{
					"internalType": "address",
					"name": "",
					"type": "address"
				},
				{
					"internalType": "address",
					"name": "",
					"type": "address"
				},
				{
					"internalType": "uint256",
					"name": "",
					"type": "uint256"
				},
				{
					"internalType": "bytes",
					"name": "",
					"type": "bytes"
				}
			],
			"name": "onERC721Received",
			"outputs": [
				{
					"internalType": "bytes4",
					"name": "",
					"type": "bytes4"
				}
			],
			"stateMutability": "nonpayable",
			"type": "function"
		},
		{
			"inputs": [
				{
					"internalType": "uint256",
					"name": "_TransactionNumber",
					"type": "uint256"
				},
				{
					"internalType": "uint256",
					"name": "_keyNumb",
					"type": "uint256"
				}
			],
			"name": "revokeConfirmation",
			"outputs": [
				{
					"internalType": "string",
					"name": "",
					"type": "string"
				}
			],
			"stateMutability": "nonpayable",
			"type": "function"
		},
		{
			"inputs": [
				{
					"internalType": "address",
					"name": "from",
					"type": "address"
				},
				{
					"internalType": "address",
					"name": "to",
					"type": "address"
				},
				{
					"internalType": "uint256[]",
					"name": "ids",
					"type": "uint256[]"
				},
				{
					"internalType": "uint256[]",
					"name": "amounts",
					"type": "uint256[]"
				},
				{
					"internalType": "bytes",
					"name": "data",
					"type": "bytes"
				}
			],
			"name": "safeBatchTransferFrom",
			"outputs": [],
			"stateMutability": "nonpayable",
			"type": "function"
		},
		{
			"inputs": [
				{
					"internalType": "address",
					"name": "from",
					"type": "address"
				},
				{
					"internalType": "address",
					"name": "to",
					"type": "address"
				},
				{
					"internalType": "uint256",
					"name": "id",
					"type": "uint256"
				},
				{
					"internalType": "uint256",
					"name": "amount",
					"type": "uint256"
				},
				{
					"internalType": "bytes",
					"name": "data",
					"type": "bytes"
				}
			],
			"name": "safeTransferFrom",
			"outputs": [],
			"stateMutability": "nonpayable",
			"type": "function"
		},
		{
			"inputs": [
				{
					"internalType": "address",
					"name": "operator",
					"type": "address"
				},
				{
					"internalType": "bool",
					"name": "approved",
					"type": "bool"
				}
			],
			"name": "setApprovalForAll",
			"outputs": [],
			"stateMutability": "nonpayable",
			"type": "function"
		},
		{
			"inputs": [
				{
					"internalType": "uint256[]",
					"name": "_amount",
					"type": "uint256[]"
				},
				{
					"internalType": "address[]",
					"name": "_address",
					"type": "address[]"
				},
				{
					"internalType": "string[]",
					"name": "_topic",
					"type": "string[]"
				}
			],
			"name": "submitProposal",
			"outputs": [
				{
					"internalType": "bool",
					"name": "",
					"type": "bool"
				}
			],
			"stateMutability": "nonpayable",
			"type": "function"
		},
		{
			"inputs": [
				{
					"internalType": "bytes4",
					"name": "interfaceId",
					"type": "bytes4"
				}
			],
			"name": "supportsInterface",
			"outputs": [
				{
					"internalType": "bool",
					"name": "",
					"type": "bool"
				}
			],
			"stateMutability": "view",
			"type": "function"
		},
		{
			"inputs": [],
			"name": "totalKeys",
			"outputs": [
				{
					"internalType": "uint256",
					"name": "",
					"type": "uint256"
				}
			],
			"stateMutability": "view",
			"type": "function"
		},
		{
			"inputs": [
				{
					"internalType": "uint256",
					"name": "",
					"type": "uint256"
				}
			],
			"name": "uri",
			"outputs": [
				{
					"internalType": "string",
					"name": "",
					"type": "string"
				}
			],
			"stateMutability": "view",
			"type": "function"
		},
		{
			"stateMutability": "payable",
			"type": "receive"
		}
	]
}