{
  "contractName": "MultiSigTreasury",
  "abi": [
    {
      "inputs": [
        {
          "internalType": "uint256",
          "name": "_totalKeys",
          "type": "uint256"
        },
        {
          "internalType": "uint256",
          "name": "_VotesNeededToPass",
          "type": "uint256"
        },
        {
          "internalType": "string",
          "name": "URI",
          "type": "string"
        }
      ],
      "stateMutability": "payable",
      "type": "constructor"
    },
    {
      "anonymous": false,
      "inputs": [
        {
          "indexed": true,
          "internalType": "address",
          "name": "account",
          "type": "address"
        },
        {
          "indexed": true,
          "internalType": "address",
          "name": "operator",
          "type": "address"
        },
        {
          "indexed": false,
          "internalType": "bool",
          "name": "approved",
          "type": "bool"
        }
      ],
      "name": "ApprovalForAll",
      "type": "event"
    },
    {
      "anonymous": false,
      "inputs": [
        {
          "indexed": false,
          "internalType": "uint256",
          "name": "_TransactionNumber",
          "type": "uint256"
        },
        {
          "indexed": false,
          "internalType": "string",
          "name": "_memo",
          "type": "string"
        }
      ],
      "name": "BlankExecute",
      "type": "event"
    },
    {
      "anonymous": false,
      "inputs": [
        {
          "indexed": false,
          "internalType": "uint256",
          "name": "_transactionNumb",
          "type": "uint256"
        },
        {
          "indexed": false,
          "internalType": "string",
          "name": "_memo",
          "type": "string"
        }
      ],
      "name": "Execute",
      "type": "event"
    },
    {
      "anonymous": false,
      "inputs": [
        {
          "indexed": false,
          "internalType": "uint256",
          "name": "_transactionNumb",
          "type": "uint256"
        },
        {
          "indexed": false,
          "internalType": "string",
          "name": "_memo",
          "type": "string"
        }
      ],
      "name": "Proposal",
      "type": "event"
    },
    {
      "anonymous": false,
      "inputs": [
        {
          "indexed": false,
          "internalType": "address",
          "name": "",
          "type": "address"
        },
        {
          "indexed": false,
          "internalType": "uint256",
          "name": "",
          "type": "uint256"
        }
      ],
      "name": "Received",
      "type": "event"
    },
    {
      "anonymous": false,
      "inputs": [
        {
          "indexed": true,
          "internalType": "address",
          "name": "operator",
          "type": "address"
        },
        {
          "indexed": true,
          "internalType": "address",
          "name": "from",
          "type": "address"
        },
        {
          "indexed": true,
          "internalType": "address",
          "name": "to",
          "type": "address"
        },
        {
          "indexed": false,
          "internalType": "uint256[]",
          "name": "ids",
          "type": "uint256[]"
        },
        {
          "indexed": false,
          "internalType": "uint256[]",
          "name": "values",
          "type": "uint256[]"
        }
      ],
      "name": "TransferBatch",
      "type": "event"
    },
    {
      "anonymous": false,
      "inputs": [
        {
          "indexed": true,
          "internalType": "address",
          "name": "operator",
          "type": "address"
        },
        {
          "indexed": true,
          "internalType": "address",
          "name": "from",
          "type": "address"
        },
        {
          "indexed": true,
          "internalType": "address",
          "name": "to",
          "type": "address"
        },
        {
          "indexed": false,
          "internalType": "uint256",
          "name": "id",
          "type": "uint256"
        },
        {
          "indexed": false,
          "internalType": "uint256",
          "name": "value",
          "type": "uint256"
        }
      ],
      "name": "TransferSingle",
      "type": "event"
    },
    {
      "anonymous": false,
      "inputs": [
        {
          "indexed": false,
          "internalType": "string",
          "name": "value",
          "type": "string"
        },
        {
          "indexed": true,
          "internalType": "uint256",
          "name": "id",
          "type": "uint256"
        }
      ],
      "name": "URI",
      "type": "event"
    },
    {
      "inputs": [],
      "name": "TotalTransactions",
      "outputs": [
        {
          "internalType": "uint256",
          "name": "",
          "type": "uint256"
        }
      ],
      "stateMutability": "view",
      "type": "function"
    },
    {
      "inputs": [],
      "name": "VotesNeededToPass",
      "outputs": [
        {
          "internalType": "uint256",
          "name": "",
          "type": "uint256"
        }
      ],
      "stateMutability": "view",
      "type": "function"
    },
    {
      "inputs": [],
      "name": "XRCcontracts",
      "outputs": [
        {
          "internalType": "uint256",
          "name": "",
          "type": "uint256"
        }
      ],
      "stateMutability": "view",
      "type": "function"
    },
    {
      "inputs": [
        {
          "internalType": "address",
          "name": "account",
          "type": "address"
        },
        {
          "internalType": "uint256",
          "name": "id",
          "type": "uint256"
        }
      ],
      "name": "balanceOf",
      "outputs": [
        {
          "internalType": "uint256",
          "name": "",
          "type": "uint256"
        }
      ],
      "stateMutability": "view",
      "type": "function"
    },
    {
      "inputs": [
        {
          "internalType": "address[]",
          "name": "accounts",
          "type": "address[]"
        },
        {
          "internalType": "uint256[]",
          "name": "ids",
          "type": "uint256[]"
        }
      ],
      "name": "balanceOfBatch",
      "outputs": [
        {
          "internalType": "uint256[]",
          "name": "",
          "type": "uint256[]"
        }
      ],
      "stateMutability": "view",
      "type": "function"
    },
    {
      "inputs": [
        {
          "internalType": "address",
          "name": "account",
          "type": "address"
        },
        {
          "internalType": "address",
          "name": "operator",
          "type": "address"
        }
      ],
      "name": "isApprovedForAll",
      "outputs": [
        {
          "internalType": "bool",
          "name": "",
          "type": "bool"
        }
      ],
      "stateMutability": "view",
      "type": "function"
    },
    {
      "inputs": [
        {
          "internalType": "address",
          "name": "from",
          "type": "address"
        },
        {
          "internalType": "address",
          "name": "to",
          "type": "address"
        },
        {
          "internalType": "uint256[]",
          "name": "ids",
          "type": "uint256[]"
        },
        {
          "internalType": "uint256[]",
          "name": "amounts",
          "type": "uint256[]"
        },
        {
          "internalType": "bytes",
          "name": "data",
          "type": "bytes"
        }
      ],
      "name": "safeBatchTransferFrom",
      "outputs": [],
      "stateMutability": "nonpayable",
      "type": "function"
    },
    {
      "inputs": [
        {
          "internalType": "address",
          "name": "from",
          "type": "address"
        },
        {
          "internalType": "address",
          "name": "to",
          "type": "address"
        },
        {
          "internalType": "uint256",
          "name": "id",
          "type": "uint256"
        },
        {
          "internalType": "uint256",
          "name": "amount",
          "type": "uint256"
        },
        {
          "internalType": "bytes",
          "name": "data",
          "type": "bytes"
        }
      ],
      "name": "safeTransferFrom",
      "outputs": [],
      "stateMutability": "nonpayable",
      "type": "function"
    },
    {
      "inputs": [
        {
          "internalType": "address",
          "name": "operator",
          "type": "address"
        },
        {
          "internalType": "bool",
          "name": "approved",
          "type": "bool"
        }
      ],
      "name": "setApprovalForAll",
      "outputs": [],
      "stateMutability": "nonpayable",
      "type": "function"
    },
    {
      "inputs": [
        {
          "internalType": "bytes4",
          "name": "interfaceId",
          "type": "bytes4"
        }
      ],
      "name": "supportsInterface",
      "outputs": [
        {
          "internalType": "bool",
          "name": "",
          "type": "bool"
        }
      ],
      "stateMutability": "view",
      "type": "function"
    },
    {
      "inputs": [],
      "name": "totalKeys",
      "outputs": [
        {
          "internalType": "uint256",
          "name": "",
          "type": "uint256"
        }
      ],
      "stateMutability": "view",
      "type": "function"
    },
    {
      "inputs": [
        {
          "internalType": "uint256",
          "name": "",
          "type": "uint256"
        }
      ],
      "name": "uri",
      "outputs": [
        {
          "internalType": "string",
          "name": "",
          "type": "string"
        }
      ],
      "stateMutability": "view",
      "type": "function"
    },
    {
      "stateMutability": "payable",
      "type": "receive"
    },
    {
      "inputs": [
        {
          "internalType": "uint256",
          "name": "_keyNumb",
          "type": "uint256"
        },
        {
          "internalType": "uint256",
          "name": "_transNumb",
          "type": "uint256"
        }
      ],
      "name": "checkVote",
      "outputs": [
        {
          "internalType": "uint256",
          "name": "",
          "type": "uint256"
        },
        {
          "internalType": "bool",
          "name": "",
          "type": "bool"
        },
        {
          "internalType": "bool",
          "name": "",
          "type": "bool"
        }
      ],
      "stateMutability": "nonpayable",
      "type": "function"
    },
    {
      "inputs": [],
      "name": "ViewTransactions",
      "outputs": [
        {
          "components": [
            {
              "internalType": "uint256",
              "name": "amount",
              "type": "uint256"
            },
            {
              "internalType": "address",
              "name": "toAddress",
              "type": "address"
            },
            {
              "internalType": "string",
              "name": "topic",
              "type": "string"
            },
            {
              "internalType": "string",
              "name": "messege",
              "type": "string"
            },
            {
              "internalType": "bool",
              "name": "status",
              "type": "bool"
            },
            {
              "internalType": "uint256",
              "name": "pass",
              "type": "uint256"
            },
            {
              "internalType": "uint256",
              "name": "fail",
              "type": "uint256"
            },
            {
              "internalType": "uint256",
              "name": "voteCount",
              "type": "uint256"
            },
            {
              "internalType": "bool",
              "name": "exist",
              "type": "bool"
            },
            {
              "internalType": "address",
              "name": "XRC",
              "type": "address"
            },
            {
              "internalType": "uint256",
              "name": "tokenNumb",
              "type": "uint256"
            },
            {
              "internalType": "string",
              "name": "call",
              "type": "string"
            }
          ],
          "internalType": "struct MultiSigTreasury.MultiSigTransaction[]",
          "name": "",
          "type": "tuple[]"
        }
      ],
      "stateMutability": "nonpayable",
      "type": "function"
    },
    {
      "inputs": [
        {
          "internalType": "uint256[]",
          "name": "_amount",
          "type": "uint256[]"
        },
        {
          "internalType": "address[]",
          "name": "_address",
          "type": "address[]"
        },
        {
          "internalType": "string[]",
          "name": "_topic",
          "type": "string[]"
        }
      ],
      "name": "submitProposal",
      "outputs": [
        {
          "internalType": "bool",
          "name": "",
          "type": "bool"
        }
      ],
      "stateMutability": "nonpayable",
      "type": "function"
    },
    {
      "inputs": [
        {
          "internalType": "uint256",
          "name": "_TransactionNumber",
          "type": "uint256"
        },
        {
          "internalType": "bool",
          "name": "_vote",
          "type": "bool"
        },
        {
          "internalType": "uint256",
          "name": "_keyNumb",
          "type": "uint256"
        }
      ],
      "name": "confirmTransaction",
      "outputs": [
        {
          "internalType": "uint256",
          "name": "",
          "type": "uint256"
        },
        {
          "internalType": "uint256",
          "name": "",
          "type": "uint256"
        },
        {
          "internalType": "string",
          "name": "",
          "type": "string"
        }
      ],
      "stateMutability": "nonpayable",
      "type": "function"
    },
    {
      "inputs": [
        {
          "internalType": "uint256",
          "name": "_TransactionNumber",
          "type": "uint256"
        },
        {
          "internalType": "uint256",
          "name": "_keyNumb",
          "type": "uint256"
        }
      ],
      "name": "revokeConfirmation",
      "outputs": [
        {
          "internalType": "string",
          "name": "",
          "type": "string"
        }
      ],
      "stateMutability": "nonpayable",
      "type": "function"
    },
    {
      "inputs": [
        {
          "internalType": "address",
          "name": "",
          "type": "address"
        },
        {
          "internalType": "address",
          "name": "",
          "type": "address"
        },
        {
          "internalType": "uint256",
          "name": "",
          "type": "uint256"
        },
        {
          "internalType": "uint256",
          "name": "",
          "type": "uint256"
        },
        {
          "internalType": "bytes",
          "name": "",
          "type": "bytes"
        }
      ],
      "name": "onERC1155Received",
      "outputs": [
        {
          "internalType": "bytes4",
          "name": "",
          "type": "bytes4"
        }
      ],
      "stateMutability": "nonpayable",
      "type": "function"
    },
    {
      "inputs": [
        {
          "internalType": "address",
          "name": "",
          "type": "address"
        },
        {
          "internalType": "address",
          "name": "",
          "type": "address"
        },
        {
          "internalType": "uint256[]",
          "name": "",
          "type": "uint256[]"
        },
        {
          "internalType": "uint256[]",
          "name": "",
          "type": "uint256[]"
        },
        {
          "internalType": "bytes",
          "name": "",
          "type": "bytes"
        }
      ],
      "name": "onERC1155BatchReceived",
      "outputs": [
        {
          "internalType": "bytes4",
          "name": "",
          "type": "bytes4"
        }
      ],
      "stateMutability": "nonpayable",
      "type": "function"
    },
    {
      "inputs": [
        {
          "internalType": "address",
          "name": "",
          "type": "address"
        },
        {
          "internalType": "address",
          "name": "",
          "type": "address"
        },
        {
          "internalType": "uint256",
          "name": "",
          "type": "uint256"
        },
        {
          "internalType": "bytes",
          "name": "",
          "type": "bytes"
        }
      ],
      "name": "onERC721Received",
      "outputs": [
        {
          "internalType": "bytes4",
          "name": "",
          "type": "bytes4"
        }
      ],
      "stateMutability": "nonpayable",
      "type": "function"
    }
  ],
  "bytecode": "0x608060405260006003556000600455600060065560405162006bf838038062006bf883398181016040528101906200003891906200084e565b806200004a816200014760201b60201c565b508282111562000091576040517f08c379a0000000000000000000000000000000000000000000000000000000008152600401620000889062000950565b60405180910390fd5b826003819055508160058190555060005b838110156200013d57604051806040016040528082815260200160011515815250600760008381526020019081526020016000206000820151816000015560208201518160010160006101000a81548160ff0219169083151502179055509050506200012733826001604051806020016040528060008152506200016360201b60201c565b80806200013490620009a1565b915050620000a2565b5050505062000fbf565b80600290805190602001906200015f929190620005c6565b5050565b600073ffffffffffffffffffffffffffffffffffffffff168473ffffffffffffffffffffffffffffffffffffffff161415620001d6576040517f08c379a0000000000000000000000000000000000000000000000000000000008152600401620001cd9062000a65565b60405180910390fd5b6000620001e86200032860201b60201c565b9050620002218160008762000203886200033060201b60201c565b62000214886200033060201b60201c565b87620003b160201b60201c565b8260008086815260200190815260200160002060008773ffffffffffffffffffffffffffffffffffffffff1673ffffffffffffffffffffffffffffffffffffffff168152602001908152602001600020600082825462000282919062000a87565b925050819055508473ffffffffffffffffffffffffffffffffffffffff16600073ffffffffffffffffffffffffffffffffffffffff168273ffffffffffffffffffffffffffffffffffffffff167fc3d58168c5ae7397731d063d5bbf3d657854427343f4c083240f7aacaa2d0f6287876040516200030292919062000af5565b60405180910390a46200032181600087878787620003b960201b60201c565b5050505050565b600033905090565b60606000600167ffffffffffffffff811115620003525762000351620006e0565b5b604051908082528060200260200182016040528015620003815781602001602082028036833780820191505090505b50905082816000815181106200039c576200039b62000b22565b5b60200260200101818152505080915050919050565b505050505050565b620003e58473ffffffffffffffffffffffffffffffffffffffff16620005b360201b620022261760201c565b15620005ab578373ffffffffffffffffffffffffffffffffffffffff1663f23a6e6187878686866040518663ffffffff1660e01b81526004016200042e95949392919062000bf3565b6020604051808303816000875af19250505080156200046d57506040513d601f19601f820116820180604052508101906200046a919062000cb4565b60015b6200051f576200047c62000cf3565b806308c379a01415620004e057506200049462000d18565b80620004a15750620004e2565b806040517f08c379a0000000000000000000000000000000000000000000000000000000008152600401620004d7919062000e06565b60405180910390fd5b505b6040517f08c379a0000000000000000000000000000000000000000000000000000000008152600401620005169062000ea0565b60405180910390fd5b63f23a6e6160e01b7bffffffffffffffffffffffffffffffffffffffffffffffffffffffff1916817bffffffffffffffffffffffffffffffffffffffffffffffffffffffff191614620005a9576040517f08c379a0000000000000000000000000000000000000000000000000000000008152600401620005a09062000f38565b60405180910390fd5b505b505050505050565b600080823b905060008111915050919050565b828054620005d49062000f89565b90600052602060002090601f016020900481019282620005f8576000855562000644565b82601f106200061357805160ff191683800117855562000644565b8280016001018555821562000644579182015b828111156200064357825182559160200191906001019062000626565b5b50905062000653919062000657565b5090565b5b808211156200067257600081600090555060010162000658565b5090565b6000604051905090565b600080fd5b600080fd5b6000819050919050565b6200069f816200068a565b8114620006ab57600080fd5b50565b600081519050620006bf8162000694565b92915050565b600080fd5b600080fd5b6000601f19601f8301169050919050565b7f4e487b7100000000000000000000000000000000000000000000000000000000600052604160045260246000fd5b6200071a82620006cf565b810181811067ffffffffffffffff821117156200073c576200073b620006e0565b5b80604052505050565b60006200075162000676565b90506200075f82826200070f565b919050565b600067ffffffffffffffff821115620007825762000781620006e0565b5b6200078d82620006cf565b9050602081019050919050565b60005b83811015620007ba5780820151818401526020810190506200079d565b83811115620007ca576000848401525b50505050565b6000620007e7620007e18462000764565b62000745565b905082815260208101848484011115620008065762000805620006ca565b5b620008138482856200079a565b509392505050565b600082601f830112620008335762000832620006c5565b5b815162000845848260208601620007d0565b91505092915050565b6000806000606084860312156200086a576200086962000680565b5b60006200087a86828701620006ae565b93505060206200088d86828701620006ae565b925050604084015167ffffffffffffffff811115620008b157620008b062000685565b5b620008bf868287016200081b565b9150509250925092565b600082825260208201905092915050565b7f796f752063616e742068617665206d6f726520766f746573206e65656465642060008201527f7468616e206b6579732063726561746564000000000000000000000000000000602082015250565b600062000938603183620008c9565b91506200094582620008da565b604082019050919050565b600060208201905081810360008301526200096b8162000929565b9050919050565b7f4e487b7100000000000000000000000000000000000000000000000000000000600052601160045260246000fd5b6000620009ae826200068a565b91507fffffffffffffffffffffffffffffffffffffffffffffffffffffffffffffffff821415620009e457620009e362000972565b5b600182019050919050565b7f455243313135353a206d696e7420746f20746865207a65726f2061646472657360008201527f7300000000000000000000000000000000000000000000000000000000000000602082015250565b600062000a4d602183620008c9565b915062000a5a82620009ef565b604082019050919050565b6000602082019050818103600083015262000a808162000a3e565b9050919050565b600062000a94826200068a565b915062000aa1836200068a565b9250827fffffffffffffffffffffffffffffffffffffffffffffffffffffffffffffffff0382111562000ad95762000ad862000972565b5b828201905092915050565b62000aef816200068a565b82525050565b600060408201905062000b0c600083018562000ae4565b62000b1b602083018462000ae4565b9392505050565b7f4e487b7100000000000000000000000000000000000000000000000000000000600052603260045260246000fd5b600073ffffffffffffffffffffffffffffffffffffffff82169050919050565b600062000b7e8262000b51565b9050919050565b62000b908162000b71565b82525050565b600081519050919050565b600082825260208201905092915050565b600062000bbf8262000b96565b62000bcb818562000ba1565b935062000bdd8185602086016200079a565b62000be881620006cf565b840191505092915050565b600060a08201905062000c0a600083018862000b85565b62000c19602083018762000b85565b62000c28604083018662000ae4565b62000c37606083018562000ae4565b818103608083015262000c4b818462000bb2565b90509695505050505050565b60007fffffffff0000000000000000000000000000000000000000000000000000000082169050919050565b62000c8e8162000c57565b811462000c9a57600080fd5b50565b60008151905062000cae8162000c83565b92915050565b60006020828403121562000ccd5762000ccc62000680565b5b600062000cdd8482850162000c9d565b91505092915050565b60008160e01c9050919050565b600060033d111562000d155760046000803e62000d1260005162000ce6565b90505b90565b600060443d101562000d2a5762000db7565b62000d3462000676565b60043d036004823e80513d602482011167ffffffffffffffff8211171562000d5e57505062000db7565b808201805167ffffffffffffffff81111562000d7e575050505062000db7565b80602083010160043d03850181111562000d9d57505050505062000db7565b62000dae826020018501866200070f565b82955050505050505b90565b600081519050919050565b600062000dd28262000dba565b62000dde8185620008c9565b935062000df08185602086016200079a565b62000dfb81620006cf565b840191505092915050565b6000602082019050818103600083015262000e22818462000dc5565b905092915050565b7f455243313135353a207472616e7366657220746f206e6f6e204552433131353560008201527f526563656976657220696d706c656d656e746572000000000000000000000000602082015250565b600062000e88603483620008c9565b915062000e958262000e2a565b604082019050919050565b6000602082019050818103600083015262000ebb8162000e79565b9050919050565b7f455243313135353a204552433131353552656365697665722072656a6563746560008201527f6420746f6b656e73000000000000000000000000000000000000000000000000602082015250565b600062000f20602883620008c9565b915062000f2d8262000ec2565b604082019050919050565b6000602082019050818103600083015262000f538162000f11565b9050919050565b7f4e487b7100000000000000000000000000000000000000000000000000000000600052602260045260246000fd5b6000600282049050600182168062000fa257607f821691505b6020821081141562000fb95762000fb862000f5a565b5b50919050565b615c298062000fcf6000396000f3fe6080604052600436106101225760003560e01c8063a22cb465116100a0578063f23a6e6111610064578063f23a6e611461048c578063f242432a146104c9578063f3e394e8146104f2578063f84eef0b14610531578063fbcc9b991461056e57610162565b8063a22cb46514610393578063bc197c81146103bc578063cc0225a0146103f9578063cedb980f14610424578063e985e9c51461044f57610162565b80632eb2c2d6116100e75780632eb2c2d614610286578063488bdabc146102af5780634e1273f4146102da5780634eb4b1a11461031757806372ed02bc1461035657610162565b8062fdd58e1461016757806301ffc9a7146101a45780630e89341c146101e1578063108755e91461021e578063150b7a021461024957610162565b36610162577f88a5966d370b9919b20f3e2c13ff65706f196a4e32cc2c12bf57088f885258743334604051610158929190613857565b60405180910390a1005b600080fd5b34801561017357600080fd5b5061018e600480360381019061018991906138ec565b610599565b60405161019b919061392c565b60405180910390f35b3480156101b057600080fd5b506101cb60048036038101906101c6919061399f565b610662565b6040516101d891906139e7565b60405180910390f35b3480156101ed57600080fd5b5061020860048036038101906102039190613a02565b610744565b6040516102159190613ac8565b60405180910390f35b34801561022a57600080fd5b506102336107d8565b6040516102409190613d35565b60405180910390f35b34801561025557600080fd5b50610270600480360381019061026b9190613e8c565b610bc2565b60405161027d9190613f1e565b60405180910390f35b34801561029257600080fd5b506102ad60048036038101906102a89190614001565b610bd6565b005b3480156102bb57600080fd5b506102c4610c77565b6040516102d1919061392c565b60405180910390f35b3480156102e657600080fd5b5061030160048036038101906102fc9190614193565b610c7d565b60405161030e91906142ba565b60405180910390f35b34801561032357600080fd5b5061033e60048036038101906103399190614308565b610d96565b60405161034d9392919061435b565b60405180910390f35b34801561036257600080fd5b5061037d6004803603810190610378919061451b565b611097565b60405161038a91906139e7565b60405180910390f35b34801561039f57600080fd5b506103ba60048036038101906103b591906145c2565b611b62565b005b3480156103c857600080fd5b506103e360048036038101906103de9190614001565b611b78565b6040516103f09190613f1e565b60405180910390f35b34801561040557600080fd5b5061040e611b8d565b60405161041b919061392c565b60405180910390f35b34801561043057600080fd5b50610439611b93565b604051610446919061392c565b60405180910390f35b34801561045b57600080fd5b5061047660048036038101906104719190614602565b611b99565b60405161048391906139e7565b60405180910390f35b34801561049857600080fd5b506104b360048036038101906104ae9190614642565b611c2d565b6040516104c09190613f1e565b60405180910390f35b3480156104d557600080fd5b506104f060048036038101906104eb9190614642565b611c42565b005b3480156104fe57600080fd5b50610519600480360381019061051491906146d9565b611ce3565b60405161052893929190614719565b60405180910390f35b34801561053d57600080fd5b50610558600480360381019061055391906146d9565b611e05565b6040516105659190613ac8565b60405180910390f35b34801561057a57600080fd5b50610583612220565b604051610590919061392c565b60405180910390f35b60008073ffffffffffffffffffffffffffffffffffffffff168373ffffffffffffffffffffffffffffffffffffffff16141561060a576040517f08c379a0000000000000000000000000000000000000000000000000000000008152600401610601906147c2565b60405180910390fd5b60008083815260200190815260200160002060008473ffffffffffffffffffffffffffffffffffffffff1673ffffffffffffffffffffffffffffffffffffffff16815260200190815260200160002054905092915050565b60007fd9b67a26000000000000000000000000000000000000000000000000000000007bffffffffffffffffffffffffffffffffffffffffffffffffffffffff1916827bffffffffffffffffffffffffffffffffffffffffffffffffffffffff1916148061072d57507f0e89341c000000000000000000000000000000000000000000000000000000007bffffffffffffffffffffffffffffffffffffffffffffffffffffffff1916827bffffffffffffffffffffffffffffffffffffffffffffffffffffffff1916145b8061073d575061073c82612239565b5b9050919050565b60606002805461075390614811565b80601f016020809104026020016040519081016040528092919081815260200182805461077f90614811565b80156107cc5780601f106107a1576101008083540402835291602001916107cc565b820191906000526020600020905b8154815290600101906020018083116107af57829003601f168201915b50505050509050919050565b60606000806107e6336122a3565b915091506001151582151514610831576040517f08c379a0000000000000000000000000000000000000000000000000000000008152600401610828906148b5565b60405180910390fd5b600060045467ffffffffffffffff81111561084f5761084e613d61565b5b60405190808252806020026020018201604052801561088857816020015b6108756136c9565b81526020019060019003908161086d5790505b50905060005b600454811015610bb85760006009600083815260200190815260200160002090508060405180610180016040529081600082015481526020016001820160009054906101000a900473ffffffffffffffffffffffffffffffffffffffff1673ffffffffffffffffffffffffffffffffffffffff1673ffffffffffffffffffffffffffffffffffffffff16815260200160028201805461092c90614811565b80601f016020809104026020016040519081016040528092919081815260200182805461095890614811565b80156109a55780601f1061097a576101008083540402835291602001916109a5565b820191906000526020600020905b81548152906001019060200180831161098857829003601f168201915b505050505081526020016003820180546109be90614811565b80601f01602080910402602001604051908101604052809291908181526020018280546109ea90614811565b8015610a375780601f10610a0c57610100808354040283529160200191610a37565b820191906000526020600020905b815481529060010190602001808311610a1a57829003601f168201915b505050505081526020016004820160009054906101000a900460ff161515151581526020016005820154815260200160068201548152602001600782015481526020016008820160009054906101000a900460ff161515151581526020016008820160019054906101000a900473ffffffffffffffffffffffffffffffffffffffff1673ffffffffffffffffffffffffffffffffffffffff1673ffffffffffffffffffffffffffffffffffffffff16815260200160098201548152602001600a82018054610b0490614811565b80601f0160208091040260200160405190810160405280929190818152602001828054610b3090614811565b8015610b7d5780601f10610b5257610100808354040283529160200191610b7d565b820191906000526020600020905b815481529060010190602001808311610b6057829003601f168201915b505050505081525050838381518110610b9957610b986148d5565b5b6020026020010181905250508080610bb090614933565b91505061088e565b5080935050505090565b600063150b7a0260e01b9050949350505050565b610bde612302565b73ffffffffffffffffffffffffffffffffffffffff168573ffffffffffffffffffffffffffffffffffffffff161480610c245750610c2385610c1e612302565b611b99565b5b610c63576040517f08c379a0000000000000000000000000000000000000000000000000000000008152600401610c5a906149ee565b60405180910390fd5b610c70858585858561230a565b5050505050565b60035481565b60608151835114610cc3576040517f08c379a0000000000000000000000000000000000000000000000000000000008152600401610cba90614a80565b60405180910390fd5b6000835167ffffffffffffffff811115610ce057610cdf613d61565b5b604051908082528060200260200182016040528015610d0e5781602001602082028036833780820191505090505b50905060005b8451811015610d8b57610d5b858281518110610d3357610d326148d5565b5b6020026020010151858381518110610d4e57610d4d6148d5565b5b6020026020010151610599565b828281518110610d6e57610d6d6148d5565b5b60200260200101818152505080610d8490614933565b9050610d14565b508091505092915050565b6000806060600080610da7336122a3565b915091506001151582151514610df2576040517f08c379a0000000000000000000000000000000000000000000000000000000008152600401610de9906148b5565b60405180910390fd5b6060610dfd8961261e565b610e068861261e565b604051602001610e17929190614b28565b604051602081830303815290604052905060001515600960008b815260200190815260200160002060040160009054906101000a900460ff16151514610e92576040517f08c379a0000000000000000000000000000000000000000000000000000000008152600401610e8990614bef565b60405180910390fd5b60001515600882604051610ea69190614c0f565b908152602001604051809103902060010160019054906101000a900460ff16151514610f07576040517f08c379a0000000000000000000000000000000000000000000000000000000008152600401610efe90614c72565b60405180910390fd5b60011515610f148861277f565b151514610f56576040517f08c379a0000000000000000000000000000000000000000000000000000000008152600401610f4d90614d04565b60405180910390fd5b6040518060600160405280888152602001891515815260200160011515815250600882604051610f869190614c0f565b90815260200160405180910390206000820151816000015560208201518160010160006101000a81548160ff02191690831515021790555060408201518160010160016101000a81548160ff02191690831515021790555090505060011515881515141561101f57600960008a8152602001908152602001600020600501600081548092919061101590614933565b919050555061104c565b600960008a8152602001908152602001600020600601600081548092919061104690614933565b91905055505b611055896127ee565b50600960008a815260200190815260200160002060050154600960008b8152602001908152602001600020600601548295509550955050505093509350939050565b60008060006110a5336122a3565b9150915060011515821515146110f0576040517f08c379a00000000000000000000000000000000000000000000000000000000081526004016110e7906148b5565b60405180910390fd5b6001855114156114d3578560008151811061110e5761110d6148d5565b5b60200260200101518560018151811061112a576111296148d5565b5b602002602001015173ffffffffffffffffffffffffffffffffffffffff166370a08231306040518263ffffffff1660e01b815260040161116a9190614d24565b602060405180830381865afa158015611187573d6000803e3d6000fd5b505050506040513d601f19601f820116820180604052508101906111ab9190614d54565b10156111ec576040517f08c379a00000000000000000000000000000000000000000000000000000000081526004016111e390614dcd565b60405180910390fd5b6040518061018001604052808760008151811061120c5761120b6148d5565b5b602002602001015181526020018660008151811061122d5761122c6148d5565b5b602002602001015173ffffffffffffffffffffffffffffffffffffffff16815260200185600081518110611264576112636148d5565b5b6020026020010151815260200185600181518110611285576112846148d5565b5b60200260200101518152602001600015158152602001600081526020016000815260200160008152602001600115158152602001600073ffffffffffffffffffffffffffffffffffffffff168152602001600081526020016113038651876002815181106112f6576112f56148d5565b5b60200260200101516128ba565b8152506009600060045481526020019081526020016000206000820151816000015560208201518160010160006101000a81548173ffffffffffffffffffffffffffffffffffffffff021916908373ffffffffffffffffffffffffffffffffffffffff160217905550604082015181600201908051906020019061138892919061375a565b5060608201518160030190805190602001906113a592919061375a565b5060808201518160040160006101000a81548160ff02191690831515021790555060a0820151816005015560c0820151816006015560e082015181600701556101008201518160080160006101000a81548160ff0219169083151502179055506101208201518160080160016101000a81548173ffffffffffffffffffffffffffffffffffffffff021916908373ffffffffffffffffffffffffffffffffffffffff160217905550610140820151816009015561016082015181600a01908051906020019061147592919061375a565b509050507fd4ee4c40018e17ae8df92f575f9b7219d84988c16520c1f82d71873c99108a9c6004546040516114aa9190614e39565b60405180910390a1600460008154809291906114c590614933565b919050555060019250611b59565b600285511480156114e5575060018651145b1561183357856000815181106114fe576114fd6148d5565b5b6020026020010151471015611548576040517f08c379a000000000000000000000000000000000000000000000000000000000815260040161153f90614eb3565b60405180910390fd5b60405180610180016040528087600081518110611568576115676148d5565b5b6020026020010151815260200186600081518110611589576115886148d5565b5b602002602001015173ffffffffffffffffffffffffffffffffffffffff168152602001856000815181106115c0576115bf6148d5565b5b60200260200101518152602001856001815181106115e1576115e06148d5565b5b6020026020010151815260200160001515815260200160008152602001600081526020016000815260200160011515815260200186600181518110611629576116286148d5565b5b602002602001015173ffffffffffffffffffffffffffffffffffffffff16815260200160008152602001604051806020016040528060008152508152506009600060045481526020019081526020016000206000820151816000015560208201518160010160006101000a81548173ffffffffffffffffffffffffffffffffffffffff021916908373ffffffffffffffffffffffffffffffffffffffff16021790555060408201518160020190805190602001906116e892919061375a565b50606082015181600301908051906020019061170592919061375a565b5060808201518160040160006101000a81548160ff02191690831515021790555060a0820151816005015560c0820151816006015560e082015181600701556101008201518160080160006101000a81548160ff0219169083151502179055506101208201518160080160016101000a81548173ffffffffffffffffffffffffffffffffffffffff021916908373ffffffffffffffffffffffffffffffffffffffff160217905550610140820151816009015561016082015181600a0190805190602001906117d592919061375a565b509050507fd4ee4c40018e17ae8df92f575f9b7219d84988c16520c1f82d71873c99108a9c60045460405161180a9190614f1f565b60405180910390a16004600081548092919061182590614933565b919050555060019250611b59565b60028651148015611845575060028651145b15611b4b576040518061018001604052808760008151811061186a576118696148d5565b5b602002602001015181526020018660008151811061188b5761188a6148d5565b5b602002602001015173ffffffffffffffffffffffffffffffffffffffff168152602001856000815181106118c2576118c16148d5565b5b60200260200101518152602001856001815181106118e3576118e26148d5565b5b602002602001015181526020016000151581526020016000815260200160008152602001600081526020016001151581526020018660018151811061192b5761192a6148d5565b5b602002602001015173ffffffffffffffffffffffffffffffffffffffff16815260200187600181518110611962576119616148d5565b5b60200260200101518152602001604051806020016040528060008152508152506009600060045481526020019081526020016000206000820151816000015560208201518160010160006101000a81548173ffffffffffffffffffffffffffffffffffffffff021916908373ffffffffffffffffffffffffffffffffffffffff1602179055506040820151816002019080519060200190611a0492919061375a565b506060820151816003019080519060200190611a2192919061375a565b5060808201518160040160006101000a81548160ff02191690831515021790555060a0820151816005015560c0820151816006015560e082015181600701556101008201518160080160006101000a81548160ff0219169083151502179055506101208201518160080160016101000a81548173ffffffffffffffffffffffffffffffffffffffff021916908373ffffffffffffffffffffffffffffffffffffffff160217905550610140820151816009015561016082015181600a019080519060200190611af192919061375a565b509050507fd4ee4c40018e17ae8df92f575f9b7219d84988c16520c1f82d71873c99108a9c600454604051611b269190614fbf565b60405180910390a160046000815480929190611b4190614933565b9190505550611b54565b60009250611b59565b600192505b50509392505050565b611b74611b6d612302565b83836128e6565b5050565b600063bc197c8160e01b905095945050505050565b60045481565b60055481565b6000600160008473ffffffffffffffffffffffffffffffffffffffff1673ffffffffffffffffffffffffffffffffffffffff16815260200190815260200160002060008373ffffffffffffffffffffffffffffffffffffffff1673ffffffffffffffffffffffffffffffffffffffff16815260200190815260200160002060009054906101000a900460ff16905092915050565b600063f23a6e6160e01b905095945050505050565b611c4a612302565b73ffffffffffffffffffffffffffffffffffffffff168573ffffffffffffffffffffffffffffffffffffffff161480611c905750611c8f85611c8a612302565b611b99565b5b611ccf576040517f08c379a0000000000000000000000000000000000000000000000000000000008152600401611cc69061505f565b60405180910390fd5b611cdc8585858585612a53565b5050505050565b6000806000806000611cf4336122a3565b915091506001151582151514611d3f576040517f08c379a0000000000000000000000000000000000000000000000000000000008152600401611d36906148b5565b60405180910390fd5b6060611d4a8761261e565b611d538961261e565b604051602001611d64929190614b28565b6040516020818303038152906040529050600881604051611d859190614c0f565b908152602001604051809103902060000154600882604051611da79190614c0f565b908152602001604051809103902060010160009054906101000a900460ff16600883604051611dd69190614c0f565b908152602001604051809103902060010160019054906101000a900460ff169550955095505050509250925092565b6060600080611e13336122a3565b915091506001151582151514611e5e576040517f08c379a0000000000000000000000000000000000000000000000000000000008152600401611e55906148b5565b60405180910390fd5b6000611e698661261e565b611e728661261e565b604051602001611e83929190614b28565b6040516020818303038152906040529050600015156009600088815260200190815260200160002060040160009054906101000a900460ff161515148015611ef25750600115156009600088815260200190815260200160002060080160009054906101000a900460ff161515145b611f31576040517f08c379a0000000000000000000000000000000000000000000000000000000008152600401611f28906150cb565b60405180910390fd5b60011515600882604051611f459190614c0f565b908152602001604051809103902060010160019054906101000a900460ff16151514611fa6576040517f08c379a0000000000000000000000000000000000000000000000000000000008152600401611f9d90615137565b60405180910390fd5b60011515611fb38661277f565b151514611ff5576040517f08c379a0000000000000000000000000000000000000000000000000000000008152600401611fec90614d04565b60405180910390fd5b600115156008826040516120099190614c0f565b908152602001604051809103902060010160009054906101000a900460ff16151514156121265760096000878152602001908152602001600020600501600081548092919061205790615157565b919050555060405180606001604052808681526020016000151581526020016000151581525060088260405161208d9190614c0f565b90815260200160405180910390206000820151816000015560208201518160010160006101000a81548160ff02191690831515021790555060408201518160010160016101000a81548160ff0219169083151502179055509050506040518060400160405280601581526020017f566f74652052656d6f76656420506173733a202d310000000000000000000000815250935050612218565b60096000878152602001908152602001600020600601600081548092919061214d90615157565b91905055506040518060600160405280868152602001600015158152602001600015158152506008826040516121839190614c0f565b90815260200160405180910390206000820151816000015560208201518160010160006101000a81548160ff02191690831515021790555060408201518160010160016101000a81548160ff0219169083151502179055509050506040518060400160405280601581526020017f566f74652052656d6f766564204661696c3a202d3100000000000000000000008152509350505b505092915050565b60065481565b600080823b905060008111915050919050565b60007f01ffc9a7000000000000000000000000000000000000000000000000000000007bffffffffffffffffffffffffffffffffffffffffffffffffffffffff1916827bffffffffffffffffffffffffffffffffffffffffffffffffffffffff1916149050919050565b60008060005b60035481116122fb5760006122be8583610599565b11156122d15760018192509250506122fd565b6003548114156122e85760008192509250506122fd565b80806122f390614933565b9150506122a9565b505b915091565b600033905090565b815183511461234e576040517f08c379a0000000000000000000000000000000000000000000000000000000008152600401612345906151f3565b60405180910390fd5b600073ffffffffffffffffffffffffffffffffffffffff168473ffffffffffffffffffffffffffffffffffffffff1614156123be576040517f08c379a00000000000000000000000000000000000000000000000000000000081526004016123b590615285565b60405180910390fd5b60006123c8612302565b90506123d8818787878787612cd5565b60005b84518110156125895760008582815181106123f9576123f86148d5565b5b602002602001015190506000858381518110612418576124176148d5565b5b60200260200101519050600080600084815260200190815260200160002060008b73ffffffffffffffffffffffffffffffffffffffff1673ffffffffffffffffffffffffffffffffffffffff168152602001908152602001600020549050818110156124b9576040517f08c379a00000000000000000000000000000000000000000000000000000000081526004016124b090615317565b60405180910390fd5b81810360008085815260200190815260200160002060008c73ffffffffffffffffffffffffffffffffffffffff1673ffffffffffffffffffffffffffffffffffffffff168152602001908152602001600020819055508160008085815260200190815260200160002060008b73ffffffffffffffffffffffffffffffffffffffff1673ffffffffffffffffffffffffffffffffffffffff168152602001908152602001600020600082825461256e9190615337565b925050819055505050508061258290614933565b90506123db565b508473ffffffffffffffffffffffffffffffffffffffff168673ffffffffffffffffffffffffffffffffffffffff168273ffffffffffffffffffffffffffffffffffffffff167f4a39dc06d4c0dbc64b70af90fd698a233a518aa5d07e595d983b8c0526c8f7fb878760405161260092919061538d565b60405180910390a4612616818787878787612cdd565b505050505050565b60606000821415612666576040518060400160405280600181526020017f3000000000000000000000000000000000000000000000000000000000000000815250905061277a565b600082905060005b6000821461269857808061268190614933565b915050600a8261269191906153f3565b915061266e565b60008167ffffffffffffffff8111156126b4576126b3613d61565b5b6040519080825280601f01601f1916602001820160405280156126e65781602001600182028036833780820191505090505b5090505b60008514612773576001826126ff9190615424565b9150600a8561270e9190615458565b603061271a9190615337565b60f81b8183815181106127305761272f6148d5565b5b60200101907effffffffffffffffffffffffffffffffffffffffffffffffffffffffffffff1916908160001a905350600a8561276c91906153f3565b94506126ea565b8093505050505b919050565b600080600061278d336122a3565b91509150600115158215151480156127a457508381145b6127e3576040517f08c379a00000000000000000000000000000000000000000000000000000000081526004016127da906148b5565b60405180910390fd5b600192505050919050565b60006005546009600084815260200190815260200160002060050154106128225761281882612eb5565b50600190506128b5565b6005546009600084815260200190815260200160002060060154106128b05760016009600084815260200190815260200160002060040160006101000a81548160ff0219169083151502179055507fc56428a2da1dbb4029c0420eaa0c7f7b2e3640b4ac915b15512bcfa2ace3a9358260405161289f91906154d5565b60405180910390a1600190506128b5565b600090505b919050565b606060028314156128cd578190506128e0565b6040518060200160405280600081525090505b92915050565b8173ffffffffffffffffffffffffffffffffffffffff168373ffffffffffffffffffffffffffffffffffffffff161415612955576040517f08c379a000000000000000000000000000000000000000000000000000000000815260040161294c90615575565b60405180910390fd5b80600160008573ffffffffffffffffffffffffffffffffffffffff1673ffffffffffffffffffffffffffffffffffffffff16815260200190815260200160002060008473ffffffffffffffffffffffffffffffffffffffff1673ffffffffffffffffffffffffffffffffffffffff16815260200190815260200160002060006101000a81548160ff0219169083151502179055508173ffffffffffffffffffffffffffffffffffffffff168373ffffffffffffffffffffffffffffffffffffffff167f17307eab39ab6107e8899845ad3d59bd9653f200f220920489ca2b5937696c3183604051612a4691906139e7565b60405180910390a3505050565b600073ffffffffffffffffffffffffffffffffffffffff168473ffffffffffffffffffffffffffffffffffffffff161415612ac3576040517f08c379a0000000000000000000000000000000000000000000000000000000008152600401612aba90615285565b60405180910390fd5b6000612acd612302565b9050612aed818787612ade886132fe565b612ae7886132fe565b87612cd5565b600080600086815260200190815260200160002060008873ffffffffffffffffffffffffffffffffffffffff1673ffffffffffffffffffffffffffffffffffffffff16815260200190815260200160002054905083811015612b84576040517f08c379a0000000000000000000000000000000000000000000000000000000008152600401612b7b90615317565b60405180910390fd5b83810360008087815260200190815260200160002060008973ffffffffffffffffffffffffffffffffffffffff1673ffffffffffffffffffffffffffffffffffffffff168152602001908152602001600020819055508360008087815260200190815260200160002060008873ffffffffffffffffffffffffffffffffffffffff1673ffffffffffffffffffffffffffffffffffffffff1681526020019081526020016000206000828254612c399190615337565b925050819055508573ffffffffffffffffffffffffffffffffffffffff168773ffffffffffffffffffffffffffffffffffffffff168373ffffffffffffffffffffffffffffffffffffffff167fc3d58168c5ae7397731d063d5bbf3d657854427343f4c083240f7aacaa2d0f628888604051612cb6929190615595565b60405180910390a4612ccc828888888888613378565b50505050505050565b505050505050565b612cfc8473ffffffffffffffffffffffffffffffffffffffff16612226565b15612ead578373ffffffffffffffffffffffffffffffffffffffff1663bc197c8187878686866040518663ffffffff1660e01b8152600401612d42959493929190615613565b6020604051808303816000875af1925050508015612d7e57506040513d601f19601f82011682018060405250810190612d7b9190615690565b60015b612e2457612d8a6156ca565b806308c379a01415612de75750612d9f6156ec565b80612daa5750612de9565b806040517f08c379a0000000000000000000000000000000000000000000000000000000008152600401612dde9190613ac8565b60405180910390fd5b505b6040517f08c379a0000000000000000000000000000000000000000000000000000000008152600401612e1b906157f4565b60405180910390fd5b63bc197c8160e01b7bffffffffffffffffffffffffffffffffffffffffffffffffffffffff1916817bffffffffffffffffffffffffffffffffffffffffffffffffffffffff191614612eab576040517f08c379a0000000000000000000000000000000000000000000000000000000008152600401612ea290615886565b60405180910390fd5b505b505050505050565b6000806009600084815260200190815260200160002060010160009054906101000a900473ffffffffffffffffffffffffffffffffffffffff16905060016009600085815260200190815260200160002060040160006101000a81548160ff021916908315150217905550600073ffffffffffffffffffffffffffffffffffffffff166009600085815260200190815260200160002060080160019054906101000a900473ffffffffffffffffffffffffffffffffffffffff1673ffffffffffffffffffffffffffffffffffffffff1614156130b857600073ffffffffffffffffffffffffffffffffffffffff168173ffffffffffffffffffffffffffffffffffffffff161415612ffc577f0ddc4077bcacb7dadbb6cb99a8ca4a3d1f651667ee0d4e7de7f2b71b00074b5883604051612fef91906158f2565b60405180910390a16130b3565b6009600084815260200190815260200160002060000154471015613055576040517f08c379a000000000000000000000000000000000000000000000000000000000815260040161304c90615992565b60405180910390fd5b8073ffffffffffffffffffffffffffffffffffffffff166108fc60096000868152602001908152602001600020600001549081150290604051600060405180830381858888f193505050501580156130b1573d6000803e3d6000fd5b505b6132bd565b60006009600085815260200190815260200160002060090154141580156131425750600073ffffffffffffffffffffffffffffffffffffffff166009600085815260200190815260200160002060080160019054906101000a900473ffffffffffffffffffffffffffffffffffffffff1673ffffffffffffffffffffffffffffffffffffffff1614155b1561324d576009600084815260200190815260200160002060080160019054906101000a900473ffffffffffffffffffffffffffffffffffffffff1673ffffffffffffffffffffffffffffffffffffffff1663a9059cbb6009600086815260200190815260200160002060010160009054906101000a900473ffffffffffffffffffffffffffffffffffffffff1660096000878152602001908152602001600020600001546040518363ffffffff1660e01b8152600401613204929190613857565b6020604051808303816000875af1158015613223573d6000803e3d6000fd5b505050506040513d601f19601f8201168201806040525081019061324791906159c7565b506132bc565b6132ba6009600085815260200190815260200160002060080160019054906101000a900473ffffffffffffffffffffffffffffffffffffffff1660096000868152602001908152602001600020600901546009600087815260200190815260200160002060000154613550565b505b5b7fc56428a2da1dbb4029c0420eaa0c7f7b2e3640b4ac915b15512bcfa2ace3a935836040516132ec9190615a40565b60405180910390a16001915050919050565b60606000600167ffffffffffffffff81111561331d5761331c613d61565b5b60405190808252806020026020018201604052801561334b5781602001602082028036833780820191505090505b5090508281600081518110613363576133626148d5565b5b60200260200101818152505080915050919050565b6133978473ffffffffffffffffffffffffffffffffffffffff16612226565b15613548578373ffffffffffffffffffffffffffffffffffffffff1663f23a6e6187878686866040518663ffffffff1660e01b81526004016133dd959493929190615a6e565b6020604051808303816000875af192505050801561341957506040513d601f19601f820116820180604052508101906134169190615690565b60015b6134bf576134256156ca565b806308c379a01415613482575061343a6156ec565b806134455750613484565b806040517f08c379a00000000000000000000000000000000000000000000000000000000081526004016134799190613ac8565b60405180910390fd5b505b6040517f08c379a00000000000000000000000000000000000000000000000000000000081526004016134b6906157f4565b60405180910390fd5b63f23a6e6160e01b7bffffffffffffffffffffffffffffffffffffffffffffffffffffffff1916817bffffffffffffffffffffffffffffffffffffffffffffffffffffffff191614613546576040517f08c379a000000000000000000000000000000000000000000000000000000000815260040161353d90615886565b60405180910390fd5b505b505050505050565b6000600115158473ffffffffffffffffffffffffffffffffffffffff166301ffc9a76380ac58cd6040518263ffffffff1660e01b81526004016135939190615b10565b602060405180830381865afa1580156135b0573d6000803e3d6000fd5b505050506040513d601f19601f820116820180604052508101906135d491906159c7565b15151415613650578373ffffffffffffffffffffffffffffffffffffffff1663b88d4fde3086866040518463ffffffff1660e01b815260040161361993929190615b51565b600060405180830381600087803b15801561363357600080fd5b505af1158015613647573d6000803e3d6000fd5b505050506136c2565b8373ffffffffffffffffffffffffffffffffffffffff1663f242432a308686866040518563ffffffff1660e01b815260040161368f9493929190615b9b565b600060405180830381600087803b1580156136a957600080fd5b505af11580156136bd573d6000803e3d6000fd5b505050505b9392505050565b60405180610180016040528060008152602001600073ffffffffffffffffffffffffffffffffffffffff1681526020016060815260200160608152602001600015158152602001600081526020016000815260200160008152602001600015158152602001600073ffffffffffffffffffffffffffffffffffffffff16815260200160008152602001606081525090565b82805461376690614811565b90600052602060002090601f01602090048101928261378857600085556137cf565b82601f106137a157805160ff19168380011785556137cf565b828001600101855582156137cf579182015b828111156137ce5782518255916020019190600101906137b3565b5b5090506137dc91906137e0565b5090565b5b808211156137f95760008160009055506001016137e1565b5090565b600073ffffffffffffffffffffffffffffffffffffffff82169050919050565b6000613828826137fd565b9050919050565b6138388161381d565b82525050565b6000819050919050565b6138518161383e565b82525050565b600060408201905061386c600083018561382f565b6138796020830184613848565b9392505050565b6000604051905090565b600080fd5b600080fd5b61389d8161381d565b81146138a857600080fd5b50565b6000813590506138ba81613894565b92915050565b6138c98161383e565b81146138d457600080fd5b50565b6000813590506138e6816138c0565b92915050565b600080604083850312156139035761390261388a565b5b6000613911858286016138ab565b9250506020613922858286016138d7565b9150509250929050565b60006020820190506139416000830184613848565b92915050565b60007fffffffff0000000000000000000000000000000000000000000000000000000082169050919050565b61397c81613947565b811461398757600080fd5b50565b60008135905061399981613973565b92915050565b6000602082840312156139b5576139b461388a565b5b60006139c38482850161398a565b91505092915050565b60008115159050919050565b6139e1816139cc565b82525050565b60006020820190506139fc60008301846139d8565b92915050565b600060208284031215613a1857613a1761388a565b5b6000613a26848285016138d7565b91505092915050565b600081519050919050565b600082825260208201905092915050565b60005b83811015613a69578082015181840152602081019050613a4e565b83811115613a78576000848401525b50505050565b6000601f19601f8301169050919050565b6000613a9a82613a2f565b613aa48185613a3a565b9350613ab4818560208601613a4b565b613abd81613a7e565b840191505092915050565b60006020820190508181036000830152613ae28184613a8f565b905092915050565b600081519050919050565b600082825260208201905092915050565b6000819050602082019050919050565b613b1f8161383e565b82525050565b613b2e8161381d565b82525050565b600082825260208201905092915050565b6000613b5082613a2f565b613b5a8185613b34565b9350613b6a818560208601613a4b565b613b7381613a7e565b840191505092915050565b613b87816139cc565b82525050565b600061018083016000830151613ba66000860182613b16565b506020830151613bb96020860182613b25565b5060408301518482036040860152613bd18282613b45565b91505060608301518482036060860152613beb8282613b45565b9150506080830151613c006080860182613b7e565b5060a0830151613c1360a0860182613b16565b5060c0830151613c2660c0860182613b16565b5060e0830151613c3960e0860182613b16565b50610100830151613c4e610100860182613b7e565b50610120830151613c63610120860182613b25565b50610140830151613c78610140860182613b16565b50610160830151848203610160860152613c928282613b45565b9150508091505092915050565b6000613cab8383613b8d565b905092915050565b6000602082019050919050565b6000613ccb82613aea565b613cd58185613af5565b935083602082028501613ce785613b06565b8060005b85811015613d235784840389528151613d048582613c9f565b9450613d0f83613cb3565b925060208a01995050600181019050613ceb565b50829750879550505050505092915050565b60006020820190508181036000830152613d4f8184613cc0565b905092915050565b600080fd5b600080fd5b7f4e487b7100000000000000000000000000000000000000000000000000000000600052604160045260246000fd5b613d9982613a7e565b810181811067ffffffffffffffff82111715613db857613db7613d61565b5b80604052505050565b6000613dcb613880565b9050613dd78282613d90565b919050565b600067ffffffffffffffff821115613df757613df6613d61565b5b613e0082613a7e565b9050602081019050919050565b82818337600083830152505050565b6000613e2f613e2a84613ddc565b613dc1565b905082815260208101848484011115613e4b57613e4a613d5c565b5b613e56848285613e0d565b509392505050565b600082601f830112613e7357613e72613d57565b5b8135613e83848260208601613e1c565b91505092915050565b60008060008060808587031215613ea657613ea561388a565b5b6000613eb4878288016138ab565b9450506020613ec5878288016138ab565b9350506040613ed6878288016138d7565b925050606085013567ffffffffffffffff811115613ef757613ef661388f565b5b613f0387828801613e5e565b91505092959194509250565b613f1881613947565b82525050565b6000602082019050613f336000830184613f0f565b92915050565b600067ffffffffffffffff821115613f5457613f53613d61565b5b602082029050602081019050919050565b600080fd5b6000613f7d613f7884613f39565b613dc1565b90508083825260208201905060208402830185811115613fa057613f9f613f65565b5b835b81811015613fc95780613fb588826138d7565b845260208401935050602081019050613fa2565b5050509392505050565b600082601f830112613fe857613fe7613d57565b5b8135613ff8848260208601613f6a565b91505092915050565b600080600080600060a0868803121561401d5761401c61388a565b5b600061402b888289016138ab565b955050602061403c888289016138ab565b945050604086013567ffffffffffffffff81111561405d5761405c61388f565b5b61406988828901613fd3565b935050606086013567ffffffffffffffff81111561408a5761408961388f565b5b61409688828901613fd3565b925050608086013567ffffffffffffffff8111156140b7576140b661388f565b5b6140c388828901613e5e565b9150509295509295909350565b600067ffffffffffffffff8211156140eb576140ea613d61565b5b602082029050602081019050919050565b600061410f61410a846140d0565b613dc1565b9050808382526020820190506020840283018581111561413257614131613f65565b5b835b8181101561415b578061414788826138ab565b845260208401935050602081019050614134565b5050509392505050565b600082601f83011261417a57614179613d57565b5b813561418a8482602086016140fc565b91505092915050565b600080604083850312156141aa576141a961388a565b5b600083013567ffffffffffffffff8111156141c8576141c761388f565b5b6141d485828601614165565b925050602083013567ffffffffffffffff8111156141f5576141f461388f565b5b61420185828601613fd3565b9150509250929050565b600081519050919050565b600082825260208201905092915050565b6000819050602082019050919050565b60006142438383613b16565b60208301905092915050565b6000602082019050919050565b60006142678261420b565b6142718185614216565b935061427c83614227565b8060005b838110156142ad5781516142948882614237565b975061429f8361424f565b925050600181019050614280565b5085935050505092915050565b600060208201905081810360008301526142d4818461425c565b905092915050565b6142e5816139cc565b81146142f057600080fd5b50565b600081359050614302816142dc565b92915050565b6000806000606084860312156143215761432061388a565b5b600061432f868287016138d7565b9350506020614340868287016142f3565b9250506040614351868287016138d7565b9150509250925092565b60006060820190506143706000830186613848565b61437d6020830185613848565b818103604083015261438f8184613a8f565b9050949350505050565b600067ffffffffffffffff8211156143b4576143b3613d61565b5b602082029050602081019050919050565b600067ffffffffffffffff8211156143e0576143df613d61565b5b6143e982613a7e565b9050602081019050919050565b6000614409614404846143c5565b613dc1565b90508281526020810184848401111561442557614424613d5c565b5b614430848285613e0d565b509392505050565b600082601f83011261444d5761444c613d57565b5b813561445d8482602086016143f6565b91505092915050565b600061447961447484614399565b613dc1565b9050808382526020820190506020840283018581111561449c5761449b613f65565b5b835b818110156144e357803567ffffffffffffffff8111156144c1576144c0613d57565b5b8086016144ce8982614438565b8552602085019450505060208101905061449e565b5050509392505050565b600082601f83011261450257614501613d57565b5b8135614512848260208601614466565b91505092915050565b6000806000606084860312156145345761453361388a565b5b600084013567ffffffffffffffff8111156145525761455161388f565b5b61455e86828701613fd3565b935050602084013567ffffffffffffffff81111561457f5761457e61388f565b5b61458b86828701614165565b925050604084013567ffffffffffffffff8111156145ac576145ab61388f565b5b6145b8868287016144ed565b9150509250925092565b600080604083850312156145d9576145d861388a565b5b60006145e7858286016138ab565b92505060206145f8858286016142f3565b9150509250929050565b600080604083850312156146195761461861388a565b5b6000614627858286016138ab565b9250506020614638858286016138ab565b9150509250929050565b600080600080600060a0868803121561465e5761465d61388a565b5b600061466c888289016138ab565b955050602061467d888289016138ab565b945050604061468e888289016138d7565b935050606061469f888289016138d7565b925050608086013567ffffffffffffffff8111156146c0576146bf61388f565b5b6146cc88828901613e5e565b9150509295509295909350565b600080604083850312156146f0576146ef61388a565b5b60006146fe858286016138d7565b925050602061470f858286016138d7565b9150509250929050565b600060608201905061472e6000830186613848565b61473b60208301856139d8565b61474860408301846139d8565b949350505050565b7f455243313135353a2062616c616e636520717565727920666f7220746865207a60008201527f65726f2061646472657373000000000000000000000000000000000000000000602082015250565b60006147ac602b83613a3a565b91506147b782614750565b604082019050919050565b600060208201905081810360008301526147db8161479f565b9050919050565b7f4e487b7100000000000000000000000000000000000000000000000000000000600052602260045260246000fd5b6000600282049050600182168061482957607f821691505b6020821081141561483d5761483c6147e2565b5b50919050565b7f596f75206d75737420686f6c642061204b657920746f2061636365737320746860008201527f69732066756e6374696f6e000000000000000000000000000000000000000000602082015250565b600061489f602b83613a3a565b91506148aa82614843565b604082019050919050565b600060208201905081810360008301526148ce81614892565b9050919050565b7f4e487b7100000000000000000000000000000000000000000000000000000000600052603260045260246000fd5b7f4e487b7100000000000000000000000000000000000000000000000000000000600052601160045260246000fd5b600061493e8261383e565b91507fffffffffffffffffffffffffffffffffffffffffffffffffffffffffffffffff82141561497157614970614904565b5b600182019050919050565b7f455243313135353a207472616e736665722063616c6c6572206973206e6f742060008201527f6f776e6572206e6f7220617070726f7665640000000000000000000000000000602082015250565b60006149d8603283613a3a565b91506149e38261497c565b604082019050919050565b60006020820190508181036000830152614a07816149cb565b9050919050565b7f455243313135353a206163636f756e747320616e6420696473206c656e67746860008201527f206d69736d617463680000000000000000000000000000000000000000000000602082015250565b6000614a6a602983613a3a565b9150614a7582614a0e565b604082019050919050565b60006020820190508181036000830152614a9981614a5d565b9050919050565b600081905092915050565b6000614ab682613a2f565b614ac08185614aa0565b9350614ad0818560208601613a4b565b80840191505092915050565b7f2d00000000000000000000000000000000000000000000000000000000000000600082015250565b6000614b12600183614aa0565b9150614b1d82614adc565b600182019050919050565b6000614b348285614aab565b9150614b3f82614b05565b9150614b4b8284614aab565b91508190509392505050565b7f436f6e7472616374205472616e73616374696f6e20436f6d706c657465642e2e60008201527f2e6e6f2066757468657220636f6e6672696d6174696f6e20766f74657320636160208201527f6e20626520636173740000000000000000000000000000000000000000000000604082015250565b6000614bd9604983613a3a565b9150614be482614b57565b606082019050919050565b60006020820190508181036000830152614c0881614bcc565b9050919050565b6000614c1b8284614aab565b915081905092915050565b7f766f746520686173206265656e206361737420616c7265616479000000000000600082015250565b6000614c5c601a83613a3a565b9150614c6782614c26565b602082019050919050565b60006020820190508181036000830152614c8b81614c4f565b9050919050565b7f796f75206d7573742062652074686520686f6c646572206f6620746865206b6560008201527f7900000000000000000000000000000000000000000000000000000000000000602082015250565b6000614cee602183613a3a565b9150614cf982614c92565b604082019050919050565b60006020820190508181036000830152614d1d81614ce1565b9050919050565b6000602082019050614d39600083018461382f565b92915050565b600081519050614d4e816138c0565b92915050565b600060208284031215614d6a57614d6961388a565b5b6000614d7884828501614d3f565b91505092915050565b7f4e6f7420656e6f756768205852432066756e647320696e20636f6e7472616374600082015250565b6000614db7602083613a3a565b9150614dc282614d81565b602082019050919050565b60006020820190508181036000830152614de681614daa565b9050919050565b7f5472616e73616374696f6e616e2050726f706f73616c204d6164650000000000600082015250565b6000614e23601b83613a3a565b9150614e2e82614ded565b602082019050919050565b6000604082019050614e4e6000830184613848565b8181036020830152614e5f81614e16565b905092915050565b7f4e6f7420656e6f7567682066756e647320696e20636f6e747261637400000000600082015250565b6000614e9d601c83613a3a565b9150614ea882614e67565b602082019050919050565b60006020820190508181036000830152614ecc81614e90565b9050919050565b7f585243205472616e73616374696f6e616e2050726f706f73616c204d61646500600082015250565b6000614f09601f83613a3a565b9150614f1482614ed3565b602082019050919050565b6000604082019050614f346000830184613848565b8181036020830152614f4581614efc565b905092915050565b7f585243204e4654205472616e73616374696f6e616e2050726f706f73616c204d60008201527f6164650000000000000000000000000000000000000000000000000000000000602082015250565b6000614fa9602383613a3a565b9150614fb482614f4d565b604082019050919050565b6000604082019050614fd46000830184613848565b8181036020830152614fe581614f9c565b905092915050565b7f455243313135353a2063616c6c6572206973206e6f74206f776e6572206e6f7260008201527f20617070726f7665640000000000000000000000000000000000000000000000602082015250565b6000615049602983613a3a565b915061505482614fed565b604082019050919050565b600060208201905081810360008301526150788161503c565b9050919050565b7f5472616e73616374696f6e20616c726561647920636f6e6669726d6564000000600082015250565b60006150b5601d83613a3a565b91506150c08261507f565b602082019050919050565b600060208201905081810360008301526150e4816150a8565b9050919050565b7f796f7520686176656e7420636173746564206120766f74650000000000000000600082015250565b6000615121601883613a3a565b915061512c826150eb565b602082019050919050565b6000602082019050818103600083015261515081615114565b9050919050565b60006151628261383e565b9150600082141561517657615175614904565b5b600182039050919050565b7f455243313135353a2069647320616e6420616d6f756e7473206c656e6774682060008201527f6d69736d61746368000000000000000000000000000000000000000000000000602082015250565b60006151dd602883613a3a565b91506151e882615181565b604082019050919050565b6000602082019050818103600083015261520c816151d0565b9050919050565b7f455243313135353a207472616e7366657220746f20746865207a65726f20616460008201527f6472657373000000000000000000000000000000000000000000000000000000602082015250565b600061526f602583613a3a565b915061527a82615213565b604082019050919050565b6000602082019050818103600083015261529e81615262565b9050919050565b7f455243313135353a20696e73756666696369656e742062616c616e636520666f60008201527f72207472616e7366657200000000000000000000000000000000000000000000602082015250565b6000615301602a83613a3a565b915061530c826152a5565b604082019050919050565b60006020820190508181036000830152615330816152f4565b9050919050565b60006153428261383e565b915061534d8361383e565b9250827fffffffffffffffffffffffffffffffffffffffffffffffffffffffffffffffff0382111561538257615381614904565b5b828201905092915050565b600060408201905081810360008301526153a7818561425c565b905081810360208301526153bb818461425c565b90509392505050565b7f4e487b7100000000000000000000000000000000000000000000000000000000600052601260045260246000fd5b60006153fe8261383e565b91506154098361383e565b925082615419576154186153c4565b5b828204905092915050565b600061542f8261383e565b915061543a8361383e565b92508282101561544d5761544c614904565b5b828203905092915050565b60006154638261383e565b915061546e8361383e565b92508261547e5761547d6153c4565b5b828206905092915050565b7f566f7465204661696c6564210000000000000000000000000000000000000000600082015250565b60006154bf600c83613a3a565b91506154ca82615489565b602082019050919050565b60006040820190506154ea6000830184613848565b81810360208301526154fb816154b2565b905092915050565b7f455243313135353a2073657474696e6720617070726f76616c2073746174757360008201527f20666f722073656c660000000000000000000000000000000000000000000000602082015250565b600061555f602983613a3a565b915061556a82615503565b604082019050919050565b6000602082019050818103600083015261558e81615552565b9050919050565b60006040820190506155aa6000830185613848565b6155b76020830184613848565b9392505050565b600081519050919050565b600082825260208201905092915050565b60006155e5826155be565b6155ef81856155c9565b93506155ff818560208601613a4b565b61560881613a7e565b840191505092915050565b600060a082019050615628600083018861382f565b615635602083018761382f565b8181036040830152615647818661425c565b9050818103606083015261565b818561425c565b9050818103608083015261566f81846155da565b90509695505050505050565b60008151905061568a81613973565b92915050565b6000602082840312156156a6576156a561388a565b5b60006156b48482850161567b565b91505092915050565b60008160e01c9050919050565b600060033d11156156e95760046000803e6156e66000516156bd565b90505b90565b600060443d10156156fc5761577f565b615704613880565b60043d036004823e80513d602482011167ffffffffffffffff8211171561572c57505061577f565b808201805167ffffffffffffffff81111561574a575050505061577f565b80602083010160043d03850181111561576757505050505061577f565b61577682602001850186613d90565b82955050505050505b90565b7f455243313135353a207472616e7366657220746f206e6f6e204552433131353560008201527f526563656976657220696d706c656d656e746572000000000000000000000000602082015250565b60006157de603483613a3a565b91506157e982615782565b604082019050919050565b6000602082019050818103600083015261580d816157d1565b9050919050565b7f455243313135353a204552433131353552656365697665722072656a6563746560008201527f6420746f6b656e73000000000000000000000000000000000000000000000000602082015250565b6000615870602883613a3a565b915061587b82615814565b604082019050919050565b6000602082019050818103600083015261589f81615863565b9050919050565b7f566f746520506173736564210000000000000000000000000000000000000000600082015250565b60006158dc600c83613a3a565b91506158e7826158a6565b602082019050919050565b60006040820190506159076000830184613848565b8181036020830152615918816158cf565b905092915050565b7f4e6f7420656e6f7567682066756e647320696e20636f6e74726163742074726160008201527f6e73616374696f6e2063616e63656c6564000000000000000000000000000000602082015250565b600061597c603183613a3a565b915061598782615920565b604082019050919050565b600060208201905081810360008301526159ab8161596f565b9050919050565b6000815190506159c1816142dc565b92915050565b6000602082840312156159dd576159dc61388a565b5b60006159eb848285016159b2565b91505092915050565b7f5472616e73616374696f6e207375636365737366756c21000000000000000000600082015250565b6000615a2a601783613a3a565b9150615a35826159f4565b602082019050919050565b6000604082019050615a556000830184613848565b8181036020830152615a6681615a1d565b905092915050565b600060a082019050615a83600083018861382f565b615a90602083018761382f565b615a9d6040830186613848565b615aaa6060830185613848565b8181036080830152615abc81846155da565b90509695505050505050565b6000819050919050565b60008160e01b9050919050565b6000615afa615af5615af084615ac8565b615ad2565b613947565b9050919050565b615b0a81615adf565b82525050565b6000602082019050615b256000830184615b01565b92915050565b50565b6000615b3b6000836155c9565b9150615b4682615b2b565b600082019050919050565b6000608082019050615b66600083018661382f565b615b73602083018561382f565b615b806040830184613848565b8181036060830152615b9181615b2e565b9050949350505050565b600060a082019050615bb0600083018761382f565b615bbd602083018661382f565b615bca6040830185613848565b615bd76060830184613848565b8181036080830152615be881615b2e565b90509594505050505056fea26469706673582212204e120a9e0a05115ca75048878676c407517cdf6c441a582bf30553f9e52d9fa064736f6c634300080a0033",
  "immutableReferences": {},
  "source": "pragma solidity ^0.8.10;\n// SPDX-License-Identifier: MIT\nimport \"@openzeppelin/contracts/token/ERC1155/ERC1155.sol\";\nimport \"@openzeppelin/contracts/utils/Strings.sol\";\nimport \"@openzeppelin/contracts/token/ERC20/ERC20.sol\";\nimport \"@openzeppelin/contracts/token/ERC721/extensions/ERC721URIStorage.sol\";\n\ninterface MultiSigTreasury_interface{\n    function checkVote(uint _keyNumb,uint _transNumb) external returns(uint,bool,bool);\n    function submitProposal(uint [] memory _amount, address [] memory _address,string [] memory _topic) external returns(bool);\n    function confirmTransaction(uint _TransactionNumber, bool _vote,uint _keyNumb) external returns(uint,uint,string memory);\n    function revokeConfirmation(uint _TransactionNumber, uint _keyNumb) external returns(string memory);\n}\n\ncontract MultiSigTreasury is ERC1155,MultiSigTreasury_interface{\n    uint public totalKeys =0;\n    uint public TotalTransactions=0;\n    uint public VotesNeededToPass;\n    uint public XRCcontracts=0;\n    //Events for Proposals and executions\n    event Proposal(uint _transactionNumb, string _memo);\n    event Execute(uint _transactionNumb, string _memo);\n    event BlankExecute(uint _TransactionNumber, string _memo);\n    //mappings of structs\n    mapping(uint => KeyListings) keys;\n    mapping(string => VoteOnTransaction) vote;\n    mapping(uint => MultiSigTransaction) MSTrans;\n    mapping(uint => XRCTokens) XRC;\n    //list Keys\n    struct KeyListings{\n        uint count;\n        bool exist;\n    }\n    //cast vote for transaction\n    struct VoteOnTransaction{\n        uint Key;\n        bool status;\n        bool exist;\n    }\n    //list of XRCTokens\n    struct XRCTokens{\n        address XRCcontract;\n    }\n    //transaction request\n    struct MultiSigTransaction{\n        uint amount;\n        address toAddress;\n        string topic;\n        string messege;\n        bool status;\n        uint pass;\n        uint fail;\n        uint voteCount;\n        bool exist;\n        address XRC;\n        uint tokenNumb;\n        string call;\n    }\n    //Launch Contract and Keys\n    constructor(uint _totalKeys, uint _VotesNeededToPass,string memory URI) payable ERC1155(URI){\n        require(_VotesNeededToPass <= _totalKeys, \"you cant have more votes needed than keys created\");\n        totalKeys =_totalKeys;\n        VotesNeededToPass = _VotesNeededToPass;\n        uint countKeys;\n        for(countKeys=0; countKeys < _totalKeys; countKeys++){\n            keys[countKeys] = KeyListings(countKeys,true);\n            _mint(msg.sender, countKeys, 1, \"\");\n        }\n    }\n    //modifier checks to see if user has a key before executing the function\n    modifier CheckKeys{\n        (bool keyStatus,uint keyNumb) = checkTokens(msg.sender);\n        require(keyStatus == true, \"You must hold a Key to access this function\");\n        _;\n    }\n    //internal function checks to see if user has key\n    function checkTokens(address _user) internal returns(bool,uint){\n        uint i;\n        for(i=0; i <= totalKeys; i++){\n            if(balanceOf(_user,i) > 0){\n                return (true,i);\n            } else if(i == totalKeys){\n                return (false,i);\n            }\n        }       \n    }\n    //checks to see if a contract function is being requested to be called\n    function checkTransactionExecution(uint _entryLength,string memory _transaction) internal returns(string memory){\n        if(_entryLength == 2){\n            return _transaction;\n        } else {\n            return \"\";\n        }\n    }\n    //check vote summition total\n    function checkTotal(uint _TransactionNumber) internal returns(bool){\n        //set up voting count\n        if(MSTrans[_TransactionNumber].pass >= VotesNeededToPass){\n            executeTransaction(_TransactionNumber);\n            return true;\n        } else if(MSTrans[_TransactionNumber].fail >= VotesNeededToPass) {\n            MSTrans[_TransactionNumber].status = true;\n            emit Execute(_TransactionNumber,\"Vote Failed!\");\n            return true;\n        }else {\n            return false;\n        }\n    }\n    //check to see if holder is holding their key\n    //1 key per address if an address holds multiple keys they will only be able to sign one\n    function checkKey(uint _checkKey) internal returns(bool){\n        (bool keyStatus,uint keyNumb) = checkTokens(msg.sender);\n        require(keyStatus == true && keyNumb == _checkKey, \"You must hold a Key to access this function\");\n        return true;\n    }\n    //checks the voting status of a particular vote on a transactions\n    function checkVote(uint _keyNumb,uint _transNumb) public CheckKeys returns(uint,bool,bool){\n        string memory checkStatus;\n        checkStatus = string(abi.encodePacked(Strings.toString(_transNumb),\"-\",Strings.toString(_keyNumb)));\n        return (vote[checkStatus].Key,vote[checkStatus].status,vote[checkStatus].exist);\n    }\n    //view previouse & pending transactions\n    function ViewTransactions() public CheckKeys returns(MultiSigTransaction[] memory){\n        MultiSigTransaction[] memory All_Transactions = new MultiSigTransaction[](TotalTransactions);\n        for(uint i = 0; i < TotalTransactions; i++){\n            MultiSigTransaction storage NewAll_Transactions = MSTrans[i];\n            All_Transactions[i] = NewAll_Transactions;\n        }\n        return (All_Transactions);\n    }  \n\n    //make a submittion to move funds to the contract\n    function submitProposal(uint [] memory _amount, address [] memory _address,string [] memory _topic) public CheckKeys returns(bool){\n        if(_address.length == 1){\n            require(ERC20(_address[1]).balanceOf(address(this)) >= _amount[0], \"Not enough XRC funds in contract\");\n            MSTrans[TotalTransactions] = MultiSigTransaction(_amount[0],_address[0],_topic[0],_topic[1],false,0,0,0,true,0x0000000000000000000000000000000000000000,0,checkTransactionExecution(_topic.length,_topic[2]));\n            emit Proposal(TotalTransactions,\"Transactionan Proposal Made\");\n            TotalTransactions++;\n            return true;\n        } else if(_address.length == 2 && _amount.length == 1){\n            require(address(this).balance >= _amount[0], \"Not enough funds in contract\");\n            MSTrans[TotalTransactions] = MultiSigTransaction(_amount[0],_address[0],_topic[0],_topic[1],false,0,0,0,true,_address[1],0,\"\");\n            emit Proposal(TotalTransactions,\"XRC Transactionan Proposal Made\");\n            TotalTransactions++;\n            return true;\n        }else if(_amount.length == 2 && _amount.length == 2){\n            MSTrans[TotalTransactions] = MultiSigTransaction(_amount[0],_address[0],_topic[0],_topic[1],false,0,0,0,true,_address[1],_amount[1],\"\");\n            emit Proposal(TotalTransactions,\"XRC NFT Transactionan Proposal Made\");\n            TotalTransactions++;           \n        } else {\n            return false;\n        }\n        return true;\n    }\n    //key holders can cast votes as a key for a transaction\n    function confirmTransaction(uint _TransactionNumber, bool _vote,uint _keyNumb) public CheckKeys returns(uint,uint,string memory){\n        string memory castVote;\n        castVote = string(abi.encodePacked(Strings.toString(_TransactionNumber),\"-\",Strings.toString(_keyNumb)));\n        require(MSTrans[_TransactionNumber].status == false, \"Contract Transaction Completed...no futher confrimation votes can be cast\");\n        require(vote[castVote].exist == false, \"vote has been cast already\");\n        require(checkKey(_keyNumb) == true, \"you must be the holder of the key\");\n\n        vote[castVote] = VoteOnTransaction(_keyNumb,_vote,true);\n        if(_vote== true){\n            MSTrans[_TransactionNumber].pass++;\n        }else{\n            MSTrans[_TransactionNumber].fail++;\n        }\n        checkTotal(_TransactionNumber);\n\n        return (MSTrans[_TransactionNumber].pass,MSTrans[_TransactionNumber].fail,castVote);\n    }\n    //Executes payment ticket after parties have voted on it\n    //0x0000000000000000000000000000000000000000 as address will produce a blank vote\n    //0x0000000000000000000000000000000000000000 as XRC will submit XDC transaction and an adress contract will send the addres token\n    function executeTransaction(uint _TransactionNumber) internal returns(bool){\n        address _address = MSTrans[_TransactionNumber].toAddress;\n        MSTrans[_TransactionNumber].status = true;\n\n        if(MSTrans[_TransactionNumber].XRC == 0x0000000000000000000000000000000000000000 ){\n            if(_address == 0x0000000000000000000000000000000000000000){\n                emit BlankExecute(_TransactionNumber,\"Vote Passed!\");\n            } else{\n                require(address(this).balance >= MSTrans[_TransactionNumber].amount, \"Not enough funds in contract transaction canceled\");\n                payable(_address).transfer(MSTrans[_TransactionNumber].amount);\n            }\n        } else if (MSTrans[_TransactionNumber].tokenNumb != 0 && MSTrans[_TransactionNumber].XRC != 0x0000000000000000000000000000000000000000){\n            ERC20(MSTrans[_TransactionNumber].XRC).transfer(MSTrans[_TransactionNumber].toAddress, MSTrans[_TransactionNumber].amount);\n        } else {\n            XRC1155_XRC721Send(MSTrans[_TransactionNumber].XRC,MSTrans[_TransactionNumber].tokenNumb,MSTrans[_TransactionNumber].amount);\n        }\n        emit Execute(_TransactionNumber,\"Transaction successful!\");\n        return true;\n    }\n    //check to see if contract is XRC1155 or XRC721 and send token\n    function XRC1155_XRC721Send(address _contractAddress, uint _tokenNumb,uint _amount) internal returns(bool){\n        if(IERC721(_contractAddress).supportsInterface(0x80ac58cd) == true){\n            ERC721(_contractAddress).safeTransferFrom(address(this), _contractAddress, _tokenNumb,\"\");\n        }else{\n            ERC1155(_contractAddress).safeTransferFrom(address(this), _contractAddress, _tokenNumb,_amount,\"\");\n        }\n    }\n    //remove vote if transaction hasent been confirmed yet\n    function revokeConfirmation(uint _TransactionNumber, uint _keyNumb) public CheckKeys returns(string memory){\n        string memory castVote = string(abi.encodePacked(Strings.toString(_TransactionNumber),\"-\",Strings.toString(_keyNumb)));\n        require(MSTrans[_TransactionNumber].status ==false && MSTrans[_TransactionNumber].exist == true ,\"Transaction already confirmed\");\n        require(vote[castVote].exist == true, \"you havent casted a vote\");\n        require(checkKey(_keyNumb) == true, \"you must be the holder of the key\");\n        //remove vote\n        if(vote[castVote].status == true){\n            MSTrans[_TransactionNumber].pass--;\n            vote[castVote] = VoteOnTransaction(_keyNumb,false,false);\n            return \"Vote Removed Pass: -1\";\n        }else{\n            MSTrans[_TransactionNumber].fail--;\n            vote[castVote] = VoteOnTransaction(_keyNumb,false,false);\n            return \"Vote Removed Fail: -1\";\n        }        \n    }\n    //ERC1155Received fuctions\n    function onERC1155Received(address, address, uint256, uint256, bytes memory) public virtual returns (bytes4) {\n        return this.onERC1155Received.selector;\n    }\n    function onERC1155BatchReceived(address, address, uint256[] memory, uint256[] memory, bytes memory) public virtual returns (bytes4) {\n        return this.onERC1155BatchReceived.selector;\n    }\n    function onERC721Received(address, address, uint256, bytes memory) public virtual returns (bytes4) {\n        return this.onERC721Received.selector;\n    }\n    // send funds to contract\n    event Received(address, uint);\n    receive() external payable {\n        emit Received(msg.sender, msg.value);\n    }\n}\n",
  "sourcePath": "/Users/Q/Documents/GitHub/Multi-Sig-Treasury/contracts/Multi-Sig-Key.sol",
  "compiler": {
    "name": "solc",
    "version": "0.8.10+commit.fc410830.Emscripten.clang"
  },
  "schemaVersion": "3.4.3",
  "updatedAt": "2022-07-05T03:30:52.037Z",
  "devdoc": {
    "kind": "dev",
    "methods": {
      "balanceOf(address,uint256)": {
        "details": "See {IERC1155-balanceOf}. Requirements: - `account` cannot be the zero address."
      },
      "balanceOfBatch(address[],uint256[])": {
        "details": "See {IERC1155-balanceOfBatch}. Requirements: - `accounts` and `ids` must have the same length."
      },
      "isApprovedForAll(address,address)": {
        "details": "See {IERC1155-isApprovedForAll}."
      },
      "safeBatchTransferFrom(address,address,uint256[],uint256[],bytes)": {
        "details": "See {IERC1155-safeBatchTransferFrom}."
      },
      "safeTransferFrom(address,address,uint256,uint256,bytes)": {
        "details": "See {IERC1155-safeTransferFrom}."
      },
      "setApprovalForAll(address,bool)": {
        "details": "See {IERC1155-setApprovalForAll}."
      },
      "supportsInterface(bytes4)": {
        "details": "See {IERC165-supportsInterface}."
      },
      "uri(uint256)": {
        "details": "See {IERC1155MetadataURI-uri}. This implementation returns the same URI for *all* token types. It relies on the token type ID substitution mechanism https://eips.ethereum.org/EIPS/eip-1155#metadata[defined in the EIP]. Clients calling this function must replace the `\\{id\\}` substring with the actual token type ID."
      }
    },
    "version": 1
  },
  "userdoc": {
    "kind": "user",
    "methods": {},
    "version": 1
  }
}