{
  "contractName": "MultiSigTreasury",
  "abi": [
    {
      "inputs": [
        {
          "internalType": "uint256",
          "name": "_totalKeys",
          "type": "uint256"
        },
        {
          "internalType": "uint256",
          "name": "_VotesNeededToPass",
          "type": "uint256"
        },
        {
          "internalType": "string",
          "name": "URI",
          "type": "string"
        }
      ],
      "stateMutability": "nonpayable",
      "type": "constructor"
    },
    {
      "anonymous": false,
      "inputs": [
        {
          "indexed": true,
          "internalType": "address",
          "name": "account",
          "type": "address"
        },
        {
          "indexed": true,
          "internalType": "address",
          "name": "operator",
          "type": "address"
        },
        {
          "indexed": false,
          "internalType": "bool",
          "name": "approved",
          "type": "bool"
        }
      ],
      "name": "ApprovalForAll",
      "type": "event"
    },
    {
      "anonymous": false,
      "inputs": [
        {
          "indexed": true,
          "internalType": "address",
          "name": "operator",
          "type": "address"
        },
        {
          "indexed": true,
          "internalType": "address",
          "name": "from",
          "type": "address"
        },
        {
          "indexed": true,
          "internalType": "address",
          "name": "to",
          "type": "address"
        },
        {
          "indexed": false,
          "internalType": "uint256[]",
          "name": "ids",
          "type": "uint256[]"
        },
        {
          "indexed": false,
          "internalType": "uint256[]",
          "name": "values",
          "type": "uint256[]"
        }
      ],
      "name": "TransferBatch",
      "type": "event"
    },
    {
      "anonymous": false,
      "inputs": [
        {
          "indexed": true,
          "internalType": "address",
          "name": "operator",
          "type": "address"
        },
        {
          "indexed": true,
          "internalType": "address",
          "name": "from",
          "type": "address"
        },
        {
          "indexed": true,
          "internalType": "address",
          "name": "to",
          "type": "address"
        },
        {
          "indexed": false,
          "internalType": "uint256",
          "name": "id",
          "type": "uint256"
        },
        {
          "indexed": false,
          "internalType": "uint256",
          "name": "value",
          "type": "uint256"
        }
      ],
      "name": "TransferSingle",
      "type": "event"
    },
    {
      "anonymous": false,
      "inputs": [
        {
          "indexed": false,
          "internalType": "string",
          "name": "value",
          "type": "string"
        },
        {
          "indexed": true,
          "internalType": "uint256",
          "name": "id",
          "type": "uint256"
        }
      ],
      "name": "URI",
      "type": "event"
    },
    {
      "inputs": [],
      "name": "TotalTransactions",
      "outputs": [
        {
          "internalType": "uint256",
          "name": "",
          "type": "uint256"
        }
      ],
      "stateMutability": "view",
      "type": "function"
    },
    {
      "inputs": [
        {
          "internalType": "address",
          "name": "account",
          "type": "address"
        },
        {
          "internalType": "uint256",
          "name": "id",
          "type": "uint256"
        }
      ],
      "name": "balanceOf",
      "outputs": [
        {
          "internalType": "uint256",
          "name": "",
          "type": "uint256"
        }
      ],
      "stateMutability": "view",
      "type": "function"
    },
    {
      "inputs": [
        {
          "internalType": "address[]",
          "name": "accounts",
          "type": "address[]"
        },
        {
          "internalType": "uint256[]",
          "name": "ids",
          "type": "uint256[]"
        }
      ],
      "name": "balanceOfBatch",
      "outputs": [
        {
          "internalType": "uint256[]",
          "name": "",
          "type": "uint256[]"
        }
      ],
      "stateMutability": "view",
      "type": "function"
    },
    {
      "inputs": [
        {
          "internalType": "address",
          "name": "account",
          "type": "address"
        },
        {
          "internalType": "address",
          "name": "operator",
          "type": "address"
        }
      ],
      "name": "isApprovedForAll",
      "outputs": [
        {
          "internalType": "bool",
          "name": "",
          "type": "bool"
        }
      ],
      "stateMutability": "view",
      "type": "function"
    },
    {
      "inputs": [
        {
          "internalType": "address",
          "name": "from",
          "type": "address"
        },
        {
          "internalType": "address",
          "name": "to",
          "type": "address"
        },
        {
          "internalType": "uint256[]",
          "name": "ids",
          "type": "uint256[]"
        },
        {
          "internalType": "uint256[]",
          "name": "amounts",
          "type": "uint256[]"
        },
        {
          "internalType": "bytes",
          "name": "data",
          "type": "bytes"
        }
      ],
      "name": "safeBatchTransferFrom",
      "outputs": [],
      "stateMutability": "nonpayable",
      "type": "function"
    },
    {
      "inputs": [
        {
          "internalType": "address",
          "name": "from",
          "type": "address"
        },
        {
          "internalType": "address",
          "name": "to",
          "type": "address"
        },
        {
          "internalType": "uint256",
          "name": "id",
          "type": "uint256"
        },
        {
          "internalType": "uint256",
          "name": "amount",
          "type": "uint256"
        },
        {
          "internalType": "bytes",
          "name": "data",
          "type": "bytes"
        }
      ],
      "name": "safeTransferFrom",
      "outputs": [],
      "stateMutability": "nonpayable",
      "type": "function"
    },
    {
      "inputs": [
        {
          "internalType": "address",
          "name": "operator",
          "type": "address"
        },
        {
          "internalType": "bool",
          "name": "approved",
          "type": "bool"
        }
      ],
      "name": "setApprovalForAll",
      "outputs": [],
      "stateMutability": "nonpayable",
      "type": "function"
    },
    {
      "inputs": [
        {
          "internalType": "bytes4",
          "name": "interfaceId",
          "type": "bytes4"
        }
      ],
      "name": "supportsInterface",
      "outputs": [
        {
          "internalType": "bool",
          "name": "",
          "type": "bool"
        }
      ],
      "stateMutability": "view",
      "type": "function"
    },
    {
      "inputs": [
        {
          "internalType": "uint256",
          "name": "",
          "type": "uint256"
        }
      ],
      "name": "uri",
      "outputs": [
        {
          "internalType": "string",
          "name": "",
          "type": "string"
        }
      ],
      "stateMutability": "view",
      "type": "function"
    },
    {
      "inputs": [
        {
          "internalType": "string",
          "name": "_keyNumb",
          "type": "string"
        },
        {
          "internalType": "string",
          "name": "_transNumb",
          "type": "string"
        }
      ],
      "name": "checkVote",
      "outputs": [
        {
          "internalType": "uint256",
          "name": "",
          "type": "uint256"
        },
        {
          "internalType": "bool",
          "name": "",
          "type": "bool"
        }
      ],
      "stateMutability": "nonpayable",
      "type": "function"
    },
    {
      "inputs": [
        {
          "internalType": "uint256",
          "name": "_transactionNumb",
          "type": "uint256"
        }
      ],
      "name": "viewTransaction",
      "outputs": [
        {
          "internalType": "uint256",
          "name": "",
          "type": "uint256"
        },
        {
          "internalType": "address",
          "name": "",
          "type": "address"
        },
        {
          "internalType": "string",
          "name": "",
          "type": "string"
        },
        {
          "internalType": "string",
          "name": "",
          "type": "string"
        }
      ],
      "stateMutability": "nonpayable",
      "type": "function"
    },
    {
      "inputs": [
        {
          "internalType": "uint256",
          "name": "_ammount",
          "type": "uint256"
        },
        {
          "internalType": "address",
          "name": "_toAddress",
          "type": "address"
        },
        {
          "internalType": "string",
          "name": "_topic",
          "type": "string"
        },
        {
          "internalType": "string",
          "name": "_messege",
          "type": "string"
        }
      ],
      "name": "submitTransaction",
      "outputs": [
        {
          "internalType": "bool",
          "name": "",
          "type": "bool"
        }
      ],
      "stateMutability": "nonpayable",
      "type": "function"
    },
    {
      "inputs": [
        {
          "internalType": "string",
          "name": "_TransactionNumber",
          "type": "string"
        },
        {
          "internalType": "bool",
          "name": "_vote",
          "type": "bool"
        },
        {
          "internalType": "uint256",
          "name": "_keyNumb",
          "type": "uint256"
        }
      ],
      "name": "confirmTransaction",
      "outputs": [
        {
          "internalType": "bool",
          "name": "",
          "type": "bool"
        },
        {
          "internalType": "bool",
          "name": "",
          "type": "bool"
        }
      ],
      "stateMutability": "nonpayable",
      "type": "function"
    },
    {
      "inputs": [],
      "name": "executeTransaction",
      "outputs": [
        {
          "internalType": "bool",
          "name": "",
          "type": "bool"
        }
      ],
      "stateMutability": "nonpayable",
      "type": "function"
    },
    {
      "inputs": [],
      "name": "revokeConfirmation",
      "outputs": [
        {
          "internalType": "bool",
          "name": "",
          "type": "bool"
        }
      ],
      "stateMutability": "nonpayable",
      "type": "function"
    }
  ],
  "bytecode": "0x6080604052600060035560006004553480156200001b57600080fd5b506040516200418e3803806200418e833981810160405281019062000041919062000818565b8062000053816200011160201b60201c565b50828211156200006257600080fd5b8260038190555060005b838110156200010757604051806040016040528082815260200160011515815250600560008381526020019081526020016000206000820151816000015560208201518160010160006101000a81548160ff021916908315150217905550905050620000f133826001604051806020016040528060008152506200012d60201b60201c565b8080620000fe90620008c2565b9150506200006c565b5050505062000ef1565b80600290805190602001906200012992919062000590565b5050565b600073ffffffffffffffffffffffffffffffffffffffff168473ffffffffffffffffffffffffffffffffffffffff161415620001a0576040517f08c379a0000000000000000000000000000000000000000000000000000000008152600401620001979062000997565b60405180910390fd5b6000620001b2620002f260201b60201c565b9050620001eb81600087620001cd88620002fa60201b60201c565b620001de88620002fa60201b60201c565b876200037b60201b60201c565b8260008086815260200190815260200160002060008773ffffffffffffffffffffffffffffffffffffffff1673ffffffffffffffffffffffffffffffffffffffff16815260200190815260200160002060008282546200024c9190620009b9565b925050819055508473ffffffffffffffffffffffffffffffffffffffff16600073ffffffffffffffffffffffffffffffffffffffff168273ffffffffffffffffffffffffffffffffffffffff167fc3d58168c5ae7397731d063d5bbf3d657854427343f4c083240f7aacaa2d0f628787604051620002cc92919062000a27565b60405180910390a4620002eb816000878787876200038360201b60201c565b5050505050565b600033905090565b60606000600167ffffffffffffffff8111156200031c576200031b620006aa565b5b6040519080825280602002602001820160405280156200034b5781602001602082028036833780820191505090505b509050828160008151811062000366576200036562000a54565b5b60200260200101818152505080915050919050565b505050505050565b620003af8473ffffffffffffffffffffffffffffffffffffffff166200057d60201b62000e311760201c565b1562000575578373ffffffffffffffffffffffffffffffffffffffff1663f23a6e6187878686866040518663ffffffff1660e01b8152600401620003f895949392919062000b25565b6020604051808303816000875af19250505080156200043757506040513d601f19601f8201168201806040525081019062000434919062000be6565b60015b620004e9576200044662000c25565b806308c379a01415620004aa57506200045e62000c4a565b806200046b5750620004ac565b806040517f08c379a0000000000000000000000000000000000000000000000000000000008152600401620004a1919062000d38565b60405180910390fd5b505b6040517f08c379a0000000000000000000000000000000000000000000000000000000008152600401620004e09062000dd2565b60405180910390fd5b63f23a6e6160e01b7bffffffffffffffffffffffffffffffffffffffffffffffffffffffff1916817bffffffffffffffffffffffffffffffffffffffffffffffffffffffff19161462000573576040517f08c379a00000000000000000000000000000000000000000000000000000000081526004016200056a9062000e6a565b60405180910390fd5b505b505050505050565b600080823b905060008111915050919050565b8280546200059e9062000ebb565b90600052602060002090601f016020900481019282620005c257600085556200060e565b82601f10620005dd57805160ff19168380011785556200060e565b828001600101855582156200060e579182015b828111156200060d578251825591602001919060010190620005f0565b5b5090506200061d919062000621565b5090565b5b808211156200063c57600081600090555060010162000622565b5090565b6000604051905090565b600080fd5b600080fd5b6000819050919050565b620006698162000654565b81146200067557600080fd5b50565b60008151905062000689816200065e565b92915050565b600080fd5b600080fd5b6000601f19601f8301169050919050565b7f4e487b7100000000000000000000000000000000000000000000000000000000600052604160045260246000fd5b620006e48262000699565b810181811067ffffffffffffffff82111715620007065762000705620006aa565b5b80604052505050565b60006200071b62000640565b9050620007298282620006d9565b919050565b600067ffffffffffffffff8211156200074c576200074b620006aa565b5b620007578262000699565b9050602081019050919050565b60005b838110156200078457808201518184015260208101905062000767565b8381111562000794576000848401525b50505050565b6000620007b1620007ab846200072e565b6200070f565b905082815260208101848484011115620007d057620007cf62000694565b5b620007dd84828562000764565b509392505050565b600082601f830112620007fd57620007fc6200068f565b5b81516200080f8482602086016200079a565b91505092915050565b6000806000606084860312156200083457620008336200064a565b5b6000620008448682870162000678565b9350506020620008578682870162000678565b925050604084015167ffffffffffffffff8111156200087b576200087a6200064f565b5b6200088986828701620007e5565b9150509250925092565b7f4e487b7100000000000000000000000000000000000000000000000000000000600052601160045260246000fd5b6000620008cf8262000654565b91507fffffffffffffffffffffffffffffffffffffffffffffffffffffffffffffffff82141562000905576200090462000893565b5b600182019050919050565b600082825260208201905092915050565b7f455243313135353a206d696e7420746f20746865207a65726f2061646472657360008201527f7300000000000000000000000000000000000000000000000000000000000000602082015250565b60006200097f60218362000910565b91506200098c8262000921565b604082019050919050565b60006020820190508181036000830152620009b28162000970565b9050919050565b6000620009c68262000654565b9150620009d38362000654565b9250827fffffffffffffffffffffffffffffffffffffffffffffffffffffffffffffffff0382111562000a0b5762000a0a62000893565b5b828201905092915050565b62000a218162000654565b82525050565b600060408201905062000a3e600083018562000a16565b62000a4d602083018462000a16565b9392505050565b7f4e487b7100000000000000000000000000000000000000000000000000000000600052603260045260246000fd5b600073ffffffffffffffffffffffffffffffffffffffff82169050919050565b600062000ab08262000a83565b9050919050565b62000ac28162000aa3565b82525050565b600081519050919050565b600082825260208201905092915050565b600062000af18262000ac8565b62000afd818562000ad3565b935062000b0f81856020860162000764565b62000b1a8162000699565b840191505092915050565b600060a08201905062000b3c600083018862000ab7565b62000b4b602083018762000ab7565b62000b5a604083018662000a16565b62000b69606083018562000a16565b818103608083015262000b7d818462000ae4565b90509695505050505050565b60007fffffffff0000000000000000000000000000000000000000000000000000000082169050919050565b62000bc08162000b89565b811462000bcc57600080fd5b50565b60008151905062000be08162000bb5565b92915050565b60006020828403121562000bff5762000bfe6200064a565b5b600062000c0f8482850162000bcf565b91505092915050565b60008160e01c9050919050565b600060033d111562000c475760046000803e62000c4460005162000c18565b90505b90565b600060443d101562000c5c5762000ce9565b62000c6662000640565b60043d036004823e80513d602482011167ffffffffffffffff8211171562000c9057505062000ce9565b808201805167ffffffffffffffff81111562000cb0575050505062000ce9565b80602083010160043d03850181111562000ccf57505050505062000ce9565b62000ce082602001850186620006d9565b82955050505050505b90565b600081519050919050565b600062000d048262000cec565b62000d10818562000910565b935062000d2281856020860162000764565b62000d2d8162000699565b840191505092915050565b6000602082019050818103600083015262000d54818462000cf7565b905092915050565b7f455243313135353a207472616e7366657220746f206e6f6e204552433131353560008201527f526563656976657220696d706c656d656e746572000000000000000000000000602082015250565b600062000dba60348362000910565b915062000dc78262000d5c565b604082019050919050565b6000602082019050818103600083015262000ded8162000dab565b9050919050565b7f455243313135353a204552433131353552656365697665722072656a6563746560008201527f6420746f6b656e73000000000000000000000000000000000000000000000000602082015250565b600062000e5260288362000910565b915062000e5f8262000df4565b604082019050919050565b6000602082019050818103600083015262000e858162000e43565b9050919050565b7f4e487b7100000000000000000000000000000000000000000000000000000000600052602260045260246000fd5b6000600282049050600182168062000ed457607f821691505b6020821081141562000eeb5762000eea62000e8c565b5b50919050565b61328d8062000f016000396000f3fe608060405234801561001057600080fd5b50600436106100f45760003560e01c80634e1273f411610097578063a22cb46511610066578063a22cb465146102d6578063cc0225a0146102f2578063e985e9c514610310578063f242432a14610340576100f4565b80634e1273f4146102125780634ec33593146102425780638916d12c1461027257806398530e40146102a5576100f4565b80630e89341c116100d35780630e89341c1461018a5780630eb288f1146101ba5780632eb2c2d6146101d85780634b845fb2146101f4576100f4565b8062fdd58e146100f957806301ffc9a71461012957806306bbd15414610159575b600080fd5b610113600480360381019061010e9190611b95565b61035c565b6040516101209190611be4565b60405180910390f35b610143600480360381019061013e9190611c57565b610425565b6040516101509190611c9f565b60405180910390f35b610173600480360381019061016e9190611e2c565b610507565b604051610181929190611e9b565b60405180910390f35b6101a4600480360381019061019f9190611ec4565b61060a565b6040516101b19190611f79565b60405180910390f35b6101c261069e565b6040516101cf9190611c9f565b60405180910390f35b6101f260048036038101906101ed9190612104565b6106c6565b005b6101fc610767565b6040516102099190611c9f565b60405180910390f35b61022c60048036038101906102279190612296565b61078f565b60405161023991906123cc565b60405180910390f35b61025c600480360381019061025791906123ee565b6108a8565b6040516102699190611c9f565b60405180910390f35b61028c60048036038101906102879190611ec4565b610a28565b60405161029c949392919061249c565b60405180910390f35b6102bf60048036038101906102ba91906124ef565b610c37565b6040516102cd929190612567565b60405180910390f35b6102f060048036038101906102eb9190612590565b610ce0565b005b6102fa610cf6565b6040516103079190611be4565b60405180910390f35b61032a600480360381019061032591906125d0565b610cfc565b6040516103379190611c9f565b60405180910390f35b61035a60048036038101906103559190612610565b610d90565b005b60008073ffffffffffffffffffffffffffffffffffffffff168373ffffffffffffffffffffffffffffffffffffffff1614156103cd576040517f08c379a00000000000000000000000000000000000000000000000000000000081526004016103c490612719565b60405180910390fd5b60008083815260200190815260200160002060008473ffffffffffffffffffffffffffffffffffffffff1673ffffffffffffffffffffffffffffffffffffffff16815260200190815260200160002054905092915050565b60007fd9b67a26000000000000000000000000000000000000000000000000000000007bffffffffffffffffffffffffffffffffffffffffffffffffffffffff1916827bffffffffffffffffffffffffffffffffffffffffffffffffffffffff191614806104f057507f0e89341c000000000000000000000000000000000000000000000000000000007bffffffffffffffffffffffffffffffffffffffffffffffffffffffff1916827bffffffffffffffffffffffffffffffffffffffffffffffffffffffff1916145b8061050057506104ff82610e44565b5b9050919050565b60008060008061051633610eae565b91509150600115158215151461052b57600080fd5b60606000610539338861035c565b11610579576040517f08c379a000000000000000000000000000000000000000000000000000000000815260040161057090612785565b60405180910390fd5b878660405160200161058c92919061284e565b604051602081830303815290604052905060405180604001604052808781526020018815158152506006826040516105c49190612881565b90815260200160405180910390206000820151816000015560208201518160010160006101000a81548160ff021916908315150217905550905050505050935093915050565b606060028054610619906128c7565b80601f0160208091040260200160405190810160405280929190818152602001828054610645906128c7565b80156106925780601f1061066757610100808354040283529160200191610692565b820191906000526020600020905b81548152906001019060200180831161067557829003601f168201915b50505050509050919050565b60008060006106ac33610eae565b9150915060011515821515146106c157600080fd5b505090565b6106ce610f0d565b73ffffffffffffffffffffffffffffffffffffffff168573ffffffffffffffffffffffffffffffffffffffff16148061071457506107138561070e610f0d565b610cfc565b5b610753576040517f08c379a000000000000000000000000000000000000000000000000000000000815260040161074a9061296b565b60405180910390fd5b6107608585858585610f15565b5050505050565b600080600061077533610eae565b91509150600115158215151461078a57600080fd5b505090565b606081518351146107d5576040517f08c379a00000000000000000000000000000000000000000000000000000000081526004016107cc906129fd565b60405180910390fd5b6000835167ffffffffffffffff8111156107f2576107f1611cd5565b5b6040519080825280602002602001820160405280156108205781602001602082028036833780820191505090505b50905060005b845181101561089d5761086d85828151811061084557610844612a1d565b5b60200260200101518583815181106108605761085f612a1d565b5b602002602001015161035c565b8282815181106108805761087f612a1d565b5b6020026020010181815250508061089690612a7b565b9050610826565b508091505092915050565b60008060006108b633610eae565b9150915060011515821515146108cb57600080fd5b6040518061010001604052808881526020018773ffffffffffffffffffffffffffffffffffffffff168152602001868152602001858152602001600015158152602001600081526020016000815260200160008152506007600060045481526020019081526020016000206000820151816000015560208201518160010160006101000a81548173ffffffffffffffffffffffffffffffffffffffff021916908373ffffffffffffffffffffffffffffffffffffffff16021790555060408201518160020190805190602001906109a3929190611a4a565b5060608201518160030190805190602001906109c0929190611a4a565b5060808201518160040160006101000a81548160ff02191690831515021790555060a0820151816005015560c0820151816006015560e0820151816007015590505060046000815480929190610a1590612a7b565b9190505550600192505050949350505050565b600080606080600080610a3a33610eae565b915091506001151582151514610a4f57600080fd5b600454871115610a94576040517f08c379a0000000000000000000000000000000000000000000000000000000008152600401610a8b90612b36565b60405180910390fd5b60076000888152602001908152602001600020600001546007600089815260200190815260200160002060010160009054906101000a900473ffffffffffffffffffffffffffffffffffffffff16600760008a8152602001908152602001600020600201600760008b8152602001908152602001600020600301818054610b1a906128c7565b80601f0160208091040260200160405190810160405280929190818152602001828054610b46906128c7565b8015610b935780601f10610b6857610100808354040283529160200191610b93565b820191906000526020600020905b815481529060010190602001808311610b7657829003601f168201915b50505050509150808054610ba6906128c7565b80601f0160208091040260200160405190810160405280929190818152602001828054610bd2906128c7565b8015610c1f5780601f10610bf457610100808354040283529160200191610c1f565b820191906000526020600020905b815481529060010190602001808311610c0257829003601f168201915b50505050509050955095509550955050509193509193565b600080600080610c4633610eae565b915091506001151582151514610c5b57600080fd5b60608587604051602001610c70929190612b56565b6040516020818303038152906040529050600681604051610c919190612881565b908152602001604051809103902060000154600682604051610cb39190612881565b908152602001604051809103902060010160009054906101000a900460ff16945094505050509250929050565b610cf2610ceb610f0d565b8383611229565b5050565b60045481565b6000600160008473ffffffffffffffffffffffffffffffffffffffff1673ffffffffffffffffffffffffffffffffffffffff16815260200190815260200160002060008373ffffffffffffffffffffffffffffffffffffffff1673ffffffffffffffffffffffffffffffffffffffff16815260200190815260200160002060009054906101000a900460ff16905092915050565b610d98610f0d565b73ffffffffffffffffffffffffffffffffffffffff168573ffffffffffffffffffffffffffffffffffffffff161480610dde5750610ddd85610dd8610f0d565b610cfc565b5b610e1d576040517f08c379a0000000000000000000000000000000000000000000000000000000008152600401610e1490612bf7565b60405180910390fd5b610e2a8585858585611396565b5050505050565b600080823b905060008111915050919050565b60007f01ffc9a7000000000000000000000000000000000000000000000000000000007bffffffffffffffffffffffffffffffffffffffffffffffffffffffff1916827bffffffffffffffffffffffffffffffffffffffffffffffffffffffff1916149050919050565b60008060005b6003548111610f06576000610ec9858361035c565b1115610edc576001819250925050610f08565b600354811415610ef3576000819250925050610f08565b8080610efe90612a7b565b915050610eb4565b505b915091565b600033905090565b8151835114610f59576040517f08c379a0000000000000000000000000000000000000000000000000000000008152600401610f5090612c89565b60405180910390fd5b600073ffffffffffffffffffffffffffffffffffffffff168473ffffffffffffffffffffffffffffffffffffffff161415610fc9576040517f08c379a0000000000000000000000000000000000000000000000000000000008152600401610fc090612d1b565b60405180910390fd5b6000610fd3610f0d565b9050610fe3818787878787611618565b60005b845181101561119457600085828151811061100457611003612a1d565b5b60200260200101519050600085838151811061102357611022612a1d565b5b60200260200101519050600080600084815260200190815260200160002060008b73ffffffffffffffffffffffffffffffffffffffff1673ffffffffffffffffffffffffffffffffffffffff168152602001908152602001600020549050818110156110c4576040517f08c379a00000000000000000000000000000000000000000000000000000000081526004016110bb90612dad565b60405180910390fd5b81810360008085815260200190815260200160002060008c73ffffffffffffffffffffffffffffffffffffffff1673ffffffffffffffffffffffffffffffffffffffff168152602001908152602001600020819055508160008085815260200190815260200160002060008b73ffffffffffffffffffffffffffffffffffffffff1673ffffffffffffffffffffffffffffffffffffffff16815260200190815260200160002060008282546111799190612dcd565b925050819055505050508061118d90612a7b565b9050610fe6565b508473ffffffffffffffffffffffffffffffffffffffff168673ffffffffffffffffffffffffffffffffffffffff168273ffffffffffffffffffffffffffffffffffffffff167f4a39dc06d4c0dbc64b70af90fd698a233a518aa5d07e595d983b8c0526c8f7fb878760405161120b929190612e23565b60405180910390a4611221818787878787611620565b505050505050565b8173ffffffffffffffffffffffffffffffffffffffff168373ffffffffffffffffffffffffffffffffffffffff161415611298576040517f08c379a000000000000000000000000000000000000000000000000000000000815260040161128f90612ecc565b60405180910390fd5b80600160008573ffffffffffffffffffffffffffffffffffffffff1673ffffffffffffffffffffffffffffffffffffffff16815260200190815260200160002060008473ffffffffffffffffffffffffffffffffffffffff1673ffffffffffffffffffffffffffffffffffffffff16815260200190815260200160002060006101000a81548160ff0219169083151502179055508173ffffffffffffffffffffffffffffffffffffffff168373ffffffffffffffffffffffffffffffffffffffff167f17307eab39ab6107e8899845ad3d59bd9653f200f220920489ca2b5937696c31836040516113899190611c9f565b60405180910390a3505050565b600073ffffffffffffffffffffffffffffffffffffffff168473ffffffffffffffffffffffffffffffffffffffff161415611406576040517f08c379a00000000000000000000000000000000000000000000000000000000081526004016113fd90612d1b565b60405180910390fd5b6000611410610f0d565b9050611430818787611421886117f8565b61142a886117f8565b87611618565b600080600086815260200190815260200160002060008873ffffffffffffffffffffffffffffffffffffffff1673ffffffffffffffffffffffffffffffffffffffff168152602001908152602001600020549050838110156114c7576040517f08c379a00000000000000000000000000000000000000000000000000000000081526004016114be90612dad565b60405180910390fd5b83810360008087815260200190815260200160002060008973ffffffffffffffffffffffffffffffffffffffff1673ffffffffffffffffffffffffffffffffffffffff168152602001908152602001600020819055508360008087815260200190815260200160002060008873ffffffffffffffffffffffffffffffffffffffff1673ffffffffffffffffffffffffffffffffffffffff168152602001908152602001600020600082825461157c9190612dcd565b925050819055508573ffffffffffffffffffffffffffffffffffffffff168773ffffffffffffffffffffffffffffffffffffffff168373ffffffffffffffffffffffffffffffffffffffff167fc3d58168c5ae7397731d063d5bbf3d657854427343f4c083240f7aacaa2d0f6288886040516115f9929190612eec565b60405180910390a461160f828888888888611872565b50505050505050565b505050505050565b61163f8473ffffffffffffffffffffffffffffffffffffffff16610e31565b156117f0578373ffffffffffffffffffffffffffffffffffffffff1663bc197c8187878686866040518663ffffffff1660e01b8152600401611685959493929190612f6a565b6020604051808303816000875af19250505080156116c157506040513d601f19601f820116820180604052508101906116be9190612fe7565b60015b611767576116cd613021565b806308c379a0141561172a57506116e2613043565b806116ed575061172c565b806040517f08c379a00000000000000000000000000000000000000000000000000000000081526004016117219190611f79565b60405180910390fd5b505b6040517f08c379a000000000000000000000000000000000000000000000000000000000815260040161175e9061314b565b60405180910390fd5b63bc197c8160e01b7bffffffffffffffffffffffffffffffffffffffffffffffffffffffff1916817bffffffffffffffffffffffffffffffffffffffffffffffffffffffff1916146117ee576040517f08c379a00000000000000000000000000000000000000000000000000000000081526004016117e5906131dd565b60405180910390fd5b505b505050505050565b60606000600167ffffffffffffffff81111561181757611816611cd5565b5b6040519080825280602002602001820160405280156118455781602001602082028036833780820191505090505b509050828160008151811061185d5761185c612a1d565b5b60200260200101818152505080915050919050565b6118918473ffffffffffffffffffffffffffffffffffffffff16610e31565b15611a42578373ffffffffffffffffffffffffffffffffffffffff1663f23a6e6187878686866040518663ffffffff1660e01b81526004016118d79594939291906131fd565b6020604051808303816000875af192505050801561191357506040513d601f19601f820116820180604052508101906119109190612fe7565b60015b6119b95761191f613021565b806308c379a0141561197c5750611934613043565b8061193f575061197e565b806040517f08c379a00000000000000000000000000000000000000000000000000000000081526004016119739190611f79565b60405180910390fd5b505b6040517f08c379a00000000000000000000000000000000000000000000000000000000081526004016119b09061314b565b60405180910390fd5b63f23a6e6160e01b7bffffffffffffffffffffffffffffffffffffffffffffffffffffffff1916817bffffffffffffffffffffffffffffffffffffffffffffffffffffffff191614611a40576040517f08c379a0000000000000000000000000000000000000000000000000000000008152600401611a37906131dd565b60405180910390fd5b505b505050505050565b828054611a56906128c7565b90600052602060002090601f016020900481019282611a785760008555611abf565b82601f10611a9157805160ff1916838001178555611abf565b82800160010185558215611abf579182015b82811115611abe578251825591602001919060010190611aa3565b5b509050611acc9190611ad0565b5090565b5b80821115611ae9576000816000905550600101611ad1565b5090565b6000604051905090565b600080fd5b600080fd5b600073ffffffffffffffffffffffffffffffffffffffff82169050919050565b6000611b2c82611b01565b9050919050565b611b3c81611b21565b8114611b4757600080fd5b50565b600081359050611b5981611b33565b92915050565b6000819050919050565b611b7281611b5f565b8114611b7d57600080fd5b50565b600081359050611b8f81611b69565b92915050565b60008060408385031215611bac57611bab611af7565b5b6000611bba85828601611b4a565b9250506020611bcb85828601611b80565b9150509250929050565b611bde81611b5f565b82525050565b6000602082019050611bf96000830184611bd5565b92915050565b60007fffffffff0000000000000000000000000000000000000000000000000000000082169050919050565b611c3481611bff565b8114611c3f57600080fd5b50565b600081359050611c5181611c2b565b92915050565b600060208284031215611c6d57611c6c611af7565b5b6000611c7b84828501611c42565b91505092915050565b60008115159050919050565b611c9981611c84565b82525050565b6000602082019050611cb46000830184611c90565b92915050565b600080fd5b600080fd5b6000601f19601f8301169050919050565b7f4e487b7100000000000000000000000000000000000000000000000000000000600052604160045260246000fd5b611d0d82611cc4565b810181811067ffffffffffffffff82111715611d2c57611d2b611cd5565b5b80604052505050565b6000611d3f611aed565b9050611d4b8282611d04565b919050565b600067ffffffffffffffff821115611d6b57611d6a611cd5565b5b611d7482611cc4565b9050602081019050919050565b82818337600083830152505050565b6000611da3611d9e84611d50565b611d35565b905082815260208101848484011115611dbf57611dbe611cbf565b5b611dca848285611d81565b509392505050565b600082601f830112611de757611de6611cba565b5b8135611df7848260208601611d90565b91505092915050565b611e0981611c84565b8114611e1457600080fd5b50565b600081359050611e2681611e00565b92915050565b600080600060608486031215611e4557611e44611af7565b5b600084013567ffffffffffffffff811115611e6357611e62611afc565b5b611e6f86828701611dd2565b9350506020611e8086828701611e17565b9250506040611e9186828701611b80565b9150509250925092565b6000604082019050611eb06000830185611c90565b611ebd6020830184611c90565b9392505050565b600060208284031215611eda57611ed9611af7565b5b6000611ee884828501611b80565b91505092915050565b600081519050919050565b600082825260208201905092915050565b60005b83811015611f2b578082015181840152602081019050611f10565b83811115611f3a576000848401525b50505050565b6000611f4b82611ef1565b611f558185611efc565b9350611f65818560208601611f0d565b611f6e81611cc4565b840191505092915050565b60006020820190508181036000830152611f938184611f40565b905092915050565b600067ffffffffffffffff821115611fb657611fb5611cd5565b5b602082029050602081019050919050565b600080fd5b6000611fdf611fda84611f9b565b611d35565b9050808382526020820190506020840283018581111561200257612001611fc7565b5b835b8181101561202b57806120178882611b80565b845260208401935050602081019050612004565b5050509392505050565b600082601f83011261204a57612049611cba565b5b813561205a848260208601611fcc565b91505092915050565b600067ffffffffffffffff82111561207e5761207d611cd5565b5b61208782611cc4565b9050602081019050919050565b60006120a76120a284612063565b611d35565b9050828152602081018484840111156120c3576120c2611cbf565b5b6120ce848285611d81565b509392505050565b600082601f8301126120eb576120ea611cba565b5b81356120fb848260208601612094565b91505092915050565b600080600080600060a086880312156121205761211f611af7565b5b600061212e88828901611b4a565b955050602061213f88828901611b4a565b945050604086013567ffffffffffffffff8111156121605761215f611afc565b5b61216c88828901612035565b935050606086013567ffffffffffffffff81111561218d5761218c611afc565b5b61219988828901612035565b925050608086013567ffffffffffffffff8111156121ba576121b9611afc565b5b6121c6888289016120d6565b9150509295509295909350565b600067ffffffffffffffff8211156121ee576121ed611cd5565b5b602082029050602081019050919050565b600061221261220d846121d3565b611d35565b9050808382526020820190506020840283018581111561223557612234611fc7565b5b835b8181101561225e578061224a8882611b4a565b845260208401935050602081019050612237565b5050509392505050565b600082601f83011261227d5761227c611cba565b5b813561228d8482602086016121ff565b91505092915050565b600080604083850312156122ad576122ac611af7565b5b600083013567ffffffffffffffff8111156122cb576122ca611afc565b5b6122d785828601612268565b925050602083013567ffffffffffffffff8111156122f8576122f7611afc565b5b61230485828601612035565b9150509250929050565b600081519050919050565b600082825260208201905092915050565b6000819050602082019050919050565b61234381611b5f565b82525050565b6000612355838361233a565b60208301905092915050565b6000602082019050919050565b60006123798261230e565b6123838185612319565b935061238e8361232a565b8060005b838110156123bf5781516123a68882612349565b97506123b183612361565b925050600181019050612392565b5085935050505092915050565b600060208201905081810360008301526123e6818461236e565b905092915050565b6000806000806080858703121561240857612407611af7565b5b600061241687828801611b80565b945050602061242787828801611b4a565b935050604085013567ffffffffffffffff81111561244857612447611afc565b5b61245487828801611dd2565b925050606085013567ffffffffffffffff81111561247557612474611afc565b5b61248187828801611dd2565b91505092959194509250565b61249681611b21565b82525050565b60006080820190506124b16000830187611bd5565b6124be602083018661248d565b81810360408301526124d08185611f40565b905081810360608301526124e48184611f40565b905095945050505050565b6000806040838503121561250657612505611af7565b5b600083013567ffffffffffffffff81111561252457612523611afc565b5b61253085828601611dd2565b925050602083013567ffffffffffffffff81111561255157612550611afc565b5b61255d85828601611dd2565b9150509250929050565b600060408201905061257c6000830185611bd5565b6125896020830184611c90565b9392505050565b600080604083850312156125a7576125a6611af7565b5b60006125b585828601611b4a565b92505060206125c685828601611e17565b9150509250929050565b600080604083850312156125e7576125e6611af7565b5b60006125f585828601611b4a565b925050602061260685828601611b4a565b9150509250929050565b600080600080600060a0868803121561262c5761262b611af7565b5b600061263a88828901611b4a565b955050602061264b88828901611b4a565b945050604061265c88828901611b80565b935050606061266d88828901611b80565b925050608086013567ffffffffffffffff81111561268e5761268d611afc565b5b61269a888289016120d6565b9150509295509295909350565b7f455243313135353a2062616c616e636520717565727920666f7220746865207a60008201527f65726f2061646472657373000000000000000000000000000000000000000000602082015250565b6000612703602b83611efc565b915061270e826126a7565b604082019050919050565b60006020820190508181036000830152612732816126f6565b9050919050565b7f796f75206d75737420686f6c64206b6579000000000000000000000000000000600082015250565b600061276f601183611efc565b915061277a82612739565b602082019050919050565b6000602082019050818103600083015261279e81612762565b9050919050565b600081905092915050565b60006127bb82611ef1565b6127c581856127a5565b93506127d5818560208601611f0d565b80840191505092915050565b7f2d00000000000000000000000000000000000000000000000000000000000000600082015250565b60006128176001836127a5565b9150612822826127e1565b600182019050919050565b6000819050919050565b61284861284382611b5f565b61282d565b82525050565b600061285a82856127b0565b91506128658261280a565b91506128718284612837565b6020820191508190509392505050565b600061288d82846127b0565b915081905092915050565b7f4e487b7100000000000000000000000000000000000000000000000000000000600052602260045260246000fd5b600060028204905060018216806128df57607f821691505b602082108114156128f3576128f2612898565b5b50919050565b7f455243313135353a207472616e736665722063616c6c6572206973206e6f742060008201527f6f776e6572206e6f7220617070726f7665640000000000000000000000000000602082015250565b6000612955603283611efc565b9150612960826128f9565b604082019050919050565b6000602082019050818103600083015261298481612948565b9050919050565b7f455243313135353a206163636f756e747320616e6420696473206c656e67746860008201527f206d69736d617463680000000000000000000000000000000000000000000000602082015250565b60006129e7602983611efc565b91506129f28261298b565b604082019050919050565b60006020820190508181036000830152612a16816129da565b9050919050565b7f4e487b7100000000000000000000000000000000000000000000000000000000600052603260045260246000fd5b7f4e487b7100000000000000000000000000000000000000000000000000000000600052601160045260246000fd5b6000612a8682611b5f565b91507fffffffffffffffffffffffffffffffffffffffffffffffffffffffffffffffff821415612ab957612ab8612a4c565b5b600182019050919050565b7f205f7472616e73616374696f6e4e756d622063616e742065786365656420746860008201527f6520746f74616c5472616e73616374696f6e7300000000000000000000000000602082015250565b6000612b20603383611efc565b9150612b2b82612ac4565b604082019050919050565b60006020820190508181036000830152612b4f81612b13565b9050919050565b6000612b6282856127b0565b9150612b6d8261280a565b9150612b7982846127b0565b91508190509392505050565b7f455243313135353a2063616c6c6572206973206e6f74206f776e6572206e6f7260008201527f20617070726f7665640000000000000000000000000000000000000000000000602082015250565b6000612be1602983611efc565b9150612bec82612b85565b604082019050919050565b60006020820190508181036000830152612c1081612bd4565b9050919050565b7f455243313135353a2069647320616e6420616d6f756e7473206c656e6774682060008201527f6d69736d61746368000000000000000000000000000000000000000000000000602082015250565b6000612c73602883611efc565b9150612c7e82612c17565b604082019050919050565b60006020820190508181036000830152612ca281612c66565b9050919050565b7f455243313135353a207472616e7366657220746f20746865207a65726f20616460008201527f6472657373000000000000000000000000000000000000000000000000000000602082015250565b6000612d05602583611efc565b9150612d1082612ca9565b604082019050919050565b60006020820190508181036000830152612d3481612cf8565b9050919050565b7f455243313135353a20696e73756666696369656e742062616c616e636520666f60008201527f72207472616e7366657200000000000000000000000000000000000000000000602082015250565b6000612d97602a83611efc565b9150612da282612d3b565b604082019050919050565b60006020820190508181036000830152612dc681612d8a565b9050919050565b6000612dd882611b5f565b9150612de383611b5f565b9250827fffffffffffffffffffffffffffffffffffffffffffffffffffffffffffffffff03821115612e1857612e17612a4c565b5b828201905092915050565b60006040820190508181036000830152612e3d818561236e565b90508181036020830152612e51818461236e565b90509392505050565b7f455243313135353a2073657474696e6720617070726f76616c2073746174757360008201527f20666f722073656c660000000000000000000000000000000000000000000000602082015250565b6000612eb6602983611efc565b9150612ec182612e5a565b604082019050919050565b60006020820190508181036000830152612ee581612ea9565b9050919050565b6000604082019050612f016000830185611bd5565b612f0e6020830184611bd5565b9392505050565b600081519050919050565b600082825260208201905092915050565b6000612f3c82612f15565b612f468185612f20565b9350612f56818560208601611f0d565b612f5f81611cc4565b840191505092915050565b600060a082019050612f7f600083018861248d565b612f8c602083018761248d565b8181036040830152612f9e818661236e565b90508181036060830152612fb2818561236e565b90508181036080830152612fc68184612f31565b90509695505050505050565b600081519050612fe181611c2b565b92915050565b600060208284031215612ffd57612ffc611af7565b5b600061300b84828501612fd2565b91505092915050565b60008160e01c9050919050565b600060033d11156130405760046000803e61303d600051613014565b90505b90565b600060443d1015613053576130d6565b61305b611aed565b60043d036004823e80513d602482011167ffffffffffffffff821117156130835750506130d6565b808201805167ffffffffffffffff8111156130a157505050506130d6565b80602083010160043d0385018111156130be5750505050506130d6565b6130cd82602001850186611d04565b82955050505050505b90565b7f455243313135353a207472616e7366657220746f206e6f6e204552433131353560008201527f526563656976657220696d706c656d656e746572000000000000000000000000602082015250565b6000613135603483611efc565b9150613140826130d9565b604082019050919050565b6000602082019050818103600083015261316481613128565b9050919050565b7f455243313135353a204552433131353552656365697665722072656a6563746560008201527f6420746f6b656e73000000000000000000000000000000000000000000000000602082015250565b60006131c7602883611efc565b91506131d28261316b565b604082019050919050565b600060208201905081810360008301526131f6816131ba565b9050919050565b600060a082019050613212600083018861248d565b61321f602083018761248d565b61322c6040830186611bd5565b6132396060830185611bd5565b818103608083015261324b8184612f31565b9050969550505050505056fea2646970667358221220613f732f37212202829ea3b3f9b48e1f27f06220f5876722725a1190bb15213a64736f6c634300080a0033",
  "immutableReferences": {},
  "source": "pragma solidity ^0.8.10;\n// SPDX-License-Identifier: MIT\nimport \"@openzeppelin/contracts/token/ERC1155/ERC1155.sol\";\n\ncontract MultiSigTreasury is ERC1155{\n    uint KEYS =0;\n    uint public TotalTransactions=0;\n\n    mapping(uint => KeyListings) keys;\n    mapping(string => VoteOnTransaction) vote;\n    mapping(uint => MultiSigTransaction) MSTrans;\n    \n    //list Keys\n    struct KeyListings{\n        uint count;\n        bool exist;\n    }\n    //cast vote for transaction\n    struct VoteOnTransaction{\n        uint Key;\n        bool status;\n    }\n    struct MultiSigTransaction{\n        uint ammount;\n        address toAddress;\n        string topic;\n        string messege;\n        bool status;\n        uint pass;\n        uint fail;\n        uint voteCount;\n    }\n    //Launch Contract and Keys\n    constructor(uint _totalKeys, uint _VotesNeededToPass,string memory URI)ERC1155(URI){\n        require(_VotesNeededToPass <= _totalKeys);\n        KEYS =_totalKeys;\n        uint countKeys;\n        for(countKeys=0; countKeys < _totalKeys; countKeys++){\n            keys[countKeys] = KeyListings(countKeys,true);\n            _mint(msg.sender, countKeys, 1, \"\");\n        }\n    }\n    //modifier checks to see if user has a key before executing the function\n    modifier CheckKeys{\n        (bool keyStatus,uint keyNumb) = checkTokens(msg.sender);\n        require(keyStatus == true);\n        _;\n    }\n    //internal function checks to see if user has key\n    function checkTokens(address _user) internal returns(bool,uint){\n        uint i;\n        for(i=0; i <= KEYS; i++){\n            if(balanceOf(_user,i) > 0){\n                return (true,i);\n            } else if(i == KEYS){\n                return (false,i);\n            }\n        }       \n    }\n    //check vote summition total\n    function checkTransactions() internal returns(bool){\n        //set up voting count\n        if(true){\n            return true;\n        } else {\n            return false;\n        }\n    }\n    //checks the voting status of a particular vote on a transactions\n    function checkVote(string memory _keyNumb, string memory _transNumb) public CheckKeys returns(uint,bool){\n        string memory checkStatus;\n        checkStatus = string(abi.encodePacked(_transNumb,\"-\",_keyNumb));\n        return (vote[checkStatus].Key,vote[checkStatus].status);\n    }\n    //view previouse & pending transactions\n    function viewTransaction(uint _transactionNumb) public CheckKeys returns(uint,address,string memory,string memory){\n        require(_transactionNumb <= TotalTransactions, \" _transactionNumb cant exceed the totalTransactions\");\n        return (MSTrans[_transactionNumb].ammount ,MSTrans[_transactionNumb].toAddress ,MSTrans[_transactionNumb].topic ,MSTrans[_transactionNumb].messege);\n    }\n    //make a submittion to move funds to the contract\n    function submitTransaction(uint _ammount, address _toAddress,string memory _topic,string memory _messege) public CheckKeys returns(bool){\n        MSTrans[TotalTransactions] = MultiSigTransaction(_ammount,_toAddress,_topic,_messege,false,0,0,0);\n        TotalTransactions++;\n        return true;\n    }\n    //key holders can cast votes as a key for a transaction\n    function confirmTransaction(string memory _TransactionNumber, bool _vote,uint _keyNumb) public CheckKeys returns(bool,bool){\n        string memory castVote;\n        require(balanceOf(msg.sender,_keyNumb)>0, \"you must hold key\");\n        castVote = string(abi.encodePacked(_TransactionNumber,\"-\",_keyNumb));\n        vote[castVote] = VoteOnTransaction(_keyNumb,_vote);\n        //check if vote has been made\n        //cast vote\n        //show vote status\n    }\n    function executeTransaction() public CheckKeys returns(bool){}\n    function revokeConfirmation() public CheckKeys returns(bool){}\n}",
  "sourcePath": "/Users/Q/Documents/GitHub/Multi-Sig-Treasury/contracts/Multi-Sig-Key.sol",
  "compiler": {
    "name": "solc",
    "version": "0.8.10+commit.fc410830.Emscripten.clang"
  },
  "schemaVersion": "3.4.3",
  "updatedAt": "2022-05-25T20:18:21.903Z",
  "devdoc": {
    "kind": "dev",
    "methods": {
      "balanceOf(address,uint256)": {
        "details": "See {IERC1155-balanceOf}. Requirements: - `account` cannot be the zero address."
      },
      "balanceOfBatch(address[],uint256[])": {
        "details": "See {IERC1155-balanceOfBatch}. Requirements: - `accounts` and `ids` must have the same length."
      },
      "isApprovedForAll(address,address)": {
        "details": "See {IERC1155-isApprovedForAll}."
      },
      "safeBatchTransferFrom(address,address,uint256[],uint256[],bytes)": {
        "details": "See {IERC1155-safeBatchTransferFrom}."
      },
      "safeTransferFrom(address,address,uint256,uint256,bytes)": {
        "details": "See {IERC1155-safeTransferFrom}."
      },
      "setApprovalForAll(address,bool)": {
        "details": "See {IERC1155-setApprovalForAll}."
      },
      "supportsInterface(bytes4)": {
        "details": "See {IERC165-supportsInterface}."
      },
      "uri(uint256)": {
        "details": "See {IERC1155MetadataURI-uri}. This implementation returns the same URI for *all* token types. It relies on the token type ID substitution mechanism https://eips.ethereum.org/EIPS/eip-1155#metadata[defined in the EIP]. Clients calling this function must replace the `\\{id\\}` substring with the actual token type ID."
      }
    },
    "version": 1
  },
  "userdoc": {
    "kind": "user",
    "methods": {},
    "version": 1
  }
}