{
  "contractName": "MultiSigTreasury",
  "abi": [
    {
      "inputs": [
        {
          "internalType": "uint256",
          "name": "_totalKeys",
          "type": "uint256"
        },
        {
          "internalType": "uint256",
          "name": "_VotesNeededToPass",
          "type": "uint256"
        },
        {
          "internalType": "string",
          "name": "URI",
          "type": "string"
        }
      ],
      "stateMutability": "nonpayable",
      "type": "constructor"
    },
    {
      "anonymous": false,
      "inputs": [
        {
          "indexed": true,
          "internalType": "address",
          "name": "account",
          "type": "address"
        },
        {
          "indexed": true,
          "internalType": "address",
          "name": "operator",
          "type": "address"
        },
        {
          "indexed": false,
          "internalType": "bool",
          "name": "approved",
          "type": "bool"
        }
      ],
      "name": "ApprovalForAll",
      "type": "event"
    },
    {
      "anonymous": false,
      "inputs": [
        {
          "indexed": true,
          "internalType": "address",
          "name": "operator",
          "type": "address"
        },
        {
          "indexed": true,
          "internalType": "address",
          "name": "from",
          "type": "address"
        },
        {
          "indexed": true,
          "internalType": "address",
          "name": "to",
          "type": "address"
        },
        {
          "indexed": false,
          "internalType": "uint256[]",
          "name": "ids",
          "type": "uint256[]"
        },
        {
          "indexed": false,
          "internalType": "uint256[]",
          "name": "values",
          "type": "uint256[]"
        }
      ],
      "name": "TransferBatch",
      "type": "event"
    },
    {
      "anonymous": false,
      "inputs": [
        {
          "indexed": true,
          "internalType": "address",
          "name": "operator",
          "type": "address"
        },
        {
          "indexed": true,
          "internalType": "address",
          "name": "from",
          "type": "address"
        },
        {
          "indexed": true,
          "internalType": "address",
          "name": "to",
          "type": "address"
        },
        {
          "indexed": false,
          "internalType": "uint256",
          "name": "id",
          "type": "uint256"
        },
        {
          "indexed": false,
          "internalType": "uint256",
          "name": "value",
          "type": "uint256"
        }
      ],
      "name": "TransferSingle",
      "type": "event"
    },
    {
      "anonymous": false,
      "inputs": [
        {
          "indexed": false,
          "internalType": "string",
          "name": "value",
          "type": "string"
        },
        {
          "indexed": true,
          "internalType": "uint256",
          "name": "id",
          "type": "uint256"
        }
      ],
      "name": "URI",
      "type": "event"
    },
    {
      "inputs": [],
      "name": "TotalTransactions",
      "outputs": [
        {
          "internalType": "uint256",
          "name": "",
          "type": "uint256"
        }
      ],
      "stateMutability": "view",
      "type": "function"
    },
    {
      "inputs": [],
      "name": "VotesNeededToPass",
      "outputs": [
        {
          "internalType": "uint256",
          "name": "",
          "type": "uint256"
        }
      ],
      "stateMutability": "view",
      "type": "function"
    },
    {
      "inputs": [
        {
          "internalType": "address",
          "name": "account",
          "type": "address"
        },
        {
          "internalType": "uint256",
          "name": "id",
          "type": "uint256"
        }
      ],
      "name": "balanceOf",
      "outputs": [
        {
          "internalType": "uint256",
          "name": "",
          "type": "uint256"
        }
      ],
      "stateMutability": "view",
      "type": "function"
    },
    {
      "inputs": [
        {
          "internalType": "address[]",
          "name": "accounts",
          "type": "address[]"
        },
        {
          "internalType": "uint256[]",
          "name": "ids",
          "type": "uint256[]"
        }
      ],
      "name": "balanceOfBatch",
      "outputs": [
        {
          "internalType": "uint256[]",
          "name": "",
          "type": "uint256[]"
        }
      ],
      "stateMutability": "view",
      "type": "function"
    },
    {
      "inputs": [
        {
          "internalType": "address",
          "name": "account",
          "type": "address"
        },
        {
          "internalType": "address",
          "name": "operator",
          "type": "address"
        }
      ],
      "name": "isApprovedForAll",
      "outputs": [
        {
          "internalType": "bool",
          "name": "",
          "type": "bool"
        }
      ],
      "stateMutability": "view",
      "type": "function"
    },
    {
      "inputs": [
        {
          "internalType": "address",
          "name": "from",
          "type": "address"
        },
        {
          "internalType": "address",
          "name": "to",
          "type": "address"
        },
        {
          "internalType": "uint256[]",
          "name": "ids",
          "type": "uint256[]"
        },
        {
          "internalType": "uint256[]",
          "name": "amounts",
          "type": "uint256[]"
        },
        {
          "internalType": "bytes",
          "name": "data",
          "type": "bytes"
        }
      ],
      "name": "safeBatchTransferFrom",
      "outputs": [],
      "stateMutability": "nonpayable",
      "type": "function"
    },
    {
      "inputs": [
        {
          "internalType": "address",
          "name": "from",
          "type": "address"
        },
        {
          "internalType": "address",
          "name": "to",
          "type": "address"
        },
        {
          "internalType": "uint256",
          "name": "id",
          "type": "uint256"
        },
        {
          "internalType": "uint256",
          "name": "amount",
          "type": "uint256"
        },
        {
          "internalType": "bytes",
          "name": "data",
          "type": "bytes"
        }
      ],
      "name": "safeTransferFrom",
      "outputs": [],
      "stateMutability": "nonpayable",
      "type": "function"
    },
    {
      "inputs": [
        {
          "internalType": "address",
          "name": "operator",
          "type": "address"
        },
        {
          "internalType": "bool",
          "name": "approved",
          "type": "bool"
        }
      ],
      "name": "setApprovalForAll",
      "outputs": [],
      "stateMutability": "nonpayable",
      "type": "function"
    },
    {
      "inputs": [
        {
          "internalType": "bytes4",
          "name": "interfaceId",
          "type": "bytes4"
        }
      ],
      "name": "supportsInterface",
      "outputs": [
        {
          "internalType": "bool",
          "name": "",
          "type": "bool"
        }
      ],
      "stateMutability": "view",
      "type": "function"
    },
    {
      "inputs": [
        {
          "internalType": "uint256",
          "name": "",
          "type": "uint256"
        }
      ],
      "name": "uri",
      "outputs": [
        {
          "internalType": "string",
          "name": "",
          "type": "string"
        }
      ],
      "stateMutability": "view",
      "type": "function"
    },
    {
      "inputs": [
        {
          "internalType": "string",
          "name": "_keyNumb",
          "type": "string"
        },
        {
          "internalType": "string",
          "name": "_transNumb",
          "type": "string"
        }
      ],
      "name": "checkVote",
      "outputs": [
        {
          "internalType": "uint256",
          "name": "",
          "type": "uint256"
        },
        {
          "internalType": "bool",
          "name": "",
          "type": "bool"
        }
      ],
      "stateMutability": "nonpayable",
      "type": "function"
    },
    {
      "inputs": [
        {
          "internalType": "uint256",
          "name": "_transactionNumb",
          "type": "uint256"
        }
      ],
      "name": "viewTransaction",
      "outputs": [
        {
          "internalType": "uint256",
          "name": "",
          "type": "uint256"
        },
        {
          "internalType": "address",
          "name": "",
          "type": "address"
        },
        {
          "internalType": "string",
          "name": "",
          "type": "string"
        },
        {
          "internalType": "string",
          "name": "",
          "type": "string"
        },
        {
          "internalType": "bool",
          "name": "",
          "type": "bool"
        },
        {
          "internalType": "uint256",
          "name": "",
          "type": "uint256"
        }
      ],
      "stateMutability": "nonpayable",
      "type": "function"
    },
    {
      "inputs": [
        {
          "internalType": "uint256",
          "name": "_ammount",
          "type": "uint256"
        },
        {
          "internalType": "address",
          "name": "_toAddress",
          "type": "address"
        },
        {
          "internalType": "string",
          "name": "_topic",
          "type": "string"
        },
        {
          "internalType": "string",
          "name": "_messege",
          "type": "string"
        }
      ],
      "name": "submitTransaction",
      "outputs": [
        {
          "internalType": "bool",
          "name": "",
          "type": "bool"
        }
      ],
      "stateMutability": "nonpayable",
      "type": "function"
    },
    {
      "inputs": [
        {
          "internalType": "uint256",
          "name": "_TransactionNumber",
          "type": "uint256"
        },
        {
          "internalType": "bool",
          "name": "_vote",
          "type": "bool"
        },
        {
          "internalType": "uint256",
          "name": "_keyNumb",
          "type": "uint256"
        }
      ],
      "name": "confirmTransaction",
      "outputs": [
        {
          "internalType": "uint256",
          "name": "",
          "type": "uint256"
        },
        {
          "internalType": "uint256",
          "name": "",
          "type": "uint256"
        }
      ],
      "stateMutability": "nonpayable",
      "type": "function"
    },
    {
      "inputs": [
        {
          "internalType": "uint256",
          "name": "_TransactionNumber",
          "type": "uint256"
        },
        {
          "internalType": "string",
          "name": "_castVote",
          "type": "string"
        }
      ],
      "name": "revokeConfirmation",
      "outputs": [
        {
          "internalType": "bool",
          "name": "",
          "type": "bool"
        }
      ],
      "stateMutability": "nonpayable",
      "type": "function"
    }
  ],
  "bytecode": "0x6080604052600060035560006004553480156200001b57600080fd5b5060405162004adb38038062004adb833981810160405281019062000041919062000857565b8062000053816200015060201b60201c565b50828211156200009a576040517f08c379a0000000000000000000000000000000000000000000000000000000008152600401620000919062000959565b60405180910390fd5b826003819055508160058190555060005b838110156200014657604051806040016040528082815260200160011515815250600660008381526020019081526020016000206000820151816000015560208201518160010160006101000a81548160ff0219169083151502179055509050506200013033826001604051806020016040528060008152506200016c60201b60201c565b80806200013d90620009aa565b915050620000ab565b5050505062000fc8565b806002908051906020019062000168929190620005cf565b5050565b600073ffffffffffffffffffffffffffffffffffffffff168473ffffffffffffffffffffffffffffffffffffffff161415620001df576040517f08c379a0000000000000000000000000000000000000000000000000000000008152600401620001d69062000a6e565b60405180910390fd5b6000620001f16200033160201b60201c565b90506200022a816000876200020c886200033960201b60201c565b6200021d886200033960201b60201c565b87620003ba60201b60201c565b8260008086815260200190815260200160002060008773ffffffffffffffffffffffffffffffffffffffff1673ffffffffffffffffffffffffffffffffffffffff16815260200190815260200160002060008282546200028b919062000a90565b925050819055508473ffffffffffffffffffffffffffffffffffffffff16600073ffffffffffffffffffffffffffffffffffffffff168273ffffffffffffffffffffffffffffffffffffffff167fc3d58168c5ae7397731d063d5bbf3d657854427343f4c083240f7aacaa2d0f6287876040516200030b92919062000afe565b60405180910390a46200032a81600087878787620003c260201b60201c565b5050505050565b600033905090565b60606000600167ffffffffffffffff8111156200035b576200035a620006e9565b5b6040519080825280602002602001820160405280156200038a5781602001602082028036833780820191505090505b5090508281600081518110620003a557620003a462000b2b565b5b60200260200101818152505080915050919050565b505050505050565b620003ee8473ffffffffffffffffffffffffffffffffffffffff16620005bc60201b620013141760201c565b15620005b4578373ffffffffffffffffffffffffffffffffffffffff1663f23a6e6187878686866040518663ffffffff1660e01b81526004016200043795949392919062000bfc565b6020604051808303816000875af19250505080156200047657506040513d601f19601f8201168201806040525081019062000473919062000cbd565b60015b62000528576200048562000cfc565b806308c379a01415620004e957506200049d62000d21565b80620004aa5750620004eb565b806040517f08c379a0000000000000000000000000000000000000000000000000000000008152600401620004e0919062000e0f565b60405180910390fd5b505b6040517f08c379a00000000000000000000000000000000000000000000000000000000081526004016200051f9062000ea9565b60405180910390fd5b63f23a6e6160e01b7bffffffffffffffffffffffffffffffffffffffffffffffffffffffff1916817bffffffffffffffffffffffffffffffffffffffffffffffffffffffff191614620005b2576040517f08c379a0000000000000000000000000000000000000000000000000000000008152600401620005a99062000f41565b60405180910390fd5b505b505050505050565b600080823b905060008111915050919050565b828054620005dd9062000f92565b90600052602060002090601f0160209004810192826200060157600085556200064d565b82601f106200061c57805160ff19168380011785556200064d565b828001600101855582156200064d579182015b828111156200064c5782518255916020019190600101906200062f565b5b5090506200065c919062000660565b5090565b5b808211156200067b57600081600090555060010162000661565b5090565b6000604051905090565b600080fd5b600080fd5b6000819050919050565b620006a88162000693565b8114620006b457600080fd5b50565b600081519050620006c8816200069d565b92915050565b600080fd5b600080fd5b6000601f19601f8301169050919050565b7f4e487b7100000000000000000000000000000000000000000000000000000000600052604160045260246000fd5b6200072382620006d8565b810181811067ffffffffffffffff82111715620007455762000744620006e9565b5b80604052505050565b60006200075a6200067f565b905062000768828262000718565b919050565b600067ffffffffffffffff8211156200078b576200078a620006e9565b5b6200079682620006d8565b9050602081019050919050565b60005b83811015620007c3578082015181840152602081019050620007a6565b83811115620007d3576000848401525b50505050565b6000620007f0620007ea846200076d565b6200074e565b9050828152602081018484840111156200080f576200080e620006d3565b5b6200081c848285620007a3565b509392505050565b600082601f8301126200083c576200083b620006ce565b5b81516200084e848260208601620007d9565b91505092915050565b60008060006060848603121562000873576200087262000689565b5b60006200088386828701620006b7565b93505060206200089686828701620006b7565b925050604084015167ffffffffffffffff811115620008ba57620008b96200068e565b5b620008c88682870162000824565b9150509250925092565b600082825260208201905092915050565b7f796f752063616e742068617665206d6f726520766f746573206e65656465642060008201527f7468616e206b6579732063726561746564000000000000000000000000000000602082015250565b600062000941603183620008d2565b91506200094e82620008e3565b604082019050919050565b60006020820190508181036000830152620009748162000932565b9050919050565b7f4e487b7100000000000000000000000000000000000000000000000000000000600052601160045260246000fd5b6000620009b78262000693565b91507fffffffffffffffffffffffffffffffffffffffffffffffffffffffffffffffff821415620009ed57620009ec6200097b565b5b600182019050919050565b7f455243313135353a206d696e7420746f20746865207a65726f2061646472657360008201527f7300000000000000000000000000000000000000000000000000000000000000602082015250565b600062000a56602183620008d2565b915062000a6382620009f8565b604082019050919050565b6000602082019050818103600083015262000a898162000a47565b9050919050565b600062000a9d8262000693565b915062000aaa8362000693565b9250827fffffffffffffffffffffffffffffffffffffffffffffffffffffffffffffffff0382111562000ae25762000ae16200097b565b5b828201905092915050565b62000af88162000693565b82525050565b600060408201905062000b15600083018562000aed565b62000b24602083018462000aed565b9392505050565b7f4e487b7100000000000000000000000000000000000000000000000000000000600052603260045260246000fd5b600073ffffffffffffffffffffffffffffffffffffffff82169050919050565b600062000b878262000b5a565b9050919050565b62000b998162000b7a565b82525050565b600081519050919050565b600082825260208201905092915050565b600062000bc88262000b9f565b62000bd4818562000baa565b935062000be6818560208601620007a3565b62000bf181620006d8565b840191505092915050565b600060a08201905062000c13600083018862000b8e565b62000c22602083018762000b8e565b62000c31604083018662000aed565b62000c40606083018562000aed565b818103608083015262000c54818462000bbb565b90509695505050505050565b60007fffffffff0000000000000000000000000000000000000000000000000000000082169050919050565b62000c978162000c60565b811462000ca357600080fd5b50565b60008151905062000cb78162000c8c565b92915050565b60006020828403121562000cd65762000cd562000689565b5b600062000ce68482850162000ca6565b91505092915050565b60008160e01c9050919050565b600060033d111562000d1e5760046000803e62000d1b60005162000cef565b90505b90565b600060443d101562000d335762000dc0565b62000d3d6200067f565b60043d036004823e80513d602482011167ffffffffffffffff8211171562000d6757505062000dc0565b808201805167ffffffffffffffff81111562000d87575050505062000dc0565b80602083010160043d03850181111562000da657505050505062000dc0565b62000db78260200185018662000718565b82955050505050505b90565b600081519050919050565b600062000ddb8262000dc3565b62000de78185620008d2565b935062000df9818560208601620007a3565b62000e0481620006d8565b840191505092915050565b6000602082019050818103600083015262000e2b818462000dce565b905092915050565b7f455243313135353a207472616e7366657220746f206e6f6e204552433131353560008201527f526563656976657220696d706c656d656e746572000000000000000000000000602082015250565b600062000e91603483620008d2565b915062000e9e8262000e33565b604082019050919050565b6000602082019050818103600083015262000ec48162000e82565b9050919050565b7f455243313135353a204552433131353552656365697665722072656a6563746560008201527f6420746f6b656e73000000000000000000000000000000000000000000000000602082015250565b600062000f29602883620008d2565b915062000f368262000ecb565b604082019050919050565b6000602082019050818103600083015262000f5c8162000f1a565b9050919050565b7f4e487b7100000000000000000000000000000000000000000000000000000000600052602260045260246000fd5b6000600282049050600182168062000fab57607f821691505b6020821081141562000fc25762000fc162000f63565b5b50919050565b613b038062000fd86000396000f3fe608060405234801561001057600080fd5b50600436106100f45760003560e01c80638916d12c11610097578063cedb980f11610066578063cedb980f146102d6578063e985e9c5146102f4578063f242432a14610324578063fe7a4cca14610340576100f4565b80638916d12c1461023657806398530e401461026b578063a22cb4651461029c578063cc0225a0146102b8576100f4565b80632eb2c2d6116100d35780632eb2c2d6146101895780634e1273f4146101a55780634eb4b1a1146101d55780634ec3359314610206576100f4565b8062fdd58e146100f957806301ffc9a7146101295780630e89341c14610159575b600080fd5b610113600480360381019061010e9190612188565b610370565b60405161012091906121d7565b60405180910390f35b610143600480360381019061013e919061224a565b610439565b6040516101509190612292565b60405180910390f35b610173600480360381019061016e91906122ad565b61051b565b6040516101809190612373565b60405180910390f35b6101a3600480360381019061019e9190612592565b6105af565b005b6101bf60048036038101906101ba9190612724565b610650565b6040516101cc919061285a565b60405180910390f35b6101ef60048036038101906101ea91906128a8565b610769565b6040516101fd9291906128fb565b60405180910390f35b610220600480360381019061021b91906129c5565b610a05565b60405161022d9190612292565b60405180910390f35b610250600480360381019061024b91906122ad565b610be5565b60405161026296959493929190612a73565b60405180910390f35b61028560048036038101906102809190612ae2565b610e6e565b604051610293929190612b5a565b60405180910390f35b6102b660048036038101906102b19190612b83565b610f4d565b005b6102c0610f63565b6040516102cd91906121d7565b60405180910390f35b6102de610f69565b6040516102eb91906121d7565b60405180910390f35b61030e60048036038101906103099190612bc3565b610f6f565b60405161031b9190612292565b60405180910390f35b61033e60048036038101906103399190612c03565b611003565b005b61035a60048036038101906103559190612c9a565b6110a4565b6040516103679190612292565b60405180910390f35b60008073ffffffffffffffffffffffffffffffffffffffff168373ffffffffffffffffffffffffffffffffffffffff1614156103e1576040517f08c379a00000000000000000000000000000000000000000000000000000000081526004016103d890612d68565b60405180910390fd5b60008083815260200190815260200160002060008473ffffffffffffffffffffffffffffffffffffffff1673ffffffffffffffffffffffffffffffffffffffff16815260200190815260200160002054905092915050565b60007fd9b67a26000000000000000000000000000000000000000000000000000000007bffffffffffffffffffffffffffffffffffffffffffffffffffffffff1916827bffffffffffffffffffffffffffffffffffffffffffffffffffffffff1916148061050457507f0e89341c000000000000000000000000000000000000000000000000000000007bffffffffffffffffffffffffffffffffffffffffffffffffffffffff1916827bffffffffffffffffffffffffffffffffffffffffffffffffffffffff1916145b80610514575061051382611327565b5b9050919050565b60606002805461052a90612db7565b80601f016020809104026020016040519081016040528092919081815260200182805461055690612db7565b80156105a35780601f10610578576101008083540402835291602001916105a3565b820191906000526020600020905b81548152906001019060200180831161058657829003601f168201915b50505050509050919050565b6105b7611391565b73ffffffffffffffffffffffffffffffffffffffff168573ffffffffffffffffffffffffffffffffffffffff1614806105fd57506105fc856105f7611391565b610f6f565b5b61063c576040517f08c379a000000000000000000000000000000000000000000000000000000000815260040161063390612e5b565b60405180910390fd5b6106498585858585611399565b5050505050565b60608151835114610696576040517f08c379a000000000000000000000000000000000000000000000000000000000815260040161068d90612eed565b60405180910390fd5b6000835167ffffffffffffffff8111156106b3576106b261239a565b5b6040519080825280602002602001820160405280156106e15781602001602082028036833780820191505090505b50905060005b845181101561075e5761072e85828151811061070657610705612f0d565b5b602002602001015185838151811061072157610720612f0d565b5b6020026020010151610370565b82828151811061074157610740612f0d565b5b6020026020010181815250508061075790612f6b565b90506106e7565b508091505092915050565b600080600080610778336116ad565b9150915060011515821515146107c3576040517f08c379a00000000000000000000000000000000000000000000000000000000081526004016107ba90613026565b60405180910390fd5b600015156008600089815260200190815260200160002060040160009054906101000a900460ff1615151461082d576040517f08c379a0000000000000000000000000000000000000000000000000000000008152600401610824906130de565b60405180910390fd5b60608786604051602001610842929190613176565b60405160208183030381529060405290506000151560078260405161086791906131de565b908152602001604051809103902060010160019054906101000a900460ff161515146108c8576040517f08c379a00000000000000000000000000000000000000000000000000000000081526004016108bf90613241565b60405180910390fd5b60405180606001604052808781526020018815158152602001600115158152506007826040516108f891906131de565b90815260200160405180910390206000820151816000015560208201518160010160006101000a81548160ff02191690831515021790555060408201518160010160016101000a81548160ff0219169083151502179055509050506001151587151514156109915760086000898152602001908152602001600020600501600081548092919061098790612f6b565b91905055506109be565b6008600089815260200190815260200160002060060160008154809291906109b890612f6b565b91905055505b6109c78861170c565b506008600089815260200190815260200160002060050154600860008a81526020019081526020016000206006015494509450505050935093915050565b6000806000610a13336116ad565b915091506001151582151514610a5e576040517f08c379a0000000000000000000000000000000000000000000000000000000008152600401610a5590613026565b60405180910390fd5b6040518061012001604052808881526020018773ffffffffffffffffffffffffffffffffffffffff168152602001868152602001858152602001600015158152602001600081526020016000815260200160008152602001600115158152506008600060045481526020019081526020016000206000820151816000015560208201518160010160006101000a81548173ffffffffffffffffffffffffffffffffffffffff021916908373ffffffffffffffffffffffffffffffffffffffff1602179055506040820151816002019080519060200190610b3f92919061203d565b506060820151816003019080519060200190610b5c92919061203d565b5060808201518160040160006101000a81548160ff02191690831515021790555060a0820151816005015560c0820151816006015560e082015181600701556101008201518160080160006101000a81548160ff02191690831515021790555090505060046000815480929190610bd290612f6b565b9190505550600192505050949350505050565b600080606080600080600080610bfa336116ad565b915091506001151582151514610c45576040517f08c379a0000000000000000000000000000000000000000000000000000000008152600401610c3c90613026565b60405180910390fd5b600454891115610c8a576040517f08c379a0000000000000000000000000000000000000000000000000000000008152600401610c81906132d3565b60405180910390fd5b600860008a815260200190815260200160002060000154600860008b815260200190815260200160002060010160009054906101000a900473ffffffffffffffffffffffffffffffffffffffff16600860008c8152602001908152602001600020600201600860008d8152602001908152602001600020600301600860008e815260200190815260200160002060040160009054906101000a900460ff16600860008f815260200190815260200160002060050154838054610d4b90612db7565b80601f0160208091040260200160405190810160405280929190818152602001828054610d7790612db7565b8015610dc45780601f10610d9957610100808354040283529160200191610dc4565b820191906000526020600020905b815481529060010190602001808311610da757829003601f168201915b50505050509350828054610dd790612db7565b80601f0160208091040260200160405190810160405280929190818152602001828054610e0390612db7565b8015610e505780601f10610e2557610100808354040283529160200191610e50565b820191906000526020600020905b815481529060010190602001808311610e3357829003601f168201915b50505050509250975097509750975097509750505091939550919395565b600080600080610e7d336116ad565b915091506001151582151514610ec8576040517f08c379a0000000000000000000000000000000000000000000000000000000008152600401610ebf90613026565b60405180910390fd5b60608587604051602001610edd9291906132f3565b6040516020818303038152906040529050600781604051610efe91906131de565b908152602001604051809103902060000154600782604051610f2091906131de565b908152602001604051809103902060010160009054906101000a900460ff16945094505050509250929050565b610f5f610f58611391565b838361174a565b5050565b60045481565b60055481565b6000600160008473ffffffffffffffffffffffffffffffffffffffff1673ffffffffffffffffffffffffffffffffffffffff16815260200190815260200160002060008373ffffffffffffffffffffffffffffffffffffffff1673ffffffffffffffffffffffffffffffffffffffff16815260200190815260200160002060009054906101000a900460ff16905092915050565b61100b611391565b73ffffffffffffffffffffffffffffffffffffffff168573ffffffffffffffffffffffffffffffffffffffff16148061105157506110508561104b611391565b610f6f565b5b611090576040517f08c379a000000000000000000000000000000000000000000000000000000000815260040161108790613394565b60405180910390fd5b61109d85858585856118b7565b5050505050565b60008060006110b2336116ad565b9150915060011515821515146110fd576040517f08c379a00000000000000000000000000000000000000000000000000000000081526004016110f490613026565b60405180910390fd5b600015156008600087815260200190815260200160002060040160009054906101000a900460ff16151514801561115b5750600115156008600087815260200190815260200160002060080160009054906101000a900460ff161515145b61119a576040517f08c379a000000000000000000000000000000000000000000000000000000000815260040161119190613400565b60405180910390fd5b600115156007856040516111ae91906131de565b908152602001604051809103902060010160019054906101000a900460ff1615151461120f576040517f08c379a00000000000000000000000000000000000000000000000000000000081526004016112069061346c565b60405180910390fd5b6001151560078560405161122391906131de565b908152602001604051809103902060010160009054906101000a900460ff16151514156112ad576008600086815260200190815260200160002060050160008154809291906112719061348c565b91905055506000151560078560405161128a91906131de565b908152602001604051809103902060010160019054906101000a9050505061130c565b6008600086815260200190815260200160002060060160008154809291906112d49061348c565b9190505550600015156007856040516112ed91906131de565b908152602001604051809103902060010160019054906101000a905050505b505092915050565b600080823b905060008111915050919050565b60007f01ffc9a7000000000000000000000000000000000000000000000000000000007bffffffffffffffffffffffffffffffffffffffffffffffffffffffff1916827bffffffffffffffffffffffffffffffffffffffffffffffffffffffff1916149050919050565b600033905090565b81518351146113dd576040517f08c379a00000000000000000000000000000000000000000000000000000000081526004016113d490613528565b60405180910390fd5b600073ffffffffffffffffffffffffffffffffffffffff168473ffffffffffffffffffffffffffffffffffffffff16141561144d576040517f08c379a0000000000000000000000000000000000000000000000000000000008152600401611444906135ba565b60405180910390fd5b6000611457611391565b9050611467818787878787611b39565b60005b845181101561161857600085828151811061148857611487612f0d565b5b6020026020010151905060008583815181106114a7576114a6612f0d565b5b60200260200101519050600080600084815260200190815260200160002060008b73ffffffffffffffffffffffffffffffffffffffff1673ffffffffffffffffffffffffffffffffffffffff16815260200190815260200160002054905081811015611548576040517f08c379a000000000000000000000000000000000000000000000000000000000815260040161153f9061364c565b60405180910390fd5b81810360008085815260200190815260200160002060008c73ffffffffffffffffffffffffffffffffffffffff1673ffffffffffffffffffffffffffffffffffffffff168152602001908152602001600020819055508160008085815260200190815260200160002060008b73ffffffffffffffffffffffffffffffffffffffff1673ffffffffffffffffffffffffffffffffffffffff16815260200190815260200160002060008282546115fd919061366c565b925050819055505050508061161190612f6b565b905061146a565b508473ffffffffffffffffffffffffffffffffffffffff168673ffffffffffffffffffffffffffffffffffffffff168273ffffffffffffffffffffffffffffffffffffffff167f4a39dc06d4c0dbc64b70af90fd698a233a518aa5d07e595d983b8c0526c8f7fb878760405161168f9291906136c2565b60405180910390a46116a5818787878787611b41565b505050505050565b60008060005b60035481116117055760006116c88583610370565b11156116db576001819250925050611707565b6003548114156116f2576000819250925050611707565b80806116fd90612f6b565b9150506116b3565b505b915091565b60006005546008600084815260200190815260200160002060050154106117405761173682611d19565b5060019050611745565b600090505b919050565b8173ffffffffffffffffffffffffffffffffffffffff168373ffffffffffffffffffffffffffffffffffffffff1614156117b9576040517f08c379a00000000000000000000000000000000000000000000000000000000081526004016117b09061376b565b60405180910390fd5b80600160008573ffffffffffffffffffffffffffffffffffffffff1673ffffffffffffffffffffffffffffffffffffffff16815260200190815260200160002060008473ffffffffffffffffffffffffffffffffffffffff1673ffffffffffffffffffffffffffffffffffffffff16815260200190815260200160002060006101000a81548160ff0219169083151502179055508173ffffffffffffffffffffffffffffffffffffffff168373ffffffffffffffffffffffffffffffffffffffff167f17307eab39ab6107e8899845ad3d59bd9653f200f220920489ca2b5937696c31836040516118aa9190612292565b60405180910390a3505050565b600073ffffffffffffffffffffffffffffffffffffffff168473ffffffffffffffffffffffffffffffffffffffff161415611927576040517f08c379a000000000000000000000000000000000000000000000000000000000815260040161191e906135ba565b60405180910390fd5b6000611931611391565b905061195181878761194288611deb565b61194b88611deb565b87611b39565b600080600086815260200190815260200160002060008873ffffffffffffffffffffffffffffffffffffffff1673ffffffffffffffffffffffffffffffffffffffff168152602001908152602001600020549050838110156119e8576040517f08c379a00000000000000000000000000000000000000000000000000000000081526004016119df9061364c565b60405180910390fd5b83810360008087815260200190815260200160002060008973ffffffffffffffffffffffffffffffffffffffff1673ffffffffffffffffffffffffffffffffffffffff168152602001908152602001600020819055508360008087815260200190815260200160002060008873ffffffffffffffffffffffffffffffffffffffff1673ffffffffffffffffffffffffffffffffffffffff1681526020019081526020016000206000828254611a9d919061366c565b925050819055508573ffffffffffffffffffffffffffffffffffffffff168773ffffffffffffffffffffffffffffffffffffffff168373ffffffffffffffffffffffffffffffffffffffff167fc3d58168c5ae7397731d063d5bbf3d657854427343f4c083240f7aacaa2d0f628888604051611b1a9291906128fb565b60405180910390a4611b30828888888888611e65565b50505050505050565b505050505050565b611b608473ffffffffffffffffffffffffffffffffffffffff16611314565b15611d11578373ffffffffffffffffffffffffffffffffffffffff1663bc197c8187878686866040518663ffffffff1660e01b8152600401611ba69594939291906137e0565b6020604051808303816000875af1925050508015611be257506040513d601f19601f82011682018060405250810190611bdf919061385d565b60015b611c8857611bee613897565b806308c379a01415611c4b5750611c036138b9565b80611c0e5750611c4d565b806040517f08c379a0000000000000000000000000000000000000000000000000000000008152600401611c429190612373565b60405180910390fd5b505b6040517f08c379a0000000000000000000000000000000000000000000000000000000008152600401611c7f906139c1565b60405180910390fd5b63bc197c8160e01b7bffffffffffffffffffffffffffffffffffffffffffffffffffffffff1916817bffffffffffffffffffffffffffffffffffffffffffffffffffffffff191614611d0f576040517f08c379a0000000000000000000000000000000000000000000000000000000008152600401611d0690613a53565b60405180910390fd5b505b505050505050565b6000806008600084815260200190815260200160002060010160009054906101000a900473ffffffffffffffffffffffffffffffffffffffff16905060016008600085815260200190815260200160002060040160006101000a81548160ff0219169083151502179055508073ffffffffffffffffffffffffffffffffffffffff166108fc60086000868152602001908152602001600020600001549081150290604051600060405180830381858888f19350505050158015611de0573d6000803e3d6000fd5b506001915050919050565b60606000600167ffffffffffffffff811115611e0a57611e0961239a565b5b604051908082528060200260200182016040528015611e385781602001602082028036833780820191505090505b5090508281600081518110611e5057611e4f612f0d565b5b60200260200101818152505080915050919050565b611e848473ffffffffffffffffffffffffffffffffffffffff16611314565b15612035578373ffffffffffffffffffffffffffffffffffffffff1663f23a6e6187878686866040518663ffffffff1660e01b8152600401611eca959493929190613a73565b6020604051808303816000875af1925050508015611f0657506040513d601f19601f82011682018060405250810190611f03919061385d565b60015b611fac57611f12613897565b806308c379a01415611f6f5750611f276138b9565b80611f325750611f71565b806040517f08c379a0000000000000000000000000000000000000000000000000000000008152600401611f669190612373565b60405180910390fd5b505b6040517f08c379a0000000000000000000000000000000000000000000000000000000008152600401611fa3906139c1565b60405180910390fd5b63f23a6e6160e01b7bffffffffffffffffffffffffffffffffffffffffffffffffffffffff1916817bffffffffffffffffffffffffffffffffffffffffffffffffffffffff191614612033576040517f08c379a000000000000000000000000000000000000000000000000000000000815260040161202a90613a53565b60405180910390fd5b505b505050505050565b82805461204990612db7565b90600052602060002090601f01602090048101928261206b57600085556120b2565b82601f1061208457805160ff19168380011785556120b2565b828001600101855582156120b2579182015b828111156120b1578251825591602001919060010190612096565b5b5090506120bf91906120c3565b5090565b5b808211156120dc5760008160009055506001016120c4565b5090565b6000604051905090565b600080fd5b600080fd5b600073ffffffffffffffffffffffffffffffffffffffff82169050919050565b600061211f826120f4565b9050919050565b61212f81612114565b811461213a57600080fd5b50565b60008135905061214c81612126565b92915050565b6000819050919050565b61216581612152565b811461217057600080fd5b50565b6000813590506121828161215c565b92915050565b6000806040838503121561219f5761219e6120ea565b5b60006121ad8582860161213d565b92505060206121be85828601612173565b9150509250929050565b6121d181612152565b82525050565b60006020820190506121ec60008301846121c8565b92915050565b60007fffffffff0000000000000000000000000000000000000000000000000000000082169050919050565b612227816121f2565b811461223257600080fd5b50565b6000813590506122448161221e565b92915050565b6000602082840312156122605761225f6120ea565b5b600061226e84828501612235565b91505092915050565b60008115159050919050565b61228c81612277565b82525050565b60006020820190506122a76000830184612283565b92915050565b6000602082840312156122c3576122c26120ea565b5b60006122d184828501612173565b91505092915050565b600081519050919050565b600082825260208201905092915050565b60005b838110156123145780820151818401526020810190506122f9565b83811115612323576000848401525b50505050565b6000601f19601f8301169050919050565b6000612345826122da565b61234f81856122e5565b935061235f8185602086016122f6565b61236881612329565b840191505092915050565b6000602082019050818103600083015261238d818461233a565b905092915050565b600080fd5b7f4e487b7100000000000000000000000000000000000000000000000000000000600052604160045260246000fd5b6123d282612329565b810181811067ffffffffffffffff821117156123f1576123f061239a565b5b80604052505050565b60006124046120e0565b905061241082826123c9565b919050565b600067ffffffffffffffff8211156124305761242f61239a565b5b602082029050602081019050919050565b600080fd5b600061245961245484612415565b6123fa565b9050808382526020820190506020840283018581111561247c5761247b612441565b5b835b818110156124a557806124918882612173565b84526020840193505060208101905061247e565b5050509392505050565b600082601f8301126124c4576124c3612395565b5b81356124d4848260208601612446565b91505092915050565b600080fd5b600067ffffffffffffffff8211156124fd576124fc61239a565b5b61250682612329565b9050602081019050919050565b82818337600083830152505050565b6000612535612530846124e2565b6123fa565b905082815260208101848484011115612551576125506124dd565b5b61255c848285612513565b509392505050565b600082601f83011261257957612578612395565b5b8135612589848260208601612522565b91505092915050565b600080600080600060a086880312156125ae576125ad6120ea565b5b60006125bc8882890161213d565b95505060206125cd8882890161213d565b945050604086013567ffffffffffffffff8111156125ee576125ed6120ef565b5b6125fa888289016124af565b935050606086013567ffffffffffffffff81111561261b5761261a6120ef565b5b612627888289016124af565b925050608086013567ffffffffffffffff811115612648576126476120ef565b5b61265488828901612564565b9150509295509295909350565b600067ffffffffffffffff82111561267c5761267b61239a565b5b602082029050602081019050919050565b60006126a061269b84612661565b6123fa565b905080838252602082019050602084028301858111156126c3576126c2612441565b5b835b818110156126ec57806126d8888261213d565b8452602084019350506020810190506126c5565b5050509392505050565b600082601f83011261270b5761270a612395565b5b813561271b84826020860161268d565b91505092915050565b6000806040838503121561273b5761273a6120ea565b5b600083013567ffffffffffffffff811115612759576127586120ef565b5b612765858286016126f6565b925050602083013567ffffffffffffffff811115612786576127856120ef565b5b612792858286016124af565b9150509250929050565b600081519050919050565b600082825260208201905092915050565b6000819050602082019050919050565b6127d181612152565b82525050565b60006127e383836127c8565b60208301905092915050565b6000602082019050919050565b60006128078261279c565b61281181856127a7565b935061281c836127b8565b8060005b8381101561284d57815161283488826127d7565b975061283f836127ef565b925050600181019050612820565b5085935050505092915050565b6000602082019050818103600083015261287481846127fc565b905092915050565b61288581612277565b811461289057600080fd5b50565b6000813590506128a28161287c565b92915050565b6000806000606084860312156128c1576128c06120ea565b5b60006128cf86828701612173565b93505060206128e086828701612893565b92505060406128f186828701612173565b9150509250925092565b600060408201905061291060008301856121c8565b61291d60208301846121c8565b9392505050565b600067ffffffffffffffff82111561293f5761293e61239a565b5b61294882612329565b9050602081019050919050565b600061296861296384612924565b6123fa565b905082815260208101848484011115612984576129836124dd565b5b61298f848285612513565b509392505050565b600082601f8301126129ac576129ab612395565b5b81356129bc848260208601612955565b91505092915050565b600080600080608085870312156129df576129de6120ea565b5b60006129ed87828801612173565b94505060206129fe8782880161213d565b935050604085013567ffffffffffffffff811115612a1f57612a1e6120ef565b5b612a2b87828801612997565b925050606085013567ffffffffffffffff811115612a4c57612a4b6120ef565b5b612a5887828801612997565b91505092959194509250565b612a6d81612114565b82525050565b600060c082019050612a8860008301896121c8565b612a956020830188612a64565b8181036040830152612aa7818761233a565b90508181036060830152612abb818661233a565b9050612aca6080830185612283565b612ad760a08301846121c8565b979650505050505050565b60008060408385031215612af957612af86120ea565b5b600083013567ffffffffffffffff811115612b1757612b166120ef565b5b612b2385828601612997565b925050602083013567ffffffffffffffff811115612b4457612b436120ef565b5b612b5085828601612997565b9150509250929050565b6000604082019050612b6f60008301856121c8565b612b7c6020830184612283565b9392505050565b60008060408385031215612b9a57612b996120ea565b5b6000612ba88582860161213d565b9250506020612bb985828601612893565b9150509250929050565b60008060408385031215612bda57612bd96120ea565b5b6000612be88582860161213d565b9250506020612bf98582860161213d565b9150509250929050565b600080600080600060a08688031215612c1f57612c1e6120ea565b5b6000612c2d8882890161213d565b9550506020612c3e8882890161213d565b9450506040612c4f88828901612173565b9350506060612c6088828901612173565b925050608086013567ffffffffffffffff811115612c8157612c806120ef565b5b612c8d88828901612564565b9150509295509295909350565b60008060408385031215612cb157612cb06120ea565b5b6000612cbf85828601612173565b925050602083013567ffffffffffffffff811115612ce057612cdf6120ef565b5b612cec85828601612997565b9150509250929050565b7f455243313135353a2062616c616e636520717565727920666f7220746865207a60008201527f65726f2061646472657373000000000000000000000000000000000000000000602082015250565b6000612d52602b836122e5565b9150612d5d82612cf6565b604082019050919050565b60006020820190508181036000830152612d8181612d45565b9050919050565b7f4e487b7100000000000000000000000000000000000000000000000000000000600052602260045260246000fd5b60006002820490506001821680612dcf57607f821691505b60208210811415612de357612de2612d88565b5b50919050565b7f455243313135353a207472616e736665722063616c6c6572206973206e6f742060008201527f6f776e6572206e6f7220617070726f7665640000000000000000000000000000602082015250565b6000612e456032836122e5565b9150612e5082612de9565b604082019050919050565b60006020820190508181036000830152612e7481612e38565b9050919050565b7f455243313135353a206163636f756e747320616e6420696473206c656e67746860008201527f206d69736d617463680000000000000000000000000000000000000000000000602082015250565b6000612ed76029836122e5565b9150612ee282612e7b565b604082019050919050565b60006020820190508181036000830152612f0681612eca565b9050919050565b7f4e487b7100000000000000000000000000000000000000000000000000000000600052603260045260246000fd5b7f4e487b7100000000000000000000000000000000000000000000000000000000600052601160045260246000fd5b6000612f7682612152565b91507fffffffffffffffffffffffffffffffffffffffffffffffffffffffffffffffff821415612fa957612fa8612f3c565b5b600182019050919050565b7f596f75206d75737420686f6c642061204b657920746f2061636365737320746860008201527f69732066756e6374696f6e000000000000000000000000000000000000000000602082015250565b6000613010602b836122e5565b915061301b82612fb4565b604082019050919050565b6000602082019050818103600083015261303f81613003565b9050919050565b7f436f6e7472616374205472616e73616374696f6e20436f6d706c657465642e2e60008201527f2e6e6f2066757468657220636f6e6672696d6174696f6e20766f74657320636160208201527f6e20626520636173740000000000000000000000000000000000000000000000604082015250565b60006130c86049836122e5565b91506130d382613046565b606082019050919050565b600060208201905081810360008301526130f7816130bb565b9050919050565b6000819050919050565b61311961311482612152565b6130fe565b82525050565b600081905092915050565b7f2d00000000000000000000000000000000000000000000000000000000000000600082015250565b600061316060018361311f565b915061316b8261312a565b600182019050919050565b60006131828285613108565b60208201915061319182613153565b915061319d8284613108565b6020820191508190509392505050565b60006131b8826122da565b6131c2818561311f565b93506131d28185602086016122f6565b80840191505092915050565b60006131ea82846131ad565b915081905092915050565b7f766f746520686173206265656e206361737420616c7265616479000000000000600082015250565b600061322b601a836122e5565b9150613236826131f5565b602082019050919050565b6000602082019050818103600083015261325a8161321e565b9050919050565b7f205f7472616e73616374696f6e4e756d622063616e742065786365656420746860008201527f6520746f74616c5472616e73616374696f6e7300000000000000000000000000602082015250565b60006132bd6033836122e5565b91506132c882613261565b604082019050919050565b600060208201905081810360008301526132ec816132b0565b9050919050565b60006132ff82856131ad565b915061330a82613153565b915061331682846131ad565b91508190509392505050565b7f455243313135353a2063616c6c6572206973206e6f74206f776e6572206e6f7260008201527f20617070726f7665640000000000000000000000000000000000000000000000602082015250565b600061337e6029836122e5565b915061338982613322565b604082019050919050565b600060208201905081810360008301526133ad81613371565b9050919050565b7f5472616e73616374696f6e20616c726561647920636f6e6669726d6564000000600082015250565b60006133ea601d836122e5565b91506133f5826133b4565b602082019050919050565b60006020820190508181036000830152613419816133dd565b9050919050565b7f796f7520686176656e7420636173746564206120766f74650000000000000000600082015250565b60006134566018836122e5565b915061346182613420565b602082019050919050565b6000602082019050818103600083015261348581613449565b9050919050565b600061349782612152565b915060008214156134ab576134aa612f3c565b5b600182039050919050565b7f455243313135353a2069647320616e6420616d6f756e7473206c656e6774682060008201527f6d69736d61746368000000000000000000000000000000000000000000000000602082015250565b60006135126028836122e5565b915061351d826134b6565b604082019050919050565b6000602082019050818103600083015261354181613505565b9050919050565b7f455243313135353a207472616e7366657220746f20746865207a65726f20616460008201527f6472657373000000000000000000000000000000000000000000000000000000602082015250565b60006135a46025836122e5565b91506135af82613548565b604082019050919050565b600060208201905081810360008301526135d381613597565b9050919050565b7f455243313135353a20696e73756666696369656e742062616c616e636520666f60008201527f72207472616e7366657200000000000000000000000000000000000000000000602082015250565b6000613636602a836122e5565b9150613641826135da565b604082019050919050565b6000602082019050818103600083015261366581613629565b9050919050565b600061367782612152565b915061368283612152565b9250827fffffffffffffffffffffffffffffffffffffffffffffffffffffffffffffffff038211156136b7576136b6612f3c565b5b828201905092915050565b600060408201905081810360008301526136dc81856127fc565b905081810360208301526136f081846127fc565b90509392505050565b7f455243313135353a2073657474696e6720617070726f76616c2073746174757360008201527f20666f722073656c660000000000000000000000000000000000000000000000602082015250565b60006137556029836122e5565b9150613760826136f9565b604082019050919050565b6000602082019050818103600083015261378481613748565b9050919050565b600081519050919050565b600082825260208201905092915050565b60006137b28261378b565b6137bc8185613796565b93506137cc8185602086016122f6565b6137d581612329565b840191505092915050565b600060a0820190506137f56000830188612a64565b6138026020830187612a64565b818103604083015261381481866127fc565b9050818103606083015261382881856127fc565b9050818103608083015261383c81846137a7565b90509695505050505050565b6000815190506138578161221e565b92915050565b600060208284031215613873576138726120ea565b5b600061388184828501613848565b91505092915050565b60008160e01c9050919050565b600060033d11156138b65760046000803e6138b360005161388a565b90505b90565b600060443d10156138c95761394c565b6138d16120e0565b60043d036004823e80513d602482011167ffffffffffffffff821117156138f957505061394c565b808201805167ffffffffffffffff811115613917575050505061394c565b80602083010160043d03850181111561393457505050505061394c565b613943826020018501866123c9565b82955050505050505b90565b7f455243313135353a207472616e7366657220746f206e6f6e204552433131353560008201527f526563656976657220696d706c656d656e746572000000000000000000000000602082015250565b60006139ab6034836122e5565b91506139b68261394f565b604082019050919050565b600060208201905081810360008301526139da8161399e565b9050919050565b7f455243313135353a204552433131353552656365697665722072656a6563746560008201527f6420746f6b656e73000000000000000000000000000000000000000000000000602082015250565b6000613a3d6028836122e5565b9150613a48826139e1565b604082019050919050565b60006020820190508181036000830152613a6c81613a30565b9050919050565b600060a082019050613a886000830188612a64565b613a956020830187612a64565b613aa260408301866121c8565b613aaf60608301856121c8565b8181036080830152613ac181846137a7565b9050969550505050505056fea26469706673582212204e88b651844cdc9ed9bf1cf8ea49ff2aadecd240bb010251f7077bde8f13e82b64736f6c634300080a0033",
  "immutableReferences": {},
  "source": "pragma solidity ^0.8.10;\n// SPDX-License-Identifier: MIT\nimport \"@openzeppelin/contracts/token/ERC1155/ERC1155.sol\";\ninterface MultiSigTreasury_interface{\n    function checkVote(string memory _keyNumb, string memory _transNumb) external returns(uint,bool);\n    function viewTransaction(uint _transactionNumb) external returns(uint,address,string memory,string memory,bool,uint);\n    function submitTransaction(uint _ammount, address _toAddress,string memory _topic,string memory _messege) external returns(bool);\n    function confirmTransaction(uint _TransactionNumber, bool _vote,uint _keyNumb) external returns(uint,uint);\n    function revokeConfirmation(uint _TransactionNumber,string memory _castVote) external  returns(bool);\n}\n\ncontract MultiSigTreasury is ERC1155{\n    uint KEYS =0;\n    uint public TotalTransactions=0;\n    uint public VotesNeededToPass;\n\n    //mappings of structs\n    mapping(uint => KeyListings) keys;\n    mapping(string => VoteOnTransaction) vote;\n    mapping(uint => MultiSigTransaction) MSTrans;\n    \n    //list Keys\n    struct KeyListings{\n        uint count;\n        bool exist;\n    }\n    //cast vote for transaction\n    struct VoteOnTransaction{\n        uint Key;\n        bool status;\n        bool exist;\n    }\n    //transaction request\n    struct MultiSigTransaction{\n        uint amount;\n        address toAddress;\n        string topic;\n        string messege;\n        bool status;\n        uint pass;\n        uint fail;\n        uint voteCount;\n        bool exist;\n    }\n    //Launch Contract and Keys\n    constructor(uint _totalKeys, uint _VotesNeededToPass,string memory URI)ERC1155(URI){\n        require(_VotesNeededToPass <= _totalKeys, \"you cant have more votes needed than keys created\");\n        KEYS =_totalKeys;\n        VotesNeededToPass = _VotesNeededToPass;\n        uint countKeys;\n        for(countKeys=0; countKeys < _totalKeys; countKeys++){\n            keys[countKeys] = KeyListings(countKeys,true);\n            _mint(msg.sender, countKeys, 1, \"\");\n        }\n    }\n    //modifier checks to see if user has a key before executing the function\n    modifier CheckKeys{\n        (bool keyStatus,uint keyNumb) = checkTokens(msg.sender);\n        require(keyStatus == true, \"You must hold a Key to access this function\");\n        _;\n    }\n    //internal function checks to see if user has key\n    function checkTokens(address _user) internal returns(bool,uint){\n        uint i;\n        for(i=0; i <= KEYS; i++){\n            if(balanceOf(_user,i) > 0){\n                return (true,i);\n            } else if(i == KEYS){\n                return (false,i);\n            }\n        }       \n    }\n    //check vote summition total\n    function checkTotal(uint _TransactionNumber) internal returns(bool){\n        //set up voting count\n        if(MSTrans[_TransactionNumber].pass >= VotesNeededToPass){\n            executeTransaction(_TransactionNumber);\n            return true;\n        } else {\n            return false;\n        }\n    }\n    //checks the voting status of a particular vote on a transactions\n    function checkVote(string memory _keyNumb, string memory _transNumb) public CheckKeys returns(uint,bool){\n        string memory checkStatus;\n        checkStatus = string(abi.encodePacked(_transNumb,\"-\",_keyNumb));\n        return (vote[checkStatus].Key,vote[checkStatus].status);\n    }\n    //view previouse & pending transactions\n    function viewTransaction(uint _transactionNumb) public CheckKeys returns(uint,address,string memory,string memory,bool,uint){\n        require(_transactionNumb <= TotalTransactions, \" _transactionNumb cant exceed the totalTransactions\");\n        return (MSTrans[_transactionNumb].amount ,MSTrans[_transactionNumb].toAddress ,MSTrans[_transactionNumb].topic ,MSTrans[_transactionNumb].messege,MSTrans[_transactionNumb].status ,MSTrans[_transactionNumb].pass);\n    }\n    //make a submittion to move funds to the contract\n    function submitTransaction(uint _ammount, address _toAddress,string memory _topic,string memory _messege) public CheckKeys returns(bool){\n        MSTrans[TotalTransactions] = MultiSigTransaction(_ammount,_toAddress,_topic,_messege,false,0,0,0,true);\n        TotalTransactions++;\n        return true;\n    }\n    //key holders can cast votes as a key for a transaction\n    function confirmTransaction(uint _TransactionNumber, bool _vote,uint _keyNumb) public CheckKeys returns(uint,uint){\n        require(MSTrans[_TransactionNumber].status == false, \"Contract Transaction Completed...no futher confrimation votes can be cast\");\n        string memory castVote;\n        castVote = string(abi.encodePacked(_TransactionNumber,\"-\",_keyNumb));\n        \n        require(vote[castVote].exist == false, \"vote has been cast already\");\n        \n        vote[castVote] = VoteOnTransaction(_keyNumb,_vote,true);\n        \n        if(_vote== true){\n            MSTrans[_TransactionNumber].pass++;\n        }else{\n            MSTrans[_TransactionNumber].fail++;\n        }\n        checkTotal(_TransactionNumber);\n        return (MSTrans[_TransactionNumber].pass,MSTrans[_TransactionNumber].fail);\n    }\n    //Executes payment ticket after parties have voted on it\n    function executeTransaction(uint _TransactionNumber) internal returns(bool){\n        address _address = MSTrans[_TransactionNumber].toAddress;\n        MSTrans[_TransactionNumber].status = true;\n        payable(_address).transfer(MSTrans[_TransactionNumber].amount);\n        return true;\n    }\n    //remove vote if transaction hasent been confirmed yet\n    function revokeConfirmation(uint _TransactionNumber,string memory _castVote) public CheckKeys returns(bool){\n        require(MSTrans[_TransactionNumber].status ==false && MSTrans[_TransactionNumber].exist == true ,\"Transaction already confirmed\");\n        require(vote[_castVote].exist == true, \"you havent casted a vote\");\n        //remove vote\n        if(vote[_castVote].status == true){\n            MSTrans[_TransactionNumber].pass--;\n            vote[_castVote].exist == false;\n        }else{\n            MSTrans[_TransactionNumber].fail--;\n            vote[_castVote].exist == false;\n        }        \n    }\n}",
  "sourcePath": "/Users/Q/Documents/GitHub/Multi-Sig-Treasury/contracts/Multi-Sig-Key.sol",
  "compiler": {
    "name": "solc",
    "version": "0.8.10+commit.fc410830.Emscripten.clang"
  },
  "schemaVersion": "3.4.3",
  "updatedAt": "2022-05-31T17:39:09.942Z",
  "devdoc": {
    "kind": "dev",
    "methods": {
      "balanceOf(address,uint256)": {
        "details": "See {IERC1155-balanceOf}. Requirements: - `account` cannot be the zero address."
      },
      "balanceOfBatch(address[],uint256[])": {
        "details": "See {IERC1155-balanceOfBatch}. Requirements: - `accounts` and `ids` must have the same length."
      },
      "isApprovedForAll(address,address)": {
        "details": "See {IERC1155-isApprovedForAll}."
      },
      "safeBatchTransferFrom(address,address,uint256[],uint256[],bytes)": {
        "details": "See {IERC1155-safeBatchTransferFrom}."
      },
      "safeTransferFrom(address,address,uint256,uint256,bytes)": {
        "details": "See {IERC1155-safeTransferFrom}."
      },
      "setApprovalForAll(address,bool)": {
        "details": "See {IERC1155-setApprovalForAll}."
      },
      "supportsInterface(bytes4)": {
        "details": "See {IERC165-supportsInterface}."
      },
      "uri(uint256)": {
        "details": "See {IERC1155MetadataURI-uri}. This implementation returns the same URI for *all* token types. It relies on the token type ID substitution mechanism https://eips.ethereum.org/EIPS/eip-1155#metadata[defined in the EIP]. Clients calling this function must replace the `\\{id\\}` substring with the actual token type ID."
      }
    },
    "version": 1
  },
  "userdoc": {
    "kind": "user",
    "methods": {},
    "version": 1
  }
}